{
	"contracts/MAZZE.sol": {
		"MAZZE": {
			"abi": [
				{
					"inputs": [],
					"stateMutability": "nonpayable",
					"type": "constructor"
				},
				{
					"inputs": [],
					"name": "ECDSAInvalidSignature",
					"type": "error"
				},
				{
					"inputs": [
						{
							"internalType": "uint256",
							"name": "length",
							"type": "uint256"
						}
					],
					"name": "ECDSAInvalidSignatureLength",
					"type": "error"
				},
				{
					"inputs": [
						{
							"internalType": "bytes32",
							"name": "s",
							"type": "bytes32"
						}
					],
					"name": "ECDSAInvalidSignatureS",
					"type": "error"
				},
				{
					"inputs": [
						{
							"internalType": "address",
							"name": "spender",
							"type": "address"
						},
						{
							"internalType": "uint256",
							"name": "allowance",
							"type": "uint256"
						},
						{
							"internalType": "uint256",
							"name": "needed",
							"type": "uint256"
						}
					],
					"name": "ERC20InsufficientAllowance",
					"type": "error"
				},
				{
					"inputs": [
						{
							"internalType": "address",
							"name": "sender",
							"type": "address"
						},
						{
							"internalType": "uint256",
							"name": "balance",
							"type": "uint256"
						},
						{
							"internalType": "uint256",
							"name": "needed",
							"type": "uint256"
						}
					],
					"name": "ERC20InsufficientBalance",
					"type": "error"
				},
				{
					"inputs": [
						{
							"internalType": "address",
							"name": "approver",
							"type": "address"
						}
					],
					"name": "ERC20InvalidApprover",
					"type": "error"
				},
				{
					"inputs": [
						{
							"internalType": "address",
							"name": "receiver",
							"type": "address"
						}
					],
					"name": "ERC20InvalidReceiver",
					"type": "error"
				},
				{
					"inputs": [
						{
							"internalType": "address",
							"name": "sender",
							"type": "address"
						}
					],
					"name": "ERC20InvalidSender",
					"type": "error"
				},
				{
					"inputs": [
						{
							"internalType": "address",
							"name": "spender",
							"type": "address"
						}
					],
					"name": "ERC20InvalidSpender",
					"type": "error"
				},
				{
					"inputs": [
						{
							"internalType": "uint256",
							"name": "deadline",
							"type": "uint256"
						}
					],
					"name": "ERC2612ExpiredSignature",
					"type": "error"
				},
				{
					"inputs": [
						{
							"internalType": "address",
							"name": "signer",
							"type": "address"
						},
						{
							"internalType": "address",
							"name": "owner",
							"type": "address"
						}
					],
					"name": "ERC2612InvalidSigner",
					"type": "error"
				},
				{
					"inputs": [
						{
							"internalType": "address",
							"name": "account",
							"type": "address"
						},
						{
							"internalType": "uint256",
							"name": "currentNonce",
							"type": "uint256"
						}
					],
					"name": "InvalidAccountNonce",
					"type": "error"
				},
				{
					"inputs": [],
					"name": "InvalidShortString",
					"type": "error"
				},
				{
					"inputs": [
						{
							"internalType": "string",
							"name": "str",
							"type": "string"
						}
					],
					"name": "StringTooLong",
					"type": "error"
				},
				{
					"anonymous": false,
					"inputs": [
						{
							"indexed": true,
							"internalType": "address",
							"name": "owner",
							"type": "address"
						},
						{
							"indexed": true,
							"internalType": "address",
							"name": "spender",
							"type": "address"
						},
						{
							"indexed": false,
							"internalType": "uint256",
							"name": "value",
							"type": "uint256"
						}
					],
					"name": "Approval",
					"type": "event"
				},
				{
					"anonymous": false,
					"inputs": [],
					"name": "EIP712DomainChanged",
					"type": "event"
				},
				{
					"anonymous": false,
					"inputs": [
						{
							"indexed": true,
							"internalType": "address",
							"name": "from",
							"type": "address"
						},
						{
							"indexed": true,
							"internalType": "address",
							"name": "to",
							"type": "address"
						},
						{
							"indexed": false,
							"internalType": "uint256",
							"name": "value",
							"type": "uint256"
						}
					],
					"name": "Transfer",
					"type": "event"
				},
				{
					"inputs": [],
					"name": "DOMAIN_SEPARATOR",
					"outputs": [
						{
							"internalType": "bytes32",
							"name": "",
							"type": "bytes32"
						}
					],
					"stateMutability": "view",
					"type": "function"
				},
				{
					"inputs": [
						{
							"internalType": "address",
							"name": "owner",
							"type": "address"
						},
						{
							"internalType": "address",
							"name": "spender",
							"type": "address"
						}
					],
					"name": "allowance",
					"outputs": [
						{
							"internalType": "uint256",
							"name": "",
							"type": "uint256"
						}
					],
					"stateMutability": "view",
					"type": "function"
				},
				{
					"inputs": [
						{
							"internalType": "address",
							"name": "spender",
							"type": "address"
						},
						{
							"internalType": "uint256",
							"name": "value",
							"type": "uint256"
						}
					],
					"name": "approve",
					"outputs": [
						{
							"internalType": "bool",
							"name": "",
							"type": "bool"
						}
					],
					"stateMutability": "nonpayable",
					"type": "function"
				},
				{
					"inputs": [
						{
							"internalType": "address",
							"name": "account",
							"type": "address"
						}
					],
					"name": "balanceOf",
					"outputs": [
						{
							"internalType": "uint256",
							"name": "",
							"type": "uint256"
						}
					],
					"stateMutability": "view",
					"type": "function"
				},
				{
					"inputs": [
						{
							"internalType": "uint256",
							"name": "value",
							"type": "uint256"
						}
					],
					"name": "burn",
					"outputs": [],
					"stateMutability": "nonpayable",
					"type": "function"
				},
				{
					"inputs": [],
					"name": "decimals",
					"outputs": [
						{
							"internalType": "uint8",
							"name": "",
							"type": "uint8"
						}
					],
					"stateMutability": "view",
					"type": "function"
				},
				{
					"inputs": [],
					"name": "eip712Domain",
					"outputs": [
						{
							"internalType": "bytes1",
							"name": "fields",
							"type": "bytes1"
						},
						{
							"internalType": "string",
							"name": "name",
							"type": "string"
						},
						{
							"internalType": "string",
							"name": "version",
							"type": "string"
						},
						{
							"internalType": "uint256",
							"name": "chainId",
							"type": "uint256"
						},
						{
							"internalType": "address",
							"name": "verifyingContract",
							"type": "address"
						},
						{
							"internalType": "bytes32",
							"name": "salt",
							"type": "bytes32"
						},
						{
							"internalType": "uint256[]",
							"name": "extensions",
							"type": "uint256[]"
						}
					],
					"stateMutability": "view",
					"type": "function"
				},
				{
					"inputs": [],
					"name": "name",
					"outputs": [
						{
							"internalType": "string",
							"name": "",
							"type": "string"
						}
					],
					"stateMutability": "view",
					"type": "function"
				},
				{
					"inputs": [
						{
							"internalType": "address",
							"name": "owner",
							"type": "address"
						}
					],
					"name": "nonces",
					"outputs": [
						{
							"internalType": "uint256",
							"name": "",
							"type": "uint256"
						}
					],
					"stateMutability": "view",
					"type": "function"
				},
				{
					"inputs": [
						{
							"internalType": "address",
							"name": "owner",
							"type": "address"
						},
						{
							"internalType": "address",
							"name": "spender",
							"type": "address"
						},
						{
							"internalType": "uint256",
							"name": "value",
							"type": "uint256"
						},
						{
							"internalType": "uint256",
							"name": "deadline",
							"type": "uint256"
						},
						{
							"internalType": "uint8",
							"name": "v",
							"type": "uint8"
						},
						{
							"internalType": "bytes32",
							"name": "r",
							"type": "bytes32"
						},
						{
							"internalType": "bytes32",
							"name": "s",
							"type": "bytes32"
						}
					],
					"name": "permit",
					"outputs": [],
					"stateMutability": "nonpayable",
					"type": "function"
				},
				{
					"inputs": [],
					"name": "symbol",
					"outputs": [
						{
							"internalType": "string",
							"name": "",
							"type": "string"
						}
					],
					"stateMutability": "view",
					"type": "function"
				},
				{
					"inputs": [],
					"name": "totalSupply",
					"outputs": [
						{
							"internalType": "uint256",
							"name": "",
							"type": "uint256"
						}
					],
					"stateMutability": "view",
					"type": "function"
				},
				{
					"inputs": [
						{
							"internalType": "address",
							"name": "to",
							"type": "address"
						},
						{
							"internalType": "uint256",
							"name": "value",
							"type": "uint256"
						}
					],
					"name": "transfer",
					"outputs": [
						{
							"internalType": "bool",
							"name": "",
							"type": "bool"
						}
					],
					"stateMutability": "nonpayable",
					"type": "function"
				},
				{
					"inputs": [
						{
							"internalType": "address",
							"name": "from",
							"type": "address"
						},
						{
							"internalType": "address",
							"name": "to",
							"type": "address"
						},
						{
							"internalType": "uint256",
							"name": "value",
							"type": "uint256"
						}
					],
					"name": "transferFrom",
					"outputs": [
						{
							"internalType": "bool",
							"name": "",
							"type": "bool"
						}
					],
					"stateMutability": "nonpayable",
					"type": "function"
				}
			],
			"devdoc": {
				"errors": {
					"ECDSAInvalidSignature()": [
						{
							"details": "The signature derives the `address(0)`."
						}
					],
					"ECDSAInvalidSignatureLength(uint256)": [
						{
							"details": "The signature has an invalid length."
						}
					],
					"ECDSAInvalidSignatureS(bytes32)": [
						{
							"details": "The signature has an S value that is in the upper half order."
						}
					],
					"ERC20InsufficientAllowance(address,uint256,uint256)": [
						{
							"details": "Indicates a failure with the `spender`’s `allowance`. Used in transfers.",
							"params": {
								"allowance": "Amount of tokens a `spender` is allowed to operate with.",
								"needed": "Minimum amount required to perform a transfer.",
								"spender": "Address that may be allowed to operate on tokens without being their owner."
							}
						}
					],
					"ERC20InsufficientBalance(address,uint256,uint256)": [
						{
							"details": "Indicates an error related to the current `balance` of a `sender`. Used in transfers.",
							"params": {
								"balance": "Current balance for the interacting account.",
								"needed": "Minimum amount required to perform a transfer.",
								"sender": "Address whose tokens are being transferred."
							}
						}
					],
					"ERC20InvalidApprover(address)": [
						{
							"details": "Indicates a failure with the `approver` of a token to be approved. Used in approvals.",
							"params": {
								"approver": "Address initiating an approval operation."
							}
						}
					],
					"ERC20InvalidReceiver(address)": [
						{
							"details": "Indicates a failure with the token `receiver`. Used in transfers.",
							"params": {
								"receiver": "Address to which tokens are being transferred."
							}
						}
					],
					"ERC20InvalidSender(address)": [
						{
							"details": "Indicates a failure with the token `sender`. Used in transfers.",
							"params": {
								"sender": "Address whose tokens are being transferred."
							}
						}
					],
					"ERC20InvalidSpender(address)": [
						{
							"details": "Indicates a failure with the `spender` to be approved. Used in approvals.",
							"params": {
								"spender": "Address that may be allowed to operate on tokens without being their owner."
							}
						}
					],
					"ERC2612ExpiredSignature(uint256)": [
						{
							"details": "Permit deadline has expired."
						}
					],
					"ERC2612InvalidSigner(address,address)": [
						{
							"details": "Mismatched signature."
						}
					],
					"InvalidAccountNonce(address,uint256)": [
						{
							"details": "The nonce used for an `account` is not the expected current nonce."
						}
					]
				},
				"events": {
					"Approval(address,address,uint256)": {
						"details": "Emitted when the allowance of a `spender` for an `owner` is set by a call to {approve}. `value` is the new allowance."
					},
					"EIP712DomainChanged()": {
						"details": "MAY be emitted to signal that the domain could have changed."
					},
					"Transfer(address,address,uint256)": {
						"details": "Emitted when `value` tokens are moved from one account (`from`) to another (`to`). Note that `value` may be zero."
					}
				},
				"kind": "dev",
				"methods": {
					"DOMAIN_SEPARATOR()": {
						"details": "Returns the domain separator used in the encoding of the signature for {permit}, as defined by {EIP712}."
					},
					"allowance(address,address)": {
						"details": "See {IERC20-allowance}."
					},
					"approve(address,uint256)": {
						"details": "See {IERC20-approve}. NOTE: If `value` is the maximum `uint256`, the allowance is not updated on `transferFrom`. This is semantically equivalent to an infinite approval. Requirements: - `spender` cannot be the zero address."
					},
					"balanceOf(address)": {
						"details": "See {IERC20-balanceOf}."
					},
					"burn(uint256)": {
						"details": "Destroys a `value` amount of tokens from the caller. See {ERC20-_burn}."
					},
					"decimals()": {
						"details": "Returns the number of decimals used to get its user representation. For example, if `decimals` equals `2`, a balance of `505` tokens should be displayed to a user as `5.05` (`505 / 10 ** 2`). Tokens usually opt for a value of 18, imitating the relationship between Ether and Wei. This is the default value returned by this function, unless it's overridden. NOTE: This information is only used for _display_ purposes: it in no way affects any of the arithmetic of the contract, including {IERC20-balanceOf} and {IERC20-transfer}."
					},
					"eip712Domain()": {
						"details": "See {IERC-5267}."
					},
					"name()": {
						"details": "Returns the name of the token."
					},
					"nonces(address)": {
						"details": "Returns the current nonce for `owner`. This value must be included whenever a signature is generated for {permit}. Every successful call to {permit} increases ``owner``'s nonce by one. This prevents a signature from being used multiple times."
					},
					"permit(address,address,uint256,uint256,uint8,bytes32,bytes32)": {
						"details": "Sets `value` as the allowance of `spender` over ``owner``'s tokens, given ``owner``'s signed approval. IMPORTANT: The same issues {IERC20-approve} has related to transaction ordering also apply here. Emits an {Approval} event. Requirements: - `spender` cannot be the zero address. - `deadline` must be a timestamp in the future. - `v`, `r` and `s` must be a valid `secp256k1` signature from `owner` over the EIP712-formatted function arguments. - the signature must use ``owner``'s current nonce (see {nonces}). For more information on the signature format, see the https://eips.ethereum.org/EIPS/eip-2612#specification[relevant EIP section]. CAUTION: See Security Considerations above."
					},
					"symbol()": {
						"details": "Returns the symbol of the token, usually a shorter version of the name."
					},
					"totalSupply()": {
						"details": "See {IERC20-totalSupply}."
					},
					"transfer(address,uint256)": {
						"details": "See {IERC20-transfer}. Requirements: - `to` cannot be the zero address. - the caller must have a balance of at least `value`."
					},
					"transferFrom(address,address,uint256)": {
						"details": "See {IERC20-transferFrom}. Emits an {Approval} event indicating the updated allowance. This is not required by the EIP. See the note at the beginning of {ERC20}. NOTE: Does not update the allowance if the current allowance is the maximum `uint256`. Requirements: - `from` and `to` cannot be the zero address. - `from` must have a balance of at least `value`. - the caller must have allowance for ``from``'s tokens of at least `value`."
					}
				},
				"version": 1
			},
			"evm": {
				"assembly": "    /* \"contracts/MAZZE.sol\":263:2682  contract MAZZE is ERC20, ERC20Burnable, ERC20Permit {... */\n  mstore(0x40, 0x0160)\n    /* \"contracts/MAZZE.sol\":561:584  5000000000 * (10 ** 18) */\n  0x1027e72f1f12813088000000\n    /* \"contracts/MAZZE.sol\":530:584  uint256 private _totalSupply = 5000000000 * (10 ** 18) */\n  0x08\n  sstore\n    /* \"contracts/MAZZE.sol\":859:862  100 */\n  0x64\n    /* \"contracts/MAZZE.sol\":854:856  20 */\n  0x14\n    /* \"contracts/MAZZE.sol\":839:851  _totalSupply */\n  sload(0x08)\n    /* \"contracts/MAZZE.sol\":839:856  _totalSupply * 20 */\n  tag_1\n  swap2\n  swap1\n  tag_2\n  jump\t// in\ntag_1:\n    /* \"contracts/MAZZE.sol\":839:862  _totalSupply * 20 / 100 */\n  tag_3\n  swap2\n  swap1\n  tag_4\n  jump\t// in\ntag_3:\n    /* \"contracts/MAZZE.sol\":799:862  uint256 private _ecosystemDevelopment = _totalSupply * 20 / 100 */\n  0x09\n  sstore\n    /* \"contracts/MAZZE.sol\":1161:1164  100 */\n  0x64\n    /* \"contracts/MAZZE.sol\":1156:1158  12 */\n  0x0c\n    /* \"contracts/MAZZE.sol\":1141:1153  _totalSupply */\n  sload(0x08)\n    /* \"contracts/MAZZE.sol\":1141:1158  _totalSupply * 12 */\n  tag_5\n  swap2\n  swap1\n  tag_2\n  jump\t// in\ntag_5:\n    /* \"contracts/MAZZE.sol\":1141:1164  _totalSupply * 12 / 100 */\n  tag_6\n  swap2\n  swap1\n  tag_4\n  jump\t// in\ntag_6:\n    /* \"contracts/MAZZE.sol\":1111:1164  uint256 private _teamGrowth = _totalSupply * 12 / 100 */\n  0x0a\n  sstore\n    /* \"contracts/MAZZE.sol\":1456:1459  100 */\n  0x64\n    /* \"contracts/MAZZE.sol\":1452:1453  8 */\n  0x08\n    /* \"contracts/MAZZE.sol\":1437:1449  _totalSupply */\n  dup1\n  sload\n    /* \"contracts/MAZZE.sol\":1437:1453  _totalSupply * 8 */\n  tag_7\n  swap2\n  swap1\n  tag_2\n  jump\t// in\ntag_7:\n    /* \"contracts/MAZZE.sol\":1437:1459  _totalSupply * 8 / 100 */\n  tag_8\n  swap2\n  swap1\n  tag_4\n  jump\t// in\ntag_8:\n    /* \"contracts/MAZZE.sol\":1398:1459  uint256 private _communityEngagement = _totalSupply * 8 / 100 */\n  0x0b\n  sstore\n    /* \"contracts/MAZZE.sol\":1786:1789  100 */\n  0x64\n    /* \"contracts/MAZZE.sol\":1782:1783  8 */\n  0x08\n    /* \"contracts/MAZZE.sol\":1767:1779  _totalSupply */\n  dup1\n  sload\n    /* \"contracts/MAZZE.sol\":1767:1783  _totalSupply * 8 */\n  tag_9\n  swap2\n  swap1\n  tag_2\n  jump\t// in\ntag_9:\n    /* \"contracts/MAZZE.sol\":1767:1789  _totalSupply * 8 / 100 */\n  tag_10\n  swap2\n  swap1\n  tag_4\n  jump\t// in\ntag_10:\n    /* \"contracts/MAZZE.sol\":1729:1789  uint256 private _marketingPromotion = _totalSupply * 8 / 100 */\n  0x0c\n  sstore\n    /* \"contracts/MAZZE.sol\":2220:2241  _ecosystemDevelopment */\n  sload(0x09)\n    /* \"contracts/MAZZE.sol\":2198:2217  _marketingPromotion */\n  sload(0x0c)\n    /* \"contracts/MAZZE.sol\":2175:2195  _communityEngagement */\n  sload(0x0b)\n    /* \"contracts/MAZZE.sol\":2161:2172  _teamGrowth */\n  sload(0x0a)\n    /* \"contracts/MAZZE.sol\":2161:2195  _teamGrowth + _communityEngagement */\n  tag_11\n  swap2\n  swap1\n  tag_12\n  jump\t// in\ntag_11:\n    /* \"contracts/MAZZE.sol\":2161:2217  _teamGrowth + _communityEngagement + _marketingPromotion */\n  tag_13\n  swap2\n  swap1\n  tag_12\n  jump\t// in\ntag_13:\n    /* \"contracts/MAZZE.sol\":2161:2241  _teamGrowth + _communityEngagement + _marketingPromotion + _ecosystemDevelopment */\n  tag_14\n  swap2\n  swap1\n  tag_12\n  jump\t// in\ntag_14:\n    /* \"contracts/MAZZE.sol\":2145:2157  _totalSupply */\n  sload(0x08)\n    /* \"contracts/MAZZE.sol\":2145:2242  _totalSupply - (_teamGrowth + _communityEngagement + _marketingPromotion + _ecosystemDevelopment) */\n  tag_15\n  swap2\n  swap1\n  tag_16\n  jump\t// in\ntag_15:\n    /* \"contracts/MAZZE.sol\":2110:2242  uint256 private _remainingTokens = _totalSupply - (_teamGrowth + _communityEngagement + _marketingPromotion + _ecosystemDevelopment) */\n  0x0d\n  sstore\n    /* \"contracts/MAZZE.sol\":2254:2680  constructor() ERC20(\"MAZZE\", \"MAZZE\") ERC20Permit(\"MAZZE\") {... */\n  callvalue\n  dup1\n  iszero\n  tag_17\n  jumpi\n  0x00\n  dup1\n  revert\ntag_17:\n  pop\n    /* \"@openzeppelin/contracts/token/ERC20/extensions/ERC20Permit.sol\":1574:1626  constructor(string memory name) EIP712(name, \"1\") {} */\n  mload(0x40)\n  dup1\n  0x40\n  add\n  0x40\n  mstore\n  dup1\n  0x05\n  dup2\n  mstore\n  0x20\n  add\n  0x4d415a5a45000000000000000000000000000000000000000000000000000000\n  dup2\n  mstore\n  pop\n    /* \"@openzeppelin/contracts/token/ERC20/extensions/ERC20Permit.sol\":1613:1617  name */\n  dup1\n    /* \"@openzeppelin/contracts/utils/cryptography/EIP712.sol\":3328:3759  constructor(string memory name, string memory version) {... */\n  mload(0x40)\n  dup1\n  0x40\n  add\n  0x40\n  mstore\n  dup1\n  0x01\n  dup2\n  mstore\n  0x20\n  add\n  0x3100000000000000000000000000000000000000000000000000000000000000\n  dup2\n  mstore\n  pop\n    /* \"@openzeppelin/contracts/token/ERC20/ERC20.sol\":1896:2009  constructor(string memory name_, string memory symbol_) {... */\n  mload(0x40)\n  dup1\n  0x40\n  add\n  0x40\n  mstore\n  dup1\n  0x05\n  dup2\n  mstore\n  0x20\n  add\n  0x4d415a5a45000000000000000000000000000000000000000000000000000000\n  dup2\n  mstore\n  pop\n  mload(0x40)\n  dup1\n  0x40\n  add\n  0x40\n  mstore\n  dup1\n  0x05\n  dup2\n  mstore\n  0x20\n  add\n  0x4d415a5a45000000000000000000000000000000000000000000000000000000\n  dup2\n  mstore\n  pop\n    /* \"@openzeppelin/contracts/token/ERC20/ERC20.sol\":1970:1975  name_ */\n  dup2\n    /* \"@openzeppelin/contracts/token/ERC20/ERC20.sol\":1962:1967  _name */\n  0x03\n    /* \"@openzeppelin/contracts/token/ERC20/ERC20.sol\":1962:1975  _name = name_ */\n  swap1\n  dup2\n  tag_23\n  swap2\n  swap1\n  tag_24\n  jump\t// in\ntag_23:\n  pop\n    /* \"@openzeppelin/contracts/token/ERC20/ERC20.sol\":1995:2002  symbol_ */\n  dup1\n    /* \"@openzeppelin/contracts/token/ERC20/ERC20.sol\":1985:1992  _symbol */\n  0x04\n    /* \"@openzeppelin/contracts/token/ERC20/ERC20.sol\":1985:2002  _symbol = symbol_ */\n  swap1\n  dup2\n  tag_25\n  swap2\n  swap1\n  tag_24\n  jump\t// in\ntag_25:\n  pop\n    /* \"@openzeppelin/contracts/token/ERC20/ERC20.sol\":1896:2009  constructor(string memory name_, string memory symbol_) {... */\n  pop\n  pop\n    /* \"@openzeppelin/contracts/utils/cryptography/EIP712.sol\":3401:3446  name.toShortStringWithFallback(_nameFallback) */\n  tag_27\n    /* \"@openzeppelin/contracts/utils/cryptography/EIP712.sol\":3432:3445  _nameFallback */\n  0x05\n    /* \"@openzeppelin/contracts/utils/cryptography/EIP712.sol\":3401:3405  name */\n  dup4\n    /* \"@openzeppelin/contracts/utils/cryptography/EIP712.sol\":3401:3431  name.toShortStringWithFallback */\n  shl(0x20, tag_28)\n  swap1\n    /* \"@openzeppelin/contracts/utils/cryptography/EIP712.sol\":3401:3446  name.toShortStringWithFallback(_nameFallback) */\n  swap2\n  swap1\n  0x20\n  shr\n  jump\t// in\ntag_27:\n    /* \"@openzeppelin/contracts/utils/cryptography/EIP712.sol\":3393:3446  _name = name.toShortStringWithFallback(_nameFallback) */\n  0x0120\n  dup2\n  dup2\n  mstore\n  pop\n  pop\n    /* \"@openzeppelin/contracts/utils/cryptography/EIP712.sol\":3467:3518  version.toShortStringWithFallback(_versionFallback) */\n  tag_29\n    /* \"@openzeppelin/contracts/utils/cryptography/EIP712.sol\":3501:3517  _versionFallback */\n  0x06\n    /* \"@openzeppelin/contracts/utils/cryptography/EIP712.sol\":3467:3474  version */\n  dup3\n    /* \"@openzeppelin/contracts/utils/cryptography/EIP712.sol\":3467:3500  version.toShortStringWithFallback */\n  shl(0x20, tag_28)\n  swap1\n    /* \"@openzeppelin/contracts/utils/cryptography/EIP712.sol\":3467:3518  version.toShortStringWithFallback(_versionFallback) */\n  swap2\n  swap1\n  0x20\n  shr\n  jump\t// in\ntag_29:\n    /* \"@openzeppelin/contracts/utils/cryptography/EIP712.sol\":3456:3518  _version = version.toShortStringWithFallback(_versionFallback) */\n  0x0140\n  dup2\n  dup2\n  mstore\n  pop\n  pop\n    /* \"@openzeppelin/contracts/utils/cryptography/EIP712.sol\":3558:3562  name */\n  dup2\n    /* \"@openzeppelin/contracts/utils/cryptography/EIP712.sol\":3542:3564  keccak256(bytes(name)) */\n  dup1\n  mload\n  swap1\n  0x20\n  add\n  keccak256\n    /* \"@openzeppelin/contracts/utils/cryptography/EIP712.sol\":3528:3564  _hashedName = keccak256(bytes(name)) */\n  0xe0\n  dup2\n  dup2\n  mstore\n  pop\n  pop\n    /* \"@openzeppelin/contracts/utils/cryptography/EIP712.sol\":3607:3614  version */\n  dup1\n    /* \"@openzeppelin/contracts/utils/cryptography/EIP712.sol\":3591:3616  keccak256(bytes(version)) */\n  dup1\n  mload\n  swap1\n  0x20\n  add\n  keccak256\n    /* \"@openzeppelin/contracts/utils/cryptography/EIP712.sol\":3574:3616  _hashedVersion = keccak256(bytes(version)) */\n  0x0100\n  dup2\n  dup2\n  mstore\n  pop\n  pop\n    /* \"@openzeppelin/contracts/utils/cryptography/EIP712.sol\":3644:3657  block.chainid */\n  chainid\n    /* \"@openzeppelin/contracts/utils/cryptography/EIP712.sol\":3627:3657  _cachedChainId = block.chainid */\n  0xa0\n  dup2\n  dup2\n  mstore\n  pop\n  pop\n    /* \"@openzeppelin/contracts/utils/cryptography/EIP712.sol\":3692:3715  _buildDomainSeparator() */\n  tag_30\n    /* \"@openzeppelin/contracts/utils/cryptography/EIP712.sol\":3692:3713  _buildDomainSeparator */\n  shl(0x20, tag_31)\n    /* \"@openzeppelin/contracts/utils/cryptography/EIP712.sol\":3692:3715  _buildDomainSeparator() */\n  0x20\n  shr\n  jump\t// in\ntag_30:\n    /* \"@openzeppelin/contracts/utils/cryptography/EIP712.sol\":3667:3715  _cachedDomainSeparator = _buildDomainSeparator() */\n  0x80\n  dup2\n  dup2\n  mstore\n  pop\n  pop\n    /* \"@openzeppelin/contracts/utils/cryptography/EIP712.sol\":3747:3751  this */\n  address\n    /* \"@openzeppelin/contracts/utils/cryptography/EIP712.sol\":3725:3752  _cachedThis = address(this) */\n  0xffffffffffffffffffffffffffffffffffffffff\n  and\n  0xc0\n  dup2\n  0xffffffffffffffffffffffffffffffffffffffff\n  and\n  dup2\n  mstore\n  pop\n  pop\n    /* \"@openzeppelin/contracts/utils/cryptography/EIP712.sol\":3328:3759  constructor(string memory name, string memory version) {... */\n  pop\n  pop\n    /* \"@openzeppelin/contracts/token/ERC20/extensions/ERC20Permit.sol\":1574:1626  constructor(string memory name) EIP712(name, \"1\") {} */\n  pop\n    /* \"contracts/MAZZE.sol\":2323:2395  _mint(0xA043BC356A11f548f77F716e8d3c31b1e8beDf7a, _ecosystemDevelopment) */\n  tag_34\n    /* \"contracts/MAZZE.sol\":2329:2371  0xA043BC356A11f548f77F716e8d3c31b1e8beDf7a */\n  0xa043bc356a11f548f77f716e8d3c31b1e8bedf7a\n    /* \"contracts/MAZZE.sol\":2373:2394  _ecosystemDevelopment */\n  sload(0x09)\n    /* \"contracts/MAZZE.sol\":2323:2328  _mint */\n  shl(0x20, tag_35)\n    /* \"contracts/MAZZE.sol\":2323:2395  _mint(0xA043BC356A11f548f77F716e8d3c31b1e8beDf7a, _ecosystemDevelopment) */\n  0x20\n  shr\n  jump\t// in\ntag_34:\n    /* \"contracts/MAZZE.sol\":2405:2467  _mint(0xa81AA52EA19ef26739B0762C03381f9a84c8b05d, _teamGrowth) */\n  tag_36\n    /* \"contracts/MAZZE.sol\":2411:2453  0xa81AA52EA19ef26739B0762C03381f9a84c8b05d */\n  0xa81aa52ea19ef26739b0762c03381f9a84c8b05d\n    /* \"contracts/MAZZE.sol\":2455:2466  _teamGrowth */\n  sload(0x0a)\n    /* \"contracts/MAZZE.sol\":2405:2410  _mint */\n  shl(0x20, tag_35)\n    /* \"contracts/MAZZE.sol\":2405:2467  _mint(0xa81AA52EA19ef26739B0762C03381f9a84c8b05d, _teamGrowth) */\n  0x20\n  shr\n  jump\t// in\ntag_36:\n    /* \"contracts/MAZZE.sol\":2477:2548  _mint(0x49d125cA46997e3C90ebB0cc9940e033487F8FA4, _communityEngagement) */\n  tag_37\n    /* \"contracts/MAZZE.sol\":2483:2525  0x49d125cA46997e3C90ebB0cc9940e033487F8FA4 */\n  0x49d125ca46997e3c90ebb0cc9940e033487f8fa4\n    /* \"contracts/MAZZE.sol\":2527:2547  _communityEngagement */\n  sload(0x0b)\n    /* \"contracts/MAZZE.sol\":2477:2482  _mint */\n  shl(0x20, tag_35)\n    /* \"contracts/MAZZE.sol\":2477:2548  _mint(0x49d125cA46997e3C90ebB0cc9940e033487F8FA4, _communityEngagement) */\n  0x20\n  shr\n  jump\t// in\ntag_37:\n    /* \"contracts/MAZZE.sol\":2558:2628  _mint(0x8126A70a57B44d32e6eB9F41c8DF4A2A47Ff4Be7, _marketingPromotion) */\n  tag_38\n    /* \"contracts/MAZZE.sol\":2564:2606  0x8126A70a57B44d32e6eB9F41c8DF4A2A47Ff4Be7 */\n  0x8126a70a57b44d32e6eb9f41c8df4a2a47ff4be7\n    /* \"contracts/MAZZE.sol\":2608:2627  _marketingPromotion */\n  sload(0x0c)\n    /* \"contracts/MAZZE.sol\":2558:2563  _mint */\n  shl(0x20, tag_35)\n    /* \"contracts/MAZZE.sol\":2558:2628  _mint(0x8126A70a57B44d32e6eB9F41c8DF4A2A47Ff4Be7, _marketingPromotion) */\n  0x20\n  shr\n  jump\t// in\ntag_38:\n    /* \"contracts/MAZZE.sol\":2638:2673  _mint(msg.sender, _remainingTokens) */\n  tag_39\n    /* \"contracts/MAZZE.sol\":2644:2654  msg.sender */\n  caller\n    /* \"contracts/MAZZE.sol\":2656:2672  _remainingTokens */\n  sload(0x0d)\n    /* \"contracts/MAZZE.sol\":2638:2643  _mint */\n  shl(0x20, tag_35)\n    /* \"contracts/MAZZE.sol\":2638:2673  _mint(msg.sender, _remainingTokens) */\n  0x20\n  shr\n  jump\t// in\ntag_39:\n    /* \"contracts/MAZZE.sol\":263:2682  contract MAZZE is ERC20, ERC20Burnable, ERC20Permit {... */\n  jump(tag_40)\n    /* \"@openzeppelin/contracts/utils/ShortStrings.sol\":2914:3254  function toShortStringWithFallback(string memory value, string storage store) internal returns (ShortString) {... */\ntag_28:\n    /* \"@openzeppelin/contracts/utils/ShortStrings.sol\":3010:3021  ShortString */\n  0x00\n    /* \"@openzeppelin/contracts/utils/ShortStrings.sol\":3059:3061  32 */\n  0x20\n    /* \"@openzeppelin/contracts/utils/ShortStrings.sol\":3043:3048  value */\n  dup4\n    /* \"@openzeppelin/contracts/utils/ShortStrings.sol\":3037:3056  bytes(value).length */\n  mload\n    /* \"@openzeppelin/contracts/utils/ShortStrings.sol\":3037:3061  bytes(value).length < 32 */\n  lt\n    /* \"@openzeppelin/contracts/utils/ShortStrings.sol\":3033:3248  if (bytes(value).length < 32) {... */\n  iszero\n  tag_42\n  jumpi\n    /* \"@openzeppelin/contracts/utils/ShortStrings.sol\":3084:3104  toShortString(value) */\n  tag_43\n    /* \"@openzeppelin/contracts/utils/ShortStrings.sol\":3098:3103  value */\n  dup4\n    /* \"@openzeppelin/contracts/utils/ShortStrings.sol\":3084:3097  toShortString */\n  shl(0x20, tag_44)\n    /* \"@openzeppelin/contracts/utils/ShortStrings.sol\":3084:3104  toShortString(value) */\n  0x20\n  shr\n  jump\t// in\ntag_43:\n    /* \"@openzeppelin/contracts/utils/ShortStrings.sol\":3077:3104  return toShortString(value) */\n  swap1\n  pop\n  jump(tag_41)\n    /* \"@openzeppelin/contracts/utils/ShortStrings.sol\":3033:3248  if (bytes(value).length < 32) {... */\ntag_42:\n    /* \"@openzeppelin/contracts/utils/ShortStrings.sol\":3176:3181  value */\n  dup3\n    /* \"@openzeppelin/contracts/utils/ShortStrings.sol\":3135:3167  StorageSlot.getStringSlot(store) */\n  tag_46\n    /* \"@openzeppelin/contracts/utils/ShortStrings.sol\":3161:3166  store */\n  dup4\n    /* \"@openzeppelin/contracts/utils/ShortStrings.sol\":3135:3160  StorageSlot.getStringSlot */\n  shl(0x20, tag_47)\n    /* \"@openzeppelin/contracts/utils/ShortStrings.sol\":3135:3167  StorageSlot.getStringSlot(store) */\n  0x20\n  shr\n  jump\t// in\ntag_46:\n    /* \"@openzeppelin/contracts/utils/ShortStrings.sol\":3135:3173  StorageSlot.getStringSlot(store).value */\n  0x00\n  add\n    /* \"@openzeppelin/contracts/utils/ShortStrings.sol\":3135:3181  StorageSlot.getStringSlot(store).value = value */\n  swap1\n  dup2\n  tag_48\n  swap2\n  swap1\n  tag_24\n  jump\t// in\ntag_48:\n  pop\n    /* \"@openzeppelin/contracts/utils/ShortStrings.sol\":1390:1456  0x00000000000000000000000000000000000000000000000000000000000000FF */\n  0xff\n    /* \"@openzeppelin/contracts/utils/ShortStrings.sol\":3219:3236  FALLBACK_SENTINEL */\n  0x00\n  shl\n    /* \"@openzeppelin/contracts/utils/ShortStrings.sol\":3195:3237  return ShortString.wrap(FALLBACK_SENTINEL) */\n  swap1\n  pop\n    /* \"@openzeppelin/contracts/utils/ShortStrings.sol\":2914:3254  function toShortStringWithFallback(string memory value, string storage store) internal returns (ShortString) {... */\ntag_41:\n  swap3\n  swap2\n  pop\n  pop\n  jump\t// out\n    /* \"@openzeppelin/contracts/utils/cryptography/EIP712.sol\":4113:4292  function _buildDomainSeparator() private view returns (bytes32) {... */\ntag_31:\n    /* \"@openzeppelin/contracts/utils/cryptography/EIP712.sol\":4168:4175  bytes32 */\n  0x00\n    /* \"@openzeppelin/contracts/utils/cryptography/EIP712.sol\":2079:2174  keccak256(\"EIP712Domain(string name,string version,uint256 chainId,address verifyingContract)\") */\n  0x8b73c3c69bb8fe3d512ecc4cf759cc79239f7b179b0ffacaa9a75d522b39400f\n    /* \"@openzeppelin/contracts/utils/cryptography/EIP712.sol\":4226:4237  _hashedName */\n  mload(0xe0)\n    /* \"@openzeppelin/contracts/utils/cryptography/EIP712.sol\":4239:4253  _hashedVersion */\n  mload(0x0100)\n    /* \"@openzeppelin/contracts/utils/cryptography/EIP712.sol\":4255:4268  block.chainid */\n  chainid\n    /* \"@openzeppelin/contracts/utils/cryptography/EIP712.sol\":4278:4282  this */\n  address\n    /* \"@openzeppelin/contracts/utils/cryptography/EIP712.sol\":4204:4284  abi.encode(TYPE_HASH, _hashedName, _hashedVersion, block.chainid, address(this)) */\n  add(0x20, mload(0x40))\n  tag_50\n  swap6\n  swap5\n  swap4\n  swap3\n  swap2\n  swap1\n  tag_51\n  jump\t// in\ntag_50:\n  mload(0x40)\n  0x20\n  dup2\n  dup4\n  sub\n  sub\n  dup2\n  mstore\n  swap1\n  0x40\n  mstore\n    /* \"@openzeppelin/contracts/utils/cryptography/EIP712.sol\":4194:4285  keccak256(abi.encode(TYPE_HASH, _hashedName, _hashedVersion, block.chainid, address(this))) */\n  dup1\n  mload\n  swap1\n  0x20\n  add\n  keccak256\n    /* \"@openzeppelin/contracts/utils/cryptography/EIP712.sol\":4187:4285  return keccak256(abi.encode(TYPE_HASH, _hashedName, _hashedVersion, block.chainid, address(this))) */\n  swap1\n  pop\n    /* \"@openzeppelin/contracts/utils/cryptography/EIP712.sol\":4113:4292  function _buildDomainSeparator() private view returns (bytes32) {... */\n  swap1\n  jump\t// out\n    /* \"@openzeppelin/contracts/token/ERC20/ERC20.sol\":7721:7929  function _mint(address account, uint256 value) internal {... */\ntag_35:\n    /* \"@openzeppelin/contracts/token/ERC20/ERC20.sol\":7810:7811  0 */\n  0x00\n    /* \"@openzeppelin/contracts/token/ERC20/ERC20.sol\":7791:7812  account == address(0) */\n  0xffffffffffffffffffffffffffffffffffffffff\n  and\n    /* \"@openzeppelin/contracts/token/ERC20/ERC20.sol\":7791:7798  account */\n  dup3\n    /* \"@openzeppelin/contracts/token/ERC20/ERC20.sol\":7791:7812  account == address(0) */\n  0xffffffffffffffffffffffffffffffffffffffff\n  and\n  sub\n    /* \"@openzeppelin/contracts/token/ERC20/ERC20.sol\":7787:7878  if (account == address(0)) {... */\n  tag_53\n  jumpi\n    /* \"@openzeppelin/contracts/token/ERC20/ERC20.sol\":7864:7865  0 */\n  0x00\n    /* \"@openzeppelin/contracts/token/ERC20/ERC20.sol\":7835:7867  ERC20InvalidReceiver(address(0)) */\n  mload(0x40)\n  0xec442f0500000000000000000000000000000000000000000000000000000000\n  dup2\n  mstore\n  0x04\n  add\n  tag_54\n  swap2\n  swap1\n  tag_55\n  jump\t// in\ntag_54:\n  mload(0x40)\n  dup1\n  swap2\n  sub\n  swap1\n  revert\n    /* \"@openzeppelin/contracts/token/ERC20/ERC20.sol\":7787:7878  if (account == address(0)) {... */\ntag_53:\n    /* \"@openzeppelin/contracts/token/ERC20/ERC20.sol\":7887:7922  _update(address(0), account, value) */\n  tag_56\n    /* \"@openzeppelin/contracts/token/ERC20/ERC20.sol\":7903:7904  0 */\n  0x00\n    /* \"@openzeppelin/contracts/token/ERC20/ERC20.sol\":7907:7914  account */\n  dup4\n    /* \"@openzeppelin/contracts/token/ERC20/ERC20.sol\":7916:7921  value */\n  dup4\n    /* \"@openzeppelin/contracts/token/ERC20/ERC20.sol\":7887:7894  _update */\n  shl(0x20, tag_57)\n    /* \"@openzeppelin/contracts/token/ERC20/ERC20.sol\":7887:7922  _update(address(0), account, value) */\n  0x20\n  shr\n  jump\t// in\ntag_56:\n    /* \"@openzeppelin/contracts/token/ERC20/ERC20.sol\":7721:7929  function _mint(address account, uint256 value) internal {... */\n  pop\n  pop\n  jump\t// out\n    /* \"@openzeppelin/contracts/utils/ShortStrings.sol\":1708:1994  function toShortString(string memory str) internal pure returns (ShortString) {... */\ntag_44:\n    /* \"@openzeppelin/contracts/utils/ShortStrings.sol\":1773:1784  ShortString */\n  0x00\n    /* \"@openzeppelin/contracts/utils/ShortStrings.sol\":1796:1813  bytes memory bstr */\n  dup1\n    /* \"@openzeppelin/contracts/utils/ShortStrings.sol\":1822:1825  str */\n  dup3\n    /* \"@openzeppelin/contracts/utils/ShortStrings.sol\":1796:1826  bytes memory bstr = bytes(str) */\n  swap1\n  pop\n    /* \"@openzeppelin/contracts/utils/ShortStrings.sol\":1854:1856  31 */\n  0x1f\n    /* \"@openzeppelin/contracts/utils/ShortStrings.sol\":1840:1844  bstr */\n  dup2\n    /* \"@openzeppelin/contracts/utils/ShortStrings.sol\":1840:1851  bstr.length */\n  mload\n    /* \"@openzeppelin/contracts/utils/ShortStrings.sol\":1840:1856  bstr.length > 31 */\n  gt\n    /* \"@openzeppelin/contracts/utils/ShortStrings.sol\":1836:1908  if (bstr.length > 31) {... */\n  iszero\n  tag_59\n  jumpi\n    /* \"@openzeppelin/contracts/utils/ShortStrings.sol\":1893:1896  str */\n  dup3\n    /* \"@openzeppelin/contracts/utils/ShortStrings.sol\":1879:1897  StringTooLong(str) */\n  mload(0x40)\n  0x305a27a900000000000000000000000000000000000000000000000000000000\n  dup2\n  mstore\n  0x04\n  add\n  tag_60\n  swap2\n  swap1\n  tag_61\n  jump\t// in\ntag_60:\n  mload(0x40)\n  dup1\n  swap2\n  sub\n  swap1\n  revert\n    /* \"@openzeppelin/contracts/utils/ShortStrings.sol\":1836:1908  if (bstr.length > 31) {... */\ntag_59:\n    /* \"@openzeppelin/contracts/utils/ShortStrings.sol\":1974:1978  bstr */\n  dup1\n    /* \"@openzeppelin/contracts/utils/ShortStrings.sol\":1974:1985  bstr.length */\n  mload\n    /* \"@openzeppelin/contracts/utils/ShortStrings.sol\":1965:1969  bstr */\n  dup2\n    /* \"@openzeppelin/contracts/utils/ShortStrings.sol\":1957:1970  bytes32(bstr) */\n  tag_62\n  swap1\n  tag_63\n  jump\t// in\ntag_62:\n    /* \"@openzeppelin/contracts/utils/ShortStrings.sol\":1949:1971  uint256(bytes32(bstr)) */\n  0x00\n  shr\n    /* \"@openzeppelin/contracts/utils/ShortStrings.sol\":1949:1985  uint256(bytes32(bstr)) | bstr.length */\n  or\n    /* \"@openzeppelin/contracts/utils/ShortStrings.sol\":1941:1986  bytes32(uint256(bytes32(bstr)) | bstr.length) */\n  0x00\n  shl\n    /* \"@openzeppelin/contracts/utils/ShortStrings.sol\":1917:1987  return ShortString.wrap(bytes32(uint256(bytes32(bstr)) | bstr.length)) */\n  swap2\n  pop\n  pop\n    /* \"@openzeppelin/contracts/utils/ShortStrings.sol\":1708:1994  function toShortString(string memory str) internal pure returns (ShortString) {... */\n  swap2\n  swap1\n  pop\n  jump\t// out\n    /* \"@openzeppelin/contracts/utils/StorageSlot.sol\":3135:3337  function getStringSlot(string storage store) internal pure returns (StringSlot storage r) {... */\ntag_47:\n    /* \"@openzeppelin/contracts/utils/StorageSlot.sol\":3203:3223  StringSlot storage r */\n  0x00\n    /* \"@openzeppelin/contracts/utils/StorageSlot.sol\":3311:3321  store.slot */\n  dup2\n    /* \"@openzeppelin/contracts/utils/StorageSlot.sol\":3301:3321  r.slot := store.slot */\n  swap1\n  pop\n    /* \"@openzeppelin/contracts/utils/StorageSlot.sol\":3135:3337  function getStringSlot(string storage store) internal pure returns (StringSlot storage r) {... */\n  swap2\n  swap1\n  pop\n  jump\t// out\n    /* \"@openzeppelin/contracts/token/ERC20/ERC20.sol\":6271:7378  function _update(address from, address to, uint256 value) internal virtual {... */\ntag_57:\n    /* \"@openzeppelin/contracts/token/ERC20/ERC20.sol\":6376:6377  0 */\n  0x00\n    /* \"@openzeppelin/contracts/token/ERC20/ERC20.sol\":6360:6378  from == address(0) */\n  0xffffffffffffffffffffffffffffffffffffffff\n  and\n    /* \"@openzeppelin/contracts/token/ERC20/ERC20.sol\":6360:6364  from */\n  dup4\n    /* \"@openzeppelin/contracts/token/ERC20/ERC20.sol\":6360:6378  from == address(0) */\n  0xffffffffffffffffffffffffffffffffffffffff\n  and\n  sub\n    /* \"@openzeppelin/contracts/token/ERC20/ERC20.sol\":6356:6896  if (from == address(0)) {... */\n  tag_66\n  jumpi\n    /* \"@openzeppelin/contracts/token/ERC20/ERC20.sol\":6512:6517  value */\n  dup1\n    /* \"@openzeppelin/contracts/token/ERC20/ERC20.sol\":6496:6508  _totalSupply */\n  0x02\n  0x00\n    /* \"@openzeppelin/contracts/token/ERC20/ERC20.sol\":6496:6517  _totalSupply += value */\n  dup3\n  dup3\n  sload\n  tag_67\n  swap2\n  swap1\n  tag_12\n  jump\t// in\ntag_67:\n  swap3\n  pop\n  pop\n  dup2\n  swap1\n  sstore\n  pop\n    /* \"@openzeppelin/contracts/token/ERC20/ERC20.sol\":6356:6896  if (from == address(0)) {... */\n  jump(tag_68)\ntag_66:\n    /* \"@openzeppelin/contracts/token/ERC20/ERC20.sol\":6548:6567  uint256 fromBalance */\n  0x00\n    /* \"@openzeppelin/contracts/token/ERC20/ERC20.sol\":6570:6579  _balances */\n  dup1\n    /* \"@openzeppelin/contracts/token/ERC20/ERC20.sol\":6570:6585  _balances[from] */\n  0x00\n    /* \"@openzeppelin/contracts/token/ERC20/ERC20.sol\":6580:6584  from */\n  dup6\n    /* \"@openzeppelin/contracts/token/ERC20/ERC20.sol\":6570:6585  _balances[from] */\n  0xffffffffffffffffffffffffffffffffffffffff\n  and\n  0xffffffffffffffffffffffffffffffffffffffff\n  and\n  dup2\n  mstore\n  0x20\n  add\n  swap1\n  dup2\n  mstore\n  0x20\n  add\n  0x00\n  keccak256\n  sload\n    /* \"@openzeppelin/contracts/token/ERC20/ERC20.sol\":6548:6585  uint256 fromBalance = _balances[from] */\n  swap1\n  pop\n    /* \"@openzeppelin/contracts/token/ERC20/ERC20.sol\":6617:6622  value */\n  dup2\n    /* \"@openzeppelin/contracts/token/ERC20/ERC20.sol\":6603:6614  fromBalance */\n  dup2\n    /* \"@openzeppelin/contracts/token/ERC20/ERC20.sol\":6603:6622  fromBalance < value */\n  lt\n    /* \"@openzeppelin/contracts/token/ERC20/ERC20.sol\":6599:6714  if (fromBalance < value) {... */\n  iszero\n  tag_69\n  jumpi\n    /* \"@openzeppelin/contracts/token/ERC20/ERC20.sol\":6674:6678  from */\n  dup4\n    /* \"@openzeppelin/contracts/token/ERC20/ERC20.sol\":6680:6691  fromBalance */\n  dup2\n    /* \"@openzeppelin/contracts/token/ERC20/ERC20.sol\":6693:6698  value */\n  dup4\n    /* \"@openzeppelin/contracts/token/ERC20/ERC20.sol\":6649:6699  ERC20InsufficientBalance(from, fromBalance, value) */\n  mload(0x40)\n  0xe450d38c00000000000000000000000000000000000000000000000000000000\n  dup2\n  mstore\n  0x04\n  add\n  tag_70\n  swap4\n  swap3\n  swap2\n  swap1\n  tag_71\n  jump\t// in\ntag_70:\n  mload(0x40)\n  dup1\n  swap2\n  sub\n  swap1\n  revert\n    /* \"@openzeppelin/contracts/token/ERC20/ERC20.sol\":6599:6714  if (fromBalance < value) {... */\ntag_69:\n    /* \"@openzeppelin/contracts/token/ERC20/ERC20.sol\":6866:6871  value */\n  dup2\n    /* \"@openzeppelin/contracts/token/ERC20/ERC20.sol\":6852:6863  fromBalance */\n  dup2\n    /* \"@openzeppelin/contracts/token/ERC20/ERC20.sol\":6852:6871  fromBalance - value */\n  sub\n    /* \"@openzeppelin/contracts/token/ERC20/ERC20.sol\":6834:6843  _balances */\n  0x00\n    /* \"@openzeppelin/contracts/token/ERC20/ERC20.sol\":6834:6849  _balances[from] */\n  dup1\n    /* \"@openzeppelin/contracts/token/ERC20/ERC20.sol\":6844:6848  from */\n  dup7\n    /* \"@openzeppelin/contracts/token/ERC20/ERC20.sol\":6834:6849  _balances[from] */\n  0xffffffffffffffffffffffffffffffffffffffff\n  and\n  0xffffffffffffffffffffffffffffffffffffffff\n  and\n  dup2\n  mstore\n  0x20\n  add\n  swap1\n  dup2\n  mstore\n  0x20\n  add\n  0x00\n  keccak256\n    /* \"@openzeppelin/contracts/token/ERC20/ERC20.sol\":6834:6871  _balances[from] = fromBalance - value */\n  dup2\n  swap1\n  sstore\n  pop\n    /* \"@openzeppelin/contracts/token/ERC20/ERC20.sol\":6534:6896  {... */\n  pop\n    /* \"@openzeppelin/contracts/token/ERC20/ERC20.sol\":6356:6896  if (from == address(0)) {... */\ntag_68:\n    /* \"@openzeppelin/contracts/token/ERC20/ERC20.sol\":6924:6925  0 */\n  0x00\n    /* \"@openzeppelin/contracts/token/ERC20/ERC20.sol\":6910:6926  to == address(0) */\n  0xffffffffffffffffffffffffffffffffffffffff\n  and\n    /* \"@openzeppelin/contracts/token/ERC20/ERC20.sol\":6910:6912  to */\n  dup3\n    /* \"@openzeppelin/contracts/token/ERC20/ERC20.sol\":6910:6926  to == address(0) */\n  0xffffffffffffffffffffffffffffffffffffffff\n  and\n  sub\n    /* \"@openzeppelin/contracts/token/ERC20/ERC20.sol\":6906:7331  if (to == address(0)) {... */\n  tag_72\n  jumpi\n    /* \"@openzeppelin/contracts/token/ERC20/ERC20.sol\":7089:7094  value */\n  dup1\n    /* \"@openzeppelin/contracts/token/ERC20/ERC20.sol\":7073:7085  _totalSupply */\n  0x02\n  0x00\n    /* \"@openzeppelin/contracts/token/ERC20/ERC20.sol\":7073:7094  _totalSupply -= value */\n  dup3\n  dup3\n  sload\n  sub\n  swap3\n  pop\n  pop\n  dup2\n  swap1\n  sstore\n  pop\n    /* \"@openzeppelin/contracts/token/ERC20/ERC20.sol\":6906:7331  if (to == address(0)) {... */\n  jump(tag_73)\ntag_72:\n    /* \"@openzeppelin/contracts/token/ERC20/ERC20.sol\":7301:7306  value */\n  dup1\n    /* \"@openzeppelin/contracts/token/ERC20/ERC20.sol\":7284:7293  _balances */\n  0x00\n    /* \"@openzeppelin/contracts/token/ERC20/ERC20.sol\":7284:7297  _balances[to] */\n  dup1\n    /* \"@openzeppelin/contracts/token/ERC20/ERC20.sol\":7294:7296  to */\n  dup5\n    /* \"@openzeppelin/contracts/token/ERC20/ERC20.sol\":7284:7297  _balances[to] */\n  0xffffffffffffffffffffffffffffffffffffffff\n  and\n  0xffffffffffffffffffffffffffffffffffffffff\n  and\n  dup2\n  mstore\n  0x20\n  add\n  swap1\n  dup2\n  mstore\n  0x20\n  add\n  0x00\n  keccak256\n  0x00\n    /* \"@openzeppelin/contracts/token/ERC20/ERC20.sol\":7284:7306  _balances[to] += value */\n  dup3\n  dup3\n  sload\n  add\n  swap3\n  pop\n  pop\n  dup2\n  swap1\n  sstore\n  pop\n    /* \"@openzeppelin/contracts/token/ERC20/ERC20.sol\":6906:7331  if (to == address(0)) {... */\ntag_73:\n    /* \"@openzeppelin/contracts/token/ERC20/ERC20.sol\":7361:7363  to */\n  dup2\n    /* \"@openzeppelin/contracts/token/ERC20/ERC20.sol\":7346:7371  Transfer(from, to, value) */\n  0xffffffffffffffffffffffffffffffffffffffff\n  and\n    /* \"@openzeppelin/contracts/token/ERC20/ERC20.sol\":7355:7359  from */\n  dup4\n    /* \"@openzeppelin/contracts/token/ERC20/ERC20.sol\":7346:7371  Transfer(from, to, value) */\n  0xffffffffffffffffffffffffffffffffffffffff\n  and\n  0xddf252ad1be2c89b69c2b068fc378daa952ba7f163c4a11628f55a4df523b3ef\n    /* \"@openzeppelin/contracts/token/ERC20/ERC20.sol\":7365:7370  value */\n  dup4\n    /* \"@openzeppelin/contracts/token/ERC20/ERC20.sol\":7346:7371  Transfer(from, to, value) */\n  mload(0x40)\n  tag_74\n  swap2\n  swap1\n  tag_75\n  jump\t// in\ntag_74:\n  mload(0x40)\n  dup1\n  swap2\n  sub\n  swap1\n  log3\n    /* \"@openzeppelin/contracts/token/ERC20/ERC20.sol\":6271:7378  function _update(address from, address to, uint256 value) internal virtual {... */\n  pop\n  pop\n  pop\n  jump\t// out\n    /* \"#utility.yul\":7:84   */\ntag_76:\n    /* \"#utility.yul\":44:51   */\n  0x00\n    /* \"#utility.yul\":73:78   */\n  dup2\n    /* \"#utility.yul\":62:78   */\n  swap1\n  pop\n    /* \"#utility.yul\":7:84   */\n  swap2\n  swap1\n  pop\n  jump\t// out\n    /* \"#utility.yul\":90:270   */\ntag_77:\n    /* \"#utility.yul\":138:215   */\n  0x4e487b7100000000000000000000000000000000000000000000000000000000\n    /* \"#utility.yul\":135:136   */\n  0x00\n    /* \"#utility.yul\":128:216   */\n  mstore\n    /* \"#utility.yul\":235:239   */\n  0x11\n    /* \"#utility.yul\":232:233   */\n  0x04\n    /* \"#utility.yul\":225:240   */\n  mstore\n    /* \"#utility.yul\":259:263   */\n  0x24\n    /* \"#utility.yul\":256:257   */\n  0x00\n    /* \"#utility.yul\":249:264   */\n  revert\n    /* \"#utility.yul\":276:686   */\ntag_2:\n    /* \"#utility.yul\":316:323   */\n  0x00\n    /* \"#utility.yul\":339:359   */\n  tag_115\n    /* \"#utility.yul\":357:358   */\n  dup3\n    /* \"#utility.yul\":339:359   */\n  tag_76\n  jump\t// in\ntag_115:\n    /* \"#utility.yul\":334:359   */\n  swap2\n  pop\n    /* \"#utility.yul\":373:393   */\n  tag_116\n    /* \"#utility.yul\":391:392   */\n  dup4\n    /* \"#utility.yul\":373:393   */\n  tag_76\n  jump\t// in\ntag_116:\n    /* \"#utility.yul\":368:393   */\n  swap3\n  pop\n    /* \"#utility.yul\":428:429   */\n  dup3\n    /* \"#utility.yul\":425:426   */\n  dup3\n    /* \"#utility.yul\":421:430   */\n  mul\n    /* \"#utility.yul\":450:480   */\n  tag_117\n    /* \"#utility.yul\":468:479   */\n  dup2\n    /* \"#utility.yul\":450:480   */\n  tag_76\n  jump\t// in\ntag_117:\n    /* \"#utility.yul\":439:480   */\n  swap2\n  pop\n    /* \"#utility.yul\":629:630   */\n  dup3\n    /* \"#utility.yul\":620:627   */\n  dup3\n    /* \"#utility.yul\":616:631   */\n  div\n    /* \"#utility.yul\":613:614   */\n  dup5\n    /* \"#utility.yul\":610:632   */\n  eq\n    /* \"#utility.yul\":590:591   */\n  dup4\n    /* \"#utility.yul\":583:592   */\n  iszero\n    /* \"#utility.yul\":563:646   */\n  or\n    /* \"#utility.yul\":540:679   */\n  tag_118\n  jumpi\n    /* \"#utility.yul\":659:677   */\n  tag_119\n  tag_77\n  jump\t// in\ntag_119:\n    /* \"#utility.yul\":540:679   */\ntag_118:\n    /* \"#utility.yul\":324:686   */\n  pop\n    /* \"#utility.yul\":276:686   */\n  swap3\n  swap2\n  pop\n  pop\n  jump\t// out\n    /* \"#utility.yul\":692:872   */\ntag_78:\n    /* \"#utility.yul\":740:817   */\n  0x4e487b7100000000000000000000000000000000000000000000000000000000\n    /* \"#utility.yul\":737:738   */\n  0x00\n    /* \"#utility.yul\":730:818   */\n  mstore\n    /* \"#utility.yul\":837:841   */\n  0x12\n    /* \"#utility.yul\":834:835   */\n  0x04\n    /* \"#utility.yul\":827:842   */\n  mstore\n    /* \"#utility.yul\":861:865   */\n  0x24\n    /* \"#utility.yul\":858:859   */\n  0x00\n    /* \"#utility.yul\":851:866   */\n  revert\n    /* \"#utility.yul\":878:1063   */\ntag_4:\n    /* \"#utility.yul\":918:919   */\n  0x00\n    /* \"#utility.yul\":935:955   */\n  tag_122\n    /* \"#utility.yul\":953:954   */\n  dup3\n    /* \"#utility.yul\":935:955   */\n  tag_76\n  jump\t// in\ntag_122:\n    /* \"#utility.yul\":930:955   */\n  swap2\n  pop\n    /* \"#utility.yul\":969:989   */\n  tag_123\n    /* \"#utility.yul\":987:988   */\n  dup4\n    /* \"#utility.yul\":969:989   */\n  tag_76\n  jump\t// in\ntag_123:\n    /* \"#utility.yul\":964:989   */\n  swap3\n  pop\n    /* \"#utility.yul\":1008:1009   */\n  dup3\n    /* \"#utility.yul\":998:1033   */\n  tag_124\n  jumpi\n    /* \"#utility.yul\":1013:1031   */\n  tag_125\n  tag_78\n  jump\t// in\ntag_125:\n    /* \"#utility.yul\":998:1033   */\ntag_124:\n    /* \"#utility.yul\":1055:1056   */\n  dup3\n    /* \"#utility.yul\":1052:1053   */\n  dup3\n    /* \"#utility.yul\":1048:1057   */\n  div\n    /* \"#utility.yul\":1043:1057   */\n  swap1\n  pop\n    /* \"#utility.yul\":878:1063   */\n  swap3\n  swap2\n  pop\n  pop\n  jump\t// out\n    /* \"#utility.yul\":1069:1260   */\ntag_12:\n    /* \"#utility.yul\":1109:1112   */\n  0x00\n    /* \"#utility.yul\":1128:1148   */\n  tag_127\n    /* \"#utility.yul\":1146:1147   */\n  dup3\n    /* \"#utility.yul\":1128:1148   */\n  tag_76\n  jump\t// in\ntag_127:\n    /* \"#utility.yul\":1123:1148   */\n  swap2\n  pop\n    /* \"#utility.yul\":1162:1182   */\n  tag_128\n    /* \"#utility.yul\":1180:1181   */\n  dup4\n    /* \"#utility.yul\":1162:1182   */\n  tag_76\n  jump\t// in\ntag_128:\n    /* \"#utility.yul\":1157:1182   */\n  swap3\n  pop\n    /* \"#utility.yul\":1205:1206   */\n  dup3\n    /* \"#utility.yul\":1202:1203   */\n  dup3\n    /* \"#utility.yul\":1198:1207   */\n  add\n    /* \"#utility.yul\":1191:1207   */\n  swap1\n  pop\n    /* \"#utility.yul\":1226:1229   */\n  dup1\n    /* \"#utility.yul\":1223:1224   */\n  dup3\n    /* \"#utility.yul\":1220:1230   */\n  gt\n    /* \"#utility.yul\":1217:1253   */\n  iszero\n  tag_129\n  jumpi\n    /* \"#utility.yul\":1233:1251   */\n  tag_130\n  tag_77\n  jump\t// in\ntag_130:\n    /* \"#utility.yul\":1217:1253   */\ntag_129:\n    /* \"#utility.yul\":1069:1260   */\n  swap3\n  swap2\n  pop\n  pop\n  jump\t// out\n    /* \"#utility.yul\":1266:1460   */\ntag_16:\n    /* \"#utility.yul\":1306:1310   */\n  0x00\n    /* \"#utility.yul\":1326:1346   */\n  tag_132\n    /* \"#utility.yul\":1344:1345   */\n  dup3\n    /* \"#utility.yul\":1326:1346   */\n  tag_76\n  jump\t// in\ntag_132:\n    /* \"#utility.yul\":1321:1346   */\n  swap2\n  pop\n    /* \"#utility.yul\":1360:1380   */\n  tag_133\n    /* \"#utility.yul\":1378:1379   */\n  dup4\n    /* \"#utility.yul\":1360:1380   */\n  tag_76\n  jump\t// in\ntag_133:\n    /* \"#utility.yul\":1355:1380   */\n  swap3\n  pop\n    /* \"#utility.yul\":1404:1405   */\n  dup3\n    /* \"#utility.yul\":1401:1402   */\n  dup3\n    /* \"#utility.yul\":1397:1406   */\n  sub\n    /* \"#utility.yul\":1389:1406   */\n  swap1\n  pop\n    /* \"#utility.yul\":1428:1429   */\n  dup2\n    /* \"#utility.yul\":1422:1426   */\n  dup2\n    /* \"#utility.yul\":1419:1430   */\n  gt\n    /* \"#utility.yul\":1416:1453   */\n  iszero\n  tag_134\n  jumpi\n    /* \"#utility.yul\":1433:1451   */\n  tag_135\n  tag_77\n  jump\t// in\ntag_135:\n    /* \"#utility.yul\":1416:1453   */\ntag_134:\n    /* \"#utility.yul\":1266:1460   */\n  swap3\n  swap2\n  pop\n  pop\n  jump\t// out\n    /* \"#utility.yul\":1466:1565   */\ntag_79:\n    /* \"#utility.yul\":1518:1524   */\n  0x00\n    /* \"#utility.yul\":1552:1557   */\n  dup2\n    /* \"#utility.yul\":1546:1558   */\n  mload\n    /* \"#utility.yul\":1536:1558   */\n  swap1\n  pop\n    /* \"#utility.yul\":1466:1565   */\n  swap2\n  swap1\n  pop\n  jump\t// out\n    /* \"#utility.yul\":1571:1751   */\ntag_80:\n    /* \"#utility.yul\":1619:1696   */\n  0x4e487b7100000000000000000000000000000000000000000000000000000000\n    /* \"#utility.yul\":1616:1617   */\n  0x00\n    /* \"#utility.yul\":1609:1697   */\n  mstore\n    /* \"#utility.yul\":1716:1720   */\n  0x41\n    /* \"#utility.yul\":1713:1714   */\n  0x04\n    /* \"#utility.yul\":1706:1721   */\n  mstore\n    /* \"#utility.yul\":1740:1744   */\n  0x24\n    /* \"#utility.yul\":1737:1738   */\n  0x00\n    /* \"#utility.yul\":1730:1745   */\n  revert\n    /* \"#utility.yul\":1757:1937   */\ntag_81:\n    /* \"#utility.yul\":1805:1882   */\n  0x4e487b7100000000000000000000000000000000000000000000000000000000\n    /* \"#utility.yul\":1802:1803   */\n  0x00\n    /* \"#utility.yul\":1795:1883   */\n  mstore\n    /* \"#utility.yul\":1902:1906   */\n  0x22\n    /* \"#utility.yul\":1899:1900   */\n  0x04\n    /* \"#utility.yul\":1892:1907   */\n  mstore\n    /* \"#utility.yul\":1926:1930   */\n  0x24\n    /* \"#utility.yul\":1923:1924   */\n  0x00\n    /* \"#utility.yul\":1916:1931   */\n  revert\n    /* \"#utility.yul\":1943:2263   */\ntag_82:\n    /* \"#utility.yul\":1987:1993   */\n  0x00\n    /* \"#utility.yul\":2024:2025   */\n  0x02\n    /* \"#utility.yul\":2018:2022   */\n  dup3\n    /* \"#utility.yul\":2014:2026   */\n  div\n    /* \"#utility.yul\":2004:2026   */\n  swap1\n  pop\n    /* \"#utility.yul\":2071:2072   */\n  0x01\n    /* \"#utility.yul\":2065:2069   */\n  dup3\n    /* \"#utility.yul\":2061:2073   */\n  and\n    /* \"#utility.yul\":2092:2110   */\n  dup1\n    /* \"#utility.yul\":2082:2163   */\n  tag_140\n  jumpi\n    /* \"#utility.yul\":2148:2152   */\n  0x7f\n    /* \"#utility.yul\":2140:2146   */\n  dup3\n    /* \"#utility.yul\":2136:2153   */\n  and\n    /* \"#utility.yul\":2126:2153   */\n  swap2\n  pop\n    /* \"#utility.yul\":2082:2163   */\ntag_140:\n    /* \"#utility.yul\":2210:2212   */\n  0x20\n    /* \"#utility.yul\":2202:2208   */\n  dup3\n    /* \"#utility.yul\":2199:2213   */\n  lt\n    /* \"#utility.yul\":2179:2197   */\n  dup2\n    /* \"#utility.yul\":2176:2214   */\n  sub\n    /* \"#utility.yul\":2173:2257   */\n  tag_141\n  jumpi\n    /* \"#utility.yul\":2229:2247   */\n  tag_142\n  tag_81\n  jump\t// in\ntag_142:\n    /* \"#utility.yul\":2173:2257   */\ntag_141:\n    /* \"#utility.yul\":1994:2263   */\n  pop\n    /* \"#utility.yul\":1943:2263   */\n  swap2\n  swap1\n  pop\n  jump\t// out\n    /* \"#utility.yul\":2269:2410   */\ntag_83:\n    /* \"#utility.yul\":2318:2322   */\n  0x00\n    /* \"#utility.yul\":2341:2344   */\n  dup2\n    /* \"#utility.yul\":2333:2344   */\n  swap1\n  pop\n    /* \"#utility.yul\":2364:2367   */\n  dup2\n    /* \"#utility.yul\":2361:2362   */\n  0x00\n    /* \"#utility.yul\":2354:2368   */\n  mstore\n    /* \"#utility.yul\":2398:2402   */\n  0x20\n    /* \"#utility.yul\":2395:2396   */\n  0x00\n    /* \"#utility.yul\":2385:2403   */\n  keccak256\n    /* \"#utility.yul\":2377:2403   */\n  swap1\n  pop\n    /* \"#utility.yul\":2269:2410   */\n  swap2\n  swap1\n  pop\n  jump\t// out\n    /* \"#utility.yul\":2416:2509   */\ntag_84:\n    /* \"#utility.yul\":2453:2459   */\n  0x00\n    /* \"#utility.yul\":2500:2502   */\n  0x20\n    /* \"#utility.yul\":2495:2497   */\n  0x1f\n    /* \"#utility.yul\":2488:2493   */\n  dup4\n    /* \"#utility.yul\":2484:2498   */\n  add\n    /* \"#utility.yul\":2480:2503   */\n  div\n    /* \"#utility.yul\":2470:2503   */\n  swap1\n  pop\n    /* \"#utility.yul\":2416:2509   */\n  swap2\n  swap1\n  pop\n  jump\t// out\n    /* \"#utility.yul\":2515:2622   */\ntag_85:\n    /* \"#utility.yul\":2559:2567   */\n  0x00\n    /* \"#utility.yul\":2609:2614   */\n  dup3\n    /* \"#utility.yul\":2603:2607   */\n  dup3\n    /* \"#utility.yul\":2599:2615   */\n  shl\n    /* \"#utility.yul\":2578:2615   */\n  swap1\n  pop\n    /* \"#utility.yul\":2515:2622   */\n  swap3\n  swap2\n  pop\n  pop\n  jump\t// out\n    /* \"#utility.yul\":2628:3021   */\ntag_86:\n    /* \"#utility.yul\":2697:2703   */\n  0x00\n    /* \"#utility.yul\":2747:2748   */\n  0x08\n    /* \"#utility.yul\":2735:2745   */\n  dup4\n    /* \"#utility.yul\":2731:2749   */\n  mul\n    /* \"#utility.yul\":2770:2867   */\n  tag_147\n    /* \"#utility.yul\":2800:2866   */\n  0xffffffffffffffffffffffffffffffffffffffffffffffffffffffffffffffff\n    /* \"#utility.yul\":2789:2798   */\n  dup3\n    /* \"#utility.yul\":2770:2867   */\n  tag_85\n  jump\t// in\ntag_147:\n    /* \"#utility.yul\":2888:2927   */\n  tag_148\n    /* \"#utility.yul\":2918:2926   */\n  dup7\n    /* \"#utility.yul\":2907:2916   */\n  dup4\n    /* \"#utility.yul\":2888:2927   */\n  tag_85\n  jump\t// in\ntag_148:\n    /* \"#utility.yul\":2876:2927   */\n  swap6\n  pop\n    /* \"#utility.yul\":2960:2964   */\n  dup1\n    /* \"#utility.yul\":2956:2965   */\n  not\n    /* \"#utility.yul\":2949:2954   */\n  dup5\n    /* \"#utility.yul\":2945:2966   */\n  and\n    /* \"#utility.yul\":2936:2966   */\n  swap4\n  pop\n    /* \"#utility.yul\":3009:3013   */\n  dup1\n    /* \"#utility.yul\":2999:3007   */\n  dup7\n    /* \"#utility.yul\":2995:3014   */\n  and\n    /* \"#utility.yul\":2988:2993   */\n  dup5\n    /* \"#utility.yul\":2985:3015   */\n  or\n    /* \"#utility.yul\":2975:3015   */\n  swap3\n  pop\n    /* \"#utility.yul\":2704:3021   */\n  pop\n  pop\n    /* \"#utility.yul\":2628:3021   */\n  swap4\n  swap3\n  pop\n  pop\n  pop\n  jump\t// out\n    /* \"#utility.yul\":3027:3087   */\ntag_87:\n    /* \"#utility.yul\":3055:3058   */\n  0x00\n    /* \"#utility.yul\":3076:3081   */\n  dup2\n    /* \"#utility.yul\":3069:3081   */\n  swap1\n  pop\n    /* \"#utility.yul\":3027:3087   */\n  swap2\n  swap1\n  pop\n  jump\t// out\n    /* \"#utility.yul\":3093:3235   */\ntag_88:\n    /* \"#utility.yul\":3143:3152   */\n  0x00\n    /* \"#utility.yul\":3176:3229   */\n  tag_151\n    /* \"#utility.yul\":3194:3228   */\n  tag_152\n    /* \"#utility.yul\":3203:3227   */\n  tag_153\n    /* \"#utility.yul\":3221:3226   */\n  dup5\n    /* \"#utility.yul\":3203:3227   */\n  tag_76\n  jump\t// in\ntag_153:\n    /* \"#utility.yul\":3194:3228   */\n  tag_87\n  jump\t// in\ntag_152:\n    /* \"#utility.yul\":3176:3229   */\n  tag_76\n  jump\t// in\ntag_151:\n    /* \"#utility.yul\":3163:3229   */\n  swap1\n  pop\n    /* \"#utility.yul\":3093:3235   */\n  swap2\n  swap1\n  pop\n  jump\t// out\n    /* \"#utility.yul\":3241:3316   */\ntag_89:\n    /* \"#utility.yul\":3284:3287   */\n  0x00\n    /* \"#utility.yul\":3305:3310   */\n  dup2\n    /* \"#utility.yul\":3298:3310   */\n  swap1\n  pop\n    /* \"#utility.yul\":3241:3316   */\n  swap2\n  swap1\n  pop\n  jump\t// out\n    /* \"#utility.yul\":3322:3591   */\ntag_90:\n    /* \"#utility.yul\":3432:3471   */\n  tag_156\n    /* \"#utility.yul\":3463:3470   */\n  dup4\n    /* \"#utility.yul\":3432:3471   */\n  tag_88\n  jump\t// in\ntag_156:\n    /* \"#utility.yul\":3493:3584   */\n  tag_157\n    /* \"#utility.yul\":3542:3583   */\n  tag_158\n    /* \"#utility.yul\":3566:3582   */\n  dup3\n    /* \"#utility.yul\":3542:3583   */\n  tag_89\n  jump\t// in\ntag_158:\n    /* \"#utility.yul\":3534:3540   */\n  dup5\n    /* \"#utility.yul\":3527:3531   */\n  dup5\n    /* \"#utility.yul\":3521:3532   */\n  sload\n    /* \"#utility.yul\":3493:3584   */\n  tag_86\n  jump\t// in\ntag_157:\n    /* \"#utility.yul\":3487:3491   */\n  dup3\n    /* \"#utility.yul\":3480:3585   */\n  sstore\n    /* \"#utility.yul\":3398:3591   */\n  pop\n    /* \"#utility.yul\":3322:3591   */\n  pop\n  pop\n  pop\n  jump\t// out\n    /* \"#utility.yul\":3597:3670   */\ntag_91:\n    /* \"#utility.yul\":3642:3645   */\n  0x00\n    /* \"#utility.yul\":3597:3670   */\n  swap1\n  jump\t// out\n    /* \"#utility.yul\":3676:3865   */\ntag_92:\n    /* \"#utility.yul\":3753:3785   */\n  tag_161\n  tag_91\n  jump\t// in\ntag_161:\n    /* \"#utility.yul\":3794:3859   */\n  tag_162\n    /* \"#utility.yul\":3852:3858   */\n  dup2\n    /* \"#utility.yul\":3844:3850   */\n  dup5\n    /* \"#utility.yul\":3838:3842   */\n  dup5\n    /* \"#utility.yul\":3794:3859   */\n  tag_90\n  jump\t// in\ntag_162:\n    /* \"#utility.yul\":3729:3865   */\n  pop\n    /* \"#utility.yul\":3676:3865   */\n  pop\n  pop\n  jump\t// out\n    /* \"#utility.yul\":3871:4057   */\ntag_93:\n    /* \"#utility.yul\":3931:4051   */\ntag_164:\n    /* \"#utility.yul\":3948:3951   */\n  dup2\n    /* \"#utility.yul\":3941:3946   */\n  dup2\n    /* \"#utility.yul\":3938:3952   */\n  lt\n    /* \"#utility.yul\":3931:4051   */\n  iszero\n  tag_166\n  jumpi\n    /* \"#utility.yul\":4002:4041   */\n  tag_167\n    /* \"#utility.yul\":4039:4040   */\n  0x00\n    /* \"#utility.yul\":4032:4037   */\n  dup3\n    /* \"#utility.yul\":4002:4041   */\n  tag_92\n  jump\t// in\ntag_167:\n    /* \"#utility.yul\":3975:3976   */\n  0x01\n    /* \"#utility.yul\":3968:3973   */\n  dup2\n    /* \"#utility.yul\":3964:3977   */\n  add\n    /* \"#utility.yul\":3955:3977   */\n  swap1\n  pop\n    /* \"#utility.yul\":3931:4051   */\n  jump(tag_164)\ntag_166:\n    /* \"#utility.yul\":3871:4057   */\n  pop\n  pop\n  jump\t// out\n    /* \"#utility.yul\":4063:4606   */\ntag_94:\n    /* \"#utility.yul\":4164:4166   */\n  0x1f\n    /* \"#utility.yul\":4159:4162   */\n  dup3\n    /* \"#utility.yul\":4156:4167   */\n  gt\n    /* \"#utility.yul\":4153:4599   */\n  iszero\n  tag_169\n  jumpi\n    /* \"#utility.yul\":4198:4236   */\n  tag_170\n    /* \"#utility.yul\":4230:4235   */\n  dup2\n    /* \"#utility.yul\":4198:4236   */\n  tag_83\n  jump\t// in\ntag_170:\n    /* \"#utility.yul\":4282:4311   */\n  tag_171\n    /* \"#utility.yul\":4300:4310   */\n  dup5\n    /* \"#utility.yul\":4282:4311   */\n  tag_84\n  jump\t// in\ntag_171:\n    /* \"#utility.yul\":4272:4280   */\n  dup2\n    /* \"#utility.yul\":4268:4312   */\n  add\n    /* \"#utility.yul\":4465:4467   */\n  0x20\n    /* \"#utility.yul\":4453:4463   */\n  dup6\n    /* \"#utility.yul\":4450:4468   */\n  lt\n    /* \"#utility.yul\":4447:4496   */\n  iszero\n  tag_172\n  jumpi\n    /* \"#utility.yul\":4486:4494   */\n  dup2\n    /* \"#utility.yul\":4471:4494   */\n  swap1\n  pop\n    /* \"#utility.yul\":4447:4496   */\ntag_172:\n    /* \"#utility.yul\":4509:4589   */\n  tag_173\n    /* \"#utility.yul\":4565:4587   */\n  tag_174\n    /* \"#utility.yul\":4583:4586   */\n  dup6\n    /* \"#utility.yul\":4565:4587   */\n  tag_84\n  jump\t// in\ntag_174:\n    /* \"#utility.yul\":4555:4563   */\n  dup4\n    /* \"#utility.yul\":4551:4588   */\n  add\n    /* \"#utility.yul\":4538:4549   */\n  dup3\n    /* \"#utility.yul\":4509:4589   */\n  tag_93\n  jump\t// in\ntag_173:\n    /* \"#utility.yul\":4168:4599   */\n  pop\n  pop\n    /* \"#utility.yul\":4153:4599   */\ntag_169:\n    /* \"#utility.yul\":4063:4606   */\n  pop\n  pop\n  pop\n  jump\t// out\n    /* \"#utility.yul\":4612:4729   */\ntag_95:\n    /* \"#utility.yul\":4666:4674   */\n  0x00\n    /* \"#utility.yul\":4716:4721   */\n  dup3\n    /* \"#utility.yul\":4710:4714   */\n  dup3\n    /* \"#utility.yul\":4706:4722   */\n  shr\n    /* \"#utility.yul\":4685:4722   */\n  swap1\n  pop\n    /* \"#utility.yul\":4612:4729   */\n  swap3\n  swap2\n  pop\n  pop\n  jump\t// out\n    /* \"#utility.yul\":4735:4904   */\ntag_96:\n    /* \"#utility.yul\":4779:4785   */\n  0x00\n    /* \"#utility.yul\":4812:4863   */\n  tag_177\n    /* \"#utility.yul\":4860:4861   */\n  0x00\n    /* \"#utility.yul\":4856:4862   */\n  not\n    /* \"#utility.yul\":4848:4853   */\n  dup5\n    /* \"#utility.yul\":4845:4846   */\n  0x08\n    /* \"#utility.yul\":4841:4854   */\n  mul\n    /* \"#utility.yul\":4812:4863   */\n  tag_95\n  jump\t// in\ntag_177:\n    /* \"#utility.yul\":4808:4864   */\n  not\n    /* \"#utility.yul\":4893:4897   */\n  dup1\n    /* \"#utility.yul\":4887:4891   */\n  dup4\n    /* \"#utility.yul\":4883:4898   */\n  and\n    /* \"#utility.yul\":4873:4898   */\n  swap2\n  pop\n    /* \"#utility.yul\":4786:4904   */\n  pop\n    /* \"#utility.yul\":4735:4904   */\n  swap3\n  swap2\n  pop\n  pop\n  jump\t// out\n    /* \"#utility.yul\":4909:5204   */\ntag_97:\n    /* \"#utility.yul\":4985:4989   */\n  0x00\n    /* \"#utility.yul\":5131:5160   */\n  tag_179\n    /* \"#utility.yul\":5156:5159   */\n  dup4\n    /* \"#utility.yul\":5150:5154   */\n  dup4\n    /* \"#utility.yul\":5131:5160   */\n  tag_96\n  jump\t// in\ntag_179:\n    /* \"#utility.yul\":5123:5160   */\n  swap2\n  pop\n    /* \"#utility.yul\":5193:5196   */\n  dup3\n    /* \"#utility.yul\":5190:5191   */\n  0x02\n    /* \"#utility.yul\":5186:5197   */\n  mul\n    /* \"#utility.yul\":5180:5184   */\n  dup3\n    /* \"#utility.yul\":5177:5198   */\n  or\n    /* \"#utility.yul\":5169:5198   */\n  swap1\n  pop\n    /* \"#utility.yul\":4909:5204   */\n  swap3\n  swap2\n  pop\n  pop\n  jump\t// out\n    /* \"#utility.yul\":5209:6604   */\ntag_24:\n    /* \"#utility.yul\":5326:5363   */\n  tag_181\n    /* \"#utility.yul\":5359:5362   */\n  dup3\n    /* \"#utility.yul\":5326:5363   */\n  tag_79\n  jump\t// in\ntag_181:\n    /* \"#utility.yul\":5428:5446   */\n  0xffffffffffffffff\n    /* \"#utility.yul\":5420:5426   */\n  dup2\n    /* \"#utility.yul\":5417:5447   */\n  gt\n    /* \"#utility.yul\":5414:5470   */\n  iszero\n  tag_182\n  jumpi\n    /* \"#utility.yul\":5450:5468   */\n  tag_183\n  tag_80\n  jump\t// in\ntag_183:\n    /* \"#utility.yul\":5414:5470   */\ntag_182:\n    /* \"#utility.yul\":5494:5532   */\n  tag_184\n    /* \"#utility.yul\":5526:5530   */\n  dup3\n    /* \"#utility.yul\":5520:5531   */\n  sload\n    /* \"#utility.yul\":5494:5532   */\n  tag_82\n  jump\t// in\ntag_184:\n    /* \"#utility.yul\":5579:5646   */\n  tag_185\n    /* \"#utility.yul\":5639:5645   */\n  dup3\n    /* \"#utility.yul\":5631:5637   */\n  dup3\n    /* \"#utility.yul\":5625:5629   */\n  dup6\n    /* \"#utility.yul\":5579:5646   */\n  tag_94\n  jump\t// in\ntag_185:\n    /* \"#utility.yul\":5673:5674   */\n  0x00\n    /* \"#utility.yul\":5697:5701   */\n  0x20\n    /* \"#utility.yul\":5684:5701   */\n  swap1\n  pop\n    /* \"#utility.yul\":5729:5731   */\n  0x1f\n    /* \"#utility.yul\":5721:5727   */\n  dup4\n    /* \"#utility.yul\":5718:5732   */\n  gt\n    /* \"#utility.yul\":5746:5747   */\n  0x01\n    /* \"#utility.yul\":5741:6359   */\n  dup2\n  eq\n  tag_187\n  jumpi\n    /* \"#utility.yul\":6403:6404   */\n  0x00\n    /* \"#utility.yul\":6420:6426   */\n  dup5\n    /* \"#utility.yul\":6417:6494   */\n  iszero\n  tag_188\n  jumpi\n    /* \"#utility.yul\":6469:6478   */\n  dup3\n    /* \"#utility.yul\":6464:6467   */\n  dup8\n    /* \"#utility.yul\":6460:6479   */\n  add\n    /* \"#utility.yul\":6454:6480   */\n  mload\n    /* \"#utility.yul\":6445:6480   */\n  swap1\n  pop\n    /* \"#utility.yul\":6417:6494   */\ntag_188:\n    /* \"#utility.yul\":6520:6587   */\n  tag_189\n    /* \"#utility.yul\":6580:6586   */\n  dup6\n    /* \"#utility.yul\":6573:6578   */\n  dup3\n    /* \"#utility.yul\":6520:6587   */\n  tag_97\n  jump\t// in\ntag_189:\n    /* \"#utility.yul\":6514:6518   */\n  dup7\n    /* \"#utility.yul\":6507:6588   */\n  sstore\n    /* \"#utility.yul\":6376:6598   */\n  pop\n    /* \"#utility.yul\":5711:6598   */\n  jump(tag_186)\n    /* \"#utility.yul\":5741:6359   */\ntag_187:\n    /* \"#utility.yul\":5793:5797   */\n  0x1f\n    /* \"#utility.yul\":5789:5798   */\n  not\n    /* \"#utility.yul\":5781:5787   */\n  dup5\n    /* \"#utility.yul\":5777:5799   */\n  and\n    /* \"#utility.yul\":5827:5864   */\n  tag_190\n    /* \"#utility.yul\":5859:5863   */\n  dup7\n    /* \"#utility.yul\":5827:5864   */\n  tag_83\n  jump\t// in\ntag_190:\n    /* \"#utility.yul\":5886:5887   */\n  0x00\n    /* \"#utility.yul\":5900:6108   */\ntag_191:\n    /* \"#utility.yul\":5914:5921   */\n  dup3\n    /* \"#utility.yul\":5911:5912   */\n  dup2\n    /* \"#utility.yul\":5908:5922   */\n  lt\n    /* \"#utility.yul\":5900:6108   */\n  iszero\n  tag_193\n  jumpi\n    /* \"#utility.yul\":5993:6002   */\n  dup5\n    /* \"#utility.yul\":5988:5991   */\n  dup10\n    /* \"#utility.yul\":5984:6003   */\n  add\n    /* \"#utility.yul\":5978:6004   */\n  mload\n    /* \"#utility.yul\":5970:5976   */\n  dup3\n    /* \"#utility.yul\":5963:6005   */\n  sstore\n    /* \"#utility.yul\":6044:6045   */\n  0x01\n    /* \"#utility.yul\":6036:6042   */\n  dup3\n    /* \"#utility.yul\":6032:6046   */\n  add\n    /* \"#utility.yul\":6022:6046   */\n  swap2\n  pop\n    /* \"#utility.yul\":6091:6093   */\n  0x20\n    /* \"#utility.yul\":6080:6089   */\n  dup6\n    /* \"#utility.yul\":6076:6094   */\n  add\n    /* \"#utility.yul\":6063:6094   */\n  swap5\n  pop\n    /* \"#utility.yul\":5937:5941   */\n  0x20\n    /* \"#utility.yul\":5934:5935   */\n  dup2\n    /* \"#utility.yul\":5930:5942   */\n  add\n    /* \"#utility.yul\":5925:5942   */\n  swap1\n  pop\n    /* \"#utility.yul\":5900:6108   */\n  jump(tag_191)\ntag_193:\n    /* \"#utility.yul\":6136:6142   */\n  dup7\n    /* \"#utility.yul\":6127:6134   */\n  dup4\n    /* \"#utility.yul\":6124:6143   */\n  lt\n    /* \"#utility.yul\":6121:6300   */\n  iszero\n  tag_194\n  jumpi\n    /* \"#utility.yul\":6194:6203   */\n  dup5\n    /* \"#utility.yul\":6189:6192   */\n  dup10\n    /* \"#utility.yul\":6185:6204   */\n  add\n    /* \"#utility.yul\":6179:6205   */\n  mload\n    /* \"#utility.yul\":6237:6285   */\n  tag_195\n    /* \"#utility.yul\":6279:6283   */\n  0x1f\n    /* \"#utility.yul\":6271:6277   */\n  dup10\n    /* \"#utility.yul\":6267:6284   */\n  and\n    /* \"#utility.yul\":6256:6265   */\n  dup3\n    /* \"#utility.yul\":6237:6285   */\n  tag_96\n  jump\t// in\ntag_195:\n    /* \"#utility.yul\":6229:6235   */\n  dup4\n    /* \"#utility.yul\":6222:6286   */\n  sstore\n    /* \"#utility.yul\":6144:6300   */\n  pop\n    /* \"#utility.yul\":6121:6300   */\ntag_194:\n    /* \"#utility.yul\":6346:6347   */\n  0x01\n    /* \"#utility.yul\":6342:6343   */\n  0x02\n    /* \"#utility.yul\":6334:6340   */\n  dup9\n    /* \"#utility.yul\":6330:6344   */\n  mul\n    /* \"#utility.yul\":6326:6348   */\n  add\n    /* \"#utility.yul\":6320:6324   */\n  dup9\n    /* \"#utility.yul\":6313:6349   */\n  sstore\n    /* \"#utility.yul\":5748:6359   */\n  pop\n  pop\n  pop\n    /* \"#utility.yul\":5711:6598   */\ntag_186:\n  pop\n    /* \"#utility.yul\":5301:6604   */\n  pop\n  pop\n  pop\n    /* \"#utility.yul\":5209:6604   */\n  pop\n  pop\n  jump\t// out\n    /* \"#utility.yul\":6610:6687   */\ntag_98:\n    /* \"#utility.yul\":6647:6654   */\n  0x00\n    /* \"#utility.yul\":6676:6681   */\n  dup2\n    /* \"#utility.yul\":6665:6681   */\n  swap1\n  pop\n    /* \"#utility.yul\":6610:6687   */\n  swap2\n  swap1\n  pop\n  jump\t// out\n    /* \"#utility.yul\":6693:6811   */\ntag_99:\n    /* \"#utility.yul\":6780:6804   */\n  tag_198\n    /* \"#utility.yul\":6798:6803   */\n  dup2\n    /* \"#utility.yul\":6780:6804   */\n  tag_98\n  jump\t// in\ntag_198:\n    /* \"#utility.yul\":6775:6778   */\n  dup3\n    /* \"#utility.yul\":6768:6805   */\n  mstore\n    /* \"#utility.yul\":6693:6811   */\n  pop\n  pop\n  jump\t// out\n    /* \"#utility.yul\":6817:6935   */\ntag_100:\n    /* \"#utility.yul\":6904:6928   */\n  tag_200\n    /* \"#utility.yul\":6922:6927   */\n  dup2\n    /* \"#utility.yul\":6904:6928   */\n  tag_76\n  jump\t// in\ntag_200:\n    /* \"#utility.yul\":6899:6902   */\n  dup3\n    /* \"#utility.yul\":6892:6929   */\n  mstore\n    /* \"#utility.yul\":6817:6935   */\n  pop\n  pop\n  jump\t// out\n    /* \"#utility.yul\":6941:7067   */\ntag_101:\n    /* \"#utility.yul\":6978:6985   */\n  0x00\n    /* \"#utility.yul\":7018:7060   */\n  0xffffffffffffffffffffffffffffffffffffffff\n    /* \"#utility.yul\":7011:7016   */\n  dup3\n    /* \"#utility.yul\":7007:7061   */\n  and\n    /* \"#utility.yul\":6996:7061   */\n  swap1\n  pop\n    /* \"#utility.yul\":6941:7067   */\n  swap2\n  swap1\n  pop\n  jump\t// out\n    /* \"#utility.yul\":7073:7169   */\ntag_102:\n    /* \"#utility.yul\":7110:7117   */\n  0x00\n    /* \"#utility.yul\":7139:7163   */\n  tag_203\n    /* \"#utility.yul\":7157:7162   */\n  dup3\n    /* \"#utility.yul\":7139:7163   */\n  tag_101\n  jump\t// in\ntag_203:\n    /* \"#utility.yul\":7128:7163   */\n  swap1\n  pop\n    /* \"#utility.yul\":7073:7169   */\n  swap2\n  swap1\n  pop\n  jump\t// out\n    /* \"#utility.yul\":7175:7293   */\ntag_103:\n    /* \"#utility.yul\":7262:7286   */\n  tag_205\n    /* \"#utility.yul\":7280:7285   */\n  dup2\n    /* \"#utility.yul\":7262:7286   */\n  tag_102\n  jump\t// in\ntag_205:\n    /* \"#utility.yul\":7257:7260   */\n  dup3\n    /* \"#utility.yul\":7250:7287   */\n  mstore\n    /* \"#utility.yul\":7175:7293   */\n  pop\n  pop\n  jump\t// out\n    /* \"#utility.yul\":7299:7963   */\ntag_51:\n    /* \"#utility.yul\":7504:7508   */\n  0x00\n    /* \"#utility.yul\":7542:7545   */\n  0xa0\n    /* \"#utility.yul\":7531:7540   */\n  dup3\n    /* \"#utility.yul\":7527:7546   */\n  add\n    /* \"#utility.yul\":7519:7546   */\n  swap1\n  pop\n    /* \"#utility.yul\":7556:7627   */\n  tag_207\n    /* \"#utility.yul\":7624:7625   */\n  0x00\n    /* \"#utility.yul\":7613:7622   */\n  dup4\n    /* \"#utility.yul\":7609:7626   */\n  add\n    /* \"#utility.yul\":7600:7606   */\n  dup9\n    /* \"#utility.yul\":7556:7627   */\n  tag_99\n  jump\t// in\ntag_207:\n    /* \"#utility.yul\":7637:7709   */\n  tag_208\n    /* \"#utility.yul\":7705:7707   */\n  0x20\n    /* \"#utility.yul\":7694:7703   */\n  dup4\n    /* \"#utility.yul\":7690:7708   */\n  add\n    /* \"#utility.yul\":7681:7687   */\n  dup8\n    /* \"#utility.yul\":7637:7709   */\n  tag_99\n  jump\t// in\ntag_208:\n    /* \"#utility.yul\":7719:7791   */\n  tag_209\n    /* \"#utility.yul\":7787:7789   */\n  0x40\n    /* \"#utility.yul\":7776:7785   */\n  dup4\n    /* \"#utility.yul\":7772:7790   */\n  add\n    /* \"#utility.yul\":7763:7769   */\n  dup7\n    /* \"#utility.yul\":7719:7791   */\n  tag_99\n  jump\t// in\ntag_209:\n    /* \"#utility.yul\":7801:7873   */\n  tag_210\n    /* \"#utility.yul\":7869:7871   */\n  0x60\n    /* \"#utility.yul\":7858:7867   */\n  dup4\n    /* \"#utility.yul\":7854:7872   */\n  add\n    /* \"#utility.yul\":7845:7851   */\n  dup6\n    /* \"#utility.yul\":7801:7873   */\n  tag_100\n  jump\t// in\ntag_210:\n    /* \"#utility.yul\":7883:7956   */\n  tag_211\n    /* \"#utility.yul\":7951:7954   */\n  0x80\n    /* \"#utility.yul\":7940:7949   */\n  dup4\n    /* \"#utility.yul\":7936:7955   */\n  add\n    /* \"#utility.yul\":7927:7933   */\n  dup5\n    /* \"#utility.yul\":7883:7956   */\n  tag_103\n  jump\t// in\ntag_211:\n    /* \"#utility.yul\":7299:7963   */\n  swap7\n  swap6\n  pop\n  pop\n  pop\n  pop\n  pop\n  pop\n  jump\t// out\n    /* \"#utility.yul\":7969:8191   */\ntag_55:\n    /* \"#utility.yul\":8062:8066   */\n  0x00\n    /* \"#utility.yul\":8100:8102   */\n  0x20\n    /* \"#utility.yul\":8089:8098   */\n  dup3\n    /* \"#utility.yul\":8085:8103   */\n  add\n    /* \"#utility.yul\":8077:8103   */\n  swap1\n  pop\n    /* \"#utility.yul\":8113:8184   */\n  tag_213\n    /* \"#utility.yul\":8181:8182   */\n  0x00\n    /* \"#utility.yul\":8170:8179   */\n  dup4\n    /* \"#utility.yul\":8166:8183   */\n  add\n    /* \"#utility.yul\":8157:8163   */\n  dup5\n    /* \"#utility.yul\":8113:8184   */\n  tag_103\n  jump\t// in\ntag_213:\n    /* \"#utility.yul\":7969:8191   */\n  swap3\n  swap2\n  pop\n  pop\n  jump\t// out\n    /* \"#utility.yul\":8197:8366   */\ntag_104:\n    /* \"#utility.yul\":8281:8292   */\n  0x00\n    /* \"#utility.yul\":8315:8321   */\n  dup3\n    /* \"#utility.yul\":8310:8313   */\n  dup3\n    /* \"#utility.yul\":8303:8322   */\n  mstore\n    /* \"#utility.yul\":8355:8359   */\n  0x20\n    /* \"#utility.yul\":8350:8353   */\n  dup3\n    /* \"#utility.yul\":8346:8360   */\n  add\n    /* \"#utility.yul\":8331:8360   */\n  swap1\n  pop\n    /* \"#utility.yul\":8197:8366   */\n  swap3\n  swap2\n  pop\n  pop\n  jump\t// out\n    /* \"#utility.yul\":8372:8618   */\ntag_105:\n    /* \"#utility.yul\":8453:8454   */\n  0x00\n    /* \"#utility.yul\":8463:8576   */\ntag_216:\n    /* \"#utility.yul\":8477:8483   */\n  dup4\n    /* \"#utility.yul\":8474:8475   */\n  dup2\n    /* \"#utility.yul\":8471:8484   */\n  lt\n    /* \"#utility.yul\":8463:8576   */\n  iszero\n  tag_218\n  jumpi\n    /* \"#utility.yul\":8562:8563   */\n  dup1\n    /* \"#utility.yul\":8557:8560   */\n  dup3\n    /* \"#utility.yul\":8553:8564   */\n  add\n    /* \"#utility.yul\":8547:8565   */\n  mload\n    /* \"#utility.yul\":8543:8544   */\n  dup2\n    /* \"#utility.yul\":8538:8541   */\n  dup5\n    /* \"#utility.yul\":8534:8545   */\n  add\n    /* \"#utility.yul\":8527:8566   */\n  mstore\n    /* \"#utility.yul\":8499:8501   */\n  0x20\n    /* \"#utility.yul\":8496:8497   */\n  dup2\n    /* \"#utility.yul\":8492:8502   */\n  add\n    /* \"#utility.yul\":8487:8502   */\n  swap1\n  pop\n    /* \"#utility.yul\":8463:8576   */\n  jump(tag_216)\ntag_218:\n    /* \"#utility.yul\":8610:8611   */\n  0x00\n    /* \"#utility.yul\":8601:8607   */\n  dup5\n    /* \"#utility.yul\":8596:8599   */\n  dup5\n    /* \"#utility.yul\":8592:8608   */\n  add\n    /* \"#utility.yul\":8585:8612   */\n  mstore\n    /* \"#utility.yul\":8434:8618   */\n  pop\n    /* \"#utility.yul\":8372:8618   */\n  pop\n  pop\n  pop\n  jump\t// out\n    /* \"#utility.yul\":8624:8726   */\ntag_106:\n    /* \"#utility.yul\":8665:8671   */\n  0x00\n    /* \"#utility.yul\":8716:8718   */\n  0x1f\n    /* \"#utility.yul\":8712:8719   */\n  not\n    /* \"#utility.yul\":8707:8709   */\n  0x1f\n    /* \"#utility.yul\":8700:8705   */\n  dup4\n    /* \"#utility.yul\":8696:8710   */\n  add\n    /* \"#utility.yul\":8692:8720   */\n  and\n    /* \"#utility.yul\":8682:8720   */\n  swap1\n  pop\n    /* \"#utility.yul\":8624:8726   */\n  swap2\n  swap1\n  pop\n  jump\t// out\n    /* \"#utility.yul\":8732:9109   */\ntag_107:\n    /* \"#utility.yul\":8820:8823   */\n  0x00\n    /* \"#utility.yul\":8848:8887   */\n  tag_221\n    /* \"#utility.yul\":8881:8886   */\n  dup3\n    /* \"#utility.yul\":8848:8887   */\n  tag_79\n  jump\t// in\ntag_221:\n    /* \"#utility.yul\":8903:8974   */\n  tag_222\n    /* \"#utility.yul\":8967:8973   */\n  dup2\n    /* \"#utility.yul\":8962:8965   */\n  dup6\n    /* \"#utility.yul\":8903:8974   */\n  tag_104\n  jump\t// in\ntag_222:\n    /* \"#utility.yul\":8896:8974   */\n  swap4\n  pop\n    /* \"#utility.yul\":8983:9048   */\n  tag_223\n    /* \"#utility.yul\":9041:9047   */\n  dup2\n    /* \"#utility.yul\":9036:9039   */\n  dup6\n    /* \"#utility.yul\":9029:9033   */\n  0x20\n    /* \"#utility.yul\":9022:9027   */\n  dup7\n    /* \"#utility.yul\":9018:9034   */\n  add\n    /* \"#utility.yul\":8983:9048   */\n  tag_105\n  jump\t// in\ntag_223:\n    /* \"#utility.yul\":9073:9102   */\n  tag_224\n    /* \"#utility.yul\":9095:9101   */\n  dup2\n    /* \"#utility.yul\":9073:9102   */\n  tag_106\n  jump\t// in\ntag_224:\n    /* \"#utility.yul\":9068:9071   */\n  dup5\n    /* \"#utility.yul\":9064:9103   */\n  add\n    /* \"#utility.yul\":9057:9103   */\n  swap2\n  pop\n    /* \"#utility.yul\":8824:9109   */\n  pop\n    /* \"#utility.yul\":8732:9109   */\n  swap3\n  swap2\n  pop\n  pop\n  jump\t// out\n    /* \"#utility.yul\":9115:9428   */\ntag_61:\n    /* \"#utility.yul\":9228:9232   */\n  0x00\n    /* \"#utility.yul\":9266:9268   */\n  0x20\n    /* \"#utility.yul\":9255:9264   */\n  dup3\n    /* \"#utility.yul\":9251:9269   */\n  add\n    /* \"#utility.yul\":9243:9269   */\n  swap1\n  pop\n    /* \"#utility.yul\":9315:9324   */\n  dup2\n    /* \"#utility.yul\":9309:9313   */\n  dup2\n    /* \"#utility.yul\":9305:9325   */\n  sub\n    /* \"#utility.yul\":9301:9302   */\n  0x00\n    /* \"#utility.yul\":9290:9299   */\n  dup4\n    /* \"#utility.yul\":9286:9303   */\n  add\n    /* \"#utility.yul\":9279:9326   */\n  mstore\n    /* \"#utility.yul\":9343:9421   */\n  tag_226\n    /* \"#utility.yul\":9416:9420   */\n  dup2\n    /* \"#utility.yul\":9407:9413   */\n  dup5\n    /* \"#utility.yul\":9343:9421   */\n  tag_107\n  jump\t// in\ntag_226:\n    /* \"#utility.yul\":9335:9421   */\n  swap1\n  pop\n    /* \"#utility.yul\":9115:9428   */\n  swap3\n  swap2\n  pop\n  pop\n  jump\t// out\n    /* \"#utility.yul\":9434:9532   */\ntag_108:\n    /* \"#utility.yul\":9485:9491   */\n  0x00\n    /* \"#utility.yul\":9519:9524   */\n  dup2\n    /* \"#utility.yul\":9513:9525   */\n  mload\n    /* \"#utility.yul\":9503:9525   */\n  swap1\n  pop\n    /* \"#utility.yul\":9434:9532   */\n  swap2\n  swap1\n  pop\n  jump\t// out\n    /* \"#utility.yul\":9538:9654   */\ntag_109:\n    /* \"#utility.yul\":9589:9593   */\n  0x00\n    /* \"#utility.yul\":9612:9615   */\n  dup2\n    /* \"#utility.yul\":9604:9615   */\n  swap1\n  pop\n    /* \"#utility.yul\":9642:9646   */\n  0x20\n    /* \"#utility.yul\":9637:9640   */\n  dup3\n    /* \"#utility.yul\":9633:9647   */\n  add\n    /* \"#utility.yul\":9625:9647   */\n  swap1\n  pop\n    /* \"#utility.yul\":9538:9654   */\n  swap2\n  swap1\n  pop\n  jump\t// out\n    /* \"#utility.yul\":9660:9814   */\ntag_110:\n    /* \"#utility.yul\":9703:9714   */\n  0x00\n    /* \"#utility.yul\":9739:9768   */\n  tag_230\n    /* \"#utility.yul\":9763:9766   */\n  dup3\n    /* \"#utility.yul\":9757:9767   */\n  mload\n    /* \"#utility.yul\":9739:9768   */\n  tag_98\n  jump\t// in\ntag_230:\n    /* \"#utility.yul\":9802:9807   */\n  dup1\n    /* \"#utility.yul\":9778:9807   */\n  swap2\n  pop\n    /* \"#utility.yul\":9715:9814   */\n  pop\n    /* \"#utility.yul\":9660:9814   */\n  swap2\n  swap1\n  pop\n  jump\t// out\n    /* \"#utility.yul\":9820:10414   */\ntag_63:\n    /* \"#utility.yul\":9904:9909   */\n  0x00\n    /* \"#utility.yul\":9935:9973   */\n  tag_232\n    /* \"#utility.yul\":9967:9972   */\n  dup3\n    /* \"#utility.yul\":9935:9973   */\n  tag_108\n  jump\t// in\ntag_232:\n    /* \"#utility.yul\":9998:10003   */\n  dup3\n    /* \"#utility.yul\":10025:10065   */\n  tag_233\n    /* \"#utility.yul\":10059:10064   */\n  dup5\n    /* \"#utility.yul\":10025:10065   */\n  tag_109\n  jump\t// in\ntag_233:\n    /* \"#utility.yul\":10013:10065   */\n  swap1\n  pop\n    /* \"#utility.yul\":10084:10119   */\n  tag_234\n    /* \"#utility.yul\":10110:10118   */\n  dup2\n    /* \"#utility.yul\":10084:10119   */\n  tag_110\n  jump\t// in\ntag_234:\n    /* \"#utility.yul\":10075:10119   */\n  swap3\n  pop\n    /* \"#utility.yul\":10143:10145   */\n  0x20\n    /* \"#utility.yul\":10135:10141   */\n  dup3\n    /* \"#utility.yul\":10132:10146   */\n  lt\n    /* \"#utility.yul\":10129:10407   */\n  iszero\n  tag_235\n  jumpi\n    /* \"#utility.yul\":10214:10383   */\n  tag_236\n    /* \"#utility.yul\":10299:10365   */\n  0xffffffffffffffffffffffffffffffffffffffffffffffffffffffffffffffff\n    /* \"#utility.yul\":10269:10275   */\n  dup4\n    /* \"#utility.yul\":10265:10267   */\n  0x20\n    /* \"#utility.yul\":10261:10276   */\n  sub\n    /* \"#utility.yul\":10258:10259   */\n  0x08\n    /* \"#utility.yul\":10254:10277   */\n  mul\n    /* \"#utility.yul\":10214:10383   */\n  tag_85\n  jump\t// in\ntag_236:\n    /* \"#utility.yul\":10191:10196   */\n  dup4\n    /* \"#utility.yul\":10170:10397   */\n  and\n    /* \"#utility.yul\":10161:10397   */\n  swap3\n  pop\n    /* \"#utility.yul\":10129:10407   */\ntag_235:\n    /* \"#utility.yul\":9910:10414   */\n  pop\n  pop\n    /* \"#utility.yul\":9820:10414   */\n  swap2\n  swap1\n  pop\n  jump\t// out\n    /* \"#utility.yul\":10420:10862   */\ntag_71:\n    /* \"#utility.yul\":10569:10573   */\n  0x00\n    /* \"#utility.yul\":10607:10609   */\n  0x60\n    /* \"#utility.yul\":10596:10605   */\n  dup3\n    /* \"#utility.yul\":10592:10610   */\n  add\n    /* \"#utility.yul\":10584:10610   */\n  swap1\n  pop\n    /* \"#utility.yul\":10620:10691   */\n  tag_238\n    /* \"#utility.yul\":10688:10689   */\n  0x00\n    /* \"#utility.yul\":10677:10686   */\n  dup4\n    /* \"#utility.yul\":10673:10690   */\n  add\n    /* \"#utility.yul\":10664:10670   */\n  dup7\n    /* \"#utility.yul\":10620:10691   */\n  tag_103\n  jump\t// in\ntag_238:\n    /* \"#utility.yul\":10701:10773   */\n  tag_239\n    /* \"#utility.yul\":10769:10771   */\n  0x20\n    /* \"#utility.yul\":10758:10767   */\n  dup4\n    /* \"#utility.yul\":10754:10772   */\n  add\n    /* \"#utility.yul\":10745:10751   */\n  dup6\n    /* \"#utility.yul\":10701:10773   */\n  tag_100\n  jump\t// in\ntag_239:\n    /* \"#utility.yul\":10783:10855   */\n  tag_240\n    /* \"#utility.yul\":10851:10853   */\n  0x40\n    /* \"#utility.yul\":10840:10849   */\n  dup4\n    /* \"#utility.yul\":10836:10854   */\n  add\n    /* \"#utility.yul\":10827:10833   */\n  dup5\n    /* \"#utility.yul\":10783:10855   */\n  tag_100\n  jump\t// in\ntag_240:\n    /* \"#utility.yul\":10420:10862   */\n  swap5\n  swap4\n  pop\n  pop\n  pop\n  pop\n  jump\t// out\n    /* \"#utility.yul\":10868:11090   */\ntag_75:\n    /* \"#utility.yul\":10961:10965   */\n  0x00\n    /* \"#utility.yul\":10999:11001   */\n  0x20\n    /* \"#utility.yul\":10988:10997   */\n  dup3\n    /* \"#utility.yul\":10984:11002   */\n  add\n    /* \"#utility.yul\":10976:11002   */\n  swap1\n  pop\n    /* \"#utility.yul\":11012:11083   */\n  tag_242\n    /* \"#utility.yul\":11080:11081   */\n  0x00\n    /* \"#utility.yul\":11069:11078   */\n  dup4\n    /* \"#utility.yul\":11065:11082   */\n  add\n    /* \"#utility.yul\":11056:11062   */\n  dup5\n    /* \"#utility.yul\":11012:11083   */\n  tag_100\n  jump\t// in\ntag_242:\n    /* \"#utility.yul\":10868:11090   */\n  swap3\n  swap2\n  pop\n  pop\n  jump\t// out\n    /* \"contracts/MAZZE.sol\":263:2682  contract MAZZE is ERC20, ERC20Burnable, ERC20Permit {... */\ntag_40:\n  mload(0x80)\n  mload(0xa0)\n  mload(0xc0)\n  mload(0xe0)\n  mload(0x0100)\n  mload(0x0120)\n  mload(0x0140)\n  codecopy(0x00, dataOffset(sub_0), dataSize(sub_0))\n  0x00\n  assignImmutable(\"0xdd8940644e12ac8a6749b8aa71504a3b14c9bb5e8ba37bf9872a5ef5c483b2fb\")\n  0x00\n  assignImmutable(\"0x391ef01909572efb7d204e8ce08dbd2d1e392437d50ff998ce7d669b2ed67f61\")\n  0x00\n  assignImmutable(\"0x8e8569119eefcb0ba2ddb4d55ad51c94a71fd404cb84d2c6b9c5566c65b10537\")\n  0x00\n  assignImmutable(\"0x88f0c1d908d1668ca7118aff681e11ca5b5cbb882d45c5a709e452d6f304fae0\")\n  0x00\n  assignImmutable(\"0xe64fdd85c4abae7e17a3b10cd3c6103a9078ecff4005141468b48a65e9465227\")\n  0x00\n  assignImmutable(\"0x857cbdae2740be36a06a5ea5206f797d9496ca961868d881b9c58ad44b0c2326\")\n  0x00\n  assignImmutable(\"0x033cdec3b51e9b0f87aed3e9365b93cd119aeda7d52f3385376a68a56e70b52d\")\n  return(0x00, dataSize(sub_0))\nstop\n\nsub_0: assembly {\n        /* \"contracts/MAZZE.sol\":263:2682  contract MAZZE is ERC20, ERC20Burnable, ERC20Permit {... */\n      mstore(0x40, 0x80)\n      callvalue\n      dup1\n      iszero\n      tag_1\n      jumpi\n      0x00\n      dup1\n      revert\n    tag_1:\n      pop\n      jumpi(tag_2, lt(calldatasize, 0x04))\n      shr(0xe0, calldataload(0x00))\n      dup1\n      0x70a08231\n      gt\n      tag_17\n      jumpi\n      dup1\n      0x95d89b41\n      gt\n      tag_18\n      jumpi\n      dup1\n      0x95d89b41\n      eq\n      tag_13\n      jumpi\n      dup1\n      0xa9059cbb\n      eq\n      tag_14\n      jumpi\n      dup1\n      0xd505accf\n      eq\n      tag_15\n      jumpi\n      dup1\n      0xdd62ed3e\n      eq\n      tag_16\n      jumpi\n      jump(tag_2)\n    tag_18:\n      dup1\n      0x70a08231\n      eq\n      tag_10\n      jumpi\n      dup1\n      0x7ecebe00\n      eq\n      tag_11\n      jumpi\n      dup1\n      0x84b0196e\n      eq\n      tag_12\n      jumpi\n      jump(tag_2)\n    tag_17:\n      dup1\n      0x23b872dd\n      gt\n      tag_19\n      jumpi\n      dup1\n      0x23b872dd\n      eq\n      tag_6\n      jumpi\n      dup1\n      0x313ce567\n      eq\n      tag_7\n      jumpi\n      dup1\n      0x3644e515\n      eq\n      tag_8\n      jumpi\n      dup1\n      0x42966c68\n      eq\n      tag_9\n      jumpi\n      jump(tag_2)\n    tag_19:\n      dup1\n      0x06fdde03\n      eq\n      tag_3\n      jumpi\n      dup1\n      0x095ea7b3\n      eq\n      tag_4\n      jumpi\n      dup1\n      0x18160ddd\n      eq\n      tag_5\n      jumpi\n    tag_2:\n      0x00\n      dup1\n      revert\n        /* \"@openzeppelin/contracts/token/ERC20/ERC20.sol\":2074:2163  function name() public view virtual returns (string memory) {... */\n    tag_3:\n      tag_20\n      tag_21\n      jump\t// in\n    tag_20:\n      mload(0x40)\n      tag_22\n      swap2\n      swap1\n      tag_23\n      jump\t// in\n    tag_22:\n      mload(0x40)\n      dup1\n      swap2\n      sub\n      swap1\n      return\n        /* \"@openzeppelin/contracts/token/ERC20/ERC20.sol\":4293:4479  function approve(address spender, uint256 value) public virtual returns (bool) {... */\n    tag_4:\n      tag_24\n      0x04\n      dup1\n      calldatasize\n      sub\n      dup2\n      add\n      swap1\n      tag_25\n      swap2\n      swap1\n      tag_26\n      jump\t// in\n    tag_25:\n      tag_27\n      jump\t// in\n    tag_24:\n      mload(0x40)\n      tag_28\n      swap2\n      swap1\n      tag_29\n      jump\t// in\n    tag_28:\n      mload(0x40)\n      dup1\n      swap2\n      sub\n      swap1\n      return\n        /* \"@openzeppelin/contracts/token/ERC20/ERC20.sol\":3144:3241  function totalSupply() public view virtual returns (uint256) {... */\n    tag_5:\n      tag_30\n      tag_31\n      jump\t// in\n    tag_30:\n      mload(0x40)\n      tag_32\n      swap2\n      swap1\n      tag_33\n      jump\t// in\n    tag_32:\n      mload(0x40)\n      dup1\n      swap2\n      sub\n      swap1\n      return\n        /* \"@openzeppelin/contracts/token/ERC20/ERC20.sol\":5039:5283  function transferFrom(address from, address to, uint256 value) public virtual returns (bool) {... */\n    tag_6:\n      tag_34\n      0x04\n      dup1\n      calldatasize\n      sub\n      dup2\n      add\n      swap1\n      tag_35\n      swap2\n      swap1\n      tag_36\n      jump\t// in\n    tag_35:\n      tag_37\n      jump\t// in\n    tag_34:\n      mload(0x40)\n      tag_38\n      swap2\n      swap1\n      tag_29\n      jump\t// in\n    tag_38:\n      mload(0x40)\n      dup1\n      swap2\n      sub\n      swap1\n      return\n        /* \"@openzeppelin/contracts/token/ERC20/ERC20.sol\":3002:3084  function decimals() public view virtual returns (uint8) {... */\n    tag_7:\n      tag_39\n      tag_40\n      jump\t// in\n    tag_39:\n      mload(0x40)\n      tag_41\n      swap2\n      swap1\n      tag_42\n      jump\t// in\n    tag_41:\n      mload(0x40)\n      dup1\n      swap2\n      sub\n      swap1\n      return\n        /* \"@openzeppelin/contracts/token/ERC20/extensions/ERC20Permit.sol\":2656:2768  function DOMAIN_SEPARATOR() external view virtual returns (bytes32) {... */\n    tag_8:\n      tag_43\n      tag_44\n      jump\t// in\n    tag_43:\n      mload(0x40)\n      tag_45\n      swap2\n      swap1\n      tag_46\n      jump\t// in\n    tag_45:\n      mload(0x40)\n      dup1\n      swap2\n      sub\n      swap1\n      return\n        /* \"@openzeppelin/contracts/token/ERC20/extensions/ERC20Burnable.sol\":618:705  function burn(uint256 value) public virtual {... */\n    tag_9:\n      tag_47\n      0x04\n      dup1\n      calldatasize\n      sub\n      dup2\n      add\n      swap1\n      tag_48\n      swap2\n      swap1\n      tag_49\n      jump\t// in\n    tag_48:\n      tag_50\n      jump\t// in\n    tag_47:\n      stop\n        /* \"@openzeppelin/contracts/token/ERC20/ERC20.sol\":3299:3415  function balanceOf(address account) public view virtual returns (uint256) {... */\n    tag_10:\n      tag_51\n      0x04\n      dup1\n      calldatasize\n      sub\n      dup2\n      add\n      swap1\n      tag_52\n      swap2\n      swap1\n      tag_53\n      jump\t// in\n    tag_52:\n      tag_54\n      jump\t// in\n    tag_51:\n      mload(0x40)\n      tag_55\n      swap2\n      swap1\n      tag_33\n      jump\t// in\n    tag_55:\n      mload(0x40)\n      dup1\n      swap2\n      sub\n      swap1\n      return\n        /* \"@openzeppelin/contracts/token/ERC20/extensions/ERC20Permit.sol\":2406:2549  function nonces(address owner) public view virtual override(IERC20Permit, Nonces) returns (uint256) {... */\n    tag_11:\n      tag_56\n      0x04\n      dup1\n      calldatasize\n      sub\n      dup2\n      add\n      swap1\n      tag_57\n      swap2\n      swap1\n      tag_53\n      jump\t// in\n    tag_57:\n      tag_58\n      jump\t// in\n    tag_56:\n      mload(0x40)\n      tag_59\n      swap2\n      swap1\n      tag_33\n      jump\t// in\n    tag_59:\n      mload(0x40)\n      dup1\n      swap2\n      sub\n      swap1\n      return\n        /* \"@openzeppelin/contracts/utils/cryptography/EIP712.sol\":5144:5701  function eip712Domain()... */\n    tag_12:\n      tag_60\n      tag_61\n      jump\t// in\n    tag_60:\n      mload(0x40)\n      tag_62\n      swap8\n      swap7\n      swap6\n      swap5\n      swap4\n      swap3\n      swap2\n      swap1\n      tag_63\n      jump\t// in\n    tag_62:\n      mload(0x40)\n      dup1\n      swap2\n      sub\n      swap1\n      return\n        /* \"@openzeppelin/contracts/token/ERC20/ERC20.sol\":2276:2369  function symbol() public view virtual returns (string memory) {... */\n    tag_13:\n      tag_64\n      tag_65\n      jump\t// in\n    tag_64:\n      mload(0x40)\n      tag_66\n      swap2\n      swap1\n      tag_23\n      jump\t// in\n    tag_66:\n      mload(0x40)\n      dup1\n      swap2\n      sub\n      swap1\n      return\n        /* \"@openzeppelin/contracts/token/ERC20/ERC20.sol\":3610:3788  function transfer(address to, uint256 value) public virtual returns (bool) {... */\n    tag_14:\n      tag_67\n      0x04\n      dup1\n      calldatasize\n      sub\n      dup2\n      add\n      swap1\n      tag_68\n      swap2\n      swap1\n      tag_26\n      jump\t// in\n    tag_68:\n      tag_69\n      jump\t// in\n    tag_67:\n      mload(0x40)\n      tag_70\n      swap2\n      swap1\n      tag_29\n      jump\t// in\n    tag_70:\n      mload(0x40)\n      dup1\n      swap2\n      sub\n      swap1\n      return\n        /* \"@openzeppelin/contracts/token/ERC20/extensions/ERC20Permit.sol\":1680:2352  function permit(... */\n    tag_15:\n      tag_71\n      0x04\n      dup1\n      calldatasize\n      sub\n      dup2\n      add\n      swap1\n      tag_72\n      swap2\n      swap1\n      tag_73\n      jump\t// in\n    tag_72:\n      tag_74\n      jump\t// in\n    tag_71:\n      stop\n        /* \"@openzeppelin/contracts/token/ERC20/ERC20.sol\":3846:3986  function allowance(address owner, address spender) public view virtual returns (uint256) {... */\n    tag_16:\n      tag_75\n      0x04\n      dup1\n      calldatasize\n      sub\n      dup2\n      add\n      swap1\n      tag_76\n      swap2\n      swap1\n      tag_77\n      jump\t// in\n    tag_76:\n      tag_78\n      jump\t// in\n    tag_75:\n      mload(0x40)\n      tag_79\n      swap2\n      swap1\n      tag_33\n      jump\t// in\n    tag_79:\n      mload(0x40)\n      dup1\n      swap2\n      sub\n      swap1\n      return\n        /* \"@openzeppelin/contracts/token/ERC20/ERC20.sol\":2074:2163  function name() public view virtual returns (string memory) {... */\n    tag_21:\n        /* \"@openzeppelin/contracts/token/ERC20/ERC20.sol\":2119:2132  string memory */\n      0x60\n        /* \"@openzeppelin/contracts/token/ERC20/ERC20.sol\":2151:2156  _name */\n      0x03\n        /* \"@openzeppelin/contracts/token/ERC20/ERC20.sol\":2144:2156  return _name */\n      dup1\n      sload\n      tag_81\n      swap1\n      tag_82\n      jump\t// in\n    tag_81:\n      dup1\n      0x1f\n      add\n      0x20\n      dup1\n      swap2\n      div\n      mul\n      0x20\n      add\n      mload(0x40)\n      swap1\n      dup2\n      add\n      0x40\n      mstore\n      dup1\n      swap3\n      swap2\n      swap1\n      dup2\n      dup2\n      mstore\n      0x20\n      add\n      dup3\n      dup1\n      sload\n      tag_83\n      swap1\n      tag_82\n      jump\t// in\n    tag_83:\n      dup1\n      iszero\n      tag_84\n      jumpi\n      dup1\n      0x1f\n      lt\n      tag_85\n      jumpi\n      0x0100\n      dup1\n      dup4\n      sload\n      div\n      mul\n      dup4\n      mstore\n      swap2\n      0x20\n      add\n      swap2\n      jump(tag_84)\n    tag_85:\n      dup3\n      add\n      swap2\n      swap1\n      0x00\n      mstore\n      keccak256(0x00, 0x20)\n      swap1\n    tag_86:\n      dup2\n      sload\n      dup2\n      mstore\n      swap1\n      0x01\n      add\n      swap1\n      0x20\n      add\n      dup1\n      dup4\n      gt\n      tag_86\n      jumpi\n      dup3\n      swap1\n      sub\n      0x1f\n      and\n      dup3\n      add\n      swap2\n    tag_84:\n      pop\n      pop\n      pop\n      pop\n      pop\n      swap1\n      pop\n        /* \"@openzeppelin/contracts/token/ERC20/ERC20.sol\":2074:2163  function name() public view virtual returns (string memory) {... */\n      swap1\n      jump\t// out\n        /* \"@openzeppelin/contracts/token/ERC20/ERC20.sol\":4293:4479  function approve(address spender, uint256 value) public virtual returns (bool) {... */\n    tag_27:\n        /* \"@openzeppelin/contracts/token/ERC20/ERC20.sol\":4366:4370  bool */\n      0x00\n        /* \"@openzeppelin/contracts/token/ERC20/ERC20.sol\":4382:4395  address owner */\n      dup1\n        /* \"@openzeppelin/contracts/token/ERC20/ERC20.sol\":4398:4410  _msgSender() */\n      tag_88\n        /* \"@openzeppelin/contracts/token/ERC20/ERC20.sol\":4398:4408  _msgSender */\n      tag_89\n        /* \"@openzeppelin/contracts/token/ERC20/ERC20.sol\":4398:4410  _msgSender() */\n      jump\t// in\n    tag_88:\n        /* \"@openzeppelin/contracts/token/ERC20/ERC20.sol\":4382:4410  address owner = _msgSender() */\n      swap1\n      pop\n        /* \"@openzeppelin/contracts/token/ERC20/ERC20.sol\":4420:4451  _approve(owner, spender, value) */\n      tag_90\n        /* \"@openzeppelin/contracts/token/ERC20/ERC20.sol\":4429:4434  owner */\n      dup2\n        /* \"@openzeppelin/contracts/token/ERC20/ERC20.sol\":4436:4443  spender */\n      dup6\n        /* \"@openzeppelin/contracts/token/ERC20/ERC20.sol\":4445:4450  value */\n      dup6\n        /* \"@openzeppelin/contracts/token/ERC20/ERC20.sol\":4420:4428  _approve */\n      tag_91\n        /* \"@openzeppelin/contracts/token/ERC20/ERC20.sol\":4420:4451  _approve(owner, spender, value) */\n      jump\t// in\n    tag_90:\n        /* \"@openzeppelin/contracts/token/ERC20/ERC20.sol\":4468:4472  true */\n      0x01\n        /* \"@openzeppelin/contracts/token/ERC20/ERC20.sol\":4461:4472  return true */\n      swap2\n      pop\n      pop\n        /* \"@openzeppelin/contracts/token/ERC20/ERC20.sol\":4293:4479  function approve(address spender, uint256 value) public virtual returns (bool) {... */\n      swap3\n      swap2\n      pop\n      pop\n      jump\t// out\n        /* \"@openzeppelin/contracts/token/ERC20/ERC20.sol\":3144:3241  function totalSupply() public view virtual returns (uint256) {... */\n    tag_31:\n        /* \"@openzeppelin/contracts/token/ERC20/ERC20.sol\":3196:3203  uint256 */\n      0x00\n        /* \"@openzeppelin/contracts/token/ERC20/ERC20.sol\":3222:3234  _totalSupply */\n      sload(0x02)\n        /* \"@openzeppelin/contracts/token/ERC20/ERC20.sol\":3215:3234  return _totalSupply */\n      swap1\n      pop\n        /* \"@openzeppelin/contracts/token/ERC20/ERC20.sol\":3144:3241  function totalSupply() public view virtual returns (uint256) {... */\n      swap1\n      jump\t// out\n        /* \"@openzeppelin/contracts/token/ERC20/ERC20.sol\":5039:5283  function transferFrom(address from, address to, uint256 value) public virtual returns (bool) {... */\n    tag_37:\n        /* \"@openzeppelin/contracts/token/ERC20/ERC20.sol\":5126:5130  bool */\n      0x00\n        /* \"@openzeppelin/contracts/token/ERC20/ERC20.sol\":5142:5157  address spender */\n      dup1\n        /* \"@openzeppelin/contracts/token/ERC20/ERC20.sol\":5160:5172  _msgSender() */\n      tag_94\n        /* \"@openzeppelin/contracts/token/ERC20/ERC20.sol\":5160:5170  _msgSender */\n      tag_89\n        /* \"@openzeppelin/contracts/token/ERC20/ERC20.sol\":5160:5172  _msgSender() */\n      jump\t// in\n    tag_94:\n        /* \"@openzeppelin/contracts/token/ERC20/ERC20.sol\":5142:5172  address spender = _msgSender() */\n      swap1\n      pop\n        /* \"@openzeppelin/contracts/token/ERC20/ERC20.sol\":5182:5219  _spendAllowance(from, spender, value) */\n      tag_95\n        /* \"@openzeppelin/contracts/token/ERC20/ERC20.sol\":5198:5202  from */\n      dup6\n        /* \"@openzeppelin/contracts/token/ERC20/ERC20.sol\":5204:5211  spender */\n      dup3\n        /* \"@openzeppelin/contracts/token/ERC20/ERC20.sol\":5213:5218  value */\n      dup6\n        /* \"@openzeppelin/contracts/token/ERC20/ERC20.sol\":5182:5197  _spendAllowance */\n      tag_96\n        /* \"@openzeppelin/contracts/token/ERC20/ERC20.sol\":5182:5219  _spendAllowance(from, spender, value) */\n      jump\t// in\n    tag_95:\n        /* \"@openzeppelin/contracts/token/ERC20/ERC20.sol\":5229:5255  _transfer(from, to, value) */\n      tag_97\n        /* \"@openzeppelin/contracts/token/ERC20/ERC20.sol\":5239:5243  from */\n      dup6\n        /* \"@openzeppelin/contracts/token/ERC20/ERC20.sol\":5245:5247  to */\n      dup6\n        /* \"@openzeppelin/contracts/token/ERC20/ERC20.sol\":5249:5254  value */\n      dup6\n        /* \"@openzeppelin/contracts/token/ERC20/ERC20.sol\":5229:5238  _transfer */\n      tag_98\n        /* \"@openzeppelin/contracts/token/ERC20/ERC20.sol\":5229:5255  _transfer(from, to, value) */\n      jump\t// in\n    tag_97:\n        /* \"@openzeppelin/contracts/token/ERC20/ERC20.sol\":5272:5276  true */\n      0x01\n        /* \"@openzeppelin/contracts/token/ERC20/ERC20.sol\":5265:5276  return true */\n      swap2\n      pop\n      pop\n        /* \"@openzeppelin/contracts/token/ERC20/ERC20.sol\":5039:5283  function transferFrom(address from, address to, uint256 value) public virtual returns (bool) {... */\n      swap4\n      swap3\n      pop\n      pop\n      pop\n      jump\t// out\n        /* \"@openzeppelin/contracts/token/ERC20/ERC20.sol\":3002:3084  function decimals() public view virtual returns (uint8) {... */\n    tag_40:\n        /* \"@openzeppelin/contracts/token/ERC20/ERC20.sol\":3051:3056  uint8 */\n      0x00\n        /* \"@openzeppelin/contracts/token/ERC20/ERC20.sol\":3075:3077  18 */\n      0x12\n        /* \"@openzeppelin/contracts/token/ERC20/ERC20.sol\":3068:3077  return 18 */\n      swap1\n      pop\n        /* \"@openzeppelin/contracts/token/ERC20/ERC20.sol\":3002:3084  function decimals() public view virtual returns (uint8) {... */\n      swap1\n      jump\t// out\n        /* \"@openzeppelin/contracts/token/ERC20/extensions/ERC20Permit.sol\":2656:2768  function DOMAIN_SEPARATOR() external view virtual returns (bytes32) {... */\n    tag_44:\n        /* \"@openzeppelin/contracts/token/ERC20/extensions/ERC20Permit.sol\":2715:2722  bytes32 */\n      0x00\n        /* \"@openzeppelin/contracts/token/ERC20/extensions/ERC20Permit.sol\":2741:2761  _domainSeparatorV4() */\n      tag_101\n        /* \"@openzeppelin/contracts/token/ERC20/extensions/ERC20Permit.sol\":2741:2759  _domainSeparatorV4 */\n      tag_102\n        /* \"@openzeppelin/contracts/token/ERC20/extensions/ERC20Permit.sol\":2741:2761  _domainSeparatorV4() */\n      jump\t// in\n    tag_101:\n        /* \"@openzeppelin/contracts/token/ERC20/extensions/ERC20Permit.sol\":2734:2761  return _domainSeparatorV4() */\n      swap1\n      pop\n        /* \"@openzeppelin/contracts/token/ERC20/extensions/ERC20Permit.sol\":2656:2768  function DOMAIN_SEPARATOR() external view virtual returns (bytes32) {... */\n      swap1\n      jump\t// out\n        /* \"@openzeppelin/contracts/token/ERC20/extensions/ERC20Burnable.sol\":618:705  function burn(uint256 value) public virtual {... */\n    tag_50:\n        /* \"@openzeppelin/contracts/token/ERC20/extensions/ERC20Burnable.sol\":672:698  _burn(_msgSender(), value) */\n      tag_104\n        /* \"@openzeppelin/contracts/token/ERC20/extensions/ERC20Burnable.sol\":678:690  _msgSender() */\n      tag_105\n        /* \"@openzeppelin/contracts/token/ERC20/extensions/ERC20Burnable.sol\":678:688  _msgSender */\n      tag_89\n        /* \"@openzeppelin/contracts/token/ERC20/extensions/ERC20Burnable.sol\":678:690  _msgSender() */\n      jump\t// in\n    tag_105:\n        /* \"@openzeppelin/contracts/token/ERC20/extensions/ERC20Burnable.sol\":692:697  value */\n      dup3\n        /* \"@openzeppelin/contracts/token/ERC20/extensions/ERC20Burnable.sol\":672:677  _burn */\n      tag_106\n        /* \"@openzeppelin/contracts/token/ERC20/extensions/ERC20Burnable.sol\":672:698  _burn(_msgSender(), value) */\n      jump\t// in\n    tag_104:\n        /* \"@openzeppelin/contracts/token/ERC20/extensions/ERC20Burnable.sol\":618:705  function burn(uint256 value) public virtual {... */\n      pop\n      jump\t// out\n        /* \"@openzeppelin/contracts/token/ERC20/ERC20.sol\":3299:3415  function balanceOf(address account) public view virtual returns (uint256) {... */\n    tag_54:\n        /* \"@openzeppelin/contracts/token/ERC20/ERC20.sol\":3364:3371  uint256 */\n      0x00\n        /* \"@openzeppelin/contracts/token/ERC20/ERC20.sol\":3390:3399  _balances */\n      dup1\n        /* \"@openzeppelin/contracts/token/ERC20/ERC20.sol\":3390:3408  _balances[account] */\n      0x00\n        /* \"@openzeppelin/contracts/token/ERC20/ERC20.sol\":3400:3407  account */\n      dup4\n        /* \"@openzeppelin/contracts/token/ERC20/ERC20.sol\":3390:3408  _balances[account] */\n      0xffffffffffffffffffffffffffffffffffffffff\n      and\n      0xffffffffffffffffffffffffffffffffffffffff\n      and\n      dup2\n      mstore\n      0x20\n      add\n      swap1\n      dup2\n      mstore\n      0x20\n      add\n      0x00\n      keccak256\n      sload\n        /* \"@openzeppelin/contracts/token/ERC20/ERC20.sol\":3383:3408  return _balances[account] */\n      swap1\n      pop\n        /* \"@openzeppelin/contracts/token/ERC20/ERC20.sol\":3299:3415  function balanceOf(address account) public view virtual returns (uint256) {... */\n      swap2\n      swap1\n      pop\n      jump\t// out\n        /* \"@openzeppelin/contracts/token/ERC20/extensions/ERC20Permit.sol\":2406:2549  function nonces(address owner) public view virtual override(IERC20Permit, Nonces) returns (uint256) {... */\n    tag_58:\n        /* \"@openzeppelin/contracts/token/ERC20/extensions/ERC20Permit.sol\":2497:2504  uint256 */\n      0x00\n        /* \"@openzeppelin/contracts/token/ERC20/extensions/ERC20Permit.sol\":2523:2542  super.nonces(owner) */\n      tag_109\n        /* \"@openzeppelin/contracts/token/ERC20/extensions/ERC20Permit.sol\":2536:2541  owner */\n      dup3\n        /* \"@openzeppelin/contracts/token/ERC20/extensions/ERC20Permit.sol\":2523:2535  super.nonces */\n      tag_110\n        /* \"@openzeppelin/contracts/token/ERC20/extensions/ERC20Permit.sol\":2523:2542  super.nonces(owner) */\n      jump\t// in\n    tag_109:\n        /* \"@openzeppelin/contracts/token/ERC20/extensions/ERC20Permit.sol\":2516:2542  return super.nonces(owner) */\n      swap1\n      pop\n        /* \"@openzeppelin/contracts/token/ERC20/extensions/ERC20Permit.sol\":2406:2549  function nonces(address owner) public view virtual override(IERC20Permit, Nonces) returns (uint256) {... */\n      swap2\n      swap1\n      pop\n      jump\t// out\n        /* \"@openzeppelin/contracts/utils/cryptography/EIP712.sol\":5144:5701  function eip712Domain()... */\n    tag_61:\n        /* \"@openzeppelin/contracts/utils/cryptography/EIP712.sol\":5242:5255  bytes1 fields */\n      0x00\n        /* \"@openzeppelin/contracts/utils/cryptography/EIP712.sol\":5269:5287  string memory name */\n      0x60\n        /* \"@openzeppelin/contracts/utils/cryptography/EIP712.sol\":5301:5322  string memory version */\n      dup1\n        /* \"@openzeppelin/contracts/utils/cryptography/EIP712.sol\":5336:5351  uint256 chainId */\n      0x00\n        /* \"@openzeppelin/contracts/utils/cryptography/EIP712.sol\":5365:5390  address verifyingContract */\n      dup1\n        /* \"@openzeppelin/contracts/utils/cryptography/EIP712.sol\":5404:5416  bytes32 salt */\n      0x00\n        /* \"@openzeppelin/contracts/utils/cryptography/EIP712.sol\":5430:5457  uint256[] memory extensions */\n      0x60\n        /* \"@openzeppelin/contracts/utils/cryptography/EIP712.sol\":5533:5546  _EIP712Name() */\n      tag_112\n        /* \"@openzeppelin/contracts/utils/cryptography/EIP712.sol\":5533:5544  _EIP712Name */\n      tag_113\n        /* \"@openzeppelin/contracts/utils/cryptography/EIP712.sol\":5533:5546  _EIP712Name() */\n      jump\t// in\n    tag_112:\n        /* \"@openzeppelin/contracts/utils/cryptography/EIP712.sol\":5560:5576  _EIP712Version() */\n      tag_114\n        /* \"@openzeppelin/contracts/utils/cryptography/EIP712.sol\":5560:5574  _EIP712Version */\n      tag_115\n        /* \"@openzeppelin/contracts/utils/cryptography/EIP712.sol\":5560:5576  _EIP712Version() */\n      jump\t// in\n    tag_114:\n        /* \"@openzeppelin/contracts/utils/cryptography/EIP712.sol\":5590:5603  block.chainid */\n      chainid\n        /* \"@openzeppelin/contracts/utils/cryptography/EIP712.sol\":5625:5629  this */\n      address\n        /* \"@openzeppelin/contracts/utils/cryptography/EIP712.sol\":5652:5653  0 */\n      0x00\n        /* \"@openzeppelin/contracts/utils/cryptography/EIP712.sol\":5644:5654  bytes32(0) */\n      dup1\n      shl\n        /* \"@openzeppelin/contracts/utils/cryptography/EIP712.sol\":5682:5683  0 */\n      0x00\n        /* \"@openzeppelin/contracts/utils/cryptography/EIP712.sol\":5668:5684  new uint256[](0) */\n      0xffffffffffffffff\n      dup2\n      gt\n      iszero\n      tag_116\n      jumpi\n      tag_117\n      tag_118\n      jump\t// in\n    tag_117:\n    tag_116:\n      mload(0x40)\n      swap1\n      dup1\n      dup3\n      mstore\n      dup1\n      0x20\n      mul\n      0x20\n      add\n      dup3\n      add\n      0x40\n      mstore\n      dup1\n      iszero\n      tag_119\n      jumpi\n      dup2\n      0x20\n      add\n      0x20\n      dup3\n      mul\n      dup1\n      calldatasize\n      dup4\n      calldatacopy\n      dup1\n      dup3\n      add\n      swap2\n      pop\n      pop\n      swap1\n      pop\n    tag_119:\n      pop\n        /* \"@openzeppelin/contracts/utils/cryptography/EIP712.sol\":5482:5694  return (... */\n      0x0f00000000000000000000000000000000000000000000000000000000000000\n      swap6\n      swap5\n      swap4\n      swap3\n      swap2\n      swap1\n      swap7\n      pop\n      swap7\n      pop\n      swap7\n      pop\n      swap7\n      pop\n      swap7\n      pop\n      swap7\n      pop\n      swap7\n      pop\n        /* \"@openzeppelin/contracts/utils/cryptography/EIP712.sol\":5144:5701  function eip712Domain()... */\n      swap1\n      swap2\n      swap3\n      swap4\n      swap5\n      swap6\n      swap7\n      jump\t// out\n        /* \"@openzeppelin/contracts/token/ERC20/ERC20.sol\":2276:2369  function symbol() public view virtual returns (string memory) {... */\n    tag_65:\n        /* \"@openzeppelin/contracts/token/ERC20/ERC20.sol\":2323:2336  string memory */\n      0x60\n        /* \"@openzeppelin/contracts/token/ERC20/ERC20.sol\":2355:2362  _symbol */\n      0x04\n        /* \"@openzeppelin/contracts/token/ERC20/ERC20.sol\":2348:2362  return _symbol */\n      dup1\n      sload\n      tag_121\n      swap1\n      tag_82\n      jump\t// in\n    tag_121:\n      dup1\n      0x1f\n      add\n      0x20\n      dup1\n      swap2\n      div\n      mul\n      0x20\n      add\n      mload(0x40)\n      swap1\n      dup2\n      add\n      0x40\n      mstore\n      dup1\n      swap3\n      swap2\n      swap1\n      dup2\n      dup2\n      mstore\n      0x20\n      add\n      dup3\n      dup1\n      sload\n      tag_122\n      swap1\n      tag_82\n      jump\t// in\n    tag_122:\n      dup1\n      iszero\n      tag_123\n      jumpi\n      dup1\n      0x1f\n      lt\n      tag_124\n      jumpi\n      0x0100\n      dup1\n      dup4\n      sload\n      div\n      mul\n      dup4\n      mstore\n      swap2\n      0x20\n      add\n      swap2\n      jump(tag_123)\n    tag_124:\n      dup3\n      add\n      swap2\n      swap1\n      0x00\n      mstore\n      keccak256(0x00, 0x20)\n      swap1\n    tag_125:\n      dup2\n      sload\n      dup2\n      mstore\n      swap1\n      0x01\n      add\n      swap1\n      0x20\n      add\n      dup1\n      dup4\n      gt\n      tag_125\n      jumpi\n      dup3\n      swap1\n      sub\n      0x1f\n      and\n      dup3\n      add\n      swap2\n    tag_123:\n      pop\n      pop\n      pop\n      pop\n      pop\n      swap1\n      pop\n        /* \"@openzeppelin/contracts/token/ERC20/ERC20.sol\":2276:2369  function symbol() public view virtual returns (string memory) {... */\n      swap1\n      jump\t// out\n        /* \"@openzeppelin/contracts/token/ERC20/ERC20.sol\":3610:3788  function transfer(address to, uint256 value) public virtual returns (bool) {... */\n    tag_69:\n        /* \"@openzeppelin/contracts/token/ERC20/ERC20.sol\":3679:3683  bool */\n      0x00\n        /* \"@openzeppelin/contracts/token/ERC20/ERC20.sol\":3695:3708  address owner */\n      dup1\n        /* \"@openzeppelin/contracts/token/ERC20/ERC20.sol\":3711:3723  _msgSender() */\n      tag_127\n        /* \"@openzeppelin/contracts/token/ERC20/ERC20.sol\":3711:3721  _msgSender */\n      tag_89\n        /* \"@openzeppelin/contracts/token/ERC20/ERC20.sol\":3711:3723  _msgSender() */\n      jump\t// in\n    tag_127:\n        /* \"@openzeppelin/contracts/token/ERC20/ERC20.sol\":3695:3723  address owner = _msgSender() */\n      swap1\n      pop\n        /* \"@openzeppelin/contracts/token/ERC20/ERC20.sol\":3733:3760  _transfer(owner, to, value) */\n      tag_128\n        /* \"@openzeppelin/contracts/token/ERC20/ERC20.sol\":3743:3748  owner */\n      dup2\n        /* \"@openzeppelin/contracts/token/ERC20/ERC20.sol\":3750:3752  to */\n      dup6\n        /* \"@openzeppelin/contracts/token/ERC20/ERC20.sol\":3754:3759  value */\n      dup6\n        /* \"@openzeppelin/contracts/token/ERC20/ERC20.sol\":3733:3742  _transfer */\n      tag_98\n        /* \"@openzeppelin/contracts/token/ERC20/ERC20.sol\":3733:3760  _transfer(owner, to, value) */\n      jump\t// in\n    tag_128:\n        /* \"@openzeppelin/contracts/token/ERC20/ERC20.sol\":3777:3781  true */\n      0x01\n        /* \"@openzeppelin/contracts/token/ERC20/ERC20.sol\":3770:3781  return true */\n      swap2\n      pop\n      pop\n        /* \"@openzeppelin/contracts/token/ERC20/ERC20.sol\":3610:3788  function transfer(address to, uint256 value) public virtual returns (bool) {... */\n      swap3\n      swap2\n      pop\n      pop\n      jump\t// out\n        /* \"@openzeppelin/contracts/token/ERC20/extensions/ERC20Permit.sol\":1680:2352  function permit(... */\n    tag_74:\n        /* \"@openzeppelin/contracts/token/ERC20/extensions/ERC20Permit.sol\":1901:1909  deadline */\n      dup4\n        /* \"@openzeppelin/contracts/token/ERC20/extensions/ERC20Permit.sol\":1883:1898  block.timestamp */\n      timestamp\n        /* \"@openzeppelin/contracts/token/ERC20/extensions/ERC20Permit.sol\":1883:1909  block.timestamp > deadline */\n      gt\n        /* \"@openzeppelin/contracts/token/ERC20/extensions/ERC20Permit.sol\":1879:1976  if (block.timestamp > deadline) {... */\n      iszero\n      tag_130\n      jumpi\n        /* \"@openzeppelin/contracts/token/ERC20/extensions/ERC20Permit.sol\":1956:1964  deadline */\n      dup4\n        /* \"@openzeppelin/contracts/token/ERC20/extensions/ERC20Permit.sol\":1932:1965  ERC2612ExpiredSignature(deadline) */\n      mload(0x40)\n      0x6279130200000000000000000000000000000000000000000000000000000000\n      dup2\n      mstore\n      0x04\n      add\n      tag_131\n      swap2\n      swap1\n      tag_33\n      jump\t// in\n    tag_131:\n      mload(0x40)\n      dup1\n      swap2\n      sub\n      swap1\n      revert\n        /* \"@openzeppelin/contracts/token/ERC20/extensions/ERC20Permit.sol\":1879:1976  if (block.timestamp > deadline) {... */\n    tag_130:\n        /* \"@openzeppelin/contracts/token/ERC20/extensions/ERC20Permit.sol\":1986:2004  bytes32 structHash */\n      0x00\n        /* \"@openzeppelin/contracts/token/ERC20/extensions/ERC20Permit.sol\":1022:1117  keccak256(\"Permit(address owner,address spender,uint256 value,uint256 nonce,uint256 deadline)\") */\n      0x6e71edae12b1b97f4d1f60370fef10105fa2faae0126114a169c64845d6126c9\n        /* \"@openzeppelin/contracts/token/ERC20/extensions/ERC20Permit.sol\":2045:2050  owner */\n      dup9\n        /* \"@openzeppelin/contracts/token/ERC20/extensions/ERC20Permit.sol\":2052:2059  spender */\n      dup9\n        /* \"@openzeppelin/contracts/token/ERC20/extensions/ERC20Permit.sol\":2061:2066  value */\n      dup9\n        /* \"@openzeppelin/contracts/token/ERC20/extensions/ERC20Permit.sol\":2068:2084  _useNonce(owner) */\n      tag_132\n        /* \"@openzeppelin/contracts/token/ERC20/extensions/ERC20Permit.sol\":2078:2083  owner */\n      dup13\n        /* \"@openzeppelin/contracts/token/ERC20/extensions/ERC20Permit.sol\":2068:2077  _useNonce */\n      tag_133\n        /* \"@openzeppelin/contracts/token/ERC20/extensions/ERC20Permit.sol\":2068:2084  _useNonce(owner) */\n      jump\t// in\n    tag_132:\n        /* \"@openzeppelin/contracts/token/ERC20/extensions/ERC20Permit.sol\":2086:2094  deadline */\n      dup10\n        /* \"@openzeppelin/contracts/token/ERC20/extensions/ERC20Permit.sol\":2017:2095  abi.encode(PERMIT_TYPEHASH, owner, spender, value, _useNonce(owner), deadline) */\n      add(0x20, mload(0x40))\n      tag_134\n      swap7\n      swap6\n      swap5\n      swap4\n      swap3\n      swap2\n      swap1\n      tag_135\n      jump\t// in\n    tag_134:\n      mload(0x40)\n      0x20\n      dup2\n      dup4\n      sub\n      sub\n      dup2\n      mstore\n      swap1\n      0x40\n      mstore\n        /* \"@openzeppelin/contracts/token/ERC20/extensions/ERC20Permit.sol\":2007:2096  keccak256(abi.encode(PERMIT_TYPEHASH, owner, spender, value, _useNonce(owner), deadline)) */\n      dup1\n      mload\n      swap1\n      0x20\n      add\n      keccak256\n        /* \"@openzeppelin/contracts/token/ERC20/extensions/ERC20Permit.sol\":1986:2096  bytes32 structHash = keccak256(abi.encode(PERMIT_TYPEHASH, owner, spender, value, _useNonce(owner), deadline)) */\n      swap1\n      pop\n        /* \"@openzeppelin/contracts/token/ERC20/extensions/ERC20Permit.sol\":2107:2119  bytes32 hash */\n      0x00\n        /* \"@openzeppelin/contracts/token/ERC20/extensions/ERC20Permit.sol\":2122:2150  _hashTypedDataV4(structHash) */\n      tag_136\n        /* \"@openzeppelin/contracts/token/ERC20/extensions/ERC20Permit.sol\":2139:2149  structHash */\n      dup3\n        /* \"@openzeppelin/contracts/token/ERC20/extensions/ERC20Permit.sol\":2122:2138  _hashTypedDataV4 */\n      tag_137\n        /* \"@openzeppelin/contracts/token/ERC20/extensions/ERC20Permit.sol\":2122:2150  _hashTypedDataV4(structHash) */\n      jump\t// in\n    tag_136:\n        /* \"@openzeppelin/contracts/token/ERC20/extensions/ERC20Permit.sol\":2107:2150  bytes32 hash = _hashTypedDataV4(structHash) */\n      swap1\n      pop\n        /* \"@openzeppelin/contracts/token/ERC20/extensions/ERC20Permit.sol\":2161:2175  address signer */\n      0x00\n        /* \"@openzeppelin/contracts/token/ERC20/extensions/ERC20Permit.sol\":2178:2206  ECDSA.recover(hash, v, r, s) */\n      tag_138\n        /* \"@openzeppelin/contracts/token/ERC20/extensions/ERC20Permit.sol\":2192:2196  hash */\n      dup3\n        /* \"@openzeppelin/contracts/token/ERC20/extensions/ERC20Permit.sol\":2198:2199  v */\n      dup8\n        /* \"@openzeppelin/contracts/token/ERC20/extensions/ERC20Permit.sol\":2201:2202  r */\n      dup8\n        /* \"@openzeppelin/contracts/token/ERC20/extensions/ERC20Permit.sol\":2204:2205  s */\n      dup8\n        /* \"@openzeppelin/contracts/token/ERC20/extensions/ERC20Permit.sol\":2178:2191  ECDSA.recover */\n      tag_139\n        /* \"@openzeppelin/contracts/token/ERC20/extensions/ERC20Permit.sol\":2178:2206  ECDSA.recover(hash, v, r, s) */\n      jump\t// in\n    tag_138:\n        /* \"@openzeppelin/contracts/token/ERC20/extensions/ERC20Permit.sol\":2161:2206  address signer = ECDSA.recover(hash, v, r, s) */\n      swap1\n      pop\n        /* \"@openzeppelin/contracts/token/ERC20/extensions/ERC20Permit.sol\":2230:2235  owner */\n      dup10\n        /* \"@openzeppelin/contracts/token/ERC20/extensions/ERC20Permit.sol\":2220:2235  signer != owner */\n      0xffffffffffffffffffffffffffffffffffffffff\n      and\n        /* \"@openzeppelin/contracts/token/ERC20/extensions/ERC20Permit.sol\":2220:2226  signer */\n      dup2\n        /* \"@openzeppelin/contracts/token/ERC20/extensions/ERC20Permit.sol\":2220:2235  signer != owner */\n      0xffffffffffffffffffffffffffffffffffffffff\n      and\n      eq\n        /* \"@openzeppelin/contracts/token/ERC20/extensions/ERC20Permit.sol\":2216:2304  if (signer != owner) {... */\n      tag_140\n      jumpi\n        /* \"@openzeppelin/contracts/token/ERC20/extensions/ERC20Permit.sol\":2279:2285  signer */\n      dup1\n        /* \"@openzeppelin/contracts/token/ERC20/extensions/ERC20Permit.sol\":2287:2292  owner */\n      dup11\n        /* \"@openzeppelin/contracts/token/ERC20/extensions/ERC20Permit.sol\":2258:2293  ERC2612InvalidSigner(signer, owner) */\n      mload(0x40)\n      0x4b800e4600000000000000000000000000000000000000000000000000000000\n      dup2\n      mstore\n      0x04\n      add\n      tag_141\n      swap3\n      swap2\n      swap1\n      tag_142\n      jump\t// in\n    tag_141:\n      mload(0x40)\n      dup1\n      swap2\n      sub\n      swap1\n      revert\n        /* \"@openzeppelin/contracts/token/ERC20/extensions/ERC20Permit.sol\":2216:2304  if (signer != owner) {... */\n    tag_140:\n        /* \"@openzeppelin/contracts/token/ERC20/extensions/ERC20Permit.sol\":2314:2345  _approve(owner, spender, value) */\n      tag_143\n        /* \"@openzeppelin/contracts/token/ERC20/extensions/ERC20Permit.sol\":2323:2328  owner */\n      dup11\n        /* \"@openzeppelin/contracts/token/ERC20/extensions/ERC20Permit.sol\":2330:2337  spender */\n      dup11\n        /* \"@openzeppelin/contracts/token/ERC20/extensions/ERC20Permit.sol\":2339:2344  value */\n      dup11\n        /* \"@openzeppelin/contracts/token/ERC20/extensions/ERC20Permit.sol\":2314:2322  _approve */\n      tag_91\n        /* \"@openzeppelin/contracts/token/ERC20/extensions/ERC20Permit.sol\":2314:2345  _approve(owner, spender, value) */\n      jump\t// in\n    tag_143:\n        /* \"@openzeppelin/contracts/token/ERC20/extensions/ERC20Permit.sol\":1869:2352  {... */\n      pop\n      pop\n      pop\n        /* \"@openzeppelin/contracts/token/ERC20/extensions/ERC20Permit.sol\":1680:2352  function permit(... */\n      pop\n      pop\n      pop\n      pop\n      pop\n      pop\n      pop\n      jump\t// out\n        /* \"@openzeppelin/contracts/token/ERC20/ERC20.sol\":3846:3986  function allowance(address owner, address spender) public view virtual returns (uint256) {... */\n    tag_78:\n        /* \"@openzeppelin/contracts/token/ERC20/ERC20.sol\":3926:3933  uint256 */\n      0x00\n        /* \"@openzeppelin/contracts/token/ERC20/ERC20.sol\":3952:3963  _allowances */\n      0x01\n        /* \"@openzeppelin/contracts/token/ERC20/ERC20.sol\":3952:3970  _allowances[owner] */\n      0x00\n        /* \"@openzeppelin/contracts/token/ERC20/ERC20.sol\":3964:3969  owner */\n      dup5\n        /* \"@openzeppelin/contracts/token/ERC20/ERC20.sol\":3952:3970  _allowances[owner] */\n      0xffffffffffffffffffffffffffffffffffffffff\n      and\n      0xffffffffffffffffffffffffffffffffffffffff\n      and\n      dup2\n      mstore\n      0x20\n      add\n      swap1\n      dup2\n      mstore\n      0x20\n      add\n      0x00\n      keccak256\n        /* \"@openzeppelin/contracts/token/ERC20/ERC20.sol\":3952:3979  _allowances[owner][spender] */\n      0x00\n        /* \"@openzeppelin/contracts/token/ERC20/ERC20.sol\":3971:3978  spender */\n      dup4\n        /* \"@openzeppelin/contracts/token/ERC20/ERC20.sol\":3952:3979  _allowances[owner][spender] */\n      0xffffffffffffffffffffffffffffffffffffffff\n      and\n      0xffffffffffffffffffffffffffffffffffffffff\n      and\n      dup2\n      mstore\n      0x20\n      add\n      swap1\n      dup2\n      mstore\n      0x20\n      add\n      0x00\n      keccak256\n      sload\n        /* \"@openzeppelin/contracts/token/ERC20/ERC20.sol\":3945:3979  return _allowances[owner][spender] */\n      swap1\n      pop\n        /* \"@openzeppelin/contracts/token/ERC20/ERC20.sol\":3846:3986  function allowance(address owner, address spender) public view virtual returns (uint256) {... */\n      swap3\n      swap2\n      pop\n      pop\n      jump\t// out\n        /* \"@openzeppelin/contracts/utils/Context.sol\":656:752  function _msgSender() internal view virtual returns (address) {... */\n    tag_89:\n        /* \"@openzeppelin/contracts/utils/Context.sol\":709:716  address */\n      0x00\n        /* \"@openzeppelin/contracts/utils/Context.sol\":735:745  msg.sender */\n      caller\n        /* \"@openzeppelin/contracts/utils/Context.sol\":728:745  return msg.sender */\n      swap1\n      pop\n        /* \"@openzeppelin/contracts/utils/Context.sol\":656:752  function _msgSender() internal view virtual returns (address) {... */\n      swap1\n      jump\t// out\n        /* \"@openzeppelin/contracts/token/ERC20/ERC20.sol\":8989:9117  function _approve(address owner, address spender, uint256 value) internal {... */\n    tag_91:\n        /* \"@openzeppelin/contracts/token/ERC20/ERC20.sol\":9073:9110  _approve(owner, spender, value, true) */\n      tag_147\n        /* \"@openzeppelin/contracts/token/ERC20/ERC20.sol\":9082:9087  owner */\n      dup4\n        /* \"@openzeppelin/contracts/token/ERC20/ERC20.sol\":9089:9096  spender */\n      dup4\n        /* \"@openzeppelin/contracts/token/ERC20/ERC20.sol\":9098:9103  value */\n      dup4\n        /* \"@openzeppelin/contracts/token/ERC20/ERC20.sol\":9105:9109  true */\n      0x01\n        /* \"@openzeppelin/contracts/token/ERC20/ERC20.sol\":9073:9081  _approve */\n      tag_148\n        /* \"@openzeppelin/contracts/token/ERC20/ERC20.sol\":9073:9110  _approve(owner, spender, value, true) */\n      jump\t// in\n    tag_147:\n        /* \"@openzeppelin/contracts/token/ERC20/ERC20.sol\":8989:9117  function _approve(address owner, address spender, uint256 value) internal {... */\n      pop\n      pop\n      pop\n      jump\t// out\n        /* \"@openzeppelin/contracts/token/ERC20/ERC20.sol\":10663:11140  function _spendAllowance(address owner, address spender, uint256 value) internal virtual {... */\n    tag_96:\n        /* \"@openzeppelin/contracts/token/ERC20/ERC20.sol\":10762:10786  uint256 currentAllowance */\n      0x00\n        /* \"@openzeppelin/contracts/token/ERC20/ERC20.sol\":10789:10814  allowance(owner, spender) */\n      tag_150\n        /* \"@openzeppelin/contracts/token/ERC20/ERC20.sol\":10799:10804  owner */\n      dup5\n        /* \"@openzeppelin/contracts/token/ERC20/ERC20.sol\":10806:10813  spender */\n      dup5\n        /* \"@openzeppelin/contracts/token/ERC20/ERC20.sol\":10789:10798  allowance */\n      tag_78\n        /* \"@openzeppelin/contracts/token/ERC20/ERC20.sol\":10789:10814  allowance(owner, spender) */\n      jump\t// in\n    tag_150:\n        /* \"@openzeppelin/contracts/token/ERC20/ERC20.sol\":10762:10814  uint256 currentAllowance = allowance(owner, spender) */\n      swap1\n      pop\n        /* \"@openzeppelin/contracts/token/ERC20/ERC20.sol\":10848:10865  type(uint256).max */\n      0xffffffffffffffffffffffffffffffffffffffffffffffffffffffffffffffff\n        /* \"@openzeppelin/contracts/token/ERC20/ERC20.sol\":10828:10844  currentAllowance */\n      dup2\n        /* \"@openzeppelin/contracts/token/ERC20/ERC20.sol\":10828:10865  currentAllowance != type(uint256).max */\n      eq\n        /* \"@openzeppelin/contracts/token/ERC20/ERC20.sol\":10824:11134  if (currentAllowance != type(uint256).max) {... */\n      tag_151\n      jumpi\n        /* \"@openzeppelin/contracts/token/ERC20/ERC20.sol\":10904:10909  value */\n      dup2\n        /* \"@openzeppelin/contracts/token/ERC20/ERC20.sol\":10885:10901  currentAllowance */\n      dup2\n        /* \"@openzeppelin/contracts/token/ERC20/ERC20.sol\":10885:10909  currentAllowance < value */\n      lt\n        /* \"@openzeppelin/contracts/token/ERC20/ERC20.sol\":10881:11011  if (currentAllowance < value) {... */\n      iszero\n      tag_152\n      jumpi\n        /* \"@openzeppelin/contracts/token/ERC20/ERC20.sol\":10963:10970  spender */\n      dup3\n        /* \"@openzeppelin/contracts/token/ERC20/ERC20.sol\":10972:10988  currentAllowance */\n      dup2\n        /* \"@openzeppelin/contracts/token/ERC20/ERC20.sol\":10990:10995  value */\n      dup4\n        /* \"@openzeppelin/contracts/token/ERC20/ERC20.sol\":10936:10996  ERC20InsufficientAllowance(spender, currentAllowance, value) */\n      mload(0x40)\n      0xfb8f41b200000000000000000000000000000000000000000000000000000000\n      dup2\n      mstore\n      0x04\n      add\n      tag_153\n      swap4\n      swap3\n      swap2\n      swap1\n      tag_154\n      jump\t// in\n    tag_153:\n      mload(0x40)\n      dup1\n      swap2\n      sub\n      swap1\n      revert\n        /* \"@openzeppelin/contracts/token/ERC20/ERC20.sol\":10881:11011  if (currentAllowance < value) {... */\n    tag_152:\n        /* \"@openzeppelin/contracts/token/ERC20/ERC20.sol\":11052:11109  _approve(owner, spender, currentAllowance - value, false) */\n      tag_155\n        /* \"@openzeppelin/contracts/token/ERC20/ERC20.sol\":11061:11066  owner */\n      dup5\n        /* \"@openzeppelin/contracts/token/ERC20/ERC20.sol\":11068:11075  spender */\n      dup5\n        /* \"@openzeppelin/contracts/token/ERC20/ERC20.sol\":11096:11101  value */\n      dup5\n        /* \"@openzeppelin/contracts/token/ERC20/ERC20.sol\":11077:11093  currentAllowance */\n      dup5\n        /* \"@openzeppelin/contracts/token/ERC20/ERC20.sol\":11077:11101  currentAllowance - value */\n      sub\n        /* \"@openzeppelin/contracts/token/ERC20/ERC20.sol\":11103:11108  false */\n      0x00\n        /* \"@openzeppelin/contracts/token/ERC20/ERC20.sol\":11052:11060  _approve */\n      tag_148\n        /* \"@openzeppelin/contracts/token/ERC20/ERC20.sol\":11052:11109  _approve(owner, spender, currentAllowance - value, false) */\n      jump\t// in\n    tag_155:\n        /* \"@openzeppelin/contracts/token/ERC20/ERC20.sol\":10824:11134  if (currentAllowance != type(uint256).max) {... */\n    tag_151:\n        /* \"@openzeppelin/contracts/token/ERC20/ERC20.sol\":10752:11140  {... */\n      pop\n        /* \"@openzeppelin/contracts/token/ERC20/ERC20.sol\":10663:11140  function _spendAllowance(address owner, address spender, uint256 value) internal virtual {... */\n      pop\n      pop\n      pop\n      jump\t// out\n        /* \"@openzeppelin/contracts/token/ERC20/ERC20.sol\":5656:5956  function _transfer(address from, address to, uint256 value) internal {... */\n    tag_98:\n        /* \"@openzeppelin/contracts/token/ERC20/ERC20.sol\":5755:5756  0 */\n      0x00\n        /* \"@openzeppelin/contracts/token/ERC20/ERC20.sol\":5739:5757  from == address(0) */\n      0xffffffffffffffffffffffffffffffffffffffff\n      and\n        /* \"@openzeppelin/contracts/token/ERC20/ERC20.sol\":5739:5743  from */\n      dup4\n        /* \"@openzeppelin/contracts/token/ERC20/ERC20.sol\":5739:5757  from == address(0) */\n      0xffffffffffffffffffffffffffffffffffffffff\n      and\n      sub\n        /* \"@openzeppelin/contracts/token/ERC20/ERC20.sol\":5735:5821  if (from == address(0)) {... */\n      tag_157\n      jumpi\n        /* \"@openzeppelin/contracts/token/ERC20/ERC20.sol\":5807:5808  0 */\n      0x00\n        /* \"@openzeppelin/contracts/token/ERC20/ERC20.sol\":5780:5810  ERC20InvalidSender(address(0)) */\n      mload(0x40)\n      0x96c6fd1e00000000000000000000000000000000000000000000000000000000\n      dup2\n      mstore\n      0x04\n      add\n      tag_158\n      swap2\n      swap1\n      tag_159\n      jump\t// in\n    tag_158:\n      mload(0x40)\n      dup1\n      swap2\n      sub\n      swap1\n      revert\n        /* \"@openzeppelin/contracts/token/ERC20/ERC20.sol\":5735:5821  if (from == address(0)) {... */\n    tag_157:\n        /* \"@openzeppelin/contracts/token/ERC20/ERC20.sol\":5848:5849  0 */\n      0x00\n        /* \"@openzeppelin/contracts/token/ERC20/ERC20.sol\":5834:5850  to == address(0) */\n      0xffffffffffffffffffffffffffffffffffffffff\n      and\n        /* \"@openzeppelin/contracts/token/ERC20/ERC20.sol\":5834:5836  to */\n      dup3\n        /* \"@openzeppelin/contracts/token/ERC20/ERC20.sol\":5834:5850  to == address(0) */\n      0xffffffffffffffffffffffffffffffffffffffff\n      and\n      sub\n        /* \"@openzeppelin/contracts/token/ERC20/ERC20.sol\":5830:5916  if (to == address(0)) {... */\n      tag_160\n      jumpi\n        /* \"@openzeppelin/contracts/token/ERC20/ERC20.sol\":5902:5903  0 */\n      0x00\n        /* \"@openzeppelin/contracts/token/ERC20/ERC20.sol\":5873:5905  ERC20InvalidReceiver(address(0)) */\n      mload(0x40)\n      0xec442f0500000000000000000000000000000000000000000000000000000000\n      dup2\n      mstore\n      0x04\n      add\n      tag_161\n      swap2\n      swap1\n      tag_159\n      jump\t// in\n    tag_161:\n      mload(0x40)\n      dup1\n      swap2\n      sub\n      swap1\n      revert\n        /* \"@openzeppelin/contracts/token/ERC20/ERC20.sol\":5830:5916  if (to == address(0)) {... */\n    tag_160:\n        /* \"@openzeppelin/contracts/token/ERC20/ERC20.sol\":5925:5949  _update(from, to, value) */\n      tag_162\n        /* \"@openzeppelin/contracts/token/ERC20/ERC20.sol\":5933:5937  from */\n      dup4\n        /* \"@openzeppelin/contracts/token/ERC20/ERC20.sol\":5939:5941  to */\n      dup4\n        /* \"@openzeppelin/contracts/token/ERC20/ERC20.sol\":5943:5948  value */\n      dup4\n        /* \"@openzeppelin/contracts/token/ERC20/ERC20.sol\":5925:5932  _update */\n      tag_163\n        /* \"@openzeppelin/contracts/token/ERC20/ERC20.sol\":5925:5949  _update(from, to, value) */\n      jump\t// in\n    tag_162:\n        /* \"@openzeppelin/contracts/token/ERC20/ERC20.sol\":5656:5956  function _transfer(address from, address to, uint256 value) internal {... */\n      pop\n      pop\n      pop\n      jump\t// out\n        /* \"@openzeppelin/contracts/utils/cryptography/EIP712.sol\":3845:4107  function _domainSeparatorV4() internal view returns (bytes32) {... */\n    tag_102:\n        /* \"@openzeppelin/contracts/utils/cryptography/EIP712.sol\":3898:3905  bytes32 */\n      0x00\n        /* \"@openzeppelin/contracts/utils/cryptography/EIP712.sol\":3938:3949  _cachedThis */\n      immutable(\"0xe64fdd85c4abae7e17a3b10cd3c6103a9078ecff4005141468b48a65e9465227\")\n        /* \"@openzeppelin/contracts/utils/cryptography/EIP712.sol\":3921:3949  address(this) == _cachedThis */\n      0xffffffffffffffffffffffffffffffffffffffff\n      and\n        /* \"@openzeppelin/contracts/utils/cryptography/EIP712.sol\":3929:3933  this */\n      address\n        /* \"@openzeppelin/contracts/utils/cryptography/EIP712.sol\":3921:3949  address(this) == _cachedThis */\n      0xffffffffffffffffffffffffffffffffffffffff\n      and\n      eq\n        /* \"@openzeppelin/contracts/utils/cryptography/EIP712.sol\":3921:3984  address(this) == _cachedThis && block.chainid == _cachedChainId */\n      dup1\n      iszero\n      tag_165\n      jumpi\n      pop\n        /* \"@openzeppelin/contracts/utils/cryptography/EIP712.sol\":3970:3984  _cachedChainId */\n      immutable(\"0x857cbdae2740be36a06a5ea5206f797d9496ca961868d881b9c58ad44b0c2326\")\n        /* \"@openzeppelin/contracts/utils/cryptography/EIP712.sol\":3953:3966  block.chainid */\n      chainid\n        /* \"@openzeppelin/contracts/utils/cryptography/EIP712.sol\":3953:3984  block.chainid == _cachedChainId */\n      eq\n        /* \"@openzeppelin/contracts/utils/cryptography/EIP712.sol\":3921:3984  address(this) == _cachedThis && block.chainid == _cachedChainId */\n    tag_165:\n        /* \"@openzeppelin/contracts/utils/cryptography/EIP712.sol\":3917:4101  if (address(this) == _cachedThis && block.chainid == _cachedChainId) {... */\n      iszero\n      tag_166\n      jumpi\n        /* \"@openzeppelin/contracts/utils/cryptography/EIP712.sol\":4007:4029  _cachedDomainSeparator */\n      immutable(\"0x033cdec3b51e9b0f87aed3e9365b93cd119aeda7d52f3385376a68a56e70b52d\")\n        /* \"@openzeppelin/contracts/utils/cryptography/EIP712.sol\":4000:4029  return _cachedDomainSeparator */\n      swap1\n      pop\n      jump(tag_164)\n        /* \"@openzeppelin/contracts/utils/cryptography/EIP712.sol\":3917:4101  if (address(this) == _cachedThis && block.chainid == _cachedChainId) {... */\n    tag_166:\n        /* \"@openzeppelin/contracts/utils/cryptography/EIP712.sol\":4067:4090  _buildDomainSeparator() */\n      tag_168\n        /* \"@openzeppelin/contracts/utils/cryptography/EIP712.sol\":4067:4088  _buildDomainSeparator */\n      tag_169\n        /* \"@openzeppelin/contracts/utils/cryptography/EIP712.sol\":4067:4090  _buildDomainSeparator() */\n      jump\t// in\n    tag_168:\n        /* \"@openzeppelin/contracts/utils/cryptography/EIP712.sol\":4060:4090  return _buildDomainSeparator() */\n      swap1\n      pop\n        /* \"@openzeppelin/contracts/utils/cryptography/EIP712.sol\":3845:4107  function _domainSeparatorV4() internal view returns (bytes32) {... */\n    tag_164:\n      swap1\n      jump\t// out\n        /* \"@openzeppelin/contracts/token/ERC20/ERC20.sol\":8247:8453  function _burn(address account, uint256 value) internal {... */\n    tag_106:\n        /* \"@openzeppelin/contracts/token/ERC20/ERC20.sol\":8336:8337  0 */\n      0x00\n        /* \"@openzeppelin/contracts/token/ERC20/ERC20.sol\":8317:8338  account == address(0) */\n      0xffffffffffffffffffffffffffffffffffffffff\n      and\n        /* \"@openzeppelin/contracts/token/ERC20/ERC20.sol\":8317:8324  account */\n      dup3\n        /* \"@openzeppelin/contracts/token/ERC20/ERC20.sol\":8317:8338  account == address(0) */\n      0xffffffffffffffffffffffffffffffffffffffff\n      and\n      sub\n        /* \"@openzeppelin/contracts/token/ERC20/ERC20.sol\":8313:8402  if (account == address(0)) {... */\n      tag_171\n      jumpi\n        /* \"@openzeppelin/contracts/token/ERC20/ERC20.sol\":8388:8389  0 */\n      0x00\n        /* \"@openzeppelin/contracts/token/ERC20/ERC20.sol\":8361:8391  ERC20InvalidSender(address(0)) */\n      mload(0x40)\n      0x96c6fd1e00000000000000000000000000000000000000000000000000000000\n      dup2\n      mstore\n      0x04\n      add\n      tag_172\n      swap2\n      swap1\n      tag_159\n      jump\t// in\n    tag_172:\n      mload(0x40)\n      dup1\n      swap2\n      sub\n      swap1\n      revert\n        /* \"@openzeppelin/contracts/token/ERC20/ERC20.sol\":8313:8402  if (account == address(0)) {... */\n    tag_171:\n        /* \"@openzeppelin/contracts/token/ERC20/ERC20.sol\":8411:8446  _update(account, address(0), value) */\n      tag_173\n        /* \"@openzeppelin/contracts/token/ERC20/ERC20.sol\":8419:8426  account */\n      dup3\n        /* \"@openzeppelin/contracts/token/ERC20/ERC20.sol\":8436:8437  0 */\n      0x00\n        /* \"@openzeppelin/contracts/token/ERC20/ERC20.sol\":8440:8445  value */\n      dup4\n        /* \"@openzeppelin/contracts/token/ERC20/ERC20.sol\":8411:8418  _update */\n      tag_163\n        /* \"@openzeppelin/contracts/token/ERC20/ERC20.sol\":8411:8446  _update(account, address(0), value) */\n      jump\t// in\n    tag_173:\n        /* \"@openzeppelin/contracts/token/ERC20/ERC20.sol\":8247:8453  function _burn(address account, uint256 value) internal {... */\n      pop\n      pop\n      jump\t// out\n        /* \"@openzeppelin/contracts/utils/Nonces.sol\":538:645  function nonces(address owner) public view virtual returns (uint256) {... */\n    tag_110:\n        /* \"@openzeppelin/contracts/utils/Nonces.sol\":598:605  uint256 */\n      0x00\n        /* \"@openzeppelin/contracts/utils/Nonces.sol\":624:631  _nonces */\n      0x07\n        /* \"@openzeppelin/contracts/utils/Nonces.sol\":624:638  _nonces[owner] */\n      0x00\n        /* \"@openzeppelin/contracts/utils/Nonces.sol\":632:637  owner */\n      dup4\n        /* \"@openzeppelin/contracts/utils/Nonces.sol\":624:638  _nonces[owner] */\n      0xffffffffffffffffffffffffffffffffffffffff\n      and\n      0xffffffffffffffffffffffffffffffffffffffff\n      and\n      dup2\n      mstore\n      0x20\n      add\n      swap1\n      dup2\n      mstore\n      0x20\n      add\n      0x00\n      keccak256\n      sload\n        /* \"@openzeppelin/contracts/utils/Nonces.sol\":617:638  return _nonces[owner] */\n      swap1\n      pop\n        /* \"@openzeppelin/contracts/utils/Nonces.sol\":538:645  function nonces(address owner) public view virtual returns (uint256) {... */\n      swap2\n      swap1\n      pop\n      jump\t// out\n        /* \"@openzeppelin/contracts/utils/cryptography/EIP712.sol\":6021:6147  function _EIP712Name() internal view returns (string memory) {... */\n    tag_113:\n        /* \"@openzeppelin/contracts/utils/cryptography/EIP712.sol\":6067:6080  string memory */\n      0x60\n        /* \"@openzeppelin/contracts/utils/cryptography/EIP712.sol\":6099:6140  _name.toStringWithFallback(_nameFallback) */\n      tag_176\n        /* \"@openzeppelin/contracts/utils/cryptography/EIP712.sol\":6126:6139  _nameFallback */\n      0x05\n        /* \"@openzeppelin/contracts/utils/cryptography/EIP712.sol\":6099:6104  _name */\n      immutable(\"0x391ef01909572efb7d204e8ce08dbd2d1e392437d50ff998ce7d669b2ed67f61\")\n        /* \"@openzeppelin/contracts/utils/cryptography/EIP712.sol\":6099:6125  _name.toStringWithFallback */\n      tag_177\n      swap1\n        /* \"@openzeppelin/contracts/utils/cryptography/EIP712.sol\":6099:6140  _name.toStringWithFallback(_nameFallback) */\n      swap2\n      swap1\n      0xffffffff\n      and\n      jump\t// in\n    tag_176:\n        /* \"@openzeppelin/contracts/utils/cryptography/EIP712.sol\":6092:6140  return _name.toStringWithFallback(_nameFallback) */\n      swap1\n      pop\n        /* \"@openzeppelin/contracts/utils/cryptography/EIP712.sol\":6021:6147  function _EIP712Name() internal view returns (string memory) {... */\n      swap1\n      jump\t// out\n        /* \"@openzeppelin/contracts/utils/cryptography/EIP712.sol\":6473:6608  function _EIP712Version() internal view returns (string memory) {... */\n    tag_115:\n        /* \"@openzeppelin/contracts/utils/cryptography/EIP712.sol\":6522:6535  string memory */\n      0x60\n        /* \"@openzeppelin/contracts/utils/cryptography/EIP712.sol\":6554:6601  _version.toStringWithFallback(_versionFallback) */\n      tag_179\n        /* \"@openzeppelin/contracts/utils/cryptography/EIP712.sol\":6584:6600  _versionFallback */\n      0x06\n        /* \"@openzeppelin/contracts/utils/cryptography/EIP712.sol\":6554:6562  _version */\n      immutable(\"0xdd8940644e12ac8a6749b8aa71504a3b14c9bb5e8ba37bf9872a5ef5c483b2fb\")\n        /* \"@openzeppelin/contracts/utils/cryptography/EIP712.sol\":6554:6583  _version.toStringWithFallback */\n      tag_177\n      swap1\n        /* \"@openzeppelin/contracts/utils/cryptography/EIP712.sol\":6554:6601  _version.toStringWithFallback(_versionFallback) */\n      swap2\n      swap1\n      0xffffffff\n      and\n      jump\t// in\n    tag_179:\n        /* \"@openzeppelin/contracts/utils/cryptography/EIP712.sol\":6547:6601  return _version.toStringWithFallback(_versionFallback) */\n      swap1\n      pop\n        /* \"@openzeppelin/contracts/utils/cryptography/EIP712.sol\":6473:6608  function _EIP712Version() internal view returns (string memory) {... */\n      swap1\n      jump\t// out\n        /* \"@openzeppelin/contracts/utils/Nonces.sol\":759:1154  function _useNonce(address owner) internal virtual returns (uint256) {... */\n    tag_133:\n        /* \"@openzeppelin/contracts/utils/Nonces.sol\":819:826  uint256 */\n      0x00\n        /* \"@openzeppelin/contracts/utils/Nonces.sol\":1121:1128  _nonces */\n      0x07\n        /* \"@openzeppelin/contracts/utils/Nonces.sol\":1121:1135  _nonces[owner] */\n      0x00\n        /* \"@openzeppelin/contracts/utils/Nonces.sol\":1129:1134  owner */\n      dup4\n        /* \"@openzeppelin/contracts/utils/Nonces.sol\":1121:1135  _nonces[owner] */\n      0xffffffffffffffffffffffffffffffffffffffff\n      and\n      0xffffffffffffffffffffffffffffffffffffffff\n      and\n      dup2\n      mstore\n      0x20\n      add\n      swap1\n      dup2\n      mstore\n      0x20\n      add\n      0x00\n      keccak256\n      0x00\n        /* \"@openzeppelin/contracts/utils/Nonces.sol\":1121:1137  _nonces[owner]++ */\n      dup2\n      sload\n      dup1\n      swap3\n      swap2\n      swap1\n      0x01\n      add\n      swap2\n      swap1\n      pop\n      sstore\n        /* \"@openzeppelin/contracts/utils/Nonces.sol\":1114:1137  return _nonces[owner]++ */\n      swap1\n      pop\n        /* \"@openzeppelin/contracts/utils/Nonces.sol\":759:1154  function _useNonce(address owner) internal virtual returns (uint256) {... */\n      swap2\n      swap1\n      pop\n      jump\t// out\n        /* \"@openzeppelin/contracts/utils/cryptography/EIP712.sol\":4917:5093  function _hashTypedDataV4(bytes32 structHash) internal view virtual returns (bytes32) {... */\n    tag_137:\n        /* \"@openzeppelin/contracts/utils/cryptography/EIP712.sol\":4994:5001  bytes32 */\n      0x00\n        /* \"@openzeppelin/contracts/utils/cryptography/EIP712.sol\":5020:5086  MessageHashUtils.toTypedDataHash(_domainSeparatorV4(), structHash) */\n      tag_182\n        /* \"@openzeppelin/contracts/utils/cryptography/EIP712.sol\":5053:5073  _domainSeparatorV4() */\n      tag_183\n        /* \"@openzeppelin/contracts/utils/cryptography/EIP712.sol\":5053:5071  _domainSeparatorV4 */\n      tag_102\n        /* \"@openzeppelin/contracts/utils/cryptography/EIP712.sol\":5053:5073  _domainSeparatorV4() */\n      jump\t// in\n    tag_183:\n        /* \"@openzeppelin/contracts/utils/cryptography/EIP712.sol\":5075:5085  structHash */\n      dup4\n        /* \"@openzeppelin/contracts/utils/cryptography/EIP712.sol\":5020:5052  MessageHashUtils.toTypedDataHash */\n      tag_184\n        /* \"@openzeppelin/contracts/utils/cryptography/EIP712.sol\":5020:5086  MessageHashUtils.toTypedDataHash(_domainSeparatorV4(), structHash) */\n      jump\t// in\n    tag_182:\n        /* \"@openzeppelin/contracts/utils/cryptography/EIP712.sol\":5013:5086  return MessageHashUtils.toTypedDataHash(_domainSeparatorV4(), structHash) */\n      swap1\n      pop\n        /* \"@openzeppelin/contracts/utils/cryptography/EIP712.sol\":4917:5093  function _hashTypedDataV4(bytes32 structHash) internal view virtual returns (bytes32) {... */\n      swap2\n      swap1\n      pop\n      jump\t// out\n        /* \"@openzeppelin/contracts/utils/cryptography/ECDSA.sol\":6803:7063  function recover(bytes32 hash, uint8 v, bytes32 r, bytes32 s) internal pure returns (address) {... */\n    tag_139:\n        /* \"@openzeppelin/contracts/utils/cryptography/ECDSA.sol\":6888:6895  address */\n      0x00\n        /* \"@openzeppelin/contracts/utils/cryptography/ECDSA.sol\":6908:6925  address recovered */\n      dup1\n        /* \"@openzeppelin/contracts/utils/cryptography/ECDSA.sol\":6927:6945  RecoverError error */\n      0x00\n        /* \"@openzeppelin/contracts/utils/cryptography/ECDSA.sol\":6947:6963  bytes32 errorArg */\n      dup1\n        /* \"@openzeppelin/contracts/utils/cryptography/ECDSA.sol\":6967:6992  tryRecover(hash, v, r, s) */\n      tag_186\n        /* \"@openzeppelin/contracts/utils/cryptography/ECDSA.sol\":6978:6982  hash */\n      dup9\n        /* \"@openzeppelin/contracts/utils/cryptography/ECDSA.sol\":6984:6985  v */\n      dup9\n        /* \"@openzeppelin/contracts/utils/cryptography/ECDSA.sol\":6987:6988  r */\n      dup9\n        /* \"@openzeppelin/contracts/utils/cryptography/ECDSA.sol\":6990:6991  s */\n      dup9\n        /* \"@openzeppelin/contracts/utils/cryptography/ECDSA.sol\":6967:6977  tryRecover */\n      tag_187\n        /* \"@openzeppelin/contracts/utils/cryptography/ECDSA.sol\":6967:6992  tryRecover(hash, v, r, s) */\n      jump\t// in\n    tag_186:\n        /* \"@openzeppelin/contracts/utils/cryptography/ECDSA.sol\":6907:6992  (address recovered, RecoverError error, bytes32 errorArg) = tryRecover(hash, v, r, s) */\n      swap3\n      pop\n      swap3\n      pop\n      swap3\n      pop\n        /* \"@openzeppelin/contracts/utils/cryptography/ECDSA.sol\":7002:7030  _throwError(error, errorArg) */\n      tag_188\n        /* \"@openzeppelin/contracts/utils/cryptography/ECDSA.sol\":7014:7019  error */\n      dup3\n        /* \"@openzeppelin/contracts/utils/cryptography/ECDSA.sol\":7021:7029  errorArg */\n      dup3\n        /* \"@openzeppelin/contracts/utils/cryptography/ECDSA.sol\":7002:7013  _throwError */\n      tag_189\n        /* \"@openzeppelin/contracts/utils/cryptography/ECDSA.sol\":7002:7030  _throwError(error, errorArg) */\n      jump\t// in\n    tag_188:\n        /* \"@openzeppelin/contracts/utils/cryptography/ECDSA.sol\":7047:7056  recovered */\n      dup3\n        /* \"@openzeppelin/contracts/utils/cryptography/ECDSA.sol\":7040:7056  return recovered */\n      swap4\n      pop\n      pop\n      pop\n      pop\n        /* \"@openzeppelin/contracts/utils/cryptography/ECDSA.sol\":6803:7063  function recover(bytes32 hash, uint8 v, bytes32 r, bytes32 s) internal pure returns (address) {... */\n      swap5\n      swap4\n      pop\n      pop\n      pop\n      pop\n      jump\t// out\n        /* \"@openzeppelin/contracts/token/ERC20/ERC20.sol\":9949:10381  function _approve(address owner, address spender, uint256 value, bool emitEvent) internal virtual {... */\n    tag_148:\n        /* \"@openzeppelin/contracts/token/ERC20/ERC20.sol\":10078:10079  0 */\n      0x00\n        /* \"@openzeppelin/contracts/token/ERC20/ERC20.sol\":10061:10080  owner == address(0) */\n      0xffffffffffffffffffffffffffffffffffffffff\n      and\n        /* \"@openzeppelin/contracts/token/ERC20/ERC20.sol\":10061:10066  owner */\n      dup5\n        /* \"@openzeppelin/contracts/token/ERC20/ERC20.sol\":10061:10080  owner == address(0) */\n      0xffffffffffffffffffffffffffffffffffffffff\n      and\n      sub\n        /* \"@openzeppelin/contracts/token/ERC20/ERC20.sol\":10057:10146  if (owner == address(0)) {... */\n      tag_191\n      jumpi\n        /* \"@openzeppelin/contracts/token/ERC20/ERC20.sol\":10132:10133  0 */\n      0x00\n        /* \"@openzeppelin/contracts/token/ERC20/ERC20.sol\":10103:10135  ERC20InvalidApprover(address(0)) */\n      mload(0x40)\n      0xe602df0500000000000000000000000000000000000000000000000000000000\n      dup2\n      mstore\n      0x04\n      add\n      tag_192\n      swap2\n      swap1\n      tag_159\n      jump\t// in\n    tag_192:\n      mload(0x40)\n      dup1\n      swap2\n      sub\n      swap1\n      revert\n        /* \"@openzeppelin/contracts/token/ERC20/ERC20.sol\":10057:10146  if (owner == address(0)) {... */\n    tag_191:\n        /* \"@openzeppelin/contracts/token/ERC20/ERC20.sol\":10178:10179  0 */\n      0x00\n        /* \"@openzeppelin/contracts/token/ERC20/ERC20.sol\":10159:10180  spender == address(0) */\n      0xffffffffffffffffffffffffffffffffffffffff\n      and\n        /* \"@openzeppelin/contracts/token/ERC20/ERC20.sol\":10159:10166  spender */\n      dup4\n        /* \"@openzeppelin/contracts/token/ERC20/ERC20.sol\":10159:10180  spender == address(0) */\n      0xffffffffffffffffffffffffffffffffffffffff\n      and\n      sub\n        /* \"@openzeppelin/contracts/token/ERC20/ERC20.sol\":10155:10245  if (spender == address(0)) {... */\n      tag_193\n      jumpi\n        /* \"@openzeppelin/contracts/token/ERC20/ERC20.sol\":10231:10232  0 */\n      0x00\n        /* \"@openzeppelin/contracts/token/ERC20/ERC20.sol\":10203:10234  ERC20InvalidSpender(address(0)) */\n      mload(0x40)\n      0x94280d6200000000000000000000000000000000000000000000000000000000\n      dup2\n      mstore\n      0x04\n      add\n      tag_194\n      swap2\n      swap1\n      tag_159\n      jump\t// in\n    tag_194:\n      mload(0x40)\n      dup1\n      swap2\n      sub\n      swap1\n      revert\n        /* \"@openzeppelin/contracts/token/ERC20/ERC20.sol\":10155:10245  if (spender == address(0)) {... */\n    tag_193:\n        /* \"@openzeppelin/contracts/token/ERC20/ERC20.sol\":10284:10289  value */\n      dup2\n        /* \"@openzeppelin/contracts/token/ERC20/ERC20.sol\":10254:10265  _allowances */\n      0x01\n        /* \"@openzeppelin/contracts/token/ERC20/ERC20.sol\":10254:10272  _allowances[owner] */\n      0x00\n        /* \"@openzeppelin/contracts/token/ERC20/ERC20.sol\":10266:10271  owner */\n      dup7\n        /* \"@openzeppelin/contracts/token/ERC20/ERC20.sol\":10254:10272  _allowances[owner] */\n      0xffffffffffffffffffffffffffffffffffffffff\n      and\n      0xffffffffffffffffffffffffffffffffffffffff\n      and\n      dup2\n      mstore\n      0x20\n      add\n      swap1\n      dup2\n      mstore\n      0x20\n      add\n      0x00\n      keccak256\n        /* \"@openzeppelin/contracts/token/ERC20/ERC20.sol\":10254:10281  _allowances[owner][spender] */\n      0x00\n        /* \"@openzeppelin/contracts/token/ERC20/ERC20.sol\":10273:10280  spender */\n      dup6\n        /* \"@openzeppelin/contracts/token/ERC20/ERC20.sol\":10254:10281  _allowances[owner][spender] */\n      0xffffffffffffffffffffffffffffffffffffffff\n      and\n      0xffffffffffffffffffffffffffffffffffffffff\n      and\n      dup2\n      mstore\n      0x20\n      add\n      swap1\n      dup2\n      mstore\n      0x20\n      add\n      0x00\n      keccak256\n        /* \"@openzeppelin/contracts/token/ERC20/ERC20.sol\":10254:10289  _allowances[owner][spender] = value */\n      dup2\n      swap1\n      sstore\n      pop\n        /* \"@openzeppelin/contracts/token/ERC20/ERC20.sol\":10303:10312  emitEvent */\n      dup1\n        /* \"@openzeppelin/contracts/token/ERC20/ERC20.sol\":10299:10375  if (emitEvent) {... */\n      iszero\n      tag_195\n      jumpi\n        /* \"@openzeppelin/contracts/token/ERC20/ERC20.sol\":10349:10356  spender */\n      dup3\n        /* \"@openzeppelin/contracts/token/ERC20/ERC20.sol\":10333:10364  Approval(owner, spender, value) */\n      0xffffffffffffffffffffffffffffffffffffffff\n      and\n        /* \"@openzeppelin/contracts/token/ERC20/ERC20.sol\":10342:10347  owner */\n      dup5\n        /* \"@openzeppelin/contracts/token/ERC20/ERC20.sol\":10333:10364  Approval(owner, spender, value) */\n      0xffffffffffffffffffffffffffffffffffffffff\n      and\n      0x8c5be1e5ebec7d5bd14f71427d1e84f3dd0314c0f7b2291e5b200ac8c7c3b925\n        /* \"@openzeppelin/contracts/token/ERC20/ERC20.sol\":10358:10363  value */\n      dup5\n        /* \"@openzeppelin/contracts/token/ERC20/ERC20.sol\":10333:10364  Approval(owner, spender, value) */\n      mload(0x40)\n      tag_196\n      swap2\n      swap1\n      tag_33\n      jump\t// in\n    tag_196:\n      mload(0x40)\n      dup1\n      swap2\n      sub\n      swap1\n      log3\n        /* \"@openzeppelin/contracts/token/ERC20/ERC20.sol\":10299:10375  if (emitEvent) {... */\n    tag_195:\n        /* \"@openzeppelin/contracts/token/ERC20/ERC20.sol\":9949:10381  function _approve(address owner, address spender, uint256 value, bool emitEvent) internal virtual {... */\n      pop\n      pop\n      pop\n      pop\n      jump\t// out\n        /* \"@openzeppelin/contracts/token/ERC20/ERC20.sol\":6271:7378  function _update(address from, address to, uint256 value) internal virtual {... */\n    tag_163:\n        /* \"@openzeppelin/contracts/token/ERC20/ERC20.sol\":6376:6377  0 */\n      0x00\n        /* \"@openzeppelin/contracts/token/ERC20/ERC20.sol\":6360:6378  from == address(0) */\n      0xffffffffffffffffffffffffffffffffffffffff\n      and\n        /* \"@openzeppelin/contracts/token/ERC20/ERC20.sol\":6360:6364  from */\n      dup4\n        /* \"@openzeppelin/contracts/token/ERC20/ERC20.sol\":6360:6378  from == address(0) */\n      0xffffffffffffffffffffffffffffffffffffffff\n      and\n      sub\n        /* \"@openzeppelin/contracts/token/ERC20/ERC20.sol\":6356:6896  if (from == address(0)) {... */\n      tag_198\n      jumpi\n        /* \"@openzeppelin/contracts/token/ERC20/ERC20.sol\":6512:6517  value */\n      dup1\n        /* \"@openzeppelin/contracts/token/ERC20/ERC20.sol\":6496:6508  _totalSupply */\n      0x02\n      0x00\n        /* \"@openzeppelin/contracts/token/ERC20/ERC20.sol\":6496:6517  _totalSupply += value */\n      dup3\n      dup3\n      sload\n      tag_199\n      swap2\n      swap1\n      tag_200\n      jump\t// in\n    tag_199:\n      swap3\n      pop\n      pop\n      dup2\n      swap1\n      sstore\n      pop\n        /* \"@openzeppelin/contracts/token/ERC20/ERC20.sol\":6356:6896  if (from == address(0)) {... */\n      jump(tag_201)\n    tag_198:\n        /* \"@openzeppelin/contracts/token/ERC20/ERC20.sol\":6548:6567  uint256 fromBalance */\n      0x00\n        /* \"@openzeppelin/contracts/token/ERC20/ERC20.sol\":6570:6579  _balances */\n      dup1\n        /* \"@openzeppelin/contracts/token/ERC20/ERC20.sol\":6570:6585  _balances[from] */\n      0x00\n        /* \"@openzeppelin/contracts/token/ERC20/ERC20.sol\":6580:6584  from */\n      dup6\n        /* \"@openzeppelin/contracts/token/ERC20/ERC20.sol\":6570:6585  _balances[from] */\n      0xffffffffffffffffffffffffffffffffffffffff\n      and\n      0xffffffffffffffffffffffffffffffffffffffff\n      and\n      dup2\n      mstore\n      0x20\n      add\n      swap1\n      dup2\n      mstore\n      0x20\n      add\n      0x00\n      keccak256\n      sload\n        /* \"@openzeppelin/contracts/token/ERC20/ERC20.sol\":6548:6585  uint256 fromBalance = _balances[from] */\n      swap1\n      pop\n        /* \"@openzeppelin/contracts/token/ERC20/ERC20.sol\":6617:6622  value */\n      dup2\n        /* \"@openzeppelin/contracts/token/ERC20/ERC20.sol\":6603:6614  fromBalance */\n      dup2\n        /* \"@openzeppelin/contracts/token/ERC20/ERC20.sol\":6603:6622  fromBalance < value */\n      lt\n        /* \"@openzeppelin/contracts/token/ERC20/ERC20.sol\":6599:6714  if (fromBalance < value) {... */\n      iszero\n      tag_202\n      jumpi\n        /* \"@openzeppelin/contracts/token/ERC20/ERC20.sol\":6674:6678  from */\n      dup4\n        /* \"@openzeppelin/contracts/token/ERC20/ERC20.sol\":6680:6691  fromBalance */\n      dup2\n        /* \"@openzeppelin/contracts/token/ERC20/ERC20.sol\":6693:6698  value */\n      dup4\n        /* \"@openzeppelin/contracts/token/ERC20/ERC20.sol\":6649:6699  ERC20InsufficientBalance(from, fromBalance, value) */\n      mload(0x40)\n      0xe450d38c00000000000000000000000000000000000000000000000000000000\n      dup2\n      mstore\n      0x04\n      add\n      tag_203\n      swap4\n      swap3\n      swap2\n      swap1\n      tag_154\n      jump\t// in\n    tag_203:\n      mload(0x40)\n      dup1\n      swap2\n      sub\n      swap1\n      revert\n        /* \"@openzeppelin/contracts/token/ERC20/ERC20.sol\":6599:6714  if (fromBalance < value) {... */\n    tag_202:\n        /* \"@openzeppelin/contracts/token/ERC20/ERC20.sol\":6866:6871  value */\n      dup2\n        /* \"@openzeppelin/contracts/token/ERC20/ERC20.sol\":6852:6863  fromBalance */\n      dup2\n        /* \"@openzeppelin/contracts/token/ERC20/ERC20.sol\":6852:6871  fromBalance - value */\n      sub\n        /* \"@openzeppelin/contracts/token/ERC20/ERC20.sol\":6834:6843  _balances */\n      0x00\n        /* \"@openzeppelin/contracts/token/ERC20/ERC20.sol\":6834:6849  _balances[from] */\n      dup1\n        /* \"@openzeppelin/contracts/token/ERC20/ERC20.sol\":6844:6848  from */\n      dup7\n        /* \"@openzeppelin/contracts/token/ERC20/ERC20.sol\":6834:6849  _balances[from] */\n      0xffffffffffffffffffffffffffffffffffffffff\n      and\n      0xffffffffffffffffffffffffffffffffffffffff\n      and\n      dup2\n      mstore\n      0x20\n      add\n      swap1\n      dup2\n      mstore\n      0x20\n      add\n      0x00\n      keccak256\n        /* \"@openzeppelin/contracts/token/ERC20/ERC20.sol\":6834:6871  _balances[from] = fromBalance - value */\n      dup2\n      swap1\n      sstore\n      pop\n        /* \"@openzeppelin/contracts/token/ERC20/ERC20.sol\":6534:6896  {... */\n      pop\n        /* \"@openzeppelin/contracts/token/ERC20/ERC20.sol\":6356:6896  if (from == address(0)) {... */\n    tag_201:\n        /* \"@openzeppelin/contracts/token/ERC20/ERC20.sol\":6924:6925  0 */\n      0x00\n        /* \"@openzeppelin/contracts/token/ERC20/ERC20.sol\":6910:6926  to == address(0) */\n      0xffffffffffffffffffffffffffffffffffffffff\n      and\n        /* \"@openzeppelin/contracts/token/ERC20/ERC20.sol\":6910:6912  to */\n      dup3\n        /* \"@openzeppelin/contracts/token/ERC20/ERC20.sol\":6910:6926  to == address(0) */\n      0xffffffffffffffffffffffffffffffffffffffff\n      and\n      sub\n        /* \"@openzeppelin/contracts/token/ERC20/ERC20.sol\":6906:7331  if (to == address(0)) {... */\n      tag_204\n      jumpi\n        /* \"@openzeppelin/contracts/token/ERC20/ERC20.sol\":7089:7094  value */\n      dup1\n        /* \"@openzeppelin/contracts/token/ERC20/ERC20.sol\":7073:7085  _totalSupply */\n      0x02\n      0x00\n        /* \"@openzeppelin/contracts/token/ERC20/ERC20.sol\":7073:7094  _totalSupply -= value */\n      dup3\n      dup3\n      sload\n      sub\n      swap3\n      pop\n      pop\n      dup2\n      swap1\n      sstore\n      pop\n        /* \"@openzeppelin/contracts/token/ERC20/ERC20.sol\":6906:7331  if (to == address(0)) {... */\n      jump(tag_205)\n    tag_204:\n        /* \"@openzeppelin/contracts/token/ERC20/ERC20.sol\":7301:7306  value */\n      dup1\n        /* \"@openzeppelin/contracts/token/ERC20/ERC20.sol\":7284:7293  _balances */\n      0x00\n        /* \"@openzeppelin/contracts/token/ERC20/ERC20.sol\":7284:7297  _balances[to] */\n      dup1\n        /* \"@openzeppelin/contracts/token/ERC20/ERC20.sol\":7294:7296  to */\n      dup5\n        /* \"@openzeppelin/contracts/token/ERC20/ERC20.sol\":7284:7297  _balances[to] */\n      0xffffffffffffffffffffffffffffffffffffffff\n      and\n      0xffffffffffffffffffffffffffffffffffffffff\n      and\n      dup2\n      mstore\n      0x20\n      add\n      swap1\n      dup2\n      mstore\n      0x20\n      add\n      0x00\n      keccak256\n      0x00\n        /* \"@openzeppelin/contracts/token/ERC20/ERC20.sol\":7284:7306  _balances[to] += value */\n      dup3\n      dup3\n      sload\n      add\n      swap3\n      pop\n      pop\n      dup2\n      swap1\n      sstore\n      pop\n        /* \"@openzeppelin/contracts/token/ERC20/ERC20.sol\":6906:7331  if (to == address(0)) {... */\n    tag_205:\n        /* \"@openzeppelin/contracts/token/ERC20/ERC20.sol\":7361:7363  to */\n      dup2\n        /* \"@openzeppelin/contracts/token/ERC20/ERC20.sol\":7346:7371  Transfer(from, to, value) */\n      0xffffffffffffffffffffffffffffffffffffffff\n      and\n        /* \"@openzeppelin/contracts/token/ERC20/ERC20.sol\":7355:7359  from */\n      dup4\n        /* \"@openzeppelin/contracts/token/ERC20/ERC20.sol\":7346:7371  Transfer(from, to, value) */\n      0xffffffffffffffffffffffffffffffffffffffff\n      and\n      0xddf252ad1be2c89b69c2b068fc378daa952ba7f163c4a11628f55a4df523b3ef\n        /* \"@openzeppelin/contracts/token/ERC20/ERC20.sol\":7365:7370  value */\n      dup4\n        /* \"@openzeppelin/contracts/token/ERC20/ERC20.sol\":7346:7371  Transfer(from, to, value) */\n      mload(0x40)\n      tag_206\n      swap2\n      swap1\n      tag_33\n      jump\t// in\n    tag_206:\n      mload(0x40)\n      dup1\n      swap2\n      sub\n      swap1\n      log3\n        /* \"@openzeppelin/contracts/token/ERC20/ERC20.sol\":6271:7378  function _update(address from, address to, uint256 value) internal virtual {... */\n      pop\n      pop\n      pop\n      jump\t// out\n        /* \"@openzeppelin/contracts/utils/cryptography/EIP712.sol\":4113:4292  function _buildDomainSeparator() private view returns (bytes32) {... */\n    tag_169:\n        /* \"@openzeppelin/contracts/utils/cryptography/EIP712.sol\":4168:4175  bytes32 */\n      0x00\n        /* \"@openzeppelin/contracts/utils/cryptography/EIP712.sol\":2079:2174  keccak256(\"EIP712Domain(string name,string version,uint256 chainId,address verifyingContract)\") */\n      0x8b73c3c69bb8fe3d512ecc4cf759cc79239f7b179b0ffacaa9a75d522b39400f\n        /* \"@openzeppelin/contracts/utils/cryptography/EIP712.sol\":4226:4237  _hashedName */\n      immutable(\"0x88f0c1d908d1668ca7118aff681e11ca5b5cbb882d45c5a709e452d6f304fae0\")\n        /* \"@openzeppelin/contracts/utils/cryptography/EIP712.sol\":4239:4253  _hashedVersion */\n      immutable(\"0x8e8569119eefcb0ba2ddb4d55ad51c94a71fd404cb84d2c6b9c5566c65b10537\")\n        /* \"@openzeppelin/contracts/utils/cryptography/EIP712.sol\":4255:4268  block.chainid */\n      chainid\n        /* \"@openzeppelin/contracts/utils/cryptography/EIP712.sol\":4278:4282  this */\n      address\n        /* \"@openzeppelin/contracts/utils/cryptography/EIP712.sol\":4204:4284  abi.encode(TYPE_HASH, _hashedName, _hashedVersion, block.chainid, address(this)) */\n      add(0x20, mload(0x40))\n      tag_208\n      swap6\n      swap5\n      swap4\n      swap3\n      swap2\n      swap1\n      tag_209\n      jump\t// in\n    tag_208:\n      mload(0x40)\n      0x20\n      dup2\n      dup4\n      sub\n      sub\n      dup2\n      mstore\n      swap1\n      0x40\n      mstore\n        /* \"@openzeppelin/contracts/utils/cryptography/EIP712.sol\":4194:4285  keccak256(abi.encode(TYPE_HASH, _hashedName, _hashedVersion, block.chainid, address(this))) */\n      dup1\n      mload\n      swap1\n      0x20\n      add\n      keccak256\n        /* \"@openzeppelin/contracts/utils/cryptography/EIP712.sol\":4187:4285  return keccak256(abi.encode(TYPE_HASH, _hashedName, _hashedVersion, block.chainid, address(this))) */\n      swap1\n      pop\n        /* \"@openzeppelin/contracts/utils/cryptography/EIP712.sol\":4113:4292  function _buildDomainSeparator() private view returns (bytes32) {... */\n      swap1\n      jump\t// out\n        /* \"@openzeppelin/contracts/utils/ShortStrings.sol\":3385:3652  function toStringWithFallback(ShortString value, string storage store) internal pure returns (string memory) {... */\n    tag_177:\n        /* \"@openzeppelin/contracts/utils/ShortStrings.sol\":3479:3492  string memory */\n      0x60\n        /* \"@openzeppelin/contracts/utils/ShortStrings.sol\":1390:1456  0x00000000000000000000000000000000000000000000000000000000000000FF */\n      0xff\n        /* \"@openzeppelin/contracts/utils/ShortStrings.sol\":3537:3554  FALLBACK_SENTINEL */\n      0x00\n      shl\n        /* \"@openzeppelin/contracts/utils/ShortStrings.sol\":3527:3532  value */\n      dup4\n        /* \"@openzeppelin/contracts/utils/ShortStrings.sol\":3508:3554  ShortString.unwrap(value) != FALLBACK_SENTINEL */\n      eq\n        /* \"@openzeppelin/contracts/utils/ShortStrings.sol\":3504:3646  if (ShortString.unwrap(value) != FALLBACK_SENTINEL) {... */\n      tag_211\n      jumpi\n        /* \"@openzeppelin/contracts/utils/ShortStrings.sol\":3577:3592  toString(value) */\n      tag_212\n        /* \"@openzeppelin/contracts/utils/ShortStrings.sol\":3586:3591  value */\n      dup4\n        /* \"@openzeppelin/contracts/utils/ShortStrings.sol\":3577:3585  toString */\n      tag_213\n        /* \"@openzeppelin/contracts/utils/ShortStrings.sol\":3577:3592  toString(value) */\n      jump\t// in\n    tag_212:\n        /* \"@openzeppelin/contracts/utils/ShortStrings.sol\":3570:3592  return toString(value) */\n      swap1\n      pop\n      jump(tag_210)\n        /* \"@openzeppelin/contracts/utils/ShortStrings.sol\":3504:3646  if (ShortString.unwrap(value) != FALLBACK_SENTINEL) {... */\n    tag_211:\n        /* \"@openzeppelin/contracts/utils/ShortStrings.sol\":3630:3635  store */\n      dup2\n        /* \"@openzeppelin/contracts/utils/ShortStrings.sol\":3623:3635  return store */\n      dup1\n      sload\n      tag_215\n      swap1\n      tag_82\n      jump\t// in\n    tag_215:\n      dup1\n      0x1f\n      add\n      0x20\n      dup1\n      swap2\n      div\n      mul\n      0x20\n      add\n      mload(0x40)\n      swap1\n      dup2\n      add\n      0x40\n      mstore\n      dup1\n      swap3\n      swap2\n      swap1\n      dup2\n      dup2\n      mstore\n      0x20\n      add\n      dup3\n      dup1\n      sload\n      tag_216\n      swap1\n      tag_82\n      jump\t// in\n    tag_216:\n      dup1\n      iszero\n      tag_217\n      jumpi\n      dup1\n      0x1f\n      lt\n      tag_218\n      jumpi\n      0x0100\n      dup1\n      dup4\n      sload\n      div\n      mul\n      dup4\n      mstore\n      swap2\n      0x20\n      add\n      swap2\n      jump(tag_217)\n    tag_218:\n      dup3\n      add\n      swap2\n      swap1\n      0x00\n      mstore\n      keccak256(0x00, 0x20)\n      swap1\n    tag_219:\n      dup2\n      sload\n      dup2\n      mstore\n      swap1\n      0x01\n      add\n      swap1\n      0x20\n      add\n      dup1\n      dup4\n      gt\n      tag_219\n      jumpi\n      dup3\n      swap1\n      sub\n      0x1f\n      and\n      dup3\n      add\n      swap2\n    tag_217:\n      pop\n      pop\n      pop\n      pop\n      pop\n      swap1\n      pop\n        /* \"@openzeppelin/contracts/utils/ShortStrings.sol\":3385:3652  function toStringWithFallback(ShortString value, string storage store) internal pure returns (string memory) {... */\n    tag_210:\n      swap3\n      swap2\n      pop\n      pop\n      jump\t// out\n        /* \"@openzeppelin/contracts/utils/cryptography/MessageHashUtils.sol\":3353:3754  function toTypedDataHash(bytes32 domainSeparator, bytes32 structHash) internal pure returns (bytes32 digest) {... */\n    tag_184:\n        /* \"@openzeppelin/contracts/utils/cryptography/MessageHashUtils.sol\":3446:3460  bytes32 digest */\n      0x00\n        /* \"@openzeppelin/contracts/utils/cryptography/MessageHashUtils.sol\":3555:3559  0x40 */\n      0x40\n        /* \"@openzeppelin/contracts/utils/cryptography/MessageHashUtils.sol\":3549:3560  mload(0x40) */\n      mload\n        /* \"@openzeppelin/contracts/utils/cryptography/MessageHashUtils.sol\":3585:3595  hex\"19_01\" */\n      0x1901000000000000000000000000000000000000000000000000000000000000\n        /* \"@openzeppelin/contracts/utils/cryptography/MessageHashUtils.sol\":3580:3583  ptr */\n      dup2\n        /* \"@openzeppelin/contracts/utils/cryptography/MessageHashUtils.sol\":3573:3596  mstore(ptr, hex\"19_01\") */\n      mstore\n        /* \"@openzeppelin/contracts/utils/cryptography/MessageHashUtils.sol\":3632:3647  domainSeparator */\n      dup4\n        /* \"@openzeppelin/contracts/utils/cryptography/MessageHashUtils.sol\":3625:3629  0x02 */\n      0x02\n        /* \"@openzeppelin/contracts/utils/cryptography/MessageHashUtils.sol\":3620:3623  ptr */\n      dup3\n        /* \"@openzeppelin/contracts/utils/cryptography/MessageHashUtils.sol\":3616:3630  add(ptr, 0x02) */\n      add\n        /* \"@openzeppelin/contracts/utils/cryptography/MessageHashUtils.sol\":3609:3648  mstore(add(ptr, 0x02), domainSeparator) */\n      mstore\n        /* \"@openzeppelin/contracts/utils/cryptography/MessageHashUtils.sol\":3684:3694  structHash */\n      dup3\n        /* \"@openzeppelin/contracts/utils/cryptography/MessageHashUtils.sol\":3677:3681  0x22 */\n      0x22\n        /* \"@openzeppelin/contracts/utils/cryptography/MessageHashUtils.sol\":3672:3675  ptr */\n      dup3\n        /* \"@openzeppelin/contracts/utils/cryptography/MessageHashUtils.sol\":3668:3682  add(ptr, 0x22) */\n      add\n        /* \"@openzeppelin/contracts/utils/cryptography/MessageHashUtils.sol\":3661:3695  mstore(add(ptr, 0x22), structHash) */\n      mstore\n        /* \"@openzeppelin/contracts/utils/cryptography/MessageHashUtils.sol\":3733:3737  0x42 */\n      0x42\n        /* \"@openzeppelin/contracts/utils/cryptography/MessageHashUtils.sol\":3728:3731  ptr */\n      dup2\n        /* \"@openzeppelin/contracts/utils/cryptography/MessageHashUtils.sol\":3718:3738  keccak256(ptr, 0x42) */\n      keccak256\n        /* \"@openzeppelin/contracts/utils/cryptography/MessageHashUtils.sol\":3708:3738  digest := keccak256(ptr, 0x42) */\n      swap2\n      pop\n        /* \"@openzeppelin/contracts/utils/cryptography/MessageHashUtils.sol\":3524:3748  {... */\n      pop\n        /* \"@openzeppelin/contracts/utils/cryptography/MessageHashUtils.sol\":3353:3754  function toTypedDataHash(bytes32 domainSeparator, bytes32 structHash) internal pure returns (bytes32 digest) {... */\n      swap3\n      swap2\n      pop\n      pop\n      jump\t// out\n        /* \"@openzeppelin/contracts/utils/cryptography/ECDSA.sol\":5140:6670  function tryRecover(... */\n    tag_187:\n        /* \"@openzeppelin/contracts/utils/cryptography/ECDSA.sol\":5266:5273  address */\n      0x00\n        /* \"@openzeppelin/contracts/utils/cryptography/ECDSA.sol\":5275:5287  RecoverError */\n      dup1\n        /* \"@openzeppelin/contracts/utils/cryptography/ECDSA.sol\":5289:5296  bytes32 */\n      0x00\n        /* \"@openzeppelin/contracts/utils/cryptography/ECDSA.sol\":6199:6265  0x7FFFFFFFFFFFFFFFFFFFFFFFFFFFFFFF5D576E7357A4501DDFE92F46681B20A0 */\n      0x7fffffffffffffffffffffffffffffff5d576e7357a4501ddfe92f46681b20a0\n        /* \"@openzeppelin/contracts/utils/cryptography/ECDSA.sol\":6194:6195  s */\n      dup5\n        /* \"@openzeppelin/contracts/utils/cryptography/ECDSA.sol\":6186:6196  uint256(s) */\n      0x00\n      shr\n        /* \"@openzeppelin/contracts/utils/cryptography/ECDSA.sol\":6186:6265  uint256(s) > 0x7FFFFFFFFFFFFFFFFFFFFFFFFFFFFFFF5D576E7357A4501DDFE92F46681B20A0 */\n      gt\n        /* \"@openzeppelin/contracts/utils/cryptography/ECDSA.sol\":6182:6346  if (uint256(s) > 0x7FFFFFFFFFFFFFFFFFFFFFFFFFFFFFFF5D576E7357A4501DDFE92F46681B20A0) {... */\n      iszero\n      tag_222\n      jumpi\n        /* \"@openzeppelin/contracts/utils/cryptography/ECDSA.sol\":6297:6298  0 */\n      0x00\n        /* \"@openzeppelin/contracts/utils/cryptography/ECDSA.sol\":6301:6331  RecoverError.InvalidSignatureS */\n      0x03\n        /* \"@openzeppelin/contracts/utils/cryptography/ECDSA.sol\":6333:6334  s */\n      dup6\n        /* \"@openzeppelin/contracts/utils/cryptography/ECDSA.sol\":6281:6335  return (address(0), RecoverError.InvalidSignatureS, s) */\n      swap3\n      pop\n      swap3\n      pop\n      swap3\n      pop\n      jump(tag_221)\n        /* \"@openzeppelin/contracts/utils/cryptography/ECDSA.sol\":6182:6346  if (uint256(s) > 0x7FFFFFFFFFFFFFFFFFFFFFFFFFFFFFFF5D576E7357A4501DDFE92F46681B20A0) {... */\n    tag_222:\n        /* \"@openzeppelin/contracts/utils/cryptography/ECDSA.sol\":6440:6454  address signer */\n      0x00\n        /* \"@openzeppelin/contracts/utils/cryptography/ECDSA.sol\":6457:6481  ecrecover(hash, v, r, s) */\n      0x01\n        /* \"@openzeppelin/contracts/utils/cryptography/ECDSA.sol\":6467:6471  hash */\n      dup9\n        /* \"@openzeppelin/contracts/utils/cryptography/ECDSA.sol\":6473:6474  v */\n      dup9\n        /* \"@openzeppelin/contracts/utils/cryptography/ECDSA.sol\":6476:6477  r */\n      dup9\n        /* \"@openzeppelin/contracts/utils/cryptography/ECDSA.sol\":6479:6480  s */\n      dup9\n        /* \"@openzeppelin/contracts/utils/cryptography/ECDSA.sol\":6457:6481  ecrecover(hash, v, r, s) */\n      mload(0x40)\n      0x00\n      dup2\n      mstore\n      0x20\n      add\n      0x40\n      mstore\n      mload(0x40)\n      tag_223\n      swap5\n      swap4\n      swap3\n      swap2\n      swap1\n      tag_224\n      jump\t// in\n    tag_223:\n      0x20\n      mload(0x40)\n      0x20\n      dup2\n      sub\n      swap1\n      dup1\n      dup5\n      sub\n      swap1\n      dup6\n      gas\n      staticcall\n      iszero\n      dup1\n      iszero\n      tag_226\n      jumpi\n      returndatasize\n      0x00\n      dup1\n      returndatacopy\n      revert(0x00, returndatasize)\n    tag_226:\n      pop\n      pop\n      pop\n      mload(sub(mload(0x40), 0x20))\n        /* \"@openzeppelin/contracts/utils/cryptography/ECDSA.sol\":6440:6481  address signer = ecrecover(hash, v, r, s) */\n      swap1\n      pop\n        /* \"@openzeppelin/contracts/utils/cryptography/ECDSA.sol\":6513:6514  0 */\n      0x00\n        /* \"@openzeppelin/contracts/utils/cryptography/ECDSA.sol\":6495:6515  signer == address(0) */\n      0xffffffffffffffffffffffffffffffffffffffff\n      and\n        /* \"@openzeppelin/contracts/utils/cryptography/ECDSA.sol\":6495:6501  signer */\n      dup2\n        /* \"@openzeppelin/contracts/utils/cryptography/ECDSA.sol\":6495:6515  signer == address(0) */\n      0xffffffffffffffffffffffffffffffffffffffff\n      and\n      sub\n        /* \"@openzeppelin/contracts/utils/cryptography/ECDSA.sol\":6491:6604  if (signer == address(0)) {... */\n      tag_227\n      jumpi\n        /* \"@openzeppelin/contracts/utils/cryptography/ECDSA.sol\":6547:6548  0 */\n      0x00\n        /* \"@openzeppelin/contracts/utils/cryptography/ECDSA.sol\":6551:6580  RecoverError.InvalidSignature */\n      0x01\n        /* \"@openzeppelin/contracts/utils/cryptography/ECDSA.sol\":6590:6591  0 */\n      0x00\n        /* \"@openzeppelin/contracts/utils/cryptography/ECDSA.sol\":6582:6592  bytes32(0) */\n      dup1\n      shl\n        /* \"@openzeppelin/contracts/utils/cryptography/ECDSA.sol\":6531:6593  return (address(0), RecoverError.InvalidSignature, bytes32(0)) */\n      swap4\n      pop\n      swap4\n      pop\n      swap4\n      pop\n      pop\n      jump(tag_221)\n        /* \"@openzeppelin/contracts/utils/cryptography/ECDSA.sol\":6491:6604  if (signer == address(0)) {... */\n    tag_227:\n        /* \"@openzeppelin/contracts/utils/cryptography/ECDSA.sol\":6622:6628  signer */\n      dup1\n        /* \"@openzeppelin/contracts/utils/cryptography/ECDSA.sol\":6630:6650  RecoverError.NoError */\n      0x00\n        /* \"@openzeppelin/contracts/utils/cryptography/ECDSA.sol\":6660:6661  0 */\n      dup1\n        /* \"@openzeppelin/contracts/utils/cryptography/ECDSA.sol\":6652:6662  bytes32(0) */\n      0x00\n      shl\n        /* \"@openzeppelin/contracts/utils/cryptography/ECDSA.sol\":6614:6663  return (signer, RecoverError.NoError, bytes32(0)) */\n      swap4\n      pop\n      swap4\n      pop\n      swap4\n      pop\n      pop\n        /* \"@openzeppelin/contracts/utils/cryptography/ECDSA.sol\":5140:6670  function tryRecover(... */\n    tag_221:\n      swap5\n      pop\n      swap5\n      pop\n      swap5\n      swap2\n      pop\n      pop\n      jump\t// out\n        /* \"@openzeppelin/contracts/utils/cryptography/ECDSA.sol\":7196:7728  function _throwError(RecoverError error, bytes32 errorArg) private pure {... */\n    tag_189:\n        /* \"@openzeppelin/contracts/utils/cryptography/ECDSA.sol\":7291:7311  RecoverError.NoError */\n      0x00\n        /* \"@openzeppelin/contracts/utils/cryptography/ECDSA.sol\":7282:7311  error == RecoverError.NoError */\n      0x03\n      dup2\n      gt\n      iszero\n      tag_229\n      jumpi\n      tag_230\n      tag_231\n      jump\t// in\n    tag_230:\n    tag_229:\n        /* \"@openzeppelin/contracts/utils/cryptography/ECDSA.sol\":7282:7287  error */\n      dup3\n        /* \"@openzeppelin/contracts/utils/cryptography/ECDSA.sol\":7282:7311  error == RecoverError.NoError */\n      0x03\n      dup2\n      gt\n      iszero\n      tag_232\n      jumpi\n      tag_233\n      tag_231\n      jump\t// in\n    tag_233:\n    tag_232:\n      sub\n        /* \"@openzeppelin/contracts/utils/cryptography/ECDSA.sol\":7278:7722  if (error == RecoverError.NoError) {... */\n      iszero\n        /* \"@openzeppelin/contracts/utils/cryptography/ECDSA.sol\":7327:7334  return; */\n      tag_228\n        /* \"@openzeppelin/contracts/utils/cryptography/ECDSA.sol\":7278:7722  if (error == RecoverError.NoError) {... */\n      jumpi\n        /* \"@openzeppelin/contracts/utils/cryptography/ECDSA.sol\":7387:7416  RecoverError.InvalidSignature */\n      0x01\n        /* \"@openzeppelin/contracts/utils/cryptography/ECDSA.sol\":7378:7416  error == RecoverError.InvalidSignature */\n      0x03\n      dup2\n      gt\n      iszero\n      tag_236\n      jumpi\n      tag_237\n      tag_231\n      jump\t// in\n    tag_237:\n    tag_236:\n        /* \"@openzeppelin/contracts/utils/cryptography/ECDSA.sol\":7378:7383  error */\n      dup3\n        /* \"@openzeppelin/contracts/utils/cryptography/ECDSA.sol\":7378:7416  error == RecoverError.InvalidSignature */\n      0x03\n      dup2\n      gt\n      iszero\n      tag_238\n      jumpi\n      tag_239\n      tag_231\n      jump\t// in\n    tag_239:\n    tag_238:\n      sub\n        /* \"@openzeppelin/contracts/utils/cryptography/ECDSA.sol\":7374:7722  if (error == RecoverError.InvalidSignature) {... */\n      tag_240\n      jumpi\n        /* \"@openzeppelin/contracts/utils/cryptography/ECDSA.sol\":7439:7462  ECDSAInvalidSignature() */\n      mload(0x40)\n      0xf645eedf00000000000000000000000000000000000000000000000000000000\n      dup2\n      mstore\n      0x04\n      add\n      mload(0x40)\n      dup1\n      swap2\n      sub\n      swap1\n      revert\n        /* \"@openzeppelin/contracts/utils/cryptography/ECDSA.sol\":7374:7722  if (error == RecoverError.InvalidSignature) {... */\n    tag_240:\n        /* \"@openzeppelin/contracts/utils/cryptography/ECDSA.sol\":7492:7527  RecoverError.InvalidSignatureLength */\n      0x02\n        /* \"@openzeppelin/contracts/utils/cryptography/ECDSA.sol\":7483:7527  error == RecoverError.InvalidSignatureLength */\n      0x03\n      dup2\n      gt\n      iszero\n      tag_242\n      jumpi\n      tag_243\n      tag_231\n      jump\t// in\n    tag_243:\n    tag_242:\n        /* \"@openzeppelin/contracts/utils/cryptography/ECDSA.sol\":7483:7488  error */\n      dup3\n        /* \"@openzeppelin/contracts/utils/cryptography/ECDSA.sol\":7483:7527  error == RecoverError.InvalidSignatureLength */\n      0x03\n      dup2\n      gt\n      iszero\n      tag_244\n      jumpi\n      tag_245\n      tag_231\n      jump\t// in\n    tag_245:\n    tag_244:\n      sub\n        /* \"@openzeppelin/contracts/utils/cryptography/ECDSA.sol\":7479:7722  if (error == RecoverError.InvalidSignatureLength) {... */\n      tag_246\n      jumpi\n        /* \"@openzeppelin/contracts/utils/cryptography/ECDSA.sol\":7586:7594  errorArg */\n      dup1\n        /* \"@openzeppelin/contracts/utils/cryptography/ECDSA.sol\":7578:7595  uint256(errorArg) */\n      0x00\n      shr\n        /* \"@openzeppelin/contracts/utils/cryptography/ECDSA.sol\":7550:7596  ECDSAInvalidSignatureLength(uint256(errorArg)) */\n      mload(0x40)\n      0xfce698f700000000000000000000000000000000000000000000000000000000\n      dup2\n      mstore\n      0x04\n      add\n      tag_247\n      swap2\n      swap1\n      tag_33\n      jump\t// in\n    tag_247:\n      mload(0x40)\n      dup1\n      swap2\n      sub\n      swap1\n      revert\n        /* \"@openzeppelin/contracts/utils/cryptography/ECDSA.sol\":7479:7722  if (error == RecoverError.InvalidSignatureLength) {... */\n    tag_246:\n        /* \"@openzeppelin/contracts/utils/cryptography/ECDSA.sol\":7626:7656  RecoverError.InvalidSignatureS */\n      0x03\n        /* \"@openzeppelin/contracts/utils/cryptography/ECDSA.sol\":7617:7656  error == RecoverError.InvalidSignatureS */\n      dup1\n      dup2\n      gt\n      iszero\n      tag_249\n      jumpi\n      tag_250\n      tag_231\n      jump\t// in\n    tag_250:\n    tag_249:\n        /* \"@openzeppelin/contracts/utils/cryptography/ECDSA.sol\":7617:7622  error */\n      dup3\n        /* \"@openzeppelin/contracts/utils/cryptography/ECDSA.sol\":7617:7656  error == RecoverError.InvalidSignatureS */\n      0x03\n      dup2\n      gt\n      iszero\n      tag_251\n      jumpi\n      tag_252\n      tag_231\n      jump\t// in\n    tag_252:\n    tag_251:\n      sub\n        /* \"@openzeppelin/contracts/utils/cryptography/ECDSA.sol\":7613:7722  if (error == RecoverError.InvalidSignatureS) {... */\n      tag_253\n      jumpi\n        /* \"@openzeppelin/contracts/utils/cryptography/ECDSA.sol\":7702:7710  errorArg */\n      dup1\n        /* \"@openzeppelin/contracts/utils/cryptography/ECDSA.sol\":7679:7711  ECDSAInvalidSignatureS(errorArg) */\n      mload(0x40)\n      0xd78bce0c00000000000000000000000000000000000000000000000000000000\n      dup2\n      mstore\n      0x04\n      add\n      tag_254\n      swap2\n      swap1\n      tag_46\n      jump\t// in\n    tag_254:\n      mload(0x40)\n      dup1\n      swap2\n      sub\n      swap1\n      revert\n        /* \"@openzeppelin/contracts/utils/cryptography/ECDSA.sol\":7613:7722  if (error == RecoverError.InvalidSignatureS) {... */\n    tag_253:\n        /* \"@openzeppelin/contracts/utils/cryptography/ECDSA.sol\":7196:7728  function _throwError(RecoverError error, bytes32 errorArg) private pure {... */\n    tag_228:\n      pop\n      pop\n      jump\t// out\n        /* \"@openzeppelin/contracts/utils/ShortStrings.sol\":2078:2483  function toString(ShortString sstr) internal pure returns (string memory) {... */\n    tag_213:\n        /* \"@openzeppelin/contracts/utils/ShortStrings.sol\":2137:2150  string memory */\n      0x60\n        /* \"@openzeppelin/contracts/utils/ShortStrings.sol\":2162:2173  uint256 len */\n      0x00\n        /* \"@openzeppelin/contracts/utils/ShortStrings.sol\":2176:2192  byteLength(sstr) */\n      tag_256\n        /* \"@openzeppelin/contracts/utils/ShortStrings.sol\":2187:2191  sstr */\n      dup4\n        /* \"@openzeppelin/contracts/utils/ShortStrings.sol\":2176:2186  byteLength */\n      tag_257\n        /* \"@openzeppelin/contracts/utils/ShortStrings.sol\":2176:2192  byteLength(sstr) */\n      jump\t// in\n    tag_256:\n        /* \"@openzeppelin/contracts/utils/ShortStrings.sol\":2162:2192  uint256 len = byteLength(sstr) */\n      swap1\n      pop\n        /* \"@openzeppelin/contracts/utils/ShortStrings.sol\":2280:2297  string memory str */\n      0x00\n        /* \"@openzeppelin/contracts/utils/ShortStrings.sol\":2311:2313  32 */\n      0x20\n        /* \"@openzeppelin/contracts/utils/ShortStrings.sol\":2300:2314  new string(32) */\n      0xffffffffffffffff\n      dup2\n      gt\n      iszero\n      tag_258\n      jumpi\n      tag_259\n      tag_118\n      jump\t// in\n    tag_259:\n    tag_258:\n      mload(0x40)\n      swap1\n      dup1\n      dup3\n      mstore\n      dup1\n      0x1f\n      add\n      not(0x1f)\n      and\n      0x20\n      add\n      dup3\n      add\n      0x40\n      mstore\n      dup1\n      iszero\n      tag_260\n      jumpi\n      dup2\n      0x20\n      add\n      0x01\n      dup3\n      mul\n      dup1\n      calldatasize\n      dup4\n      calldatacopy\n      dup1\n      dup3\n      add\n      swap2\n      pop\n      pop\n      swap1\n      pop\n    tag_260:\n      pop\n        /* \"@openzeppelin/contracts/utils/ShortStrings.sol\":2280:2314  string memory str = new string(32) */\n      swap1\n      pop\n        /* \"@openzeppelin/contracts/utils/ShortStrings.sol\":2402:2405  len */\n      dup2\n        /* \"@openzeppelin/contracts/utils/ShortStrings.sol\":2397:2400  str */\n      dup2\n        /* \"@openzeppelin/contracts/utils/ShortStrings.sol\":2390:2406  mstore(str, len) */\n      mstore\n        /* \"@openzeppelin/contracts/utils/ShortStrings.sol\":2442:2446  sstr */\n      dup4\n        /* \"@openzeppelin/contracts/utils/ShortStrings.sol\":2435:2439  0x20 */\n      0x20\n        /* \"@openzeppelin/contracts/utils/ShortStrings.sol\":2430:2433  str */\n      dup3\n        /* \"@openzeppelin/contracts/utils/ShortStrings.sol\":2426:2440  add(str, 0x20) */\n      add\n        /* \"@openzeppelin/contracts/utils/ShortStrings.sol\":2419:2447  mstore(add(str, 0x20), sstr) */\n      mstore\n        /* \"@openzeppelin/contracts/utils/ShortStrings.sol\":2473:2476  str */\n      dup1\n        /* \"@openzeppelin/contracts/utils/ShortStrings.sol\":2466:2476  return str */\n      swap3\n      pop\n      pop\n      pop\n        /* \"@openzeppelin/contracts/utils/ShortStrings.sol\":2078:2483  function toString(ShortString sstr) internal pure returns (string memory) {... */\n      swap2\n      swap1\n      pop\n      jump\t// out\n        /* \"@openzeppelin/contracts/utils/ShortStrings.sol\":2555:2800  function byteLength(ShortString sstr) internal pure returns (uint256) {... */\n    tag_257:\n        /* \"@openzeppelin/contracts/utils/ShortStrings.sol\":2616:2623  uint256 */\n      0x00\n        /* \"@openzeppelin/contracts/utils/ShortStrings.sol\":2635:2649  uint256 result */\n      dup1\n        /* \"@openzeppelin/contracts/utils/ShortStrings.sol\":2688:2692  0xFF */\n      0xff\n        /* \"@openzeppelin/contracts/utils/ShortStrings.sol\":2679:2683  sstr */\n      dup4\n        /* \"@openzeppelin/contracts/utils/ShortStrings.sol\":2652:2685  uint256(ShortString.unwrap(sstr)) */\n      0x00\n      shr\n        /* \"@openzeppelin/contracts/utils/ShortStrings.sol\":2652:2692  uint256(ShortString.unwrap(sstr)) & 0xFF */\n      and\n        /* \"@openzeppelin/contracts/utils/ShortStrings.sol\":2635:2692  uint256 result = uint256(ShortString.unwrap(sstr)) & 0xFF */\n      swap1\n      pop\n        /* \"@openzeppelin/contracts/utils/ShortStrings.sol\":2715:2717  31 */\n      0x1f\n        /* \"@openzeppelin/contracts/utils/ShortStrings.sol\":2706:2712  result */\n      dup2\n        /* \"@openzeppelin/contracts/utils/ShortStrings.sol\":2706:2717  result > 31 */\n      gt\n        /* \"@openzeppelin/contracts/utils/ShortStrings.sol\":2702:2771  if (result > 31) {... */\n      iszero\n      tag_262\n      jumpi\n        /* \"@openzeppelin/contracts/utils/ShortStrings.sol\":2740:2760  InvalidShortString() */\n      mload(0x40)\n      0xb3512b0c00000000000000000000000000000000000000000000000000000000\n      dup2\n      mstore\n      0x04\n      add\n      mload(0x40)\n      dup1\n      swap2\n      sub\n      swap1\n      revert\n        /* \"@openzeppelin/contracts/utils/ShortStrings.sol\":2702:2771  if (result > 31) {... */\n    tag_262:\n        /* \"@openzeppelin/contracts/utils/ShortStrings.sol\":2787:2793  result */\n      dup1\n        /* \"@openzeppelin/contracts/utils/ShortStrings.sol\":2780:2793  return result */\n      swap2\n      pop\n      pop\n        /* \"@openzeppelin/contracts/utils/ShortStrings.sol\":2555:2800  function byteLength(ShortString sstr) internal pure returns (uint256) {... */\n      swap2\n      swap1\n      pop\n      jump\t// out\n        /* \"#utility.yul\":7:106   */\n    tag_263:\n        /* \"#utility.yul\":59:65   */\n      0x00\n        /* \"#utility.yul\":93:98   */\n      dup2\n        /* \"#utility.yul\":87:99   */\n      mload\n        /* \"#utility.yul\":77:99   */\n      swap1\n      pop\n        /* \"#utility.yul\":7:106   */\n      swap2\n      swap1\n      pop\n      jump\t// out\n        /* \"#utility.yul\":112:281   */\n    tag_264:\n        /* \"#utility.yul\":196:207   */\n      0x00\n        /* \"#utility.yul\":230:236   */\n      dup3\n        /* \"#utility.yul\":225:228   */\n      dup3\n        /* \"#utility.yul\":218:237   */\n      mstore\n        /* \"#utility.yul\":270:274   */\n      0x20\n        /* \"#utility.yul\":265:268   */\n      dup3\n        /* \"#utility.yul\":261:275   */\n      add\n        /* \"#utility.yul\":246:275   */\n      swap1\n      pop\n        /* \"#utility.yul\":112:281   */\n      swap3\n      swap2\n      pop\n      pop\n      jump\t// out\n        /* \"#utility.yul\":287:533   */\n    tag_265:\n        /* \"#utility.yul\":368:369   */\n      0x00\n        /* \"#utility.yul\":378:491   */\n    tag_305:\n        /* \"#utility.yul\":392:398   */\n      dup4\n        /* \"#utility.yul\":389:390   */\n      dup2\n        /* \"#utility.yul\":386:399   */\n      lt\n        /* \"#utility.yul\":378:491   */\n      iszero\n      tag_307\n      jumpi\n        /* \"#utility.yul\":477:478   */\n      dup1\n        /* \"#utility.yul\":472:475   */\n      dup3\n        /* \"#utility.yul\":468:479   */\n      add\n        /* \"#utility.yul\":462:480   */\n      mload\n        /* \"#utility.yul\":458:459   */\n      dup2\n        /* \"#utility.yul\":453:456   */\n      dup5\n        /* \"#utility.yul\":449:460   */\n      add\n        /* \"#utility.yul\":442:481   */\n      mstore\n        /* \"#utility.yul\":414:416   */\n      0x20\n        /* \"#utility.yul\":411:412   */\n      dup2\n        /* \"#utility.yul\":407:417   */\n      add\n        /* \"#utility.yul\":402:417   */\n      swap1\n      pop\n        /* \"#utility.yul\":378:491   */\n      jump(tag_305)\n    tag_307:\n        /* \"#utility.yul\":525:526   */\n      0x00\n        /* \"#utility.yul\":516:522   */\n      dup5\n        /* \"#utility.yul\":511:514   */\n      dup5\n        /* \"#utility.yul\":507:523   */\n      add\n        /* \"#utility.yul\":500:527   */\n      mstore\n        /* \"#utility.yul\":349:533   */\n      pop\n        /* \"#utility.yul\":287:533   */\n      pop\n      pop\n      pop\n      jump\t// out\n        /* \"#utility.yul\":539:641   */\n    tag_266:\n        /* \"#utility.yul\":580:586   */\n      0x00\n        /* \"#utility.yul\":631:633   */\n      0x1f\n        /* \"#utility.yul\":627:634   */\n      not\n        /* \"#utility.yul\":622:624   */\n      0x1f\n        /* \"#utility.yul\":615:620   */\n      dup4\n        /* \"#utility.yul\":611:625   */\n      add\n        /* \"#utility.yul\":607:635   */\n      and\n        /* \"#utility.yul\":597:635   */\n      swap1\n      pop\n        /* \"#utility.yul\":539:641   */\n      swap2\n      swap1\n      pop\n      jump\t// out\n        /* \"#utility.yul\":647:1024   */\n    tag_267:\n        /* \"#utility.yul\":735:738   */\n      0x00\n        /* \"#utility.yul\":763:802   */\n      tag_310\n        /* \"#utility.yul\":796:801   */\n      dup3\n        /* \"#utility.yul\":763:802   */\n      tag_263\n      jump\t// in\n    tag_310:\n        /* \"#utility.yul\":818:889   */\n      tag_311\n        /* \"#utility.yul\":882:888   */\n      dup2\n        /* \"#utility.yul\":877:880   */\n      dup6\n        /* \"#utility.yul\":818:889   */\n      tag_264\n      jump\t// in\n    tag_311:\n        /* \"#utility.yul\":811:889   */\n      swap4\n      pop\n        /* \"#utility.yul\":898:963   */\n      tag_312\n        /* \"#utility.yul\":956:962   */\n      dup2\n        /* \"#utility.yul\":951:954   */\n      dup6\n        /* \"#utility.yul\":944:948   */\n      0x20\n        /* \"#utility.yul\":937:942   */\n      dup7\n        /* \"#utility.yul\":933:949   */\n      add\n        /* \"#utility.yul\":898:963   */\n      tag_265\n      jump\t// in\n    tag_312:\n        /* \"#utility.yul\":988:1017   */\n      tag_313\n        /* \"#utility.yul\":1010:1016   */\n      dup2\n        /* \"#utility.yul\":988:1017   */\n      tag_266\n      jump\t// in\n    tag_313:\n        /* \"#utility.yul\":983:986   */\n      dup5\n        /* \"#utility.yul\":979:1018   */\n      add\n        /* \"#utility.yul\":972:1018   */\n      swap2\n      pop\n        /* \"#utility.yul\":739:1024   */\n      pop\n        /* \"#utility.yul\":647:1024   */\n      swap3\n      swap2\n      pop\n      pop\n      jump\t// out\n        /* \"#utility.yul\":1030:1343   */\n    tag_23:\n        /* \"#utility.yul\":1143:1147   */\n      0x00\n        /* \"#utility.yul\":1181:1183   */\n      0x20\n        /* \"#utility.yul\":1170:1179   */\n      dup3\n        /* \"#utility.yul\":1166:1184   */\n      add\n        /* \"#utility.yul\":1158:1184   */\n      swap1\n      pop\n        /* \"#utility.yul\":1230:1239   */\n      dup2\n        /* \"#utility.yul\":1224:1228   */\n      dup2\n        /* \"#utility.yul\":1220:1240   */\n      sub\n        /* \"#utility.yul\":1216:1217   */\n      0x00\n        /* \"#utility.yul\":1205:1214   */\n      dup4\n        /* \"#utility.yul\":1201:1218   */\n      add\n        /* \"#utility.yul\":1194:1241   */\n      mstore\n        /* \"#utility.yul\":1258:1336   */\n      tag_315\n        /* \"#utility.yul\":1331:1335   */\n      dup2\n        /* \"#utility.yul\":1322:1328   */\n      dup5\n        /* \"#utility.yul\":1258:1336   */\n      tag_267\n      jump\t// in\n    tag_315:\n        /* \"#utility.yul\":1250:1336   */\n      swap1\n      pop\n        /* \"#utility.yul\":1030:1343   */\n      swap3\n      swap2\n      pop\n      pop\n      jump\t// out\n        /* \"#utility.yul\":1430:1547   */\n    tag_269:\n        /* \"#utility.yul\":1539:1540   */\n      0x00\n        /* \"#utility.yul\":1536:1537   */\n      dup1\n        /* \"#utility.yul\":1529:1541   */\n      revert\n        /* \"#utility.yul\":1676:1802   */\n    tag_271:\n        /* \"#utility.yul\":1713:1720   */\n      0x00\n        /* \"#utility.yul\":1753:1795   */\n      0xffffffffffffffffffffffffffffffffffffffff\n        /* \"#utility.yul\":1746:1751   */\n      dup3\n        /* \"#utility.yul\":1742:1796   */\n      and\n        /* \"#utility.yul\":1731:1796   */\n      swap1\n      pop\n        /* \"#utility.yul\":1676:1802   */\n      swap2\n      swap1\n      pop\n      jump\t// out\n        /* \"#utility.yul\":1808:1904   */\n    tag_272:\n        /* \"#utility.yul\":1845:1852   */\n      0x00\n        /* \"#utility.yul\":1874:1898   */\n      tag_321\n        /* \"#utility.yul\":1892:1897   */\n      dup3\n        /* \"#utility.yul\":1874:1898   */\n      tag_271\n      jump\t// in\n    tag_321:\n        /* \"#utility.yul\":1863:1898   */\n      swap1\n      pop\n        /* \"#utility.yul\":1808:1904   */\n      swap2\n      swap1\n      pop\n      jump\t// out\n        /* \"#utility.yul\":1910:2032   */\n    tag_273:\n        /* \"#utility.yul\":1983:2007   */\n      tag_323\n        /* \"#utility.yul\":2001:2006   */\n      dup2\n        /* \"#utility.yul\":1983:2007   */\n      tag_272\n      jump\t// in\n    tag_323:\n        /* \"#utility.yul\":1976:1981   */\n      dup2\n        /* \"#utility.yul\":1973:2008   */\n      eq\n        /* \"#utility.yul\":1963:2026   */\n      tag_324\n      jumpi\n        /* \"#utility.yul\":2022:2023   */\n      0x00\n        /* \"#utility.yul\":2019:2020   */\n      dup1\n        /* \"#utility.yul\":2012:2024   */\n      revert\n        /* \"#utility.yul\":1963:2026   */\n    tag_324:\n        /* \"#utility.yul\":1910:2032   */\n      pop\n      jump\t// out\n        /* \"#utility.yul\":2038:2177   */\n    tag_274:\n        /* \"#utility.yul\":2084:2089   */\n      0x00\n        /* \"#utility.yul\":2122:2128   */\n      dup2\n        /* \"#utility.yul\":2109:2129   */\n      calldataload\n        /* \"#utility.yul\":2100:2129   */\n      swap1\n      pop\n        /* \"#utility.yul\":2138:2171   */\n      tag_326\n        /* \"#utility.yul\":2165:2170   */\n      dup2\n        /* \"#utility.yul\":2138:2171   */\n      tag_273\n      jump\t// in\n    tag_326:\n        /* \"#utility.yul\":2038:2177   */\n      swap3\n      swap2\n      pop\n      pop\n      jump\t// out\n        /* \"#utility.yul\":2183:2260   */\n    tag_275:\n        /* \"#utility.yul\":2220:2227   */\n      0x00\n        /* \"#utility.yul\":2249:2254   */\n      dup2\n        /* \"#utility.yul\":2238:2254   */\n      swap1\n      pop\n        /* \"#utility.yul\":2183:2260   */\n      swap2\n      swap1\n      pop\n      jump\t// out\n        /* \"#utility.yul\":2266:2388   */\n    tag_276:\n        /* \"#utility.yul\":2339:2363   */\n      tag_329\n        /* \"#utility.yul\":2357:2362   */\n      dup2\n        /* \"#utility.yul\":2339:2363   */\n      tag_275\n      jump\t// in\n    tag_329:\n        /* \"#utility.yul\":2332:2337   */\n      dup2\n        /* \"#utility.yul\":2329:2364   */\n      eq\n        /* \"#utility.yul\":2319:2382   */\n      tag_330\n      jumpi\n        /* \"#utility.yul\":2378:2379   */\n      0x00\n        /* \"#utility.yul\":2375:2376   */\n      dup1\n        /* \"#utility.yul\":2368:2380   */\n      revert\n        /* \"#utility.yul\":2319:2382   */\n    tag_330:\n        /* \"#utility.yul\":2266:2388   */\n      pop\n      jump\t// out\n        /* \"#utility.yul\":2394:2533   */\n    tag_277:\n        /* \"#utility.yul\":2440:2445   */\n      0x00\n        /* \"#utility.yul\":2478:2484   */\n      dup2\n        /* \"#utility.yul\":2465:2485   */\n      calldataload\n        /* \"#utility.yul\":2456:2485   */\n      swap1\n      pop\n        /* \"#utility.yul\":2494:2527   */\n      tag_332\n        /* \"#utility.yul\":2521:2526   */\n      dup2\n        /* \"#utility.yul\":2494:2527   */\n      tag_276\n      jump\t// in\n    tag_332:\n        /* \"#utility.yul\":2394:2533   */\n      swap3\n      swap2\n      pop\n      pop\n      jump\t// out\n        /* \"#utility.yul\":2539:3013   */\n    tag_26:\n        /* \"#utility.yul\":2607:2613   */\n      0x00\n        /* \"#utility.yul\":2615:2621   */\n      dup1\n        /* \"#utility.yul\":2664:2666   */\n      0x40\n        /* \"#utility.yul\":2652:2661   */\n      dup4\n        /* \"#utility.yul\":2643:2650   */\n      dup6\n        /* \"#utility.yul\":2639:2662   */\n      sub\n        /* \"#utility.yul\":2635:2667   */\n      slt\n        /* \"#utility.yul\":2632:2751   */\n      iszero\n      tag_334\n      jumpi\n        /* \"#utility.yul\":2670:2749   */\n      tag_335\n      tag_269\n      jump\t// in\n    tag_335:\n        /* \"#utility.yul\":2632:2751   */\n    tag_334:\n        /* \"#utility.yul\":2790:2791   */\n      0x00\n        /* \"#utility.yul\":2815:2868   */\n      tag_336\n        /* \"#utility.yul\":2860:2867   */\n      dup6\n        /* \"#utility.yul\":2851:2857   */\n      dup3\n        /* \"#utility.yul\":2840:2849   */\n      dup7\n        /* \"#utility.yul\":2836:2858   */\n      add\n        /* \"#utility.yul\":2815:2868   */\n      tag_274\n      jump\t// in\n    tag_336:\n        /* \"#utility.yul\":2805:2868   */\n      swap3\n      pop\n        /* \"#utility.yul\":2761:2878   */\n      pop\n        /* \"#utility.yul\":2917:2919   */\n      0x20\n        /* \"#utility.yul\":2943:2996   */\n      tag_337\n        /* \"#utility.yul\":2988:2995   */\n      dup6\n        /* \"#utility.yul\":2979:2985   */\n      dup3\n        /* \"#utility.yul\":2968:2977   */\n      dup7\n        /* \"#utility.yul\":2964:2986   */\n      add\n        /* \"#utility.yul\":2943:2996   */\n      tag_277\n      jump\t// in\n    tag_337:\n        /* \"#utility.yul\":2933:2996   */\n      swap2\n      pop\n        /* \"#utility.yul\":2888:3006   */\n      pop\n        /* \"#utility.yul\":2539:3013   */\n      swap3\n      pop\n      swap3\n      swap1\n      pop\n      jump\t// out\n        /* \"#utility.yul\":3019:3109   */\n    tag_278:\n        /* \"#utility.yul\":3053:3060   */\n      0x00\n        /* \"#utility.yul\":3096:3101   */\n      dup2\n        /* \"#utility.yul\":3089:3102   */\n      iszero\n        /* \"#utility.yul\":3082:3103   */\n      iszero\n        /* \"#utility.yul\":3071:3103   */\n      swap1\n      pop\n        /* \"#utility.yul\":3019:3109   */\n      swap2\n      swap1\n      pop\n      jump\t// out\n        /* \"#utility.yul\":3115:3224   */\n    tag_279:\n        /* \"#utility.yul\":3196:3217   */\n      tag_340\n        /* \"#utility.yul\":3211:3216   */\n      dup2\n        /* \"#utility.yul\":3196:3217   */\n      tag_278\n      jump\t// in\n    tag_340:\n        /* \"#utility.yul\":3191:3194   */\n      dup3\n        /* \"#utility.yul\":3184:3218   */\n      mstore\n        /* \"#utility.yul\":3115:3224   */\n      pop\n      pop\n      jump\t// out\n        /* \"#utility.yul\":3230:3440   */\n    tag_29:\n        /* \"#utility.yul\":3317:3321   */\n      0x00\n        /* \"#utility.yul\":3355:3357   */\n      0x20\n        /* \"#utility.yul\":3344:3353   */\n      dup3\n        /* \"#utility.yul\":3340:3358   */\n      add\n        /* \"#utility.yul\":3332:3358   */\n      swap1\n      pop\n        /* \"#utility.yul\":3368:3433   */\n      tag_342\n        /* \"#utility.yul\":3430:3431   */\n      0x00\n        /* \"#utility.yul\":3419:3428   */\n      dup4\n        /* \"#utility.yul\":3415:3432   */\n      add\n        /* \"#utility.yul\":3406:3412   */\n      dup5\n        /* \"#utility.yul\":3368:3433   */\n      tag_279\n      jump\t// in\n    tag_342:\n        /* \"#utility.yul\":3230:3440   */\n      swap3\n      swap2\n      pop\n      pop\n      jump\t// out\n        /* \"#utility.yul\":3446:3564   */\n    tag_280:\n        /* \"#utility.yul\":3533:3557   */\n      tag_344\n        /* \"#utility.yul\":3551:3556   */\n      dup2\n        /* \"#utility.yul\":3533:3557   */\n      tag_275\n      jump\t// in\n    tag_344:\n        /* \"#utility.yul\":3528:3531   */\n      dup3\n        /* \"#utility.yul\":3521:3558   */\n      mstore\n        /* \"#utility.yul\":3446:3564   */\n      pop\n      pop\n      jump\t// out\n        /* \"#utility.yul\":3570:3792   */\n    tag_33:\n        /* \"#utility.yul\":3663:3667   */\n      0x00\n        /* \"#utility.yul\":3701:3703   */\n      0x20\n        /* \"#utility.yul\":3690:3699   */\n      dup3\n        /* \"#utility.yul\":3686:3704   */\n      add\n        /* \"#utility.yul\":3678:3704   */\n      swap1\n      pop\n        /* \"#utility.yul\":3714:3785   */\n      tag_346\n        /* \"#utility.yul\":3782:3783   */\n      0x00\n        /* \"#utility.yul\":3771:3780   */\n      dup4\n        /* \"#utility.yul\":3767:3784   */\n      add\n        /* \"#utility.yul\":3758:3764   */\n      dup5\n        /* \"#utility.yul\":3714:3785   */\n      tag_280\n      jump\t// in\n    tag_346:\n        /* \"#utility.yul\":3570:3792   */\n      swap3\n      swap2\n      pop\n      pop\n      jump\t// out\n        /* \"#utility.yul\":3798:4417   */\n    tag_36:\n        /* \"#utility.yul\":3875:3881   */\n      0x00\n        /* \"#utility.yul\":3883:3889   */\n      dup1\n        /* \"#utility.yul\":3891:3897   */\n      0x00\n        /* \"#utility.yul\":3940:3942   */\n      0x60\n        /* \"#utility.yul\":3928:3937   */\n      dup5\n        /* \"#utility.yul\":3919:3926   */\n      dup7\n        /* \"#utility.yul\":3915:3938   */\n      sub\n        /* \"#utility.yul\":3911:3943   */\n      slt\n        /* \"#utility.yul\":3908:4027   */\n      iszero\n      tag_348\n      jumpi\n        /* \"#utility.yul\":3946:4025   */\n      tag_349\n      tag_269\n      jump\t// in\n    tag_349:\n        /* \"#utility.yul\":3908:4027   */\n    tag_348:\n        /* \"#utility.yul\":4066:4067   */\n      0x00\n        /* \"#utility.yul\":4091:4144   */\n      tag_350\n        /* \"#utility.yul\":4136:4143   */\n      dup7\n        /* \"#utility.yul\":4127:4133   */\n      dup3\n        /* \"#utility.yul\":4116:4125   */\n      dup8\n        /* \"#utility.yul\":4112:4134   */\n      add\n        /* \"#utility.yul\":4091:4144   */\n      tag_274\n      jump\t// in\n    tag_350:\n        /* \"#utility.yul\":4081:4144   */\n      swap4\n      pop\n        /* \"#utility.yul\":4037:4154   */\n      pop\n        /* \"#utility.yul\":4193:4195   */\n      0x20\n        /* \"#utility.yul\":4219:4272   */\n      tag_351\n        /* \"#utility.yul\":4264:4271   */\n      dup7\n        /* \"#utility.yul\":4255:4261   */\n      dup3\n        /* \"#utility.yul\":4244:4253   */\n      dup8\n        /* \"#utility.yul\":4240:4262   */\n      add\n        /* \"#utility.yul\":4219:4272   */\n      tag_274\n      jump\t// in\n    tag_351:\n        /* \"#utility.yul\":4209:4272   */\n      swap3\n      pop\n        /* \"#utility.yul\":4164:4282   */\n      pop\n        /* \"#utility.yul\":4321:4323   */\n      0x40\n        /* \"#utility.yul\":4347:4400   */\n      tag_352\n        /* \"#utility.yul\":4392:4399   */\n      dup7\n        /* \"#utility.yul\":4383:4389   */\n      dup3\n        /* \"#utility.yul\":4372:4381   */\n      dup8\n        /* \"#utility.yul\":4368:4390   */\n      add\n        /* \"#utility.yul\":4347:4400   */\n      tag_277\n      jump\t// in\n    tag_352:\n        /* \"#utility.yul\":4337:4400   */\n      swap2\n      pop\n        /* \"#utility.yul\":4292:4410   */\n      pop\n        /* \"#utility.yul\":3798:4417   */\n      swap3\n      pop\n      swap3\n      pop\n      swap3\n      jump\t// out\n        /* \"#utility.yul\":4423:4509   */\n    tag_281:\n        /* \"#utility.yul\":4458:4465   */\n      0x00\n        /* \"#utility.yul\":4498:4502   */\n      0xff\n        /* \"#utility.yul\":4491:4496   */\n      dup3\n        /* \"#utility.yul\":4487:4503   */\n      and\n        /* \"#utility.yul\":4476:4503   */\n      swap1\n      pop\n        /* \"#utility.yul\":4423:4509   */\n      swap2\n      swap1\n      pop\n      jump\t// out\n        /* \"#utility.yul\":4515:4627   */\n    tag_282:\n        /* \"#utility.yul\":4598:4620   */\n      tag_355\n        /* \"#utility.yul\":4614:4619   */\n      dup2\n        /* \"#utility.yul\":4598:4620   */\n      tag_281\n      jump\t// in\n    tag_355:\n        /* \"#utility.yul\":4593:4596   */\n      dup3\n        /* \"#utility.yul\":4586:4621   */\n      mstore\n        /* \"#utility.yul\":4515:4627   */\n      pop\n      pop\n      jump\t// out\n        /* \"#utility.yul\":4633:4847   */\n    tag_42:\n        /* \"#utility.yul\":4722:4726   */\n      0x00\n        /* \"#utility.yul\":4760:4762   */\n      0x20\n        /* \"#utility.yul\":4749:4758   */\n      dup3\n        /* \"#utility.yul\":4745:4763   */\n      add\n        /* \"#utility.yul\":4737:4763   */\n      swap1\n      pop\n        /* \"#utility.yul\":4773:4840   */\n      tag_357\n        /* \"#utility.yul\":4837:4838   */\n      0x00\n        /* \"#utility.yul\":4826:4835   */\n      dup4\n        /* \"#utility.yul\":4822:4839   */\n      add\n        /* \"#utility.yul\":4813:4819   */\n      dup5\n        /* \"#utility.yul\":4773:4840   */\n      tag_282\n      jump\t// in\n    tag_357:\n        /* \"#utility.yul\":4633:4847   */\n      swap3\n      swap2\n      pop\n      pop\n      jump\t// out\n        /* \"#utility.yul\":4853:4930   */\n    tag_283:\n        /* \"#utility.yul\":4890:4897   */\n      0x00\n        /* \"#utility.yul\":4919:4924   */\n      dup2\n        /* \"#utility.yul\":4908:4924   */\n      swap1\n      pop\n        /* \"#utility.yul\":4853:4930   */\n      swap2\n      swap1\n      pop\n      jump\t// out\n        /* \"#utility.yul\":4936:5054   */\n    tag_284:\n        /* \"#utility.yul\":5023:5047   */\n      tag_360\n        /* \"#utility.yul\":5041:5046   */\n      dup2\n        /* \"#utility.yul\":5023:5047   */\n      tag_283\n      jump\t// in\n    tag_360:\n        /* \"#utility.yul\":5018:5021   */\n      dup3\n        /* \"#utility.yul\":5011:5048   */\n      mstore\n        /* \"#utility.yul\":4936:5054   */\n      pop\n      pop\n      jump\t// out\n        /* \"#utility.yul\":5060:5282   */\n    tag_46:\n        /* \"#utility.yul\":5153:5157   */\n      0x00\n        /* \"#utility.yul\":5191:5193   */\n      0x20\n        /* \"#utility.yul\":5180:5189   */\n      dup3\n        /* \"#utility.yul\":5176:5194   */\n      add\n        /* \"#utility.yul\":5168:5194   */\n      swap1\n      pop\n        /* \"#utility.yul\":5204:5275   */\n      tag_362\n        /* \"#utility.yul\":5272:5273   */\n      0x00\n        /* \"#utility.yul\":5261:5270   */\n      dup4\n        /* \"#utility.yul\":5257:5274   */\n      add\n        /* \"#utility.yul\":5248:5254   */\n      dup5\n        /* \"#utility.yul\":5204:5275   */\n      tag_284\n      jump\t// in\n    tag_362:\n        /* \"#utility.yul\":5060:5282   */\n      swap3\n      swap2\n      pop\n      pop\n      jump\t// out\n        /* \"#utility.yul\":5288:5617   */\n    tag_49:\n        /* \"#utility.yul\":5347:5353   */\n      0x00\n        /* \"#utility.yul\":5396:5398   */\n      0x20\n        /* \"#utility.yul\":5384:5393   */\n      dup3\n        /* \"#utility.yul\":5375:5382   */\n      dup5\n        /* \"#utility.yul\":5371:5394   */\n      sub\n        /* \"#utility.yul\":5367:5399   */\n      slt\n        /* \"#utility.yul\":5364:5483   */\n      iszero\n      tag_364\n      jumpi\n        /* \"#utility.yul\":5402:5481   */\n      tag_365\n      tag_269\n      jump\t// in\n    tag_365:\n        /* \"#utility.yul\":5364:5483   */\n    tag_364:\n        /* \"#utility.yul\":5522:5523   */\n      0x00\n        /* \"#utility.yul\":5547:5600   */\n      tag_366\n        /* \"#utility.yul\":5592:5599   */\n      dup5\n        /* \"#utility.yul\":5583:5589   */\n      dup3\n        /* \"#utility.yul\":5572:5581   */\n      dup6\n        /* \"#utility.yul\":5568:5590   */\n      add\n        /* \"#utility.yul\":5547:5600   */\n      tag_277\n      jump\t// in\n    tag_366:\n        /* \"#utility.yul\":5537:5600   */\n      swap2\n      pop\n        /* \"#utility.yul\":5493:5610   */\n      pop\n        /* \"#utility.yul\":5288:5617   */\n      swap3\n      swap2\n      pop\n      pop\n      jump\t// out\n        /* \"#utility.yul\":5623:5952   */\n    tag_53:\n        /* \"#utility.yul\":5682:5688   */\n      0x00\n        /* \"#utility.yul\":5731:5733   */\n      0x20\n        /* \"#utility.yul\":5719:5728   */\n      dup3\n        /* \"#utility.yul\":5710:5717   */\n      dup5\n        /* \"#utility.yul\":5706:5729   */\n      sub\n        /* \"#utility.yul\":5702:5734   */\n      slt\n        /* \"#utility.yul\":5699:5818   */\n      iszero\n      tag_368\n      jumpi\n        /* \"#utility.yul\":5737:5816   */\n      tag_369\n      tag_269\n      jump\t// in\n    tag_369:\n        /* \"#utility.yul\":5699:5818   */\n    tag_368:\n        /* \"#utility.yul\":5857:5858   */\n      0x00\n        /* \"#utility.yul\":5882:5935   */\n      tag_370\n        /* \"#utility.yul\":5927:5934   */\n      dup5\n        /* \"#utility.yul\":5918:5924   */\n      dup3\n        /* \"#utility.yul\":5907:5916   */\n      dup6\n        /* \"#utility.yul\":5903:5925   */\n      add\n        /* \"#utility.yul\":5882:5935   */\n      tag_274\n      jump\t// in\n    tag_370:\n        /* \"#utility.yul\":5872:5935   */\n      swap2\n      pop\n        /* \"#utility.yul\":5828:5945   */\n      pop\n        /* \"#utility.yul\":5623:5952   */\n      swap3\n      swap2\n      pop\n      pop\n      jump\t// out\n        /* \"#utility.yul\":5958:6107   */\n    tag_285:\n        /* \"#utility.yul\":5994:6001   */\n      0x00\n        /* \"#utility.yul\":6034:6100   */\n      0xff00000000000000000000000000000000000000000000000000000000000000\n        /* \"#utility.yul\":6027:6032   */\n      dup3\n        /* \"#utility.yul\":6023:6101   */\n      and\n        /* \"#utility.yul\":6012:6101   */\n      swap1\n      pop\n        /* \"#utility.yul\":5958:6107   */\n      swap2\n      swap1\n      pop\n      jump\t// out\n        /* \"#utility.yul\":6113:6228   */\n    tag_286:\n        /* \"#utility.yul\":6198:6221   */\n      tag_373\n        /* \"#utility.yul\":6215:6220   */\n      dup2\n        /* \"#utility.yul\":6198:6221   */\n      tag_285\n      jump\t// in\n    tag_373:\n        /* \"#utility.yul\":6193:6196   */\n      dup3\n        /* \"#utility.yul\":6186:6222   */\n      mstore\n        /* \"#utility.yul\":6113:6228   */\n      pop\n      pop\n      jump\t// out\n        /* \"#utility.yul\":6234:6352   */\n    tag_287:\n        /* \"#utility.yul\":6321:6345   */\n      tag_375\n        /* \"#utility.yul\":6339:6344   */\n      dup2\n        /* \"#utility.yul\":6321:6345   */\n      tag_272\n      jump\t// in\n    tag_375:\n        /* \"#utility.yul\":6316:6319   */\n      dup3\n        /* \"#utility.yul\":6309:6346   */\n      mstore\n        /* \"#utility.yul\":6234:6352   */\n      pop\n      pop\n      jump\t// out\n        /* \"#utility.yul\":6358:6472   */\n    tag_288:\n        /* \"#utility.yul\":6425:6431   */\n      0x00\n        /* \"#utility.yul\":6459:6464   */\n      dup2\n        /* \"#utility.yul\":6453:6465   */\n      mload\n        /* \"#utility.yul\":6443:6465   */\n      swap1\n      pop\n        /* \"#utility.yul\":6358:6472   */\n      swap2\n      swap1\n      pop\n      jump\t// out\n        /* \"#utility.yul\":6478:6662   */\n    tag_289:\n        /* \"#utility.yul\":6577:6588   */\n      0x00\n        /* \"#utility.yul\":6611:6617   */\n      dup3\n        /* \"#utility.yul\":6606:6609   */\n      dup3\n        /* \"#utility.yul\":6599:6618   */\n      mstore\n        /* \"#utility.yul\":6651:6655   */\n      0x20\n        /* \"#utility.yul\":6646:6649   */\n      dup3\n        /* \"#utility.yul\":6642:6656   */\n      add\n        /* \"#utility.yul\":6627:6656   */\n      swap1\n      pop\n        /* \"#utility.yul\":6478:6662   */\n      swap3\n      swap2\n      pop\n      pop\n      jump\t// out\n        /* \"#utility.yul\":6668:6800   */\n    tag_290:\n        /* \"#utility.yul\":6735:6739   */\n      0x00\n        /* \"#utility.yul\":6758:6761   */\n      dup2\n        /* \"#utility.yul\":6750:6761   */\n      swap1\n      pop\n        /* \"#utility.yul\":6788:6792   */\n      0x20\n        /* \"#utility.yul\":6783:6786   */\n      dup3\n        /* \"#utility.yul\":6779:6793   */\n      add\n        /* \"#utility.yul\":6771:6793   */\n      swap1\n      pop\n        /* \"#utility.yul\":6668:6800   */\n      swap2\n      swap1\n      pop\n      jump\t// out\n        /* \"#utility.yul\":6806:6914   */\n    tag_291:\n        /* \"#utility.yul\":6883:6907   */\n      tag_380\n        /* \"#utility.yul\":6901:6906   */\n      dup2\n        /* \"#utility.yul\":6883:6907   */\n      tag_275\n      jump\t// in\n    tag_380:\n        /* \"#utility.yul\":6878:6881   */\n      dup3\n        /* \"#utility.yul\":6871:6908   */\n      mstore\n        /* \"#utility.yul\":6806:6914   */\n      pop\n      pop\n      jump\t// out\n        /* \"#utility.yul\":6920:7099   */\n    tag_292:\n        /* \"#utility.yul\":6989:6999   */\n      0x00\n        /* \"#utility.yul\":7010:7056   */\n      tag_382\n        /* \"#utility.yul\":7052:7055   */\n      dup4\n        /* \"#utility.yul\":7044:7050   */\n      dup4\n        /* \"#utility.yul\":7010:7056   */\n      tag_291\n      jump\t// in\n    tag_382:\n        /* \"#utility.yul\":7088:7092   */\n      0x20\n        /* \"#utility.yul\":7083:7086   */\n      dup4\n        /* \"#utility.yul\":7079:7093   */\n      add\n        /* \"#utility.yul\":7065:7093   */\n      swap1\n      pop\n        /* \"#utility.yul\":6920:7099   */\n      swap3\n      swap2\n      pop\n      pop\n      jump\t// out\n        /* \"#utility.yul\":7105:7218   */\n    tag_293:\n        /* \"#utility.yul\":7175:7179   */\n      0x00\n        /* \"#utility.yul\":7207:7211   */\n      0x20\n        /* \"#utility.yul\":7202:7205   */\n      dup3\n        /* \"#utility.yul\":7198:7212   */\n      add\n        /* \"#utility.yul\":7190:7212   */\n      swap1\n      pop\n        /* \"#utility.yul\":7105:7218   */\n      swap2\n      swap1\n      pop\n      jump\t// out\n        /* \"#utility.yul\":7254:7986   */\n    tag_294:\n        /* \"#utility.yul\":7373:7376   */\n      0x00\n        /* \"#utility.yul\":7402:7456   */\n      tag_385\n        /* \"#utility.yul\":7450:7455   */\n      dup3\n        /* \"#utility.yul\":7402:7456   */\n      tag_288\n      jump\t// in\n    tag_385:\n        /* \"#utility.yul\":7472:7558   */\n      tag_386\n        /* \"#utility.yul\":7551:7557   */\n      dup2\n        /* \"#utility.yul\":7546:7549   */\n      dup6\n        /* \"#utility.yul\":7472:7558   */\n      tag_289\n      jump\t// in\n    tag_386:\n        /* \"#utility.yul\":7465:7558   */\n      swap4\n      pop\n        /* \"#utility.yul\":7582:7638   */\n      tag_387\n        /* \"#utility.yul\":7632:7637   */\n      dup4\n        /* \"#utility.yul\":7582:7638   */\n      tag_290\n      jump\t// in\n    tag_387:\n        /* \"#utility.yul\":7661:7668   */\n      dup1\n        /* \"#utility.yul\":7692:7693   */\n      0x00\n        /* \"#utility.yul\":7677:7961   */\n    tag_388:\n        /* \"#utility.yul\":7702:7708   */\n      dup4\n        /* \"#utility.yul\":7699:7700   */\n      dup2\n        /* \"#utility.yul\":7696:7709   */\n      lt\n        /* \"#utility.yul\":7677:7961   */\n      iszero\n      tag_390\n      jumpi\n        /* \"#utility.yul\":7778:7784   */\n      dup2\n        /* \"#utility.yul\":7772:7785   */\n      mload\n        /* \"#utility.yul\":7805:7868   */\n      tag_391\n        /* \"#utility.yul\":7864:7867   */\n      dup9\n        /* \"#utility.yul\":7849:7862   */\n      dup3\n        /* \"#utility.yul\":7805:7868   */\n      tag_292\n      jump\t// in\n    tag_391:\n        /* \"#utility.yul\":7798:7868   */\n      swap8\n      pop\n        /* \"#utility.yul\":7891:7951   */\n      tag_392\n        /* \"#utility.yul\":7944:7950   */\n      dup4\n        /* \"#utility.yul\":7891:7951   */\n      tag_293\n      jump\t// in\n    tag_392:\n        /* \"#utility.yul\":7881:7951   */\n      swap3\n      pop\n        /* \"#utility.yul\":7737:7961   */\n      pop\n        /* \"#utility.yul\":7724:7725   */\n      0x01\n        /* \"#utility.yul\":7721:7722   */\n      dup2\n        /* \"#utility.yul\":7717:7726   */\n      add\n        /* \"#utility.yul\":7712:7726   */\n      swap1\n      pop\n        /* \"#utility.yul\":7677:7961   */\n      jump(tag_388)\n    tag_390:\n        /* \"#utility.yul\":7681:7695   */\n      pop\n        /* \"#utility.yul\":7977:7980   */\n      dup6\n        /* \"#utility.yul\":7970:7980   */\n      swap4\n      pop\n        /* \"#utility.yul\":7378:7986   */\n      pop\n      pop\n      pop\n        /* \"#utility.yul\":7254:7986   */\n      swap3\n      swap2\n      pop\n      pop\n      jump\t// out\n        /* \"#utility.yul\":7992:9207   */\n    tag_63:\n        /* \"#utility.yul\":8341:8345   */\n      0x00\n        /* \"#utility.yul\":8379:8382   */\n      0xe0\n        /* \"#utility.yul\":8368:8377   */\n      dup3\n        /* \"#utility.yul\":8364:8383   */\n      add\n        /* \"#utility.yul\":8356:8383   */\n      swap1\n      pop\n        /* \"#utility.yul\":8393:8462   */\n      tag_394\n        /* \"#utility.yul\":8459:8460   */\n      0x00\n        /* \"#utility.yul\":8448:8457   */\n      dup4\n        /* \"#utility.yul\":8444:8461   */\n      add\n        /* \"#utility.yul\":8435:8441   */\n      dup11\n        /* \"#utility.yul\":8393:8462   */\n      tag_286\n      jump\t// in\n    tag_394:\n        /* \"#utility.yul\":8509:8518   */\n      dup2\n        /* \"#utility.yul\":8503:8507   */\n      dup2\n        /* \"#utility.yul\":8499:8519   */\n      sub\n        /* \"#utility.yul\":8494:8496   */\n      0x20\n        /* \"#utility.yul\":8483:8492   */\n      dup4\n        /* \"#utility.yul\":8479:8497   */\n      add\n        /* \"#utility.yul\":8472:8520   */\n      mstore\n        /* \"#utility.yul\":8537:8615   */\n      tag_395\n        /* \"#utility.yul\":8610:8614   */\n      dup2\n        /* \"#utility.yul\":8601:8607   */\n      dup10\n        /* \"#utility.yul\":8537:8615   */\n      tag_267\n      jump\t// in\n    tag_395:\n        /* \"#utility.yul\":8529:8615   */\n      swap1\n      pop\n        /* \"#utility.yul\":8662:8671   */\n      dup2\n        /* \"#utility.yul\":8656:8660   */\n      dup2\n        /* \"#utility.yul\":8652:8672   */\n      sub\n        /* \"#utility.yul\":8647:8649   */\n      0x40\n        /* \"#utility.yul\":8636:8645   */\n      dup4\n        /* \"#utility.yul\":8632:8650   */\n      add\n        /* \"#utility.yul\":8625:8673   */\n      mstore\n        /* \"#utility.yul\":8690:8768   */\n      tag_396\n        /* \"#utility.yul\":8763:8767   */\n      dup2\n        /* \"#utility.yul\":8754:8760   */\n      dup9\n        /* \"#utility.yul\":8690:8768   */\n      tag_267\n      jump\t// in\n    tag_396:\n        /* \"#utility.yul\":8682:8768   */\n      swap1\n      pop\n        /* \"#utility.yul\":8778:8850   */\n      tag_397\n        /* \"#utility.yul\":8846:8848   */\n      0x60\n        /* \"#utility.yul\":8835:8844   */\n      dup4\n        /* \"#utility.yul\":8831:8849   */\n      add\n        /* \"#utility.yul\":8822:8828   */\n      dup8\n        /* \"#utility.yul\":8778:8850   */\n      tag_280\n      jump\t// in\n    tag_397:\n        /* \"#utility.yul\":8860:8933   */\n      tag_398\n        /* \"#utility.yul\":8928:8931   */\n      0x80\n        /* \"#utility.yul\":8917:8926   */\n      dup4\n        /* \"#utility.yul\":8913:8932   */\n      add\n        /* \"#utility.yul\":8904:8910   */\n      dup7\n        /* \"#utility.yul\":8860:8933   */\n      tag_287\n      jump\t// in\n    tag_398:\n        /* \"#utility.yul\":8943:9016   */\n      tag_399\n        /* \"#utility.yul\":9011:9014   */\n      0xa0\n        /* \"#utility.yul\":9000:9009   */\n      dup4\n        /* \"#utility.yul\":8996:9015   */\n      add\n        /* \"#utility.yul\":8987:8993   */\n      dup6\n        /* \"#utility.yul\":8943:9016   */\n      tag_284\n      jump\t// in\n    tag_399:\n        /* \"#utility.yul\":9064:9073   */\n      dup2\n        /* \"#utility.yul\":9058:9062   */\n      dup2\n        /* \"#utility.yul\":9054:9074   */\n      sub\n        /* \"#utility.yul\":9048:9051   */\n      0xc0\n        /* \"#utility.yul\":9037:9046   */\n      dup4\n        /* \"#utility.yul\":9033:9052   */\n      add\n        /* \"#utility.yul\":9026:9075   */\n      mstore\n        /* \"#utility.yul\":9092:9200   */\n      tag_400\n        /* \"#utility.yul\":9195:9199   */\n      dup2\n        /* \"#utility.yul\":9186:9192   */\n      dup5\n        /* \"#utility.yul\":9092:9200   */\n      tag_294\n      jump\t// in\n    tag_400:\n        /* \"#utility.yul\":9084:9200   */\n      swap1\n      pop\n        /* \"#utility.yul\":7992:9207   */\n      swap9\n      swap8\n      pop\n      pop\n      pop\n      pop\n      pop\n      pop\n      pop\n      pop\n      jump\t// out\n        /* \"#utility.yul\":9213:9331   */\n    tag_295:\n        /* \"#utility.yul\":9284:9306   */\n      tag_402\n        /* \"#utility.yul\":9300:9305   */\n      dup2\n        /* \"#utility.yul\":9284:9306   */\n      tag_281\n      jump\t// in\n    tag_402:\n        /* \"#utility.yul\":9277:9282   */\n      dup2\n        /* \"#utility.yul\":9274:9307   */\n      eq\n        /* \"#utility.yul\":9264:9325   */\n      tag_403\n      jumpi\n        /* \"#utility.yul\":9321:9322   */\n      0x00\n        /* \"#utility.yul\":9318:9319   */\n      dup1\n        /* \"#utility.yul\":9311:9323   */\n      revert\n        /* \"#utility.yul\":9264:9325   */\n    tag_403:\n        /* \"#utility.yul\":9213:9331   */\n      pop\n      jump\t// out\n        /* \"#utility.yul\":9337:9472   */\n    tag_296:\n        /* \"#utility.yul\":9381:9386   */\n      0x00\n        /* \"#utility.yul\":9419:9425   */\n      dup2\n        /* \"#utility.yul\":9406:9426   */\n      calldataload\n        /* \"#utility.yul\":9397:9426   */\n      swap1\n      pop\n        /* \"#utility.yul\":9435:9466   */\n      tag_405\n        /* \"#utility.yul\":9460:9465   */\n      dup2\n        /* \"#utility.yul\":9435:9466   */\n      tag_295\n      jump\t// in\n    tag_405:\n        /* \"#utility.yul\":9337:9472   */\n      swap3\n      swap2\n      pop\n      pop\n      jump\t// out\n        /* \"#utility.yul\":9478:9600   */\n    tag_297:\n        /* \"#utility.yul\":9551:9575   */\n      tag_407\n        /* \"#utility.yul\":9569:9574   */\n      dup2\n        /* \"#utility.yul\":9551:9575   */\n      tag_283\n      jump\t// in\n    tag_407:\n        /* \"#utility.yul\":9544:9549   */\n      dup2\n        /* \"#utility.yul\":9541:9576   */\n      eq\n        /* \"#utility.yul\":9531:9594   */\n      tag_408\n      jumpi\n        /* \"#utility.yul\":9590:9591   */\n      0x00\n        /* \"#utility.yul\":9587:9588   */\n      dup1\n        /* \"#utility.yul\":9580:9592   */\n      revert\n        /* \"#utility.yul\":9531:9594   */\n    tag_408:\n        /* \"#utility.yul\":9478:9600   */\n      pop\n      jump\t// out\n        /* \"#utility.yul\":9606:9745   */\n    tag_298:\n        /* \"#utility.yul\":9652:9657   */\n      0x00\n        /* \"#utility.yul\":9690:9696   */\n      dup2\n        /* \"#utility.yul\":9677:9697   */\n      calldataload\n        /* \"#utility.yul\":9668:9697   */\n      swap1\n      pop\n        /* \"#utility.yul\":9706:9739   */\n      tag_410\n        /* \"#utility.yul\":9733:9738   */\n      dup2\n        /* \"#utility.yul\":9706:9739   */\n      tag_297\n      jump\t// in\n    tag_410:\n        /* \"#utility.yul\":9606:9745   */\n      swap3\n      swap2\n      pop\n      pop\n      jump\t// out\n        /* \"#utility.yul\":9751:10950   */\n    tag_73:\n        /* \"#utility.yul\":9862:9868   */\n      0x00\n        /* \"#utility.yul\":9870:9876   */\n      dup1\n        /* \"#utility.yul\":9878:9884   */\n      0x00\n        /* \"#utility.yul\":9886:9892   */\n      dup1\n        /* \"#utility.yul\":9894:9900   */\n      0x00\n        /* \"#utility.yul\":9902:9908   */\n      dup1\n        /* \"#utility.yul\":9910:9916   */\n      0x00\n        /* \"#utility.yul\":9959:9962   */\n      0xe0\n        /* \"#utility.yul\":9947:9956   */\n      dup9\n        /* \"#utility.yul\":9938:9945   */\n      dup11\n        /* \"#utility.yul\":9934:9957   */\n      sub\n        /* \"#utility.yul\":9930:9963   */\n      slt\n        /* \"#utility.yul\":9927:10047   */\n      iszero\n      tag_412\n      jumpi\n        /* \"#utility.yul\":9966:10045   */\n      tag_413\n      tag_269\n      jump\t// in\n    tag_413:\n        /* \"#utility.yul\":9927:10047   */\n    tag_412:\n        /* \"#utility.yul\":10086:10087   */\n      0x00\n        /* \"#utility.yul\":10111:10164   */\n      tag_414\n        /* \"#utility.yul\":10156:10163   */\n      dup11\n        /* \"#utility.yul\":10147:10153   */\n      dup3\n        /* \"#utility.yul\":10136:10145   */\n      dup12\n        /* \"#utility.yul\":10132:10154   */\n      add\n        /* \"#utility.yul\":10111:10164   */\n      tag_274\n      jump\t// in\n    tag_414:\n        /* \"#utility.yul\":10101:10164   */\n      swap8\n      pop\n        /* \"#utility.yul\":10057:10174   */\n      pop\n        /* \"#utility.yul\":10213:10215   */\n      0x20\n        /* \"#utility.yul\":10239:10292   */\n      tag_415\n        /* \"#utility.yul\":10284:10291   */\n      dup11\n        /* \"#utility.yul\":10275:10281   */\n      dup3\n        /* \"#utility.yul\":10264:10273   */\n      dup12\n        /* \"#utility.yul\":10260:10282   */\n      add\n        /* \"#utility.yul\":10239:10292   */\n      tag_274\n      jump\t// in\n    tag_415:\n        /* \"#utility.yul\":10229:10292   */\n      swap7\n      pop\n        /* \"#utility.yul\":10184:10302   */\n      pop\n        /* \"#utility.yul\":10341:10343   */\n      0x40\n        /* \"#utility.yul\":10367:10420   */\n      tag_416\n        /* \"#utility.yul\":10412:10419   */\n      dup11\n        /* \"#utility.yul\":10403:10409   */\n      dup3\n        /* \"#utility.yul\":10392:10401   */\n      dup12\n        /* \"#utility.yul\":10388:10410   */\n      add\n        /* \"#utility.yul\":10367:10420   */\n      tag_277\n      jump\t// in\n    tag_416:\n        /* \"#utility.yul\":10357:10420   */\n      swap6\n      pop\n        /* \"#utility.yul\":10312:10430   */\n      pop\n        /* \"#utility.yul\":10469:10471   */\n      0x60\n        /* \"#utility.yul\":10495:10548   */\n      tag_417\n        /* \"#utility.yul\":10540:10547   */\n      dup11\n        /* \"#utility.yul\":10531:10537   */\n      dup3\n        /* \"#utility.yul\":10520:10529   */\n      dup12\n        /* \"#utility.yul\":10516:10538   */\n      add\n        /* \"#utility.yul\":10495:10548   */\n      tag_277\n      jump\t// in\n    tag_417:\n        /* \"#utility.yul\":10485:10548   */\n      swap5\n      pop\n        /* \"#utility.yul\":10440:10558   */\n      pop\n        /* \"#utility.yul\":10597:10600   */\n      0x80\n        /* \"#utility.yul\":10624:10675   */\n      tag_418\n        /* \"#utility.yul\":10667:10674   */\n      dup11\n        /* \"#utility.yul\":10658:10664   */\n      dup3\n        /* \"#utility.yul\":10647:10656   */\n      dup12\n        /* \"#utility.yul\":10643:10665   */\n      add\n        /* \"#utility.yul\":10624:10675   */\n      tag_296\n      jump\t// in\n    tag_418:\n        /* \"#utility.yul\":10614:10675   */\n      swap4\n      pop\n        /* \"#utility.yul\":10568:10685   */\n      pop\n        /* \"#utility.yul\":10724:10727   */\n      0xa0\n        /* \"#utility.yul\":10751:10804   */\n      tag_419\n        /* \"#utility.yul\":10796:10803   */\n      dup11\n        /* \"#utility.yul\":10787:10793   */\n      dup3\n        /* \"#utility.yul\":10776:10785   */\n      dup12\n        /* \"#utility.yul\":10772:10794   */\n      add\n        /* \"#utility.yul\":10751:10804   */\n      tag_298\n      jump\t// in\n    tag_419:\n        /* \"#utility.yul\":10741:10804   */\n      swap3\n      pop\n        /* \"#utility.yul\":10695:10814   */\n      pop\n        /* \"#utility.yul\":10853:10856   */\n      0xc0\n        /* \"#utility.yul\":10880:10933   */\n      tag_420\n        /* \"#utility.yul\":10925:10932   */\n      dup11\n        /* \"#utility.yul\":10916:10922   */\n      dup3\n        /* \"#utility.yul\":10905:10914   */\n      dup12\n        /* \"#utility.yul\":10901:10923   */\n      add\n        /* \"#utility.yul\":10880:10933   */\n      tag_298\n      jump\t// in\n    tag_420:\n        /* \"#utility.yul\":10870:10933   */\n      swap2\n      pop\n        /* \"#utility.yul\":10824:10943   */\n      pop\n        /* \"#utility.yul\":9751:10950   */\n      swap3\n      swap6\n      swap9\n      swap2\n      swap5\n      swap8\n      pop\n      swap3\n      swap6\n      pop\n      jump\t// out\n        /* \"#utility.yul\":10956:11430   */\n    tag_77:\n        /* \"#utility.yul\":11024:11030   */\n      0x00\n        /* \"#utility.yul\":11032:11038   */\n      dup1\n        /* \"#utility.yul\":11081:11083   */\n      0x40\n        /* \"#utility.yul\":11069:11078   */\n      dup4\n        /* \"#utility.yul\":11060:11067   */\n      dup6\n        /* \"#utility.yul\":11056:11079   */\n      sub\n        /* \"#utility.yul\":11052:11084   */\n      slt\n        /* \"#utility.yul\":11049:11168   */\n      iszero\n      tag_422\n      jumpi\n        /* \"#utility.yul\":11087:11166   */\n      tag_423\n      tag_269\n      jump\t// in\n    tag_423:\n        /* \"#utility.yul\":11049:11168   */\n    tag_422:\n        /* \"#utility.yul\":11207:11208   */\n      0x00\n        /* \"#utility.yul\":11232:11285   */\n      tag_424\n        /* \"#utility.yul\":11277:11284   */\n      dup6\n        /* \"#utility.yul\":11268:11274   */\n      dup3\n        /* \"#utility.yul\":11257:11266   */\n      dup7\n        /* \"#utility.yul\":11253:11275   */\n      add\n        /* \"#utility.yul\":11232:11285   */\n      tag_274\n      jump\t// in\n    tag_424:\n        /* \"#utility.yul\":11222:11285   */\n      swap3\n      pop\n        /* \"#utility.yul\":11178:11295   */\n      pop\n        /* \"#utility.yul\":11334:11336   */\n      0x20\n        /* \"#utility.yul\":11360:11413   */\n      tag_425\n        /* \"#utility.yul\":11405:11412   */\n      dup6\n        /* \"#utility.yul\":11396:11402   */\n      dup3\n        /* \"#utility.yul\":11385:11394   */\n      dup7\n        /* \"#utility.yul\":11381:11403   */\n      add\n        /* \"#utility.yul\":11360:11413   */\n      tag_274\n      jump\t// in\n    tag_425:\n        /* \"#utility.yul\":11350:11413   */\n      swap2\n      pop\n        /* \"#utility.yul\":11305:11423   */\n      pop\n        /* \"#utility.yul\":10956:11430   */\n      swap3\n      pop\n      swap3\n      swap1\n      pop\n      jump\t// out\n        /* \"#utility.yul\":11436:11616   */\n    tag_299:\n        /* \"#utility.yul\":11484:11561   */\n      0x4e487b7100000000000000000000000000000000000000000000000000000000\n        /* \"#utility.yul\":11481:11482   */\n      0x00\n        /* \"#utility.yul\":11474:11562   */\n      mstore\n        /* \"#utility.yul\":11581:11585   */\n      0x22\n        /* \"#utility.yul\":11578:11579   */\n      0x04\n        /* \"#utility.yul\":11571:11586   */\n      mstore\n        /* \"#utility.yul\":11605:11609   */\n      0x24\n        /* \"#utility.yul\":11602:11603   */\n      0x00\n        /* \"#utility.yul\":11595:11610   */\n      revert\n        /* \"#utility.yul\":11622:11942   */\n    tag_82:\n        /* \"#utility.yul\":11666:11672   */\n      0x00\n        /* \"#utility.yul\":11703:11704   */\n      0x02\n        /* \"#utility.yul\":11697:11701   */\n      dup3\n        /* \"#utility.yul\":11693:11705   */\n      div\n        /* \"#utility.yul\":11683:11705   */\n      swap1\n      pop\n        /* \"#utility.yul\":11750:11751   */\n      0x01\n        /* \"#utility.yul\":11744:11748   */\n      dup3\n        /* \"#utility.yul\":11740:11752   */\n      and\n        /* \"#utility.yul\":11771:11789   */\n      dup1\n        /* \"#utility.yul\":11761:11842   */\n      tag_428\n      jumpi\n        /* \"#utility.yul\":11827:11831   */\n      0x7f\n        /* \"#utility.yul\":11819:11825   */\n      dup3\n        /* \"#utility.yul\":11815:11832   */\n      and\n        /* \"#utility.yul\":11805:11832   */\n      swap2\n      pop\n        /* \"#utility.yul\":11761:11842   */\n    tag_428:\n        /* \"#utility.yul\":11889:11891   */\n      0x20\n        /* \"#utility.yul\":11881:11887   */\n      dup3\n        /* \"#utility.yul\":11878:11892   */\n      lt\n        /* \"#utility.yul\":11858:11876   */\n      dup2\n        /* \"#utility.yul\":11855:11893   */\n      sub\n        /* \"#utility.yul\":11852:11936   */\n      tag_429\n      jumpi\n        /* \"#utility.yul\":11908:11926   */\n      tag_430\n      tag_299\n      jump\t// in\n    tag_430:\n        /* \"#utility.yul\":11852:11936   */\n    tag_429:\n        /* \"#utility.yul\":11673:11942   */\n      pop\n        /* \"#utility.yul\":11622:11942   */\n      swap2\n      swap1\n      pop\n      jump\t// out\n        /* \"#utility.yul\":11948:12128   */\n    tag_118:\n        /* \"#utility.yul\":11996:12073   */\n      0x4e487b7100000000000000000000000000000000000000000000000000000000\n        /* \"#utility.yul\":11993:11994   */\n      0x00\n        /* \"#utility.yul\":11986:12074   */\n      mstore\n        /* \"#utility.yul\":12093:12097   */\n      0x41\n        /* \"#utility.yul\":12090:12091   */\n      0x04\n        /* \"#utility.yul\":12083:12098   */\n      mstore\n        /* \"#utility.yul\":12117:12121   */\n      0x24\n        /* \"#utility.yul\":12114:12115   */\n      0x00\n        /* \"#utility.yul\":12107:12122   */\n      revert\n        /* \"#utility.yul\":12134:12909   */\n    tag_135:\n        /* \"#utility.yul\":12367:12371   */\n      0x00\n        /* \"#utility.yul\":12405:12408   */\n      0xc0\n        /* \"#utility.yul\":12394:12403   */\n      dup3\n        /* \"#utility.yul\":12390:12409   */\n      add\n        /* \"#utility.yul\":12382:12409   */\n      swap1\n      pop\n        /* \"#utility.yul\":12419:12490   */\n      tag_433\n        /* \"#utility.yul\":12487:12488   */\n      0x00\n        /* \"#utility.yul\":12476:12485   */\n      dup4\n        /* \"#utility.yul\":12472:12489   */\n      add\n        /* \"#utility.yul\":12463:12469   */\n      dup10\n        /* \"#utility.yul\":12419:12490   */\n      tag_284\n      jump\t// in\n    tag_433:\n        /* \"#utility.yul\":12500:12572   */\n      tag_434\n        /* \"#utility.yul\":12568:12570   */\n      0x20\n        /* \"#utility.yul\":12557:12566   */\n      dup4\n        /* \"#utility.yul\":12553:12571   */\n      add\n        /* \"#utility.yul\":12544:12550   */\n      dup9\n        /* \"#utility.yul\":12500:12572   */\n      tag_287\n      jump\t// in\n    tag_434:\n        /* \"#utility.yul\":12582:12654   */\n      tag_435\n        /* \"#utility.yul\":12650:12652   */\n      0x40\n        /* \"#utility.yul\":12639:12648   */\n      dup4\n        /* \"#utility.yul\":12635:12653   */\n      add\n        /* \"#utility.yul\":12626:12632   */\n      dup8\n        /* \"#utility.yul\":12582:12654   */\n      tag_287\n      jump\t// in\n    tag_435:\n        /* \"#utility.yul\":12664:12736   */\n      tag_436\n        /* \"#utility.yul\":12732:12734   */\n      0x60\n        /* \"#utility.yul\":12721:12730   */\n      dup4\n        /* \"#utility.yul\":12717:12735   */\n      add\n        /* \"#utility.yul\":12708:12714   */\n      dup7\n        /* \"#utility.yul\":12664:12736   */\n      tag_280\n      jump\t// in\n    tag_436:\n        /* \"#utility.yul\":12746:12819   */\n      tag_437\n        /* \"#utility.yul\":12814:12817   */\n      0x80\n        /* \"#utility.yul\":12803:12812   */\n      dup4\n        /* \"#utility.yul\":12799:12818   */\n      add\n        /* \"#utility.yul\":12790:12796   */\n      dup6\n        /* \"#utility.yul\":12746:12819   */\n      tag_280\n      jump\t// in\n    tag_437:\n        /* \"#utility.yul\":12829:12902   */\n      tag_438\n        /* \"#utility.yul\":12897:12900   */\n      0xa0\n        /* \"#utility.yul\":12886:12895   */\n      dup4\n        /* \"#utility.yul\":12882:12901   */\n      add\n        /* \"#utility.yul\":12873:12879   */\n      dup5\n        /* \"#utility.yul\":12829:12902   */\n      tag_280\n      jump\t// in\n    tag_438:\n        /* \"#utility.yul\":12134:12909   */\n      swap8\n      swap7\n      pop\n      pop\n      pop\n      pop\n      pop\n      pop\n      pop\n      jump\t// out\n        /* \"#utility.yul\":12915:13247   */\n    tag_142:\n        /* \"#utility.yul\":13036:13040   */\n      0x00\n        /* \"#utility.yul\":13074:13076   */\n      0x40\n        /* \"#utility.yul\":13063:13072   */\n      dup3\n        /* \"#utility.yul\":13059:13077   */\n      add\n        /* \"#utility.yul\":13051:13077   */\n      swap1\n      pop\n        /* \"#utility.yul\":13087:13158   */\n      tag_440\n        /* \"#utility.yul\":13155:13156   */\n      0x00\n        /* \"#utility.yul\":13144:13153   */\n      dup4\n        /* \"#utility.yul\":13140:13157   */\n      add\n        /* \"#utility.yul\":13131:13137   */\n      dup6\n        /* \"#utility.yul\":13087:13158   */\n      tag_287\n      jump\t// in\n    tag_440:\n        /* \"#utility.yul\":13168:13240   */\n      tag_441\n        /* \"#utility.yul\":13236:13238   */\n      0x20\n        /* \"#utility.yul\":13225:13234   */\n      dup4\n        /* \"#utility.yul\":13221:13239   */\n      add\n        /* \"#utility.yul\":13212:13218   */\n      dup5\n        /* \"#utility.yul\":13168:13240   */\n      tag_287\n      jump\t// in\n    tag_441:\n        /* \"#utility.yul\":12915:13247   */\n      swap4\n      swap3\n      pop\n      pop\n      pop\n      jump\t// out\n        /* \"#utility.yul\":13253:13695   */\n    tag_154:\n        /* \"#utility.yul\":13402:13406   */\n      0x00\n        /* \"#utility.yul\":13440:13442   */\n      0x60\n        /* \"#utility.yul\":13429:13438   */\n      dup3\n        /* \"#utility.yul\":13425:13443   */\n      add\n        /* \"#utility.yul\":13417:13443   */\n      swap1\n      pop\n        /* \"#utility.yul\":13453:13524   */\n      tag_443\n        /* \"#utility.yul\":13521:13522   */\n      0x00\n        /* \"#utility.yul\":13510:13519   */\n      dup4\n        /* \"#utility.yul\":13506:13523   */\n      add\n        /* \"#utility.yul\":13497:13503   */\n      dup7\n        /* \"#utility.yul\":13453:13524   */\n      tag_287\n      jump\t// in\n    tag_443:\n        /* \"#utility.yul\":13534:13606   */\n      tag_444\n        /* \"#utility.yul\":13602:13604   */\n      0x20\n        /* \"#utility.yul\":13591:13600   */\n      dup4\n        /* \"#utility.yul\":13587:13605   */\n      add\n        /* \"#utility.yul\":13578:13584   */\n      dup6\n        /* \"#utility.yul\":13534:13606   */\n      tag_280\n      jump\t// in\n    tag_444:\n        /* \"#utility.yul\":13616:13688   */\n      tag_445\n        /* \"#utility.yul\":13684:13686   */\n      0x40\n        /* \"#utility.yul\":13673:13682   */\n      dup4\n        /* \"#utility.yul\":13669:13687   */\n      add\n        /* \"#utility.yul\":13660:13666   */\n      dup5\n        /* \"#utility.yul\":13616:13688   */\n      tag_280\n      jump\t// in\n    tag_445:\n        /* \"#utility.yul\":13253:13695   */\n      swap5\n      swap4\n      pop\n      pop\n      pop\n      pop\n      jump\t// out\n        /* \"#utility.yul\":13701:13923   */\n    tag_159:\n        /* \"#utility.yul\":13794:13798   */\n      0x00\n        /* \"#utility.yul\":13832:13834   */\n      0x20\n        /* \"#utility.yul\":13821:13830   */\n      dup3\n        /* \"#utility.yul\":13817:13835   */\n      add\n        /* \"#utility.yul\":13809:13835   */\n      swap1\n      pop\n        /* \"#utility.yul\":13845:13916   */\n      tag_447\n        /* \"#utility.yul\":13913:13914   */\n      0x00\n        /* \"#utility.yul\":13902:13911   */\n      dup4\n        /* \"#utility.yul\":13898:13915   */\n      add\n        /* \"#utility.yul\":13889:13895   */\n      dup5\n        /* \"#utility.yul\":13845:13916   */\n      tag_287\n      jump\t// in\n    tag_447:\n        /* \"#utility.yul\":13701:13923   */\n      swap3\n      swap2\n      pop\n      pop\n      jump\t// out\n        /* \"#utility.yul\":13929:14109   */\n    tag_300:\n        /* \"#utility.yul\":13977:14054   */\n      0x4e487b7100000000000000000000000000000000000000000000000000000000\n        /* \"#utility.yul\":13974:13975   */\n      0x00\n        /* \"#utility.yul\":13967:14055   */\n      mstore\n        /* \"#utility.yul\":14074:14078   */\n      0x11\n        /* \"#utility.yul\":14071:14072   */\n      0x04\n        /* \"#utility.yul\":14064:14079   */\n      mstore\n        /* \"#utility.yul\":14098:14102   */\n      0x24\n        /* \"#utility.yul\":14095:14096   */\n      0x00\n        /* \"#utility.yul\":14088:14103   */\n      revert\n        /* \"#utility.yul\":14115:14306   */\n    tag_200:\n        /* \"#utility.yul\":14155:14158   */\n      0x00\n        /* \"#utility.yul\":14174:14194   */\n      tag_450\n        /* \"#utility.yul\":14192:14193   */\n      dup3\n        /* \"#utility.yul\":14174:14194   */\n      tag_275\n      jump\t// in\n    tag_450:\n        /* \"#utility.yul\":14169:14194   */\n      swap2\n      pop\n        /* \"#utility.yul\":14208:14228   */\n      tag_451\n        /* \"#utility.yul\":14226:14227   */\n      dup4\n        /* \"#utility.yul\":14208:14228   */\n      tag_275\n      jump\t// in\n    tag_451:\n        /* \"#utility.yul\":14203:14228   */\n      swap3\n      pop\n        /* \"#utility.yul\":14251:14252   */\n      dup3\n        /* \"#utility.yul\":14248:14249   */\n      dup3\n        /* \"#utility.yul\":14244:14253   */\n      add\n        /* \"#utility.yul\":14237:14253   */\n      swap1\n      pop\n        /* \"#utility.yul\":14272:14275   */\n      dup1\n        /* \"#utility.yul\":14269:14270   */\n      dup3\n        /* \"#utility.yul\":14266:14276   */\n      gt\n        /* \"#utility.yul\":14263:14299   */\n      iszero\n      tag_452\n      jumpi\n        /* \"#utility.yul\":14279:14297   */\n      tag_453\n      tag_300\n      jump\t// in\n    tag_453:\n        /* \"#utility.yul\":14263:14299   */\n    tag_452:\n        /* \"#utility.yul\":14115:14306   */\n      swap3\n      swap2\n      pop\n      pop\n      jump\t// out\n        /* \"#utility.yul\":14312:14976   */\n    tag_209:\n        /* \"#utility.yul\":14517:14521   */\n      0x00\n        /* \"#utility.yul\":14555:14558   */\n      0xa0\n        /* \"#utility.yul\":14544:14553   */\n      dup3\n        /* \"#utility.yul\":14540:14559   */\n      add\n        /* \"#utility.yul\":14532:14559   */\n      swap1\n      pop\n        /* \"#utility.yul\":14569:14640   */\n      tag_455\n        /* \"#utility.yul\":14637:14638   */\n      0x00\n        /* \"#utility.yul\":14626:14635   */\n      dup4\n        /* \"#utility.yul\":14622:14639   */\n      add\n        /* \"#utility.yul\":14613:14619   */\n      dup9\n        /* \"#utility.yul\":14569:14640   */\n      tag_284\n      jump\t// in\n    tag_455:\n        /* \"#utility.yul\":14650:14722   */\n      tag_456\n        /* \"#utility.yul\":14718:14720   */\n      0x20\n        /* \"#utility.yul\":14707:14716   */\n      dup4\n        /* \"#utility.yul\":14703:14721   */\n      add\n        /* \"#utility.yul\":14694:14700   */\n      dup8\n        /* \"#utility.yul\":14650:14722   */\n      tag_284\n      jump\t// in\n    tag_456:\n        /* \"#utility.yul\":14732:14804   */\n      tag_457\n        /* \"#utility.yul\":14800:14802   */\n      0x40\n        /* \"#utility.yul\":14789:14798   */\n      dup4\n        /* \"#utility.yul\":14785:14803   */\n      add\n        /* \"#utility.yul\":14776:14782   */\n      dup7\n        /* \"#utility.yul\":14732:14804   */\n      tag_284\n      jump\t// in\n    tag_457:\n        /* \"#utility.yul\":14814:14886   */\n      tag_458\n        /* \"#utility.yul\":14882:14884   */\n      0x60\n        /* \"#utility.yul\":14871:14880   */\n      dup4\n        /* \"#utility.yul\":14867:14885   */\n      add\n        /* \"#utility.yul\":14858:14864   */\n      dup6\n        /* \"#utility.yul\":14814:14886   */\n      tag_280\n      jump\t// in\n    tag_458:\n        /* \"#utility.yul\":14896:14969   */\n      tag_459\n        /* \"#utility.yul\":14964:14967   */\n      0x80\n        /* \"#utility.yul\":14953:14962   */\n      dup4\n        /* \"#utility.yul\":14949:14968   */\n      add\n        /* \"#utility.yul\":14940:14946   */\n      dup5\n        /* \"#utility.yul\":14896:14969   */\n      tag_287\n      jump\t// in\n    tag_459:\n        /* \"#utility.yul\":14312:14976   */\n      swap7\n      swap6\n      pop\n      pop\n      pop\n      pop\n      pop\n      pop\n      jump\t// out\n        /* \"#utility.yul\":14982:15527   */\n    tag_224:\n        /* \"#utility.yul\":15155:15159   */\n      0x00\n        /* \"#utility.yul\":15193:15196   */\n      0x80\n        /* \"#utility.yul\":15182:15191   */\n      dup3\n        /* \"#utility.yul\":15178:15197   */\n      add\n        /* \"#utility.yul\":15170:15197   */\n      swap1\n      pop\n        /* \"#utility.yul\":15207:15278   */\n      tag_461\n        /* \"#utility.yul\":15275:15276   */\n      0x00\n        /* \"#utility.yul\":15264:15273   */\n      dup4\n        /* \"#utility.yul\":15260:15277   */\n      add\n        /* \"#utility.yul\":15251:15257   */\n      dup8\n        /* \"#utility.yul\":15207:15278   */\n      tag_284\n      jump\t// in\n    tag_461:\n        /* \"#utility.yul\":15288:15356   */\n      tag_462\n        /* \"#utility.yul\":15352:15354   */\n      0x20\n        /* \"#utility.yul\":15341:15350   */\n      dup4\n        /* \"#utility.yul\":15337:15355   */\n      add\n        /* \"#utility.yul\":15328:15334   */\n      dup7\n        /* \"#utility.yul\":15288:15356   */\n      tag_282\n      jump\t// in\n    tag_462:\n        /* \"#utility.yul\":15366:15438   */\n      tag_463\n        /* \"#utility.yul\":15434:15436   */\n      0x40\n        /* \"#utility.yul\":15423:15432   */\n      dup4\n        /* \"#utility.yul\":15419:15437   */\n      add\n        /* \"#utility.yul\":15410:15416   */\n      dup6\n        /* \"#utility.yul\":15366:15438   */\n      tag_284\n      jump\t// in\n    tag_463:\n        /* \"#utility.yul\":15448:15520   */\n      tag_464\n        /* \"#utility.yul\":15516:15518   */\n      0x60\n        /* \"#utility.yul\":15505:15514   */\n      dup4\n        /* \"#utility.yul\":15501:15519   */\n      add\n        /* \"#utility.yul\":15492:15498   */\n      dup5\n        /* \"#utility.yul\":15448:15520   */\n      tag_284\n      jump\t// in\n    tag_464:\n        /* \"#utility.yul\":14982:15527   */\n      swap6\n      swap5\n      pop\n      pop\n      pop\n      pop\n      pop\n      jump\t// out\n        /* \"#utility.yul\":15533:15713   */\n    tag_231:\n        /* \"#utility.yul\":15581:15658   */\n      0x4e487b7100000000000000000000000000000000000000000000000000000000\n        /* \"#utility.yul\":15578:15579   */\n      0x00\n        /* \"#utility.yul\":15571:15659   */\n      mstore\n        /* \"#utility.yul\":15678:15682   */\n      0x21\n        /* \"#utility.yul\":15675:15676   */\n      0x04\n        /* \"#utility.yul\":15668:15683   */\n      mstore\n        /* \"#utility.yul\":15702:15706   */\n      0x24\n        /* \"#utility.yul\":15699:15700   */\n      0x00\n        /* \"#utility.yul\":15692:15707   */\n      revert\n\n    auxdata: 0xa2646970667358221220df8797174c2cc054d65fb3898c9e376d2a0c4a39e8ba6aeb188cf9727f8a632c64736f6c63430008180033\n}\n",
				"bytecode": {
					"linkReferences": {},
					"object": "6101606040526b1027e72f1f12813088000000600855606460146008546200002891906200075c565b620000349190620007d3565b6009556064600c6008546200004a91906200075c565b620000569190620007d3565b600a556064600880546200006b91906200075c565b620000779190620007d3565b600b556064600880546200008c91906200075c565b620000989190620007d3565b600c55600954600c54600b54600a54620000b391906200080a565b620000bf91906200080a565b620000cb91906200080a565b600854620000da919062000844565b600d55348015620000e9575f80fd5b506040518060400160405280600581526020017f4d415a5a45000000000000000000000000000000000000000000000000000000815250806040518060400160405280600181526020017f31000000000000000000000000000000000000000000000000000000000000008152506040518060400160405280600581526020017f4d415a5a450000000000000000000000000000000000000000000000000000008152506040518060400160405280600581526020017f4d415a5a450000000000000000000000000000000000000000000000000000008152508160039081620001d4919062000ad9565b508060049081620001e6919062000ad9565b505050620001ff6005836200035460201b90919060201c565b61012081815250506200021d6006826200035460201b90919060201c565b6101408181525050818051906020012060e08181525050808051906020012061010081815250504660a081815250506200025c620003a960201b60201c565b608081815250503073ffffffffffffffffffffffffffffffffffffffff1660c08173ffffffffffffffffffffffffffffffffffffffff1681525050505050620002c273a043bc356a11f548f77f716e8d3c31b1e8bedf7a6009546200040560201b60201c565b620002ea73a81aa52ea19ef26739b0762c03381f9a84c8b05d600a546200040560201b60201c565b620003127349d125ca46997e3c90ebb0cc9940e033487f8fa4600b546200040560201b60201c565b6200033a738126a70a57b44d32e6eb9f41c8df4a2a47ff4be7600c546200040560201b60201c565b6200034e33600d546200040560201b60201c565b62000e41565b5f602083511015620003795762000371836200048f60201b60201c565b9050620003a3565b826200038b83620004f960201b60201c565b5f0190816200039b919062000ad9565b5060ff5f1b90505b92915050565b5f7f8b73c3c69bb8fe3d512ecc4cf759cc79239f7b179b0ffacaa9a75d522b39400f60e051610100514630604051602001620003ea95949392919062000c2b565b60405160208183030381529060405280519060200120905090565b5f73ffffffffffffffffffffffffffffffffffffffff168273ffffffffffffffffffffffffffffffffffffffff160362000478575f6040517fec442f050000000000000000000000000000000000000000000000000000000081526004016200046f919062000c86565b60405180910390fd5b6200048b5f83836200050260201b60201c565b5050565b5f80829050601f81511115620004de57826040517f305a27a9000000000000000000000000000000000000000000000000000000008152600401620004d5919062000d2b565b60405180910390fd5b805181620004ec9062000d7c565b5f1c175f1b915050919050565b5f819050919050565b5f73ffffffffffffffffffffffffffffffffffffffff168373ffffffffffffffffffffffffffffffffffffffff160362000556578060025f8282546200054991906200080a565b9250508190555062000627565b5f805f8573ffffffffffffffffffffffffffffffffffffffff1673ffffffffffffffffffffffffffffffffffffffff1681526020019081526020015f2054905081811015620005e2578381836040517fe450d38c000000000000000000000000000000000000000000000000000000008152600401620005d99392919062000deb565b60405180910390fd5b8181035f808673ffffffffffffffffffffffffffffffffffffffff1673ffffffffffffffffffffffffffffffffffffffff1681526020019081526020015f2081905550505b5f73ffffffffffffffffffffffffffffffffffffffff168273ffffffffffffffffffffffffffffffffffffffff160362000670578060025f8282540392505081905550620006ba565b805f808473ffffffffffffffffffffffffffffffffffffffff1673ffffffffffffffffffffffffffffffffffffffff1681526020019081526020015f205f82825401925050819055505b8173ffffffffffffffffffffffffffffffffffffffff168373ffffffffffffffffffffffffffffffffffffffff167fddf252ad1be2c89b69c2b068fc378daa952ba7f163c4a11628f55a4df523b3ef8360405162000719919062000e26565b60405180910390a3505050565b5f819050919050565b7f4e487b71000000000000000000000000000000000000000000000000000000005f52601160045260245ffd5b5f620007688262000726565b9150620007758362000726565b9250828202620007858162000726565b915082820484148315176200079f576200079e6200072f565b5b5092915050565b7f4e487b71000000000000000000000000000000000000000000000000000000005f52601260045260245ffd5b5f620007df8262000726565b9150620007ec8362000726565b925082620007ff57620007fe620007a6565b5b828204905092915050565b5f620008168262000726565b9150620008238362000726565b92508282019050808211156200083e576200083d6200072f565b5b92915050565b5f620008508262000726565b91506200085d8362000726565b92508282039050818111156200087857620008776200072f565b5b92915050565b5f81519050919050565b7f4e487b71000000000000000000000000000000000000000000000000000000005f52604160045260245ffd5b7f4e487b71000000000000000000000000000000000000000000000000000000005f52602260045260245ffd5b5f6002820490506001821680620008fa57607f821691505b60208210810362000910576200090f620008b5565b5b50919050565b5f819050815f5260205f209050919050565b5f6020601f8301049050919050565b5f82821b905092915050565b5f60088302620009747fffffffffffffffffffffffffffffffffffffffffffffffffffffffffffffffff8262000937565b62000980868362000937565b95508019841693508086168417925050509392505050565b5f819050919050565b5f620009c1620009bb620009b58462000726565b62000998565b62000726565b9050919050565b5f819050919050565b620009dc83620009a1565b620009f4620009eb82620009c8565b84845462000943565b825550505050565b5f90565b62000a0a620009fc565b62000a17818484620009d1565b505050565b5b8181101562000a3e5762000a325f8262000a00565b60018101905062000a1d565b5050565b601f82111562000a8d5762000a578162000916565b62000a628462000928565b8101602085101562000a72578190505b62000a8a62000a818562000928565b83018262000a1c565b50505b505050565b5f82821c905092915050565b5f62000aaf5f198460080262000a92565b1980831691505092915050565b5f62000ac9838362000a9e565b9150826002028217905092915050565b62000ae4826200087e565b67ffffffffffffffff81111562000b005762000aff62000888565b5b62000b0c8254620008e2565b62000b1982828562000a42565b5f60209050601f83116001811462000b4f575f841562000b3a578287015190505b62000b46858262000abc565b86555062000bb5565b601f19841662000b5f8662000916565b5f5b8281101562000b885784890151825560018201915060208501945060208101905062000b61565b8683101562000ba8578489015162000ba4601f89168262000a9e565b8355505b6001600288020188555050505b505050505050565b5f819050919050565b62000bd18162000bbd565b82525050565b62000be28162000726565b82525050565b5f73ffffffffffffffffffffffffffffffffffffffff82169050919050565b5f62000c138262000be8565b9050919050565b62000c258162000c07565b82525050565b5f60a08201905062000c405f83018862000bc6565b62000c4f602083018762000bc6565b62000c5e604083018662000bc6565b62000c6d606083018562000bd7565b62000c7c608083018462000c1a565b9695505050505050565b5f60208201905062000c9b5f83018462000c1a565b92915050565b5f82825260208201905092915050565b5f5b8381101562000cd057808201518184015260208101905062000cb3565b5f8484015250505050565b5f601f19601f8301169050919050565b5f62000cf7826200087e565b62000d03818562000ca1565b935062000d1581856020860162000cb1565b62000d208162000cdb565b840191505092915050565b5f6020820190508181035f83015262000d45818462000ceb565b905092915050565b5f81519050919050565b5f819050602082019050919050565b5f62000d73825162000bbd565b80915050919050565b5f62000d888262000d4d565b8262000d948462000d57565b905062000da18162000d66565b9250602082101562000de45762000ddf7fffffffffffffffffffffffffffffffffffffffffffffffffffffffffffffffff8360200360080262000937565b831692505b5050919050565b5f60608201905062000e005f83018662000c1a565b62000e0f602083018562000bd7565b62000e1e604083018462000bd7565b949350505050565b5f60208201905062000e3b5f83018462000bd7565b92915050565b60805160a05160c05160e051610100516101205161014051611c6362000e935f395f610adf01525f610aa401525f610fd801525f610fb701525f61092301525f61097901525f6109a20152611c635ff3fe608060405234801561000f575f80fd5b50600436106100e8575f3560e01c806370a082311161008a57806395d89b411161006457806395d89b4114610264578063a9059cbb14610282578063d505accf146102b2578063dd62ed3e146102ce576100e8565b806370a08231146101e05780637ecebe001461021057806384b0196e14610240576100e8565b806323b872dd116100c657806323b872dd14610158578063313ce567146101885780633644e515146101a657806342966c68146101c4576100e8565b806306fdde03146100ec578063095ea7b31461010a57806318160ddd1461013a575b5f80fd5b6100f46102fe565b60405161010191906114a8565b60405180910390f35b610124600480360381019061011f9190611559565b61038e565b60405161013191906115b1565b60405180910390f35b6101426103b0565b60405161014f91906115d9565b60405180910390f35b610172600480360381019061016d91906115f2565b6103b9565b60405161017f91906115b1565b60405180910390f35b6101906103e7565b60405161019d919061165d565b60405180910390f35b6101ae6103ef565b6040516101bb919061168e565b60405180910390f35b6101de60048036038101906101d991906116a7565b6103fd565b005b6101fa60048036038101906101f591906116d2565b610411565b60405161020791906115d9565b60405180910390f35b61022a600480360381019061022591906116d2565b610456565b60405161023791906115d9565b60405180910390f35b610248610467565b60405161025b97969594939291906117fd565b60405180910390f35b61026c61050c565b60405161027991906114a8565b60405180910390f35b61029c60048036038101906102979190611559565b61059c565b6040516102a991906115b1565b60405180910390f35b6102cc60048036038101906102c791906118d3565b6105be565b005b6102e860048036038101906102e39190611970565b610703565b6040516102f591906115d9565b60405180910390f35b60606003805461030d906119db565b80601f0160208091040260200160405190810160405280929190818152602001828054610339906119db565b80156103845780601f1061035b57610100808354040283529160200191610384565b820191905f5260205f20905b81548152906001019060200180831161036757829003601f168201915b5050505050905090565b5f80610398610785565b90506103a581858561078c565b600191505092915050565b5f600254905090565b5f806103c3610785565b90506103d085828561079e565b6103db858585610830565b60019150509392505050565b5f6012905090565b5f6103f8610920565b905090565b61040e610408610785565b826109d6565b50565b5f805f8373ffffffffffffffffffffffffffffffffffffffff1673ffffffffffffffffffffffffffffffffffffffff1681526020019081526020015f20549050919050565b5f61046082610a55565b9050919050565b5f6060805f805f6060610478610a9b565b610480610ad6565b46305f801b5f67ffffffffffffffff81111561049f5761049e611a0b565b5b6040519080825280602002602001820160405280156104cd5781602001602082028036833780820191505090505b507f0f00000000000000000000000000000000000000000000000000000000000000959493929190965096509650965096509650965090919293949596565b60606004805461051b906119db565b80601f0160208091040260200160405190810160405280929190818152602001828054610547906119db565b80156105925780601f1061056957610100808354040283529160200191610592565b820191905f5260205f20905b81548152906001019060200180831161057557829003601f168201915b5050505050905090565b5f806105a6610785565b90506105b3818585610830565b600191505092915050565b8342111561060357836040517f627913020000000000000000000000000000000000000000000000000000000081526004016105fa91906115d9565b60405180910390fd5b5f7f6e71edae12b1b97f4d1f60370fef10105fa2faae0126114a169c64845d6126c98888886106318c610b11565b8960405160200161064796959493929190611a38565b6040516020818303038152906040528051906020012090505f61066982610b64565b90505f61067882878787610b7d565b90508973ffffffffffffffffffffffffffffffffffffffff168173ffffffffffffffffffffffffffffffffffffffff16146106ec57808a6040517f4b800e460000000000000000000000000000000000000000000000000000000081526004016106e3929190611a97565b60405180910390fd5b6106f78a8a8a61078c565b50505050505050505050565b5f60015f8473ffffffffffffffffffffffffffffffffffffffff1673ffffffffffffffffffffffffffffffffffffffff1681526020019081526020015f205f8373ffffffffffffffffffffffffffffffffffffffff1673ffffffffffffffffffffffffffffffffffffffff1681526020019081526020015f2054905092915050565b5f33905090565b6107998383836001610bab565b505050565b5f6107a98484610703565b90507fffffffffffffffffffffffffffffffffffffffffffffffffffffffffffffffff811461082a578181101561081b578281836040517ffb8f41b200000000000000000000000000000000000000000000000000000000815260040161081293929190611abe565b60405180910390fd5b61082984848484035f610bab565b5b50505050565b5f73ffffffffffffffffffffffffffffffffffffffff168373ffffffffffffffffffffffffffffffffffffffff16036108a0575f6040517f96c6fd1e0000000000000000000000000000000000000000000000000000000081526004016108979190611af3565b60405180910390fd5b5f73ffffffffffffffffffffffffffffffffffffffff168273ffffffffffffffffffffffffffffffffffffffff1603610910575f6040517fec442f050000000000000000000000000000000000000000000000000000000081526004016109079190611af3565b60405180910390fd5b61091b838383610d7a565b505050565b5f7f000000000000000000000000000000000000000000000000000000000000000073ffffffffffffffffffffffffffffffffffffffff163073ffffffffffffffffffffffffffffffffffffffff1614801561099b57507f000000000000000000000000000000000000000000000000000000000000000046145b156109c8577f000000000000000000000000000000000000000000000000000000000000000090506109d3565b6109d0610f93565b90505b90565b5f73ffffffffffffffffffffffffffffffffffffffff168273ffffffffffffffffffffffffffffffffffffffff1603610a46575f6040517f96c6fd1e000000000000000000000000000000000000000000000000000000008152600401610a3d9190611af3565b60405180910390fd5b610a51825f83610d7a565b5050565b5f60075f8373ffffffffffffffffffffffffffffffffffffffff1673ffffffffffffffffffffffffffffffffffffffff1681526020019081526020015f20549050919050565b6060610ad160057f000000000000000000000000000000000000000000000000000000000000000061102890919063ffffffff16565b905090565b6060610b0c60067f000000000000000000000000000000000000000000000000000000000000000061102890919063ffffffff16565b905090565b5f60075f8373ffffffffffffffffffffffffffffffffffffffff1673ffffffffffffffffffffffffffffffffffffffff1681526020019081526020015f205f815480929190600101919050559050919050565b5f610b76610b70610920565b836110d5565b9050919050565b5f805f80610b8d88888888611115565b925092509250610b9d82826111fc565b829350505050949350505050565b5f73ffffffffffffffffffffffffffffffffffffffff168473ffffffffffffffffffffffffffffffffffffffff1603610c1b575f6040517fe602df05000000000000000000000000000000000000000000000000000000008152600401610c129190611af3565b60405180910390fd5b5f73ffffffffffffffffffffffffffffffffffffffff168373ffffffffffffffffffffffffffffffffffffffff1603610c8b575f6040517f94280d62000000000000000000000000000000000000000000000000000000008152600401610c829190611af3565b60405180910390fd5b8160015f8673ffffffffffffffffffffffffffffffffffffffff1673ffffffffffffffffffffffffffffffffffffffff1681526020019081526020015f205f8573ffffffffffffffffffffffffffffffffffffffff1673ffffffffffffffffffffffffffffffffffffffff1681526020019081526020015f20819055508015610d74578273ffffffffffffffffffffffffffffffffffffffff168473ffffffffffffffffffffffffffffffffffffffff167f8c5be1e5ebec7d5bd14f71427d1e84f3dd0314c0f7b2291e5b200ac8c7c3b92584604051610d6b91906115d9565b60405180910390a35b50505050565b5f73ffffffffffffffffffffffffffffffffffffffff168373ffffffffffffffffffffffffffffffffffffffff1603610dca578060025f828254610dbe9190611b39565b92505081905550610e98565b5f805f8573ffffffffffffffffffffffffffffffffffffffff1673ffffffffffffffffffffffffffffffffffffffff1681526020019081526020015f2054905081811015610e53578381836040517fe450d38c000000000000000000000000000000000000000000000000000000008152600401610e4a93929190611abe565b60405180910390fd5b8181035f808673ffffffffffffffffffffffffffffffffffffffff1673ffffffffffffffffffffffffffffffffffffffff1681526020019081526020015f2081905550505b5f73ffffffffffffffffffffffffffffffffffffffff168273ffffffffffffffffffffffffffffffffffffffff1603610edf578060025f8282540392505081905550610f29565b805f808473ffffffffffffffffffffffffffffffffffffffff1673ffffffffffffffffffffffffffffffffffffffff1681526020019081526020015f205f82825401925050819055505b8173ffffffffffffffffffffffffffffffffffffffff168373ffffffffffffffffffffffffffffffffffffffff167fddf252ad1be2c89b69c2b068fc378daa952ba7f163c4a11628f55a4df523b3ef83604051610f8691906115d9565b60405180910390a3505050565b5f7f8b73c3c69bb8fe3d512ecc4cf759cc79239f7b179b0ffacaa9a75d522b39400f7f00000000000000000000000000000000000000000000000000000000000000007f0000000000000000000000000000000000000000000000000000000000000000463060405160200161100d959493929190611b6c565b60405160208183030381529060405280519060200120905090565b606060ff5f1b83146110445761103d8361135e565b90506110cf565b818054611050906119db565b80601f016020809104026020016040519081016040528092919081815260200182805461107c906119db565b80156110c75780601f1061109e576101008083540402835291602001916110c7565b820191905f5260205f20905b8154815290600101906020018083116110aa57829003601f168201915b505050505090505b92915050565b5f6040517f190100000000000000000000000000000000000000000000000000000000000081528360028201528260228201526042812091505092915050565b5f805f7f7fffffffffffffffffffffffffffffff5d576e7357a4501ddfe92f46681b20a0845f1c1115611151575f6003859250925092506111f2565b5f6001888888886040515f81526020016040526040516111749493929190611bbd565b6020604051602081039080840390855afa158015611194573d5f803e3d5ffd5b5050506020604051035190505f73ffffffffffffffffffffffffffffffffffffffff168173ffffffffffffffffffffffffffffffffffffffff16036111e5575f60015f801b935093509350506111f2565b805f805f1b935093509350505b9450945094915050565b5f600381111561120f5761120e611c00565b5b82600381111561122257611221611c00565b5b031561135a576001600381111561123c5761123b611c00565b5b82600381111561124f5761124e611c00565b5b03611286576040517ff645eedf00000000000000000000000000000000000000000000000000000000815260040160405180910390fd5b6002600381111561129a57611299611c00565b5b8260038111156112ad576112ac611c00565b5b036112f157805f1c6040517ffce698f70000000000000000000000000000000000000000000000000000000081526004016112e891906115d9565b60405180910390fd5b60038081111561130457611303611c00565b5b82600381111561131757611316611c00565b5b0361135957806040517fd78bce0c000000000000000000000000000000000000000000000000000000008152600401611350919061168e565b60405180910390fd5b5b5050565b60605f61136a836113d0565b90505f602067ffffffffffffffff81111561138857611387611a0b565b5b6040519080825280601f01601f1916602001820160405280156113ba5781602001600182028036833780820191505090505b5090508181528360208201528092505050919050565b5f8060ff835f1c169050601f811115611415576040517fb3512b0c00000000000000000000000000000000000000000000000000000000815260040160405180910390fd5b80915050919050565b5f81519050919050565b5f82825260208201905092915050565b5f5b8381101561145557808201518184015260208101905061143a565b5f8484015250505050565b5f601f19601f8301169050919050565b5f61147a8261141e565b6114848185611428565b9350611494818560208601611438565b61149d81611460565b840191505092915050565b5f6020820190508181035f8301526114c08184611470565b905092915050565b5f80fd5b5f73ffffffffffffffffffffffffffffffffffffffff82169050919050565b5f6114f5826114cc565b9050919050565b611505816114eb565b811461150f575f80fd5b50565b5f81359050611520816114fc565b92915050565b5f819050919050565b61153881611526565b8114611542575f80fd5b50565b5f813590506115538161152f565b92915050565b5f806040838503121561156f5761156e6114c8565b5b5f61157c85828601611512565b925050602061158d85828601611545565b9150509250929050565b5f8115159050919050565b6115ab81611597565b82525050565b5f6020820190506115c45f8301846115a2565b92915050565b6115d381611526565b82525050565b5f6020820190506115ec5f8301846115ca565b92915050565b5f805f60608486031215611609576116086114c8565b5b5f61161686828701611512565b935050602061162786828701611512565b925050604061163886828701611545565b9150509250925092565b5f60ff82169050919050565b61165781611642565b82525050565b5f6020820190506116705f83018461164e565b92915050565b5f819050919050565b61168881611676565b82525050565b5f6020820190506116a15f83018461167f565b92915050565b5f602082840312156116bc576116bb6114c8565b5b5f6116c984828501611545565b91505092915050565b5f602082840312156116e7576116e66114c8565b5b5f6116f484828501611512565b91505092915050565b5f7fff0000000000000000000000000000000000000000000000000000000000000082169050919050565b611731816116fd565b82525050565b611740816114eb565b82525050565b5f81519050919050565b5f82825260208201905092915050565b5f819050602082019050919050565b61177881611526565b82525050565b5f611789838361176f565b60208301905092915050565b5f602082019050919050565b5f6117ab82611746565b6117b58185611750565b93506117c083611760565b805f5b838110156117f05781516117d7888261177e565b97506117e283611795565b9250506001810190506117c3565b5085935050505092915050565b5f60e0820190506118105f83018a611728565b81810360208301526118228189611470565b905081810360408301526118368188611470565b905061184560608301876115ca565b6118526080830186611737565b61185f60a083018561167f565b81810360c083015261187181846117a1565b905098975050505050505050565b61188881611642565b8114611892575f80fd5b50565b5f813590506118a38161187f565b92915050565b6118b281611676565b81146118bc575f80fd5b50565b5f813590506118cd816118a9565b92915050565b5f805f805f805f60e0888a0312156118ee576118ed6114c8565b5b5f6118fb8a828b01611512565b975050602061190c8a828b01611512565b965050604061191d8a828b01611545565b955050606061192e8a828b01611545565b945050608061193f8a828b01611895565b93505060a06119508a828b016118bf565b92505060c06119618a828b016118bf565b91505092959891949750929550565b5f8060408385031215611986576119856114c8565b5b5f61199385828601611512565b92505060206119a485828601611512565b9150509250929050565b7f4e487b71000000000000000000000000000000000000000000000000000000005f52602260045260245ffd5b5f60028204905060018216806119f257607f821691505b602082108103611a0557611a046119ae565b5b50919050565b7f4e487b71000000000000000000000000000000000000000000000000000000005f52604160045260245ffd5b5f60c082019050611a4b5f83018961167f565b611a586020830188611737565b611a656040830187611737565b611a7260608301866115ca565b611a7f60808301856115ca565b611a8c60a08301846115ca565b979650505050505050565b5f604082019050611aaa5f830185611737565b611ab76020830184611737565b9392505050565b5f606082019050611ad15f830186611737565b611ade60208301856115ca565b611aeb60408301846115ca565b949350505050565b5f602082019050611b065f830184611737565b92915050565b7f4e487b71000000000000000000000000000000000000000000000000000000005f52601160045260245ffd5b5f611b4382611526565b9150611b4e83611526565b9250828201905080821115611b6657611b65611b0c565b5b92915050565b5f60a082019050611b7f5f83018861167f565b611b8c602083018761167f565b611b99604083018661167f565b611ba660608301856115ca565b611bb36080830184611737565b9695505050505050565b5f608082019050611bd05f83018761167f565b611bdd602083018661164e565b611bea604083018561167f565b611bf7606083018461167f565b95945050505050565b7f4e487b71000000000000000000000000000000000000000000000000000000005f52602160045260245ffdfea2646970667358221220df8797174c2cc054d65fb3898c9e376d2a0c4a39e8ba6aeb188cf9727f8a632c64736f6c63430008180033",
					"opcodes": "PUSH2 0x160 PUSH1 0x40 MSTORE PUSH12 0x1027E72F1F12813088000000 PUSH1 0x8 SSTORE PUSH1 0x64 PUSH1 0x14 PUSH1 0x8 SLOAD PUSH3 0x28 SWAP2 SWAP1 PUSH3 0x75C JUMP JUMPDEST PUSH3 0x34 SWAP2 SWAP1 PUSH3 0x7D3 JUMP JUMPDEST PUSH1 0x9 SSTORE PUSH1 0x64 PUSH1 0xC PUSH1 0x8 SLOAD PUSH3 0x4A SWAP2 SWAP1 PUSH3 0x75C JUMP JUMPDEST PUSH3 0x56 SWAP2 SWAP1 PUSH3 0x7D3 JUMP JUMPDEST PUSH1 0xA SSTORE PUSH1 0x64 PUSH1 0x8 DUP1 SLOAD PUSH3 0x6B SWAP2 SWAP1 PUSH3 0x75C JUMP JUMPDEST PUSH3 0x77 SWAP2 SWAP1 PUSH3 0x7D3 JUMP JUMPDEST PUSH1 0xB SSTORE PUSH1 0x64 PUSH1 0x8 DUP1 SLOAD PUSH3 0x8C SWAP2 SWAP1 PUSH3 0x75C JUMP JUMPDEST PUSH3 0x98 SWAP2 SWAP1 PUSH3 0x7D3 JUMP JUMPDEST PUSH1 0xC SSTORE PUSH1 0x9 SLOAD PUSH1 0xC SLOAD PUSH1 0xB SLOAD PUSH1 0xA SLOAD PUSH3 0xB3 SWAP2 SWAP1 PUSH3 0x80A JUMP JUMPDEST PUSH3 0xBF SWAP2 SWAP1 PUSH3 0x80A JUMP JUMPDEST PUSH3 0xCB SWAP2 SWAP1 PUSH3 0x80A JUMP JUMPDEST PUSH1 0x8 SLOAD PUSH3 0xDA SWAP2 SWAP1 PUSH3 0x844 JUMP JUMPDEST PUSH1 0xD SSTORE CALLVALUE DUP1 ISZERO PUSH3 0xE9 JUMPI PUSH0 DUP1 REVERT JUMPDEST POP PUSH1 0x40 MLOAD DUP1 PUSH1 0x40 ADD PUSH1 0x40 MSTORE DUP1 PUSH1 0x5 DUP2 MSTORE PUSH1 0x20 ADD PUSH32 0x4D415A5A45000000000000000000000000000000000000000000000000000000 DUP2 MSTORE POP DUP1 PUSH1 0x40 MLOAD DUP1 PUSH1 0x40 ADD PUSH1 0x40 MSTORE DUP1 PUSH1 0x1 DUP2 MSTORE PUSH1 0x20 ADD PUSH32 0x3100000000000000000000000000000000000000000000000000000000000000 DUP2 MSTORE POP PUSH1 0x40 MLOAD DUP1 PUSH1 0x40 ADD PUSH1 0x40 MSTORE DUP1 PUSH1 0x5 DUP2 MSTORE PUSH1 0x20 ADD PUSH32 0x4D415A5A45000000000000000000000000000000000000000000000000000000 DUP2 MSTORE POP PUSH1 0x40 MLOAD DUP1 PUSH1 0x40 ADD PUSH1 0x40 MSTORE DUP1 PUSH1 0x5 DUP2 MSTORE PUSH1 0x20 ADD PUSH32 0x4D415A5A45000000000000000000000000000000000000000000000000000000 DUP2 MSTORE POP DUP2 PUSH1 0x3 SWAP1 DUP2 PUSH3 0x1D4 SWAP2 SWAP1 PUSH3 0xAD9 JUMP JUMPDEST POP DUP1 PUSH1 0x4 SWAP1 DUP2 PUSH3 0x1E6 SWAP2 SWAP1 PUSH3 0xAD9 JUMP JUMPDEST POP POP POP PUSH3 0x1FF PUSH1 0x5 DUP4 PUSH3 0x354 PUSH1 0x20 SHL SWAP1 SWAP2 SWAP1 PUSH1 0x20 SHR JUMP JUMPDEST PUSH2 0x120 DUP2 DUP2 MSTORE POP POP PUSH3 0x21D PUSH1 0x6 DUP3 PUSH3 0x354 PUSH1 0x20 SHL SWAP1 SWAP2 SWAP1 PUSH1 0x20 SHR JUMP JUMPDEST PUSH2 0x140 DUP2 DUP2 MSTORE POP POP DUP2 DUP1 MLOAD SWAP1 PUSH1 0x20 ADD KECCAK256 PUSH1 0xE0 DUP2 DUP2 MSTORE POP POP DUP1 DUP1 MLOAD SWAP1 PUSH1 0x20 ADD KECCAK256 PUSH2 0x100 DUP2 DUP2 MSTORE POP POP CHAINID PUSH1 0xA0 DUP2 DUP2 MSTORE POP POP PUSH3 0x25C PUSH3 0x3A9 PUSH1 0x20 SHL PUSH1 0x20 SHR JUMP JUMPDEST PUSH1 0x80 DUP2 DUP2 MSTORE POP POP ADDRESS PUSH20 0xFFFFFFFFFFFFFFFFFFFFFFFFFFFFFFFFFFFFFFFF AND PUSH1 0xC0 DUP2 PUSH20 0xFFFFFFFFFFFFFFFFFFFFFFFFFFFFFFFFFFFFFFFF AND DUP2 MSTORE POP POP POP POP POP PUSH3 0x2C2 PUSH20 0xA043BC356A11F548F77F716E8D3C31B1E8BEDF7A PUSH1 0x9 SLOAD PUSH3 0x405 PUSH1 0x20 SHL PUSH1 0x20 SHR JUMP JUMPDEST PUSH3 0x2EA PUSH20 0xA81AA52EA19EF26739B0762C03381F9A84C8B05D PUSH1 0xA SLOAD PUSH3 0x405 PUSH1 0x20 SHL PUSH1 0x20 SHR JUMP JUMPDEST PUSH3 0x312 PUSH20 0x49D125CA46997E3C90EBB0CC9940E033487F8FA4 PUSH1 0xB SLOAD PUSH3 0x405 PUSH1 0x20 SHL PUSH1 0x20 SHR JUMP JUMPDEST PUSH3 0x33A PUSH20 0x8126A70A57B44D32E6EB9F41C8DF4A2A47FF4BE7 PUSH1 0xC SLOAD PUSH3 0x405 PUSH1 0x20 SHL PUSH1 0x20 SHR JUMP JUMPDEST PUSH3 0x34E CALLER PUSH1 0xD SLOAD PUSH3 0x405 PUSH1 0x20 SHL PUSH1 0x20 SHR JUMP JUMPDEST PUSH3 0xE41 JUMP JUMPDEST PUSH0 PUSH1 0x20 DUP4 MLOAD LT ISZERO PUSH3 0x379 JUMPI PUSH3 0x371 DUP4 PUSH3 0x48F PUSH1 0x20 SHL PUSH1 0x20 SHR JUMP JUMPDEST SWAP1 POP PUSH3 0x3A3 JUMP JUMPDEST DUP3 PUSH3 0x38B DUP4 PUSH3 0x4F9 PUSH1 0x20 SHL PUSH1 0x20 SHR JUMP JUMPDEST PUSH0 ADD SWAP1 DUP2 PUSH3 0x39B SWAP2 SWAP1 PUSH3 0xAD9 JUMP JUMPDEST POP PUSH1 0xFF PUSH0 SHL SWAP1 POP JUMPDEST SWAP3 SWAP2 POP POP JUMP JUMPDEST PUSH0 PUSH32 0x8B73C3C69BB8FE3D512ECC4CF759CC79239F7B179B0FFACAA9A75D522B39400F PUSH1 0xE0 MLOAD PUSH2 0x100 MLOAD CHAINID ADDRESS PUSH1 0x40 MLOAD PUSH1 0x20 ADD PUSH3 0x3EA SWAP6 SWAP5 SWAP4 SWAP3 SWAP2 SWAP1 PUSH3 0xC2B JUMP JUMPDEST PUSH1 0x40 MLOAD PUSH1 0x20 DUP2 DUP4 SUB SUB DUP2 MSTORE SWAP1 PUSH1 0x40 MSTORE DUP1 MLOAD SWAP1 PUSH1 0x20 ADD KECCAK256 SWAP1 POP SWAP1 JUMP JUMPDEST PUSH0 PUSH20 0xFFFFFFFFFFFFFFFFFFFFFFFFFFFFFFFFFFFFFFFF AND DUP3 PUSH20 0xFFFFFFFFFFFFFFFFFFFFFFFFFFFFFFFFFFFFFFFF AND SUB PUSH3 0x478 JUMPI PUSH0 PUSH1 0x40 MLOAD PUSH32 0xEC442F0500000000000000000000000000000000000000000000000000000000 DUP2 MSTORE PUSH1 0x4 ADD PUSH3 0x46F SWAP2 SWAP1 PUSH3 0xC86 JUMP JUMPDEST PUSH1 0x40 MLOAD DUP1 SWAP2 SUB SWAP1 REVERT JUMPDEST PUSH3 0x48B PUSH0 DUP4 DUP4 PUSH3 0x502 PUSH1 0x20 SHL PUSH1 0x20 SHR JUMP JUMPDEST POP POP JUMP JUMPDEST PUSH0 DUP1 DUP3 SWAP1 POP PUSH1 0x1F DUP2 MLOAD GT ISZERO PUSH3 0x4DE JUMPI DUP3 PUSH1 0x40 MLOAD PUSH32 0x305A27A900000000000000000000000000000000000000000000000000000000 DUP2 MSTORE PUSH1 0x4 ADD PUSH3 0x4D5 SWAP2 SWAP1 PUSH3 0xD2B JUMP JUMPDEST PUSH1 0x40 MLOAD DUP1 SWAP2 SUB SWAP1 REVERT JUMPDEST DUP1 MLOAD DUP2 PUSH3 0x4EC SWAP1 PUSH3 0xD7C JUMP JUMPDEST PUSH0 SHR OR PUSH0 SHL SWAP2 POP POP SWAP2 SWAP1 POP JUMP JUMPDEST PUSH0 DUP2 SWAP1 POP SWAP2 SWAP1 POP JUMP JUMPDEST PUSH0 PUSH20 0xFFFFFFFFFFFFFFFFFFFFFFFFFFFFFFFFFFFFFFFF AND DUP4 PUSH20 0xFFFFFFFFFFFFFFFFFFFFFFFFFFFFFFFFFFFFFFFF AND SUB PUSH3 0x556 JUMPI DUP1 PUSH1 0x2 PUSH0 DUP3 DUP3 SLOAD PUSH3 0x549 SWAP2 SWAP1 PUSH3 0x80A JUMP JUMPDEST SWAP3 POP POP DUP2 SWAP1 SSTORE POP PUSH3 0x627 JUMP JUMPDEST PUSH0 DUP1 PUSH0 DUP6 PUSH20 0xFFFFFFFFFFFFFFFFFFFFFFFFFFFFFFFFFFFFFFFF AND PUSH20 0xFFFFFFFFFFFFFFFFFFFFFFFFFFFFFFFFFFFFFFFF AND DUP2 MSTORE PUSH1 0x20 ADD SWAP1 DUP2 MSTORE PUSH1 0x20 ADD PUSH0 KECCAK256 SLOAD SWAP1 POP DUP2 DUP2 LT ISZERO PUSH3 0x5E2 JUMPI DUP4 DUP2 DUP4 PUSH1 0x40 MLOAD PUSH32 0xE450D38C00000000000000000000000000000000000000000000000000000000 DUP2 MSTORE PUSH1 0x4 ADD PUSH3 0x5D9 SWAP4 SWAP3 SWAP2 SWAP1 PUSH3 0xDEB JUMP JUMPDEST PUSH1 0x40 MLOAD DUP1 SWAP2 SUB SWAP1 REVERT JUMPDEST DUP2 DUP2 SUB PUSH0 DUP1 DUP7 PUSH20 0xFFFFFFFFFFFFFFFFFFFFFFFFFFFFFFFFFFFFFFFF AND PUSH20 0xFFFFFFFFFFFFFFFFFFFFFFFFFFFFFFFFFFFFFFFF AND DUP2 MSTORE PUSH1 0x20 ADD SWAP1 DUP2 MSTORE PUSH1 0x20 ADD PUSH0 KECCAK256 DUP2 SWAP1 SSTORE POP POP JUMPDEST PUSH0 PUSH20 0xFFFFFFFFFFFFFFFFFFFFFFFFFFFFFFFFFFFFFFFF AND DUP3 PUSH20 0xFFFFFFFFFFFFFFFFFFFFFFFFFFFFFFFFFFFFFFFF AND SUB PUSH3 0x670 JUMPI DUP1 PUSH1 0x2 PUSH0 DUP3 DUP3 SLOAD SUB SWAP3 POP POP DUP2 SWAP1 SSTORE POP PUSH3 0x6BA JUMP JUMPDEST DUP1 PUSH0 DUP1 DUP5 PUSH20 0xFFFFFFFFFFFFFFFFFFFFFFFFFFFFFFFFFFFFFFFF AND PUSH20 0xFFFFFFFFFFFFFFFFFFFFFFFFFFFFFFFFFFFFFFFF AND DUP2 MSTORE PUSH1 0x20 ADD SWAP1 DUP2 MSTORE PUSH1 0x20 ADD PUSH0 KECCAK256 PUSH0 DUP3 DUP3 SLOAD ADD SWAP3 POP POP DUP2 SWAP1 SSTORE POP JUMPDEST DUP2 PUSH20 0xFFFFFFFFFFFFFFFFFFFFFFFFFFFFFFFFFFFFFFFF AND DUP4 PUSH20 0xFFFFFFFFFFFFFFFFFFFFFFFFFFFFFFFFFFFFFFFF AND PUSH32 0xDDF252AD1BE2C89B69C2B068FC378DAA952BA7F163C4A11628F55A4DF523B3EF DUP4 PUSH1 0x40 MLOAD PUSH3 0x719 SWAP2 SWAP1 PUSH3 0xE26 JUMP JUMPDEST PUSH1 0x40 MLOAD DUP1 SWAP2 SUB SWAP1 LOG3 POP POP POP JUMP JUMPDEST PUSH0 DUP2 SWAP1 POP SWAP2 SWAP1 POP JUMP JUMPDEST PUSH32 0x4E487B7100000000000000000000000000000000000000000000000000000000 PUSH0 MSTORE PUSH1 0x11 PUSH1 0x4 MSTORE PUSH1 0x24 PUSH0 REVERT JUMPDEST PUSH0 PUSH3 0x768 DUP3 PUSH3 0x726 JUMP JUMPDEST SWAP2 POP PUSH3 0x775 DUP4 PUSH3 0x726 JUMP JUMPDEST SWAP3 POP DUP3 DUP3 MUL PUSH3 0x785 DUP2 PUSH3 0x726 JUMP JUMPDEST SWAP2 POP DUP3 DUP3 DIV DUP5 EQ DUP4 ISZERO OR PUSH3 0x79F JUMPI PUSH3 0x79E PUSH3 0x72F JUMP JUMPDEST JUMPDEST POP SWAP3 SWAP2 POP POP JUMP JUMPDEST PUSH32 0x4E487B7100000000000000000000000000000000000000000000000000000000 PUSH0 MSTORE PUSH1 0x12 PUSH1 0x4 MSTORE PUSH1 0x24 PUSH0 REVERT JUMPDEST PUSH0 PUSH3 0x7DF DUP3 PUSH3 0x726 JUMP JUMPDEST SWAP2 POP PUSH3 0x7EC DUP4 PUSH3 0x726 JUMP JUMPDEST SWAP3 POP DUP3 PUSH3 0x7FF JUMPI PUSH3 0x7FE PUSH3 0x7A6 JUMP JUMPDEST JUMPDEST DUP3 DUP3 DIV SWAP1 POP SWAP3 SWAP2 POP POP JUMP JUMPDEST PUSH0 PUSH3 0x816 DUP3 PUSH3 0x726 JUMP JUMPDEST SWAP2 POP PUSH3 0x823 DUP4 PUSH3 0x726 JUMP JUMPDEST SWAP3 POP DUP3 DUP3 ADD SWAP1 POP DUP1 DUP3 GT ISZERO PUSH3 0x83E JUMPI PUSH3 0x83D PUSH3 0x72F JUMP JUMPDEST JUMPDEST SWAP3 SWAP2 POP POP JUMP JUMPDEST PUSH0 PUSH3 0x850 DUP3 PUSH3 0x726 JUMP JUMPDEST SWAP2 POP PUSH3 0x85D DUP4 PUSH3 0x726 JUMP JUMPDEST SWAP3 POP DUP3 DUP3 SUB SWAP1 POP DUP2 DUP2 GT ISZERO PUSH3 0x878 JUMPI PUSH3 0x877 PUSH3 0x72F JUMP JUMPDEST JUMPDEST SWAP3 SWAP2 POP POP JUMP JUMPDEST PUSH0 DUP2 MLOAD SWAP1 POP SWAP2 SWAP1 POP JUMP JUMPDEST PUSH32 0x4E487B7100000000000000000000000000000000000000000000000000000000 PUSH0 MSTORE PUSH1 0x41 PUSH1 0x4 MSTORE PUSH1 0x24 PUSH0 REVERT JUMPDEST PUSH32 0x4E487B7100000000000000000000000000000000000000000000000000000000 PUSH0 MSTORE PUSH1 0x22 PUSH1 0x4 MSTORE PUSH1 0x24 PUSH0 REVERT JUMPDEST PUSH0 PUSH1 0x2 DUP3 DIV SWAP1 POP PUSH1 0x1 DUP3 AND DUP1 PUSH3 0x8FA JUMPI PUSH1 0x7F DUP3 AND SWAP2 POP JUMPDEST PUSH1 0x20 DUP3 LT DUP2 SUB PUSH3 0x910 JUMPI PUSH3 0x90F PUSH3 0x8B5 JUMP JUMPDEST JUMPDEST POP SWAP2 SWAP1 POP JUMP JUMPDEST PUSH0 DUP2 SWAP1 POP DUP2 PUSH0 MSTORE PUSH1 0x20 PUSH0 KECCAK256 SWAP1 POP SWAP2 SWAP1 POP JUMP JUMPDEST PUSH0 PUSH1 0x20 PUSH1 0x1F DUP4 ADD DIV SWAP1 POP SWAP2 SWAP1 POP JUMP JUMPDEST PUSH0 DUP3 DUP3 SHL SWAP1 POP SWAP3 SWAP2 POP POP JUMP JUMPDEST PUSH0 PUSH1 0x8 DUP4 MUL PUSH3 0x974 PUSH32 0xFFFFFFFFFFFFFFFFFFFFFFFFFFFFFFFFFFFFFFFFFFFFFFFFFFFFFFFFFFFFFFFF DUP3 PUSH3 0x937 JUMP JUMPDEST PUSH3 0x980 DUP7 DUP4 PUSH3 0x937 JUMP JUMPDEST SWAP6 POP DUP1 NOT DUP5 AND SWAP4 POP DUP1 DUP7 AND DUP5 OR SWAP3 POP POP POP SWAP4 SWAP3 POP POP POP JUMP JUMPDEST PUSH0 DUP2 SWAP1 POP SWAP2 SWAP1 POP JUMP JUMPDEST PUSH0 PUSH3 0x9C1 PUSH3 0x9BB PUSH3 0x9B5 DUP5 PUSH3 0x726 JUMP JUMPDEST PUSH3 0x998 JUMP JUMPDEST PUSH3 0x726 JUMP JUMPDEST SWAP1 POP SWAP2 SWAP1 POP JUMP JUMPDEST PUSH0 DUP2 SWAP1 POP SWAP2 SWAP1 POP JUMP JUMPDEST PUSH3 0x9DC DUP4 PUSH3 0x9A1 JUMP JUMPDEST PUSH3 0x9F4 PUSH3 0x9EB DUP3 PUSH3 0x9C8 JUMP JUMPDEST DUP5 DUP5 SLOAD PUSH3 0x943 JUMP JUMPDEST DUP3 SSTORE POP POP POP POP JUMP JUMPDEST PUSH0 SWAP1 JUMP JUMPDEST PUSH3 0xA0A PUSH3 0x9FC JUMP JUMPDEST PUSH3 0xA17 DUP2 DUP5 DUP5 PUSH3 0x9D1 JUMP JUMPDEST POP POP POP JUMP JUMPDEST JUMPDEST DUP2 DUP2 LT ISZERO PUSH3 0xA3E JUMPI PUSH3 0xA32 PUSH0 DUP3 PUSH3 0xA00 JUMP JUMPDEST PUSH1 0x1 DUP2 ADD SWAP1 POP PUSH3 0xA1D JUMP JUMPDEST POP POP JUMP JUMPDEST PUSH1 0x1F DUP3 GT ISZERO PUSH3 0xA8D JUMPI PUSH3 0xA57 DUP2 PUSH3 0x916 JUMP JUMPDEST PUSH3 0xA62 DUP5 PUSH3 0x928 JUMP JUMPDEST DUP2 ADD PUSH1 0x20 DUP6 LT ISZERO PUSH3 0xA72 JUMPI DUP2 SWAP1 POP JUMPDEST PUSH3 0xA8A PUSH3 0xA81 DUP6 PUSH3 0x928 JUMP JUMPDEST DUP4 ADD DUP3 PUSH3 0xA1C JUMP JUMPDEST POP POP JUMPDEST POP POP POP JUMP JUMPDEST PUSH0 DUP3 DUP3 SHR SWAP1 POP SWAP3 SWAP2 POP POP JUMP JUMPDEST PUSH0 PUSH3 0xAAF PUSH0 NOT DUP5 PUSH1 0x8 MUL PUSH3 0xA92 JUMP JUMPDEST NOT DUP1 DUP4 AND SWAP2 POP POP SWAP3 SWAP2 POP POP JUMP JUMPDEST PUSH0 PUSH3 0xAC9 DUP4 DUP4 PUSH3 0xA9E JUMP JUMPDEST SWAP2 POP DUP3 PUSH1 0x2 MUL DUP3 OR SWAP1 POP SWAP3 SWAP2 POP POP JUMP JUMPDEST PUSH3 0xAE4 DUP3 PUSH3 0x87E JUMP JUMPDEST PUSH8 0xFFFFFFFFFFFFFFFF DUP2 GT ISZERO PUSH3 0xB00 JUMPI PUSH3 0xAFF PUSH3 0x888 JUMP JUMPDEST JUMPDEST PUSH3 0xB0C DUP3 SLOAD PUSH3 0x8E2 JUMP JUMPDEST PUSH3 0xB19 DUP3 DUP3 DUP6 PUSH3 0xA42 JUMP JUMPDEST PUSH0 PUSH1 0x20 SWAP1 POP PUSH1 0x1F DUP4 GT PUSH1 0x1 DUP2 EQ PUSH3 0xB4F JUMPI PUSH0 DUP5 ISZERO PUSH3 0xB3A JUMPI DUP3 DUP8 ADD MLOAD SWAP1 POP JUMPDEST PUSH3 0xB46 DUP6 DUP3 PUSH3 0xABC JUMP JUMPDEST DUP7 SSTORE POP PUSH3 0xBB5 JUMP JUMPDEST PUSH1 0x1F NOT DUP5 AND PUSH3 0xB5F DUP7 PUSH3 0x916 JUMP JUMPDEST PUSH0 JUMPDEST DUP3 DUP2 LT ISZERO PUSH3 0xB88 JUMPI DUP5 DUP10 ADD MLOAD DUP3 SSTORE PUSH1 0x1 DUP3 ADD SWAP2 POP PUSH1 0x20 DUP6 ADD SWAP5 POP PUSH1 0x20 DUP2 ADD SWAP1 POP PUSH3 0xB61 JUMP JUMPDEST DUP7 DUP4 LT ISZERO PUSH3 0xBA8 JUMPI DUP5 DUP10 ADD MLOAD PUSH3 0xBA4 PUSH1 0x1F DUP10 AND DUP3 PUSH3 0xA9E JUMP JUMPDEST DUP4 SSTORE POP JUMPDEST PUSH1 0x1 PUSH1 0x2 DUP9 MUL ADD DUP9 SSTORE POP POP POP JUMPDEST POP POP POP POP POP POP JUMP JUMPDEST PUSH0 DUP2 SWAP1 POP SWAP2 SWAP1 POP JUMP JUMPDEST PUSH3 0xBD1 DUP2 PUSH3 0xBBD JUMP JUMPDEST DUP3 MSTORE POP POP JUMP JUMPDEST PUSH3 0xBE2 DUP2 PUSH3 0x726 JUMP JUMPDEST DUP3 MSTORE POP POP JUMP JUMPDEST PUSH0 PUSH20 0xFFFFFFFFFFFFFFFFFFFFFFFFFFFFFFFFFFFFFFFF DUP3 AND SWAP1 POP SWAP2 SWAP1 POP JUMP JUMPDEST PUSH0 PUSH3 0xC13 DUP3 PUSH3 0xBE8 JUMP JUMPDEST SWAP1 POP SWAP2 SWAP1 POP JUMP JUMPDEST PUSH3 0xC25 DUP2 PUSH3 0xC07 JUMP JUMPDEST DUP3 MSTORE POP POP JUMP JUMPDEST PUSH0 PUSH1 0xA0 DUP3 ADD SWAP1 POP PUSH3 0xC40 PUSH0 DUP4 ADD DUP9 PUSH3 0xBC6 JUMP JUMPDEST PUSH3 0xC4F PUSH1 0x20 DUP4 ADD DUP8 PUSH3 0xBC6 JUMP JUMPDEST PUSH3 0xC5E PUSH1 0x40 DUP4 ADD DUP7 PUSH3 0xBC6 JUMP JUMPDEST PUSH3 0xC6D PUSH1 0x60 DUP4 ADD DUP6 PUSH3 0xBD7 JUMP JUMPDEST PUSH3 0xC7C PUSH1 0x80 DUP4 ADD DUP5 PUSH3 0xC1A JUMP JUMPDEST SWAP7 SWAP6 POP POP POP POP POP POP JUMP JUMPDEST PUSH0 PUSH1 0x20 DUP3 ADD SWAP1 POP PUSH3 0xC9B PUSH0 DUP4 ADD DUP5 PUSH3 0xC1A JUMP JUMPDEST SWAP3 SWAP2 POP POP JUMP JUMPDEST PUSH0 DUP3 DUP3 MSTORE PUSH1 0x20 DUP3 ADD SWAP1 POP SWAP3 SWAP2 POP POP JUMP JUMPDEST PUSH0 JUMPDEST DUP4 DUP2 LT ISZERO PUSH3 0xCD0 JUMPI DUP1 DUP3 ADD MLOAD DUP2 DUP5 ADD MSTORE PUSH1 0x20 DUP2 ADD SWAP1 POP PUSH3 0xCB3 JUMP JUMPDEST PUSH0 DUP5 DUP5 ADD MSTORE POP POP POP POP JUMP JUMPDEST PUSH0 PUSH1 0x1F NOT PUSH1 0x1F DUP4 ADD AND SWAP1 POP SWAP2 SWAP1 POP JUMP JUMPDEST PUSH0 PUSH3 0xCF7 DUP3 PUSH3 0x87E JUMP JUMPDEST PUSH3 0xD03 DUP2 DUP6 PUSH3 0xCA1 JUMP JUMPDEST SWAP4 POP PUSH3 0xD15 DUP2 DUP6 PUSH1 0x20 DUP7 ADD PUSH3 0xCB1 JUMP JUMPDEST PUSH3 0xD20 DUP2 PUSH3 0xCDB JUMP JUMPDEST DUP5 ADD SWAP2 POP POP SWAP3 SWAP2 POP POP JUMP JUMPDEST PUSH0 PUSH1 0x20 DUP3 ADD SWAP1 POP DUP2 DUP2 SUB PUSH0 DUP4 ADD MSTORE PUSH3 0xD45 DUP2 DUP5 PUSH3 0xCEB JUMP JUMPDEST SWAP1 POP SWAP3 SWAP2 POP POP JUMP JUMPDEST PUSH0 DUP2 MLOAD SWAP1 POP SWAP2 SWAP1 POP JUMP JUMPDEST PUSH0 DUP2 SWAP1 POP PUSH1 0x20 DUP3 ADD SWAP1 POP SWAP2 SWAP1 POP JUMP JUMPDEST PUSH0 PUSH3 0xD73 DUP3 MLOAD PUSH3 0xBBD JUMP JUMPDEST DUP1 SWAP2 POP POP SWAP2 SWAP1 POP JUMP JUMPDEST PUSH0 PUSH3 0xD88 DUP3 PUSH3 0xD4D JUMP JUMPDEST DUP3 PUSH3 0xD94 DUP5 PUSH3 0xD57 JUMP JUMPDEST SWAP1 POP PUSH3 0xDA1 DUP2 PUSH3 0xD66 JUMP JUMPDEST SWAP3 POP PUSH1 0x20 DUP3 LT ISZERO PUSH3 0xDE4 JUMPI PUSH3 0xDDF PUSH32 0xFFFFFFFFFFFFFFFFFFFFFFFFFFFFFFFFFFFFFFFFFFFFFFFFFFFFFFFFFFFFFFFF DUP4 PUSH1 0x20 SUB PUSH1 0x8 MUL PUSH3 0x937 JUMP JUMPDEST DUP4 AND SWAP3 POP JUMPDEST POP POP SWAP2 SWAP1 POP JUMP JUMPDEST PUSH0 PUSH1 0x60 DUP3 ADD SWAP1 POP PUSH3 0xE00 PUSH0 DUP4 ADD DUP7 PUSH3 0xC1A JUMP JUMPDEST PUSH3 0xE0F PUSH1 0x20 DUP4 ADD DUP6 PUSH3 0xBD7 JUMP JUMPDEST PUSH3 0xE1E PUSH1 0x40 DUP4 ADD DUP5 PUSH3 0xBD7 JUMP JUMPDEST SWAP5 SWAP4 POP POP POP POP JUMP JUMPDEST PUSH0 PUSH1 0x20 DUP3 ADD SWAP1 POP PUSH3 0xE3B PUSH0 DUP4 ADD DUP5 PUSH3 0xBD7 JUMP JUMPDEST SWAP3 SWAP2 POP POP JUMP JUMPDEST PUSH1 0x80 MLOAD PUSH1 0xA0 MLOAD PUSH1 0xC0 MLOAD PUSH1 0xE0 MLOAD PUSH2 0x100 MLOAD PUSH2 0x120 MLOAD PUSH2 0x140 MLOAD PUSH2 0x1C63 PUSH3 0xE93 PUSH0 CODECOPY PUSH0 PUSH2 0xADF ADD MSTORE PUSH0 PUSH2 0xAA4 ADD MSTORE PUSH0 PUSH2 0xFD8 ADD MSTORE PUSH0 PUSH2 0xFB7 ADD MSTORE PUSH0 PUSH2 0x923 ADD MSTORE PUSH0 PUSH2 0x979 ADD MSTORE PUSH0 PUSH2 0x9A2 ADD MSTORE PUSH2 0x1C63 PUSH0 RETURN INVALID PUSH1 0x80 PUSH1 0x40 MSTORE CALLVALUE DUP1 ISZERO PUSH2 0xF JUMPI PUSH0 DUP1 REVERT JUMPDEST POP PUSH1 0x4 CALLDATASIZE LT PUSH2 0xE8 JUMPI PUSH0 CALLDATALOAD PUSH1 0xE0 SHR DUP1 PUSH4 0x70A08231 GT PUSH2 0x8A JUMPI DUP1 PUSH4 0x95D89B41 GT PUSH2 0x64 JUMPI DUP1 PUSH4 0x95D89B41 EQ PUSH2 0x264 JUMPI DUP1 PUSH4 0xA9059CBB EQ PUSH2 0x282 JUMPI DUP1 PUSH4 0xD505ACCF EQ PUSH2 0x2B2 JUMPI DUP1 PUSH4 0xDD62ED3E EQ PUSH2 0x2CE JUMPI PUSH2 0xE8 JUMP JUMPDEST DUP1 PUSH4 0x70A08231 EQ PUSH2 0x1E0 JUMPI DUP1 PUSH4 0x7ECEBE00 EQ PUSH2 0x210 JUMPI DUP1 PUSH4 0x84B0196E EQ PUSH2 0x240 JUMPI PUSH2 0xE8 JUMP JUMPDEST DUP1 PUSH4 0x23B872DD GT PUSH2 0xC6 JUMPI DUP1 PUSH4 0x23B872DD EQ PUSH2 0x158 JUMPI DUP1 PUSH4 0x313CE567 EQ PUSH2 0x188 JUMPI DUP1 PUSH4 0x3644E515 EQ PUSH2 0x1A6 JUMPI DUP1 PUSH4 0x42966C68 EQ PUSH2 0x1C4 JUMPI PUSH2 0xE8 JUMP JUMPDEST DUP1 PUSH4 0x6FDDE03 EQ PUSH2 0xEC JUMPI DUP1 PUSH4 0x95EA7B3 EQ PUSH2 0x10A JUMPI DUP1 PUSH4 0x18160DDD EQ PUSH2 0x13A JUMPI JUMPDEST PUSH0 DUP1 REVERT JUMPDEST PUSH2 0xF4 PUSH2 0x2FE JUMP JUMPDEST PUSH1 0x40 MLOAD PUSH2 0x101 SWAP2 SWAP1 PUSH2 0x14A8 JUMP JUMPDEST PUSH1 0x40 MLOAD DUP1 SWAP2 SUB SWAP1 RETURN JUMPDEST PUSH2 0x124 PUSH1 0x4 DUP1 CALLDATASIZE SUB DUP2 ADD SWAP1 PUSH2 0x11F SWAP2 SWAP1 PUSH2 0x1559 JUMP JUMPDEST PUSH2 0x38E JUMP JUMPDEST PUSH1 0x40 MLOAD PUSH2 0x131 SWAP2 SWAP1 PUSH2 0x15B1 JUMP JUMPDEST PUSH1 0x40 MLOAD DUP1 SWAP2 SUB SWAP1 RETURN JUMPDEST PUSH2 0x142 PUSH2 0x3B0 JUMP JUMPDEST PUSH1 0x40 MLOAD PUSH2 0x14F SWAP2 SWAP1 PUSH2 0x15D9 JUMP JUMPDEST PUSH1 0x40 MLOAD DUP1 SWAP2 SUB SWAP1 RETURN JUMPDEST PUSH2 0x172 PUSH1 0x4 DUP1 CALLDATASIZE SUB DUP2 ADD SWAP1 PUSH2 0x16D SWAP2 SWAP1 PUSH2 0x15F2 JUMP JUMPDEST PUSH2 0x3B9 JUMP JUMPDEST PUSH1 0x40 MLOAD PUSH2 0x17F SWAP2 SWAP1 PUSH2 0x15B1 JUMP JUMPDEST PUSH1 0x40 MLOAD DUP1 SWAP2 SUB SWAP1 RETURN JUMPDEST PUSH2 0x190 PUSH2 0x3E7 JUMP JUMPDEST PUSH1 0x40 MLOAD PUSH2 0x19D SWAP2 SWAP1 PUSH2 0x165D JUMP JUMPDEST PUSH1 0x40 MLOAD DUP1 SWAP2 SUB SWAP1 RETURN JUMPDEST PUSH2 0x1AE PUSH2 0x3EF JUMP JUMPDEST PUSH1 0x40 MLOAD PUSH2 0x1BB SWAP2 SWAP1 PUSH2 0x168E JUMP JUMPDEST PUSH1 0x40 MLOAD DUP1 SWAP2 SUB SWAP1 RETURN JUMPDEST PUSH2 0x1DE PUSH1 0x4 DUP1 CALLDATASIZE SUB DUP2 ADD SWAP1 PUSH2 0x1D9 SWAP2 SWAP1 PUSH2 0x16A7 JUMP JUMPDEST PUSH2 0x3FD JUMP JUMPDEST STOP JUMPDEST PUSH2 0x1FA PUSH1 0x4 DUP1 CALLDATASIZE SUB DUP2 ADD SWAP1 PUSH2 0x1F5 SWAP2 SWAP1 PUSH2 0x16D2 JUMP JUMPDEST PUSH2 0x411 JUMP JUMPDEST PUSH1 0x40 MLOAD PUSH2 0x207 SWAP2 SWAP1 PUSH2 0x15D9 JUMP JUMPDEST PUSH1 0x40 MLOAD DUP1 SWAP2 SUB SWAP1 RETURN JUMPDEST PUSH2 0x22A PUSH1 0x4 DUP1 CALLDATASIZE SUB DUP2 ADD SWAP1 PUSH2 0x225 SWAP2 SWAP1 PUSH2 0x16D2 JUMP JUMPDEST PUSH2 0x456 JUMP JUMPDEST PUSH1 0x40 MLOAD PUSH2 0x237 SWAP2 SWAP1 PUSH2 0x15D9 JUMP JUMPDEST PUSH1 0x40 MLOAD DUP1 SWAP2 SUB SWAP1 RETURN JUMPDEST PUSH2 0x248 PUSH2 0x467 JUMP JUMPDEST PUSH1 0x40 MLOAD PUSH2 0x25B SWAP8 SWAP7 SWAP6 SWAP5 SWAP4 SWAP3 SWAP2 SWAP1 PUSH2 0x17FD JUMP JUMPDEST PUSH1 0x40 MLOAD DUP1 SWAP2 SUB SWAP1 RETURN JUMPDEST PUSH2 0x26C PUSH2 0x50C JUMP JUMPDEST PUSH1 0x40 MLOAD PUSH2 0x279 SWAP2 SWAP1 PUSH2 0x14A8 JUMP JUMPDEST PUSH1 0x40 MLOAD DUP1 SWAP2 SUB SWAP1 RETURN JUMPDEST PUSH2 0x29C PUSH1 0x4 DUP1 CALLDATASIZE SUB DUP2 ADD SWAP1 PUSH2 0x297 SWAP2 SWAP1 PUSH2 0x1559 JUMP JUMPDEST PUSH2 0x59C JUMP JUMPDEST PUSH1 0x40 MLOAD PUSH2 0x2A9 SWAP2 SWAP1 PUSH2 0x15B1 JUMP JUMPDEST PUSH1 0x40 MLOAD DUP1 SWAP2 SUB SWAP1 RETURN JUMPDEST PUSH2 0x2CC PUSH1 0x4 DUP1 CALLDATASIZE SUB DUP2 ADD SWAP1 PUSH2 0x2C7 SWAP2 SWAP1 PUSH2 0x18D3 JUMP JUMPDEST PUSH2 0x5BE JUMP JUMPDEST STOP JUMPDEST PUSH2 0x2E8 PUSH1 0x4 DUP1 CALLDATASIZE SUB DUP2 ADD SWAP1 PUSH2 0x2E3 SWAP2 SWAP1 PUSH2 0x1970 JUMP JUMPDEST PUSH2 0x703 JUMP JUMPDEST PUSH1 0x40 MLOAD PUSH2 0x2F5 SWAP2 SWAP1 PUSH2 0x15D9 JUMP JUMPDEST PUSH1 0x40 MLOAD DUP1 SWAP2 SUB SWAP1 RETURN JUMPDEST PUSH1 0x60 PUSH1 0x3 DUP1 SLOAD PUSH2 0x30D SWAP1 PUSH2 0x19DB JUMP JUMPDEST DUP1 PUSH1 0x1F ADD PUSH1 0x20 DUP1 SWAP2 DIV MUL PUSH1 0x20 ADD PUSH1 0x40 MLOAD SWAP1 DUP2 ADD PUSH1 0x40 MSTORE DUP1 SWAP3 SWAP2 SWAP1 DUP2 DUP2 MSTORE PUSH1 0x20 ADD DUP3 DUP1 SLOAD PUSH2 0x339 SWAP1 PUSH2 0x19DB JUMP JUMPDEST DUP1 ISZERO PUSH2 0x384 JUMPI DUP1 PUSH1 0x1F LT PUSH2 0x35B JUMPI PUSH2 0x100 DUP1 DUP4 SLOAD DIV MUL DUP4 MSTORE SWAP2 PUSH1 0x20 ADD SWAP2 PUSH2 0x384 JUMP JUMPDEST DUP3 ADD SWAP2 SWAP1 PUSH0 MSTORE PUSH1 0x20 PUSH0 KECCAK256 SWAP1 JUMPDEST DUP2 SLOAD DUP2 MSTORE SWAP1 PUSH1 0x1 ADD SWAP1 PUSH1 0x20 ADD DUP1 DUP4 GT PUSH2 0x367 JUMPI DUP3 SWAP1 SUB PUSH1 0x1F AND DUP3 ADD SWAP2 JUMPDEST POP POP POP POP POP SWAP1 POP SWAP1 JUMP JUMPDEST PUSH0 DUP1 PUSH2 0x398 PUSH2 0x785 JUMP JUMPDEST SWAP1 POP PUSH2 0x3A5 DUP2 DUP6 DUP6 PUSH2 0x78C JUMP JUMPDEST PUSH1 0x1 SWAP2 POP POP SWAP3 SWAP2 POP POP JUMP JUMPDEST PUSH0 PUSH1 0x2 SLOAD SWAP1 POP SWAP1 JUMP JUMPDEST PUSH0 DUP1 PUSH2 0x3C3 PUSH2 0x785 JUMP JUMPDEST SWAP1 POP PUSH2 0x3D0 DUP6 DUP3 DUP6 PUSH2 0x79E JUMP JUMPDEST PUSH2 0x3DB DUP6 DUP6 DUP6 PUSH2 0x830 JUMP JUMPDEST PUSH1 0x1 SWAP2 POP POP SWAP4 SWAP3 POP POP POP JUMP JUMPDEST PUSH0 PUSH1 0x12 SWAP1 POP SWAP1 JUMP JUMPDEST PUSH0 PUSH2 0x3F8 PUSH2 0x920 JUMP JUMPDEST SWAP1 POP SWAP1 JUMP JUMPDEST PUSH2 0x40E PUSH2 0x408 PUSH2 0x785 JUMP JUMPDEST DUP3 PUSH2 0x9D6 JUMP JUMPDEST POP JUMP JUMPDEST PUSH0 DUP1 PUSH0 DUP4 PUSH20 0xFFFFFFFFFFFFFFFFFFFFFFFFFFFFFFFFFFFFFFFF AND PUSH20 0xFFFFFFFFFFFFFFFFFFFFFFFFFFFFFFFFFFFFFFFF AND DUP2 MSTORE PUSH1 0x20 ADD SWAP1 DUP2 MSTORE PUSH1 0x20 ADD PUSH0 KECCAK256 SLOAD SWAP1 POP SWAP2 SWAP1 POP JUMP JUMPDEST PUSH0 PUSH2 0x460 DUP3 PUSH2 0xA55 JUMP JUMPDEST SWAP1 POP SWAP2 SWAP1 POP JUMP JUMPDEST PUSH0 PUSH1 0x60 DUP1 PUSH0 DUP1 PUSH0 PUSH1 0x60 PUSH2 0x478 PUSH2 0xA9B JUMP JUMPDEST PUSH2 0x480 PUSH2 0xAD6 JUMP JUMPDEST CHAINID ADDRESS PUSH0 DUP1 SHL PUSH0 PUSH8 0xFFFFFFFFFFFFFFFF DUP2 GT ISZERO PUSH2 0x49F JUMPI PUSH2 0x49E PUSH2 0x1A0B JUMP JUMPDEST JUMPDEST PUSH1 0x40 MLOAD SWAP1 DUP1 DUP3 MSTORE DUP1 PUSH1 0x20 MUL PUSH1 0x20 ADD DUP3 ADD PUSH1 0x40 MSTORE DUP1 ISZERO PUSH2 0x4CD JUMPI DUP2 PUSH1 0x20 ADD PUSH1 0x20 DUP3 MUL DUP1 CALLDATASIZE DUP4 CALLDATACOPY DUP1 DUP3 ADD SWAP2 POP POP SWAP1 POP JUMPDEST POP PUSH32 0xF00000000000000000000000000000000000000000000000000000000000000 SWAP6 SWAP5 SWAP4 SWAP3 SWAP2 SWAP1 SWAP7 POP SWAP7 POP SWAP7 POP SWAP7 POP SWAP7 POP SWAP7 POP SWAP7 POP SWAP1 SWAP2 SWAP3 SWAP4 SWAP5 SWAP6 SWAP7 JUMP JUMPDEST PUSH1 0x60 PUSH1 0x4 DUP1 SLOAD PUSH2 0x51B SWAP1 PUSH2 0x19DB JUMP JUMPDEST DUP1 PUSH1 0x1F ADD PUSH1 0x20 DUP1 SWAP2 DIV MUL PUSH1 0x20 ADD PUSH1 0x40 MLOAD SWAP1 DUP2 ADD PUSH1 0x40 MSTORE DUP1 SWAP3 SWAP2 SWAP1 DUP2 DUP2 MSTORE PUSH1 0x20 ADD DUP3 DUP1 SLOAD PUSH2 0x547 SWAP1 PUSH2 0x19DB JUMP JUMPDEST DUP1 ISZERO PUSH2 0x592 JUMPI DUP1 PUSH1 0x1F LT PUSH2 0x569 JUMPI PUSH2 0x100 DUP1 DUP4 SLOAD DIV MUL DUP4 MSTORE SWAP2 PUSH1 0x20 ADD SWAP2 PUSH2 0x592 JUMP JUMPDEST DUP3 ADD SWAP2 SWAP1 PUSH0 MSTORE PUSH1 0x20 PUSH0 KECCAK256 SWAP1 JUMPDEST DUP2 SLOAD DUP2 MSTORE SWAP1 PUSH1 0x1 ADD SWAP1 PUSH1 0x20 ADD DUP1 DUP4 GT PUSH2 0x575 JUMPI DUP3 SWAP1 SUB PUSH1 0x1F AND DUP3 ADD SWAP2 JUMPDEST POP POP POP POP POP SWAP1 POP SWAP1 JUMP JUMPDEST PUSH0 DUP1 PUSH2 0x5A6 PUSH2 0x785 JUMP JUMPDEST SWAP1 POP PUSH2 0x5B3 DUP2 DUP6 DUP6 PUSH2 0x830 JUMP JUMPDEST PUSH1 0x1 SWAP2 POP POP SWAP3 SWAP2 POP POP JUMP JUMPDEST DUP4 TIMESTAMP GT ISZERO PUSH2 0x603 JUMPI DUP4 PUSH1 0x40 MLOAD PUSH32 0x6279130200000000000000000000000000000000000000000000000000000000 DUP2 MSTORE PUSH1 0x4 ADD PUSH2 0x5FA SWAP2 SWAP1 PUSH2 0x15D9 JUMP JUMPDEST PUSH1 0x40 MLOAD DUP1 SWAP2 SUB SWAP1 REVERT JUMPDEST PUSH0 PUSH32 0x6E71EDAE12B1B97F4D1F60370FEF10105FA2FAAE0126114A169C64845D6126C9 DUP9 DUP9 DUP9 PUSH2 0x631 DUP13 PUSH2 0xB11 JUMP JUMPDEST DUP10 PUSH1 0x40 MLOAD PUSH1 0x20 ADD PUSH2 0x647 SWAP7 SWAP6 SWAP5 SWAP4 SWAP3 SWAP2 SWAP1 PUSH2 0x1A38 JUMP JUMPDEST PUSH1 0x40 MLOAD PUSH1 0x20 DUP2 DUP4 SUB SUB DUP2 MSTORE SWAP1 PUSH1 0x40 MSTORE DUP1 MLOAD SWAP1 PUSH1 0x20 ADD KECCAK256 SWAP1 POP PUSH0 PUSH2 0x669 DUP3 PUSH2 0xB64 JUMP JUMPDEST SWAP1 POP PUSH0 PUSH2 0x678 DUP3 DUP8 DUP8 DUP8 PUSH2 0xB7D JUMP JUMPDEST SWAP1 POP DUP10 PUSH20 0xFFFFFFFFFFFFFFFFFFFFFFFFFFFFFFFFFFFFFFFF AND DUP2 PUSH20 0xFFFFFFFFFFFFFFFFFFFFFFFFFFFFFFFFFFFFFFFF AND EQ PUSH2 0x6EC JUMPI DUP1 DUP11 PUSH1 0x40 MLOAD PUSH32 0x4B800E4600000000000000000000000000000000000000000000000000000000 DUP2 MSTORE PUSH1 0x4 ADD PUSH2 0x6E3 SWAP3 SWAP2 SWAP1 PUSH2 0x1A97 JUMP JUMPDEST PUSH1 0x40 MLOAD DUP1 SWAP2 SUB SWAP1 REVERT JUMPDEST PUSH2 0x6F7 DUP11 DUP11 DUP11 PUSH2 0x78C JUMP JUMPDEST POP POP POP POP POP POP POP POP POP POP JUMP JUMPDEST PUSH0 PUSH1 0x1 PUSH0 DUP5 PUSH20 0xFFFFFFFFFFFFFFFFFFFFFFFFFFFFFFFFFFFFFFFF AND PUSH20 0xFFFFFFFFFFFFFFFFFFFFFFFFFFFFFFFFFFFFFFFF AND DUP2 MSTORE PUSH1 0x20 ADD SWAP1 DUP2 MSTORE PUSH1 0x20 ADD PUSH0 KECCAK256 PUSH0 DUP4 PUSH20 0xFFFFFFFFFFFFFFFFFFFFFFFFFFFFFFFFFFFFFFFF AND PUSH20 0xFFFFFFFFFFFFFFFFFFFFFFFFFFFFFFFFFFFFFFFF AND DUP2 MSTORE PUSH1 0x20 ADD SWAP1 DUP2 MSTORE PUSH1 0x20 ADD PUSH0 KECCAK256 SLOAD SWAP1 POP SWAP3 SWAP2 POP POP JUMP JUMPDEST PUSH0 CALLER SWAP1 POP SWAP1 JUMP JUMPDEST PUSH2 0x799 DUP4 DUP4 DUP4 PUSH1 0x1 PUSH2 0xBAB JUMP JUMPDEST POP POP POP JUMP JUMPDEST PUSH0 PUSH2 0x7A9 DUP5 DUP5 PUSH2 0x703 JUMP JUMPDEST SWAP1 POP PUSH32 0xFFFFFFFFFFFFFFFFFFFFFFFFFFFFFFFFFFFFFFFFFFFFFFFFFFFFFFFFFFFFFFFF DUP2 EQ PUSH2 0x82A JUMPI DUP2 DUP2 LT ISZERO PUSH2 0x81B JUMPI DUP3 DUP2 DUP4 PUSH1 0x40 MLOAD PUSH32 0xFB8F41B200000000000000000000000000000000000000000000000000000000 DUP2 MSTORE PUSH1 0x4 ADD PUSH2 0x812 SWAP4 SWAP3 SWAP2 SWAP1 PUSH2 0x1ABE JUMP JUMPDEST PUSH1 0x40 MLOAD DUP1 SWAP2 SUB SWAP1 REVERT JUMPDEST PUSH2 0x829 DUP5 DUP5 DUP5 DUP5 SUB PUSH0 PUSH2 0xBAB JUMP JUMPDEST JUMPDEST POP POP POP POP JUMP JUMPDEST PUSH0 PUSH20 0xFFFFFFFFFFFFFFFFFFFFFFFFFFFFFFFFFFFFFFFF AND DUP4 PUSH20 0xFFFFFFFFFFFFFFFFFFFFFFFFFFFFFFFFFFFFFFFF AND SUB PUSH2 0x8A0 JUMPI PUSH0 PUSH1 0x40 MLOAD PUSH32 0x96C6FD1E00000000000000000000000000000000000000000000000000000000 DUP2 MSTORE PUSH1 0x4 ADD PUSH2 0x897 SWAP2 SWAP1 PUSH2 0x1AF3 JUMP JUMPDEST PUSH1 0x40 MLOAD DUP1 SWAP2 SUB SWAP1 REVERT JUMPDEST PUSH0 PUSH20 0xFFFFFFFFFFFFFFFFFFFFFFFFFFFFFFFFFFFFFFFF AND DUP3 PUSH20 0xFFFFFFFFFFFFFFFFFFFFFFFFFFFFFFFFFFFFFFFF AND SUB PUSH2 0x910 JUMPI PUSH0 PUSH1 0x40 MLOAD PUSH32 0xEC442F0500000000000000000000000000000000000000000000000000000000 DUP2 MSTORE PUSH1 0x4 ADD PUSH2 0x907 SWAP2 SWAP1 PUSH2 0x1AF3 JUMP JUMPDEST PUSH1 0x40 MLOAD DUP1 SWAP2 SUB SWAP1 REVERT JUMPDEST PUSH2 0x91B DUP4 DUP4 DUP4 PUSH2 0xD7A JUMP JUMPDEST POP POP POP JUMP JUMPDEST PUSH0 PUSH32 0x0 PUSH20 0xFFFFFFFFFFFFFFFFFFFFFFFFFFFFFFFFFFFFFFFF AND ADDRESS PUSH20 0xFFFFFFFFFFFFFFFFFFFFFFFFFFFFFFFFFFFFFFFF AND EQ DUP1 ISZERO PUSH2 0x99B JUMPI POP PUSH32 0x0 CHAINID EQ JUMPDEST ISZERO PUSH2 0x9C8 JUMPI PUSH32 0x0 SWAP1 POP PUSH2 0x9D3 JUMP JUMPDEST PUSH2 0x9D0 PUSH2 0xF93 JUMP JUMPDEST SWAP1 POP JUMPDEST SWAP1 JUMP JUMPDEST PUSH0 PUSH20 0xFFFFFFFFFFFFFFFFFFFFFFFFFFFFFFFFFFFFFFFF AND DUP3 PUSH20 0xFFFFFFFFFFFFFFFFFFFFFFFFFFFFFFFFFFFFFFFF AND SUB PUSH2 0xA46 JUMPI PUSH0 PUSH1 0x40 MLOAD PUSH32 0x96C6FD1E00000000000000000000000000000000000000000000000000000000 DUP2 MSTORE PUSH1 0x4 ADD PUSH2 0xA3D SWAP2 SWAP1 PUSH2 0x1AF3 JUMP JUMPDEST PUSH1 0x40 MLOAD DUP1 SWAP2 SUB SWAP1 REVERT JUMPDEST PUSH2 0xA51 DUP3 PUSH0 DUP4 PUSH2 0xD7A JUMP JUMPDEST POP POP JUMP JUMPDEST PUSH0 PUSH1 0x7 PUSH0 DUP4 PUSH20 0xFFFFFFFFFFFFFFFFFFFFFFFFFFFFFFFFFFFFFFFF AND PUSH20 0xFFFFFFFFFFFFFFFFFFFFFFFFFFFFFFFFFFFFFFFF AND DUP2 MSTORE PUSH1 0x20 ADD SWAP1 DUP2 MSTORE PUSH1 0x20 ADD PUSH0 KECCAK256 SLOAD SWAP1 POP SWAP2 SWAP1 POP JUMP JUMPDEST PUSH1 0x60 PUSH2 0xAD1 PUSH1 0x5 PUSH32 0x0 PUSH2 0x1028 SWAP1 SWAP2 SWAP1 PUSH4 0xFFFFFFFF AND JUMP JUMPDEST SWAP1 POP SWAP1 JUMP JUMPDEST PUSH1 0x60 PUSH2 0xB0C PUSH1 0x6 PUSH32 0x0 PUSH2 0x1028 SWAP1 SWAP2 SWAP1 PUSH4 0xFFFFFFFF AND JUMP JUMPDEST SWAP1 POP SWAP1 JUMP JUMPDEST PUSH0 PUSH1 0x7 PUSH0 DUP4 PUSH20 0xFFFFFFFFFFFFFFFFFFFFFFFFFFFFFFFFFFFFFFFF AND PUSH20 0xFFFFFFFFFFFFFFFFFFFFFFFFFFFFFFFFFFFFFFFF AND DUP2 MSTORE PUSH1 0x20 ADD SWAP1 DUP2 MSTORE PUSH1 0x20 ADD PUSH0 KECCAK256 PUSH0 DUP2 SLOAD DUP1 SWAP3 SWAP2 SWAP1 PUSH1 0x1 ADD SWAP2 SWAP1 POP SSTORE SWAP1 POP SWAP2 SWAP1 POP JUMP JUMPDEST PUSH0 PUSH2 0xB76 PUSH2 0xB70 PUSH2 0x920 JUMP JUMPDEST DUP4 PUSH2 0x10D5 JUMP JUMPDEST SWAP1 POP SWAP2 SWAP1 POP JUMP JUMPDEST PUSH0 DUP1 PUSH0 DUP1 PUSH2 0xB8D DUP9 DUP9 DUP9 DUP9 PUSH2 0x1115 JUMP JUMPDEST SWAP3 POP SWAP3 POP SWAP3 POP PUSH2 0xB9D DUP3 DUP3 PUSH2 0x11FC JUMP JUMPDEST DUP3 SWAP4 POP POP POP POP SWAP5 SWAP4 POP POP POP POP JUMP JUMPDEST PUSH0 PUSH20 0xFFFFFFFFFFFFFFFFFFFFFFFFFFFFFFFFFFFFFFFF AND DUP5 PUSH20 0xFFFFFFFFFFFFFFFFFFFFFFFFFFFFFFFFFFFFFFFF AND SUB PUSH2 0xC1B JUMPI PUSH0 PUSH1 0x40 MLOAD PUSH32 0xE602DF0500000000000000000000000000000000000000000000000000000000 DUP2 MSTORE PUSH1 0x4 ADD PUSH2 0xC12 SWAP2 SWAP1 PUSH2 0x1AF3 JUMP JUMPDEST PUSH1 0x40 MLOAD DUP1 SWAP2 SUB SWAP1 REVERT JUMPDEST PUSH0 PUSH20 0xFFFFFFFFFFFFFFFFFFFFFFFFFFFFFFFFFFFFFFFF AND DUP4 PUSH20 0xFFFFFFFFFFFFFFFFFFFFFFFFFFFFFFFFFFFFFFFF AND SUB PUSH2 0xC8B JUMPI PUSH0 PUSH1 0x40 MLOAD PUSH32 0x94280D6200000000000000000000000000000000000000000000000000000000 DUP2 MSTORE PUSH1 0x4 ADD PUSH2 0xC82 SWAP2 SWAP1 PUSH2 0x1AF3 JUMP JUMPDEST PUSH1 0x40 MLOAD DUP1 SWAP2 SUB SWAP1 REVERT JUMPDEST DUP2 PUSH1 0x1 PUSH0 DUP7 PUSH20 0xFFFFFFFFFFFFFFFFFFFFFFFFFFFFFFFFFFFFFFFF AND PUSH20 0xFFFFFFFFFFFFFFFFFFFFFFFFFFFFFFFFFFFFFFFF AND DUP2 MSTORE PUSH1 0x20 ADD SWAP1 DUP2 MSTORE PUSH1 0x20 ADD PUSH0 KECCAK256 PUSH0 DUP6 PUSH20 0xFFFFFFFFFFFFFFFFFFFFFFFFFFFFFFFFFFFFFFFF AND PUSH20 0xFFFFFFFFFFFFFFFFFFFFFFFFFFFFFFFFFFFFFFFF AND DUP2 MSTORE PUSH1 0x20 ADD SWAP1 DUP2 MSTORE PUSH1 0x20 ADD PUSH0 KECCAK256 DUP2 SWAP1 SSTORE POP DUP1 ISZERO PUSH2 0xD74 JUMPI DUP3 PUSH20 0xFFFFFFFFFFFFFFFFFFFFFFFFFFFFFFFFFFFFFFFF AND DUP5 PUSH20 0xFFFFFFFFFFFFFFFFFFFFFFFFFFFFFFFFFFFFFFFF AND PUSH32 0x8C5BE1E5EBEC7D5BD14F71427D1E84F3DD0314C0F7B2291E5B200AC8C7C3B925 DUP5 PUSH1 0x40 MLOAD PUSH2 0xD6B SWAP2 SWAP1 PUSH2 0x15D9 JUMP JUMPDEST PUSH1 0x40 MLOAD DUP1 SWAP2 SUB SWAP1 LOG3 JUMPDEST POP POP POP POP JUMP JUMPDEST PUSH0 PUSH20 0xFFFFFFFFFFFFFFFFFFFFFFFFFFFFFFFFFFFFFFFF AND DUP4 PUSH20 0xFFFFFFFFFFFFFFFFFFFFFFFFFFFFFFFFFFFFFFFF AND SUB PUSH2 0xDCA JUMPI DUP1 PUSH1 0x2 PUSH0 DUP3 DUP3 SLOAD PUSH2 0xDBE SWAP2 SWAP1 PUSH2 0x1B39 JUMP JUMPDEST SWAP3 POP POP DUP2 SWAP1 SSTORE POP PUSH2 0xE98 JUMP JUMPDEST PUSH0 DUP1 PUSH0 DUP6 PUSH20 0xFFFFFFFFFFFFFFFFFFFFFFFFFFFFFFFFFFFFFFFF AND PUSH20 0xFFFFFFFFFFFFFFFFFFFFFFFFFFFFFFFFFFFFFFFF AND DUP2 MSTORE PUSH1 0x20 ADD SWAP1 DUP2 MSTORE PUSH1 0x20 ADD PUSH0 KECCAK256 SLOAD SWAP1 POP DUP2 DUP2 LT ISZERO PUSH2 0xE53 JUMPI DUP4 DUP2 DUP4 PUSH1 0x40 MLOAD PUSH32 0xE450D38C00000000000000000000000000000000000000000000000000000000 DUP2 MSTORE PUSH1 0x4 ADD PUSH2 0xE4A SWAP4 SWAP3 SWAP2 SWAP1 PUSH2 0x1ABE JUMP JUMPDEST PUSH1 0x40 MLOAD DUP1 SWAP2 SUB SWAP1 REVERT JUMPDEST DUP2 DUP2 SUB PUSH0 DUP1 DUP7 PUSH20 0xFFFFFFFFFFFFFFFFFFFFFFFFFFFFFFFFFFFFFFFF AND PUSH20 0xFFFFFFFFFFFFFFFFFFFFFFFFFFFFFFFFFFFFFFFF AND DUP2 MSTORE PUSH1 0x20 ADD SWAP1 DUP2 MSTORE PUSH1 0x20 ADD PUSH0 KECCAK256 DUP2 SWAP1 SSTORE POP POP JUMPDEST PUSH0 PUSH20 0xFFFFFFFFFFFFFFFFFFFFFFFFFFFFFFFFFFFFFFFF AND DUP3 PUSH20 0xFFFFFFFFFFFFFFFFFFFFFFFFFFFFFFFFFFFFFFFF AND SUB PUSH2 0xEDF JUMPI DUP1 PUSH1 0x2 PUSH0 DUP3 DUP3 SLOAD SUB SWAP3 POP POP DUP2 SWAP1 SSTORE POP PUSH2 0xF29 JUMP JUMPDEST DUP1 PUSH0 DUP1 DUP5 PUSH20 0xFFFFFFFFFFFFFFFFFFFFFFFFFFFFFFFFFFFFFFFF AND PUSH20 0xFFFFFFFFFFFFFFFFFFFFFFFFFFFFFFFFFFFFFFFF AND DUP2 MSTORE PUSH1 0x20 ADD SWAP1 DUP2 MSTORE PUSH1 0x20 ADD PUSH0 KECCAK256 PUSH0 DUP3 DUP3 SLOAD ADD SWAP3 POP POP DUP2 SWAP1 SSTORE POP JUMPDEST DUP2 PUSH20 0xFFFFFFFFFFFFFFFFFFFFFFFFFFFFFFFFFFFFFFFF AND DUP4 PUSH20 0xFFFFFFFFFFFFFFFFFFFFFFFFFFFFFFFFFFFFFFFF AND PUSH32 0xDDF252AD1BE2C89B69C2B068FC378DAA952BA7F163C4A11628F55A4DF523B3EF DUP4 PUSH1 0x40 MLOAD PUSH2 0xF86 SWAP2 SWAP1 PUSH2 0x15D9 JUMP JUMPDEST PUSH1 0x40 MLOAD DUP1 SWAP2 SUB SWAP1 LOG3 POP POP POP JUMP JUMPDEST PUSH0 PUSH32 0x8B73C3C69BB8FE3D512ECC4CF759CC79239F7B179B0FFACAA9A75D522B39400F PUSH32 0x0 PUSH32 0x0 CHAINID ADDRESS PUSH1 0x40 MLOAD PUSH1 0x20 ADD PUSH2 0x100D SWAP6 SWAP5 SWAP4 SWAP3 SWAP2 SWAP1 PUSH2 0x1B6C JUMP JUMPDEST PUSH1 0x40 MLOAD PUSH1 0x20 DUP2 DUP4 SUB SUB DUP2 MSTORE SWAP1 PUSH1 0x40 MSTORE DUP1 MLOAD SWAP1 PUSH1 0x20 ADD KECCAK256 SWAP1 POP SWAP1 JUMP JUMPDEST PUSH1 0x60 PUSH1 0xFF PUSH0 SHL DUP4 EQ PUSH2 0x1044 JUMPI PUSH2 0x103D DUP4 PUSH2 0x135E JUMP JUMPDEST SWAP1 POP PUSH2 0x10CF JUMP JUMPDEST DUP2 DUP1 SLOAD PUSH2 0x1050 SWAP1 PUSH2 0x19DB JUMP JUMPDEST DUP1 PUSH1 0x1F ADD PUSH1 0x20 DUP1 SWAP2 DIV MUL PUSH1 0x20 ADD PUSH1 0x40 MLOAD SWAP1 DUP2 ADD PUSH1 0x40 MSTORE DUP1 SWAP3 SWAP2 SWAP1 DUP2 DUP2 MSTORE PUSH1 0x20 ADD DUP3 DUP1 SLOAD PUSH2 0x107C SWAP1 PUSH2 0x19DB JUMP JUMPDEST DUP1 ISZERO PUSH2 0x10C7 JUMPI DUP1 PUSH1 0x1F LT PUSH2 0x109E JUMPI PUSH2 0x100 DUP1 DUP4 SLOAD DIV MUL DUP4 MSTORE SWAP2 PUSH1 0x20 ADD SWAP2 PUSH2 0x10C7 JUMP JUMPDEST DUP3 ADD SWAP2 SWAP1 PUSH0 MSTORE PUSH1 0x20 PUSH0 KECCAK256 SWAP1 JUMPDEST DUP2 SLOAD DUP2 MSTORE SWAP1 PUSH1 0x1 ADD SWAP1 PUSH1 0x20 ADD DUP1 DUP4 GT PUSH2 0x10AA JUMPI DUP3 SWAP1 SUB PUSH1 0x1F AND DUP3 ADD SWAP2 JUMPDEST POP POP POP POP POP SWAP1 POP JUMPDEST SWAP3 SWAP2 POP POP JUMP JUMPDEST PUSH0 PUSH1 0x40 MLOAD PUSH32 0x1901000000000000000000000000000000000000000000000000000000000000 DUP2 MSTORE DUP4 PUSH1 0x2 DUP3 ADD MSTORE DUP3 PUSH1 0x22 DUP3 ADD MSTORE PUSH1 0x42 DUP2 KECCAK256 SWAP2 POP POP SWAP3 SWAP2 POP POP JUMP JUMPDEST PUSH0 DUP1 PUSH0 PUSH32 0x7FFFFFFFFFFFFFFFFFFFFFFFFFFFFFFF5D576E7357A4501DDFE92F46681B20A0 DUP5 PUSH0 SHR GT ISZERO PUSH2 0x1151 JUMPI PUSH0 PUSH1 0x3 DUP6 SWAP3 POP SWAP3 POP SWAP3 POP PUSH2 0x11F2 JUMP JUMPDEST PUSH0 PUSH1 0x1 DUP9 DUP9 DUP9 DUP9 PUSH1 0x40 MLOAD PUSH0 DUP2 MSTORE PUSH1 0x20 ADD PUSH1 0x40 MSTORE PUSH1 0x40 MLOAD PUSH2 0x1174 SWAP5 SWAP4 SWAP3 SWAP2 SWAP1 PUSH2 0x1BBD JUMP JUMPDEST PUSH1 0x20 PUSH1 0x40 MLOAD PUSH1 0x20 DUP2 SUB SWAP1 DUP1 DUP5 SUB SWAP1 DUP6 GAS STATICCALL ISZERO DUP1 ISZERO PUSH2 0x1194 JUMPI RETURNDATASIZE PUSH0 DUP1 RETURNDATACOPY RETURNDATASIZE PUSH0 REVERT JUMPDEST POP POP POP PUSH1 0x20 PUSH1 0x40 MLOAD SUB MLOAD SWAP1 POP PUSH0 PUSH20 0xFFFFFFFFFFFFFFFFFFFFFFFFFFFFFFFFFFFFFFFF AND DUP2 PUSH20 0xFFFFFFFFFFFFFFFFFFFFFFFFFFFFFFFFFFFFFFFF AND SUB PUSH2 0x11E5 JUMPI PUSH0 PUSH1 0x1 PUSH0 DUP1 SHL SWAP4 POP SWAP4 POP SWAP4 POP POP PUSH2 0x11F2 JUMP JUMPDEST DUP1 PUSH0 DUP1 PUSH0 SHL SWAP4 POP SWAP4 POP SWAP4 POP POP JUMPDEST SWAP5 POP SWAP5 POP SWAP5 SWAP2 POP POP JUMP JUMPDEST PUSH0 PUSH1 0x3 DUP2 GT ISZERO PUSH2 0x120F JUMPI PUSH2 0x120E PUSH2 0x1C00 JUMP JUMPDEST JUMPDEST DUP3 PUSH1 0x3 DUP2 GT ISZERO PUSH2 0x1222 JUMPI PUSH2 0x1221 PUSH2 0x1C00 JUMP JUMPDEST JUMPDEST SUB ISZERO PUSH2 0x135A JUMPI PUSH1 0x1 PUSH1 0x3 DUP2 GT ISZERO PUSH2 0x123C JUMPI PUSH2 0x123B PUSH2 0x1C00 JUMP JUMPDEST JUMPDEST DUP3 PUSH1 0x3 DUP2 GT ISZERO PUSH2 0x124F JUMPI PUSH2 0x124E PUSH2 0x1C00 JUMP JUMPDEST JUMPDEST SUB PUSH2 0x1286 JUMPI PUSH1 0x40 MLOAD PUSH32 0xF645EEDF00000000000000000000000000000000000000000000000000000000 DUP2 MSTORE PUSH1 0x4 ADD PUSH1 0x40 MLOAD DUP1 SWAP2 SUB SWAP1 REVERT JUMPDEST PUSH1 0x2 PUSH1 0x3 DUP2 GT ISZERO PUSH2 0x129A JUMPI PUSH2 0x1299 PUSH2 0x1C00 JUMP JUMPDEST JUMPDEST DUP3 PUSH1 0x3 DUP2 GT ISZERO PUSH2 0x12AD JUMPI PUSH2 0x12AC PUSH2 0x1C00 JUMP JUMPDEST JUMPDEST SUB PUSH2 0x12F1 JUMPI DUP1 PUSH0 SHR PUSH1 0x40 MLOAD PUSH32 0xFCE698F700000000000000000000000000000000000000000000000000000000 DUP2 MSTORE PUSH1 0x4 ADD PUSH2 0x12E8 SWAP2 SWAP1 PUSH2 0x15D9 JUMP JUMPDEST PUSH1 0x40 MLOAD DUP1 SWAP2 SUB SWAP1 REVERT JUMPDEST PUSH1 0x3 DUP1 DUP2 GT ISZERO PUSH2 0x1304 JUMPI PUSH2 0x1303 PUSH2 0x1C00 JUMP JUMPDEST JUMPDEST DUP3 PUSH1 0x3 DUP2 GT ISZERO PUSH2 0x1317 JUMPI PUSH2 0x1316 PUSH2 0x1C00 JUMP JUMPDEST JUMPDEST SUB PUSH2 0x1359 JUMPI DUP1 PUSH1 0x40 MLOAD PUSH32 0xD78BCE0C00000000000000000000000000000000000000000000000000000000 DUP2 MSTORE PUSH1 0x4 ADD PUSH2 0x1350 SWAP2 SWAP1 PUSH2 0x168E JUMP JUMPDEST PUSH1 0x40 MLOAD DUP1 SWAP2 SUB SWAP1 REVERT JUMPDEST JUMPDEST POP POP JUMP JUMPDEST PUSH1 0x60 PUSH0 PUSH2 0x136A DUP4 PUSH2 0x13D0 JUMP JUMPDEST SWAP1 POP PUSH0 PUSH1 0x20 PUSH8 0xFFFFFFFFFFFFFFFF DUP2 GT ISZERO PUSH2 0x1388 JUMPI PUSH2 0x1387 PUSH2 0x1A0B JUMP JUMPDEST JUMPDEST PUSH1 0x40 MLOAD SWAP1 DUP1 DUP3 MSTORE DUP1 PUSH1 0x1F ADD PUSH1 0x1F NOT AND PUSH1 0x20 ADD DUP3 ADD PUSH1 0x40 MSTORE DUP1 ISZERO PUSH2 0x13BA JUMPI DUP2 PUSH1 0x20 ADD PUSH1 0x1 DUP3 MUL DUP1 CALLDATASIZE DUP4 CALLDATACOPY DUP1 DUP3 ADD SWAP2 POP POP SWAP1 POP JUMPDEST POP SWAP1 POP DUP2 DUP2 MSTORE DUP4 PUSH1 0x20 DUP3 ADD MSTORE DUP1 SWAP3 POP POP POP SWAP2 SWAP1 POP JUMP JUMPDEST PUSH0 DUP1 PUSH1 0xFF DUP4 PUSH0 SHR AND SWAP1 POP PUSH1 0x1F DUP2 GT ISZERO PUSH2 0x1415 JUMPI PUSH1 0x40 MLOAD PUSH32 0xB3512B0C00000000000000000000000000000000000000000000000000000000 DUP2 MSTORE PUSH1 0x4 ADD PUSH1 0x40 MLOAD DUP1 SWAP2 SUB SWAP1 REVERT JUMPDEST DUP1 SWAP2 POP POP SWAP2 SWAP1 POP JUMP JUMPDEST PUSH0 DUP2 MLOAD SWAP1 POP SWAP2 SWAP1 POP JUMP JUMPDEST PUSH0 DUP3 DUP3 MSTORE PUSH1 0x20 DUP3 ADD SWAP1 POP SWAP3 SWAP2 POP POP JUMP JUMPDEST PUSH0 JUMPDEST DUP4 DUP2 LT ISZERO PUSH2 0x1455 JUMPI DUP1 DUP3 ADD MLOAD DUP2 DUP5 ADD MSTORE PUSH1 0x20 DUP2 ADD SWAP1 POP PUSH2 0x143A JUMP JUMPDEST PUSH0 DUP5 DUP5 ADD MSTORE POP POP POP POP JUMP JUMPDEST PUSH0 PUSH1 0x1F NOT PUSH1 0x1F DUP4 ADD AND SWAP1 POP SWAP2 SWAP1 POP JUMP JUMPDEST PUSH0 PUSH2 0x147A DUP3 PUSH2 0x141E JUMP JUMPDEST PUSH2 0x1484 DUP2 DUP6 PUSH2 0x1428 JUMP JUMPDEST SWAP4 POP PUSH2 0x1494 DUP2 DUP6 PUSH1 0x20 DUP7 ADD PUSH2 0x1438 JUMP JUMPDEST PUSH2 0x149D DUP2 PUSH2 0x1460 JUMP JUMPDEST DUP5 ADD SWAP2 POP POP SWAP3 SWAP2 POP POP JUMP JUMPDEST PUSH0 PUSH1 0x20 DUP3 ADD SWAP1 POP DUP2 DUP2 SUB PUSH0 DUP4 ADD MSTORE PUSH2 0x14C0 DUP2 DUP5 PUSH2 0x1470 JUMP JUMPDEST SWAP1 POP SWAP3 SWAP2 POP POP JUMP JUMPDEST PUSH0 DUP1 REVERT JUMPDEST PUSH0 PUSH20 0xFFFFFFFFFFFFFFFFFFFFFFFFFFFFFFFFFFFFFFFF DUP3 AND SWAP1 POP SWAP2 SWAP1 POP JUMP JUMPDEST PUSH0 PUSH2 0x14F5 DUP3 PUSH2 0x14CC JUMP JUMPDEST SWAP1 POP SWAP2 SWAP1 POP JUMP JUMPDEST PUSH2 0x1505 DUP2 PUSH2 0x14EB JUMP JUMPDEST DUP2 EQ PUSH2 0x150F JUMPI PUSH0 DUP1 REVERT JUMPDEST POP JUMP JUMPDEST PUSH0 DUP2 CALLDATALOAD SWAP1 POP PUSH2 0x1520 DUP2 PUSH2 0x14FC JUMP JUMPDEST SWAP3 SWAP2 POP POP JUMP JUMPDEST PUSH0 DUP2 SWAP1 POP SWAP2 SWAP1 POP JUMP JUMPDEST PUSH2 0x1538 DUP2 PUSH2 0x1526 JUMP JUMPDEST DUP2 EQ PUSH2 0x1542 JUMPI PUSH0 DUP1 REVERT JUMPDEST POP JUMP JUMPDEST PUSH0 DUP2 CALLDATALOAD SWAP1 POP PUSH2 0x1553 DUP2 PUSH2 0x152F JUMP JUMPDEST SWAP3 SWAP2 POP POP JUMP JUMPDEST PUSH0 DUP1 PUSH1 0x40 DUP4 DUP6 SUB SLT ISZERO PUSH2 0x156F JUMPI PUSH2 0x156E PUSH2 0x14C8 JUMP JUMPDEST JUMPDEST PUSH0 PUSH2 0x157C DUP6 DUP3 DUP7 ADD PUSH2 0x1512 JUMP JUMPDEST SWAP3 POP POP PUSH1 0x20 PUSH2 0x158D DUP6 DUP3 DUP7 ADD PUSH2 0x1545 JUMP JUMPDEST SWAP2 POP POP SWAP3 POP SWAP3 SWAP1 POP JUMP JUMPDEST PUSH0 DUP2 ISZERO ISZERO SWAP1 POP SWAP2 SWAP1 POP JUMP JUMPDEST PUSH2 0x15AB DUP2 PUSH2 0x1597 JUMP JUMPDEST DUP3 MSTORE POP POP JUMP JUMPDEST PUSH0 PUSH1 0x20 DUP3 ADD SWAP1 POP PUSH2 0x15C4 PUSH0 DUP4 ADD DUP5 PUSH2 0x15A2 JUMP JUMPDEST SWAP3 SWAP2 POP POP JUMP JUMPDEST PUSH2 0x15D3 DUP2 PUSH2 0x1526 JUMP JUMPDEST DUP3 MSTORE POP POP JUMP JUMPDEST PUSH0 PUSH1 0x20 DUP3 ADD SWAP1 POP PUSH2 0x15EC PUSH0 DUP4 ADD DUP5 PUSH2 0x15CA JUMP JUMPDEST SWAP3 SWAP2 POP POP JUMP JUMPDEST PUSH0 DUP1 PUSH0 PUSH1 0x60 DUP5 DUP7 SUB SLT ISZERO PUSH2 0x1609 JUMPI PUSH2 0x1608 PUSH2 0x14C8 JUMP JUMPDEST JUMPDEST PUSH0 PUSH2 0x1616 DUP7 DUP3 DUP8 ADD PUSH2 0x1512 JUMP JUMPDEST SWAP4 POP POP PUSH1 0x20 PUSH2 0x1627 DUP7 DUP3 DUP8 ADD PUSH2 0x1512 JUMP JUMPDEST SWAP3 POP POP PUSH1 0x40 PUSH2 0x1638 DUP7 DUP3 DUP8 ADD PUSH2 0x1545 JUMP JUMPDEST SWAP2 POP POP SWAP3 POP SWAP3 POP SWAP3 JUMP JUMPDEST PUSH0 PUSH1 0xFF DUP3 AND SWAP1 POP SWAP2 SWAP1 POP JUMP JUMPDEST PUSH2 0x1657 DUP2 PUSH2 0x1642 JUMP JUMPDEST DUP3 MSTORE POP POP JUMP JUMPDEST PUSH0 PUSH1 0x20 DUP3 ADD SWAP1 POP PUSH2 0x1670 PUSH0 DUP4 ADD DUP5 PUSH2 0x164E JUMP JUMPDEST SWAP3 SWAP2 POP POP JUMP JUMPDEST PUSH0 DUP2 SWAP1 POP SWAP2 SWAP1 POP JUMP JUMPDEST PUSH2 0x1688 DUP2 PUSH2 0x1676 JUMP JUMPDEST DUP3 MSTORE POP POP JUMP JUMPDEST PUSH0 PUSH1 0x20 DUP3 ADD SWAP1 POP PUSH2 0x16A1 PUSH0 DUP4 ADD DUP5 PUSH2 0x167F JUMP JUMPDEST SWAP3 SWAP2 POP POP JUMP JUMPDEST PUSH0 PUSH1 0x20 DUP3 DUP5 SUB SLT ISZERO PUSH2 0x16BC JUMPI PUSH2 0x16BB PUSH2 0x14C8 JUMP JUMPDEST JUMPDEST PUSH0 PUSH2 0x16C9 DUP5 DUP3 DUP6 ADD PUSH2 0x1545 JUMP JUMPDEST SWAP2 POP POP SWAP3 SWAP2 POP POP JUMP JUMPDEST PUSH0 PUSH1 0x20 DUP3 DUP5 SUB SLT ISZERO PUSH2 0x16E7 JUMPI PUSH2 0x16E6 PUSH2 0x14C8 JUMP JUMPDEST JUMPDEST PUSH0 PUSH2 0x16F4 DUP5 DUP3 DUP6 ADD PUSH2 0x1512 JUMP JUMPDEST SWAP2 POP POP SWAP3 SWAP2 POP POP JUMP JUMPDEST PUSH0 PUSH32 0xFF00000000000000000000000000000000000000000000000000000000000000 DUP3 AND SWAP1 POP SWAP2 SWAP1 POP JUMP JUMPDEST PUSH2 0x1731 DUP2 PUSH2 0x16FD JUMP JUMPDEST DUP3 MSTORE POP POP JUMP JUMPDEST PUSH2 0x1740 DUP2 PUSH2 0x14EB JUMP JUMPDEST DUP3 MSTORE POP POP JUMP JUMPDEST PUSH0 DUP2 MLOAD SWAP1 POP SWAP2 SWAP1 POP JUMP JUMPDEST PUSH0 DUP3 DUP3 MSTORE PUSH1 0x20 DUP3 ADD SWAP1 POP SWAP3 SWAP2 POP POP JUMP JUMPDEST PUSH0 DUP2 SWAP1 POP PUSH1 0x20 DUP3 ADD SWAP1 POP SWAP2 SWAP1 POP JUMP JUMPDEST PUSH2 0x1778 DUP2 PUSH2 0x1526 JUMP JUMPDEST DUP3 MSTORE POP POP JUMP JUMPDEST PUSH0 PUSH2 0x1789 DUP4 DUP4 PUSH2 0x176F JUMP JUMPDEST PUSH1 0x20 DUP4 ADD SWAP1 POP SWAP3 SWAP2 POP POP JUMP JUMPDEST PUSH0 PUSH1 0x20 DUP3 ADD SWAP1 POP SWAP2 SWAP1 POP JUMP JUMPDEST PUSH0 PUSH2 0x17AB DUP3 PUSH2 0x1746 JUMP JUMPDEST PUSH2 0x17B5 DUP2 DUP6 PUSH2 0x1750 JUMP JUMPDEST SWAP4 POP PUSH2 0x17C0 DUP4 PUSH2 0x1760 JUMP JUMPDEST DUP1 PUSH0 JUMPDEST DUP4 DUP2 LT ISZERO PUSH2 0x17F0 JUMPI DUP2 MLOAD PUSH2 0x17D7 DUP9 DUP3 PUSH2 0x177E JUMP JUMPDEST SWAP8 POP PUSH2 0x17E2 DUP4 PUSH2 0x1795 JUMP JUMPDEST SWAP3 POP POP PUSH1 0x1 DUP2 ADD SWAP1 POP PUSH2 0x17C3 JUMP JUMPDEST POP DUP6 SWAP4 POP POP POP POP SWAP3 SWAP2 POP POP JUMP JUMPDEST PUSH0 PUSH1 0xE0 DUP3 ADD SWAP1 POP PUSH2 0x1810 PUSH0 DUP4 ADD DUP11 PUSH2 0x1728 JUMP JUMPDEST DUP2 DUP2 SUB PUSH1 0x20 DUP4 ADD MSTORE PUSH2 0x1822 DUP2 DUP10 PUSH2 0x1470 JUMP JUMPDEST SWAP1 POP DUP2 DUP2 SUB PUSH1 0x40 DUP4 ADD MSTORE PUSH2 0x1836 DUP2 DUP9 PUSH2 0x1470 JUMP JUMPDEST SWAP1 POP PUSH2 0x1845 PUSH1 0x60 DUP4 ADD DUP8 PUSH2 0x15CA JUMP JUMPDEST PUSH2 0x1852 PUSH1 0x80 DUP4 ADD DUP7 PUSH2 0x1737 JUMP JUMPDEST PUSH2 0x185F PUSH1 0xA0 DUP4 ADD DUP6 PUSH2 0x167F JUMP JUMPDEST DUP2 DUP2 SUB PUSH1 0xC0 DUP4 ADD MSTORE PUSH2 0x1871 DUP2 DUP5 PUSH2 0x17A1 JUMP JUMPDEST SWAP1 POP SWAP9 SWAP8 POP POP POP POP POP POP POP POP JUMP JUMPDEST PUSH2 0x1888 DUP2 PUSH2 0x1642 JUMP JUMPDEST DUP2 EQ PUSH2 0x1892 JUMPI PUSH0 DUP1 REVERT JUMPDEST POP JUMP JUMPDEST PUSH0 DUP2 CALLDATALOAD SWAP1 POP PUSH2 0x18A3 DUP2 PUSH2 0x187F JUMP JUMPDEST SWAP3 SWAP2 POP POP JUMP JUMPDEST PUSH2 0x18B2 DUP2 PUSH2 0x1676 JUMP JUMPDEST DUP2 EQ PUSH2 0x18BC JUMPI PUSH0 DUP1 REVERT JUMPDEST POP JUMP JUMPDEST PUSH0 DUP2 CALLDATALOAD SWAP1 POP PUSH2 0x18CD DUP2 PUSH2 0x18A9 JUMP JUMPDEST SWAP3 SWAP2 POP POP JUMP JUMPDEST PUSH0 DUP1 PUSH0 DUP1 PUSH0 DUP1 PUSH0 PUSH1 0xE0 DUP9 DUP11 SUB SLT ISZERO PUSH2 0x18EE JUMPI PUSH2 0x18ED PUSH2 0x14C8 JUMP JUMPDEST JUMPDEST PUSH0 PUSH2 0x18FB DUP11 DUP3 DUP12 ADD PUSH2 0x1512 JUMP JUMPDEST SWAP8 POP POP PUSH1 0x20 PUSH2 0x190C DUP11 DUP3 DUP12 ADD PUSH2 0x1512 JUMP JUMPDEST SWAP7 POP POP PUSH1 0x40 PUSH2 0x191D DUP11 DUP3 DUP12 ADD PUSH2 0x1545 JUMP JUMPDEST SWAP6 POP POP PUSH1 0x60 PUSH2 0x192E DUP11 DUP3 DUP12 ADD PUSH2 0x1545 JUMP JUMPDEST SWAP5 POP POP PUSH1 0x80 PUSH2 0x193F DUP11 DUP3 DUP12 ADD PUSH2 0x1895 JUMP JUMPDEST SWAP4 POP POP PUSH1 0xA0 PUSH2 0x1950 DUP11 DUP3 DUP12 ADD PUSH2 0x18BF JUMP JUMPDEST SWAP3 POP POP PUSH1 0xC0 PUSH2 0x1961 DUP11 DUP3 DUP12 ADD PUSH2 0x18BF JUMP JUMPDEST SWAP2 POP POP SWAP3 SWAP6 SWAP9 SWAP2 SWAP5 SWAP8 POP SWAP3 SWAP6 POP JUMP JUMPDEST PUSH0 DUP1 PUSH1 0x40 DUP4 DUP6 SUB SLT ISZERO PUSH2 0x1986 JUMPI PUSH2 0x1985 PUSH2 0x14C8 JUMP JUMPDEST JUMPDEST PUSH0 PUSH2 0x1993 DUP6 DUP3 DUP7 ADD PUSH2 0x1512 JUMP JUMPDEST SWAP3 POP POP PUSH1 0x20 PUSH2 0x19A4 DUP6 DUP3 DUP7 ADD PUSH2 0x1512 JUMP JUMPDEST SWAP2 POP POP SWAP3 POP SWAP3 SWAP1 POP JUMP JUMPDEST PUSH32 0x4E487B7100000000000000000000000000000000000000000000000000000000 PUSH0 MSTORE PUSH1 0x22 PUSH1 0x4 MSTORE PUSH1 0x24 PUSH0 REVERT JUMPDEST PUSH0 PUSH1 0x2 DUP3 DIV SWAP1 POP PUSH1 0x1 DUP3 AND DUP1 PUSH2 0x19F2 JUMPI PUSH1 0x7F DUP3 AND SWAP2 POP JUMPDEST PUSH1 0x20 DUP3 LT DUP2 SUB PUSH2 0x1A05 JUMPI PUSH2 0x1A04 PUSH2 0x19AE JUMP JUMPDEST JUMPDEST POP SWAP2 SWAP1 POP JUMP JUMPDEST PUSH32 0x4E487B7100000000000000000000000000000000000000000000000000000000 PUSH0 MSTORE PUSH1 0x41 PUSH1 0x4 MSTORE PUSH1 0x24 PUSH0 REVERT JUMPDEST PUSH0 PUSH1 0xC0 DUP3 ADD SWAP1 POP PUSH2 0x1A4B PUSH0 DUP4 ADD DUP10 PUSH2 0x167F JUMP JUMPDEST PUSH2 0x1A58 PUSH1 0x20 DUP4 ADD DUP9 PUSH2 0x1737 JUMP JUMPDEST PUSH2 0x1A65 PUSH1 0x40 DUP4 ADD DUP8 PUSH2 0x1737 JUMP JUMPDEST PUSH2 0x1A72 PUSH1 0x60 DUP4 ADD DUP7 PUSH2 0x15CA JUMP JUMPDEST PUSH2 0x1A7F PUSH1 0x80 DUP4 ADD DUP6 PUSH2 0x15CA JUMP JUMPDEST PUSH2 0x1A8C PUSH1 0xA0 DUP4 ADD DUP5 PUSH2 0x15CA JUMP JUMPDEST SWAP8 SWAP7 POP POP POP POP POP POP POP JUMP JUMPDEST PUSH0 PUSH1 0x40 DUP3 ADD SWAP1 POP PUSH2 0x1AAA PUSH0 DUP4 ADD DUP6 PUSH2 0x1737 JUMP JUMPDEST PUSH2 0x1AB7 PUSH1 0x20 DUP4 ADD DUP5 PUSH2 0x1737 JUMP JUMPDEST SWAP4 SWAP3 POP POP POP JUMP JUMPDEST PUSH0 PUSH1 0x60 DUP3 ADD SWAP1 POP PUSH2 0x1AD1 PUSH0 DUP4 ADD DUP7 PUSH2 0x1737 JUMP JUMPDEST PUSH2 0x1ADE PUSH1 0x20 DUP4 ADD DUP6 PUSH2 0x15CA JUMP JUMPDEST PUSH2 0x1AEB PUSH1 0x40 DUP4 ADD DUP5 PUSH2 0x15CA JUMP JUMPDEST SWAP5 SWAP4 POP POP POP POP JUMP JUMPDEST PUSH0 PUSH1 0x20 DUP3 ADD SWAP1 POP PUSH2 0x1B06 PUSH0 DUP4 ADD DUP5 PUSH2 0x1737 JUMP JUMPDEST SWAP3 SWAP2 POP POP JUMP JUMPDEST PUSH32 0x4E487B7100000000000000000000000000000000000000000000000000000000 PUSH0 MSTORE PUSH1 0x11 PUSH1 0x4 MSTORE PUSH1 0x24 PUSH0 REVERT JUMPDEST PUSH0 PUSH2 0x1B43 DUP3 PUSH2 0x1526 JUMP JUMPDEST SWAP2 POP PUSH2 0x1B4E DUP4 PUSH2 0x1526 JUMP JUMPDEST SWAP3 POP DUP3 DUP3 ADD SWAP1 POP DUP1 DUP3 GT ISZERO PUSH2 0x1B66 JUMPI PUSH2 0x1B65 PUSH2 0x1B0C JUMP JUMPDEST JUMPDEST SWAP3 SWAP2 POP POP JUMP JUMPDEST PUSH0 PUSH1 0xA0 DUP3 ADD SWAP1 POP PUSH2 0x1B7F PUSH0 DUP4 ADD DUP9 PUSH2 0x167F JUMP JUMPDEST PUSH2 0x1B8C PUSH1 0x20 DUP4 ADD DUP8 PUSH2 0x167F JUMP JUMPDEST PUSH2 0x1B99 PUSH1 0x40 DUP4 ADD DUP7 PUSH2 0x167F JUMP JUMPDEST PUSH2 0x1BA6 PUSH1 0x60 DUP4 ADD DUP6 PUSH2 0x15CA JUMP JUMPDEST PUSH2 0x1BB3 PUSH1 0x80 DUP4 ADD DUP5 PUSH2 0x1737 JUMP JUMPDEST SWAP7 SWAP6 POP POP POP POP POP POP JUMP JUMPDEST PUSH0 PUSH1 0x80 DUP3 ADD SWAP1 POP PUSH2 0x1BD0 PUSH0 DUP4 ADD DUP8 PUSH2 0x167F JUMP JUMPDEST PUSH2 0x1BDD PUSH1 0x20 DUP4 ADD DUP7 PUSH2 0x164E JUMP JUMPDEST PUSH2 0x1BEA PUSH1 0x40 DUP4 ADD DUP6 PUSH2 0x167F JUMP JUMPDEST PUSH2 0x1BF7 PUSH1 0x60 DUP4 ADD DUP5 PUSH2 0x167F JUMP JUMPDEST SWAP6 SWAP5 POP POP POP POP POP JUMP JUMPDEST PUSH32 0x4E487B7100000000000000000000000000000000000000000000000000000000 PUSH0 MSTORE PUSH1 0x21 PUSH1 0x4 MSTORE PUSH1 0x24 PUSH0 REVERT INVALID LOG2 PUSH5 0x6970667358 0x22 SLT KECCAK256 0xDF DUP8 SWAP8 OR 0x4C 0x2C 0xC0 SLOAD 0xD6 PUSH0 0xB3 DUP10 DUP13 SWAP15 CALLDATACOPY PUSH14 0x2A0C4A39E8BA6AEB188CF9727F8A PUSH4 0x2C64736F PUSH13 0x63430008180033000000000000 "
				},
				"gasEstimates": {
					"creation": {
						"codeDepositCost": "1453400",
						"executionCost": "infinite",
						"totalCost": "infinite"
					},
					"external": {
						"DOMAIN_SEPARATOR()": "infinite",
						"allowance(address,address)": "infinite",
						"approve(address,uint256)": "infinite",
						"balanceOf(address)": "2852",
						"burn(uint256)": "infinite",
						"decimals()": "383",
						"eip712Domain()": "infinite",
						"name()": "infinite",
						"nonces(address)": "2916",
						"permit(address,address,uint256,uint256,uint8,bytes32,bytes32)": "infinite",
						"symbol()": "infinite",
						"totalSupply()": "2500",
						"transfer(address,uint256)": "infinite",
						"transferFrom(address,address,uint256)": "infinite"
					}
				},
				"methodIdentifiers": {
					"DOMAIN_SEPARATOR()": "3644e515",
					"allowance(address,address)": "dd62ed3e",
					"approve(address,uint256)": "095ea7b3",
					"balanceOf(address)": "70a08231",
					"burn(uint256)": "42966c68",
					"decimals()": "313ce567",
					"eip712Domain()": "84b0196e",
					"name()": "06fdde03",
					"nonces(address)": "7ecebe00",
					"permit(address,address,uint256,uint256,uint8,bytes32,bytes32)": "d505accf",
					"symbol()": "95d89b41",
					"totalSupply()": "18160ddd",
					"transfer(address,uint256)": "a9059cbb",
					"transferFrom(address,address,uint256)": "23b872dd"
				}
			},
			"storageLayout": {
				"storage": [
					{
						"astId": 184,
						"contract": "contracts/MAZZE.sol:MAZZE",
						"label": "_balances",
						"offset": 0,
						"slot": "0",
						"type": "t_mapping(t_address,t_uint256)"
					},
					{
						"astId": 190,
						"contract": "contracts/MAZZE.sol:MAZZE",
						"label": "_allowances",
						"offset": 0,
						"slot": "1",
						"type": "t_mapping(t_address,t_mapping(t_address,t_uint256))"
					},
					{
						"astId": 192,
						"contract": "contracts/MAZZE.sol:MAZZE",
						"label": "_totalSupply",
						"offset": 0,
						"slot": "2",
						"type": "t_uint256"
					},
					{
						"astId": 194,
						"contract": "contracts/MAZZE.sol:MAZZE",
						"label": "_name",
						"offset": 0,
						"slot": "3",
						"type": "t_string_storage"
					},
					{
						"astId": 196,
						"contract": "contracts/MAZZE.sol:MAZZE",
						"label": "_symbol",
						"offset": 0,
						"slot": "4",
						"type": "t_string_storage"
					},
					{
						"astId": 2060,
						"contract": "contracts/MAZZE.sol:MAZZE",
						"label": "_nameFallback",
						"offset": 0,
						"slot": "5",
						"type": "t_string_storage"
					},
					{
						"astId": 2062,
						"contract": "contracts/MAZZE.sol:MAZZE",
						"label": "_versionFallback",
						"offset": 0,
						"slot": "6",
						"type": "t_string_storage"
					},
					{
						"astId": 1039,
						"contract": "contracts/MAZZE.sol:MAZZE",
						"label": "_nonces",
						"offset": 0,
						"slot": "7",
						"type": "t_mapping(t_address,t_uint256)"
					},
					{
						"astId": 3503,
						"contract": "contracts/MAZZE.sol:MAZZE",
						"label": "_totalSupply",
						"offset": 0,
						"slot": "8",
						"type": "t_uint256"
					},
					{
						"astId": 3511,
						"contract": "contracts/MAZZE.sol:MAZZE",
						"label": "_ecosystemDevelopment",
						"offset": 0,
						"slot": "9",
						"type": "t_uint256"
					},
					{
						"astId": 3519,
						"contract": "contracts/MAZZE.sol:MAZZE",
						"label": "_teamGrowth",
						"offset": 0,
						"slot": "10",
						"type": "t_uint256"
					},
					{
						"astId": 3527,
						"contract": "contracts/MAZZE.sol:MAZZE",
						"label": "_communityEngagement",
						"offset": 0,
						"slot": "11",
						"type": "t_uint256"
					},
					{
						"astId": 3535,
						"contract": "contracts/MAZZE.sol:MAZZE",
						"label": "_marketingPromotion",
						"offset": 0,
						"slot": "12",
						"type": "t_uint256"
					},
					{
						"astId": 3548,
						"contract": "contracts/MAZZE.sol:MAZZE",
						"label": "_remainingTokens",
						"offset": 0,
						"slot": "13",
						"type": "t_uint256"
					}
				],
				"types": {
					"t_address": {
						"encoding": "inplace",
						"label": "address",
						"numberOfBytes": "20"
					},
					"t_mapping(t_address,t_mapping(t_address,t_uint256))": {
						"encoding": "mapping",
						"key": "t_address",
						"label": "mapping(address => mapping(address => uint256))",
						"numberOfBytes": "32",
						"value": "t_mapping(t_address,t_uint256)"
					},
					"t_mapping(t_address,t_uint256)": {
						"encoding": "mapping",
						"key": "t_address",
						"label": "mapping(address => uint256)",
						"numberOfBytes": "32",
						"value": "t_uint256"
					},
					"t_string_storage": {
						"encoding": "bytes",
						"label": "string",
						"numberOfBytes": "32"
					},
					"t_uint256": {
						"encoding": "inplace",
						"label": "uint256",
						"numberOfBytes": "32"
					}
				}
			},
			"userdoc": {
				"kind": "user",
				"methods": {},
				"version": 1
			}
		}
	}
}